{
	"contracts/ChainlInkFunctions.sol": {
		"BeerConsumer": {
			"abi": [
				{
					"inputs": [],
					"stateMutability": "nonpayable",
					"type": "constructor"
				},
				{
					"inputs": [],
					"name": "EmptySource",
					"type": "error"
				},
				{
					"inputs": [],
					"name": "NoInlineSecrets",
					"type": "error"
				},
				{
					"inputs": [],
					"name": "OnlyRouterCanFulfill",
					"type": "error"
				},
				{
					"anonymous": false,
					"inputs": [
						{
							"indexed": true,
							"internalType": "bytes32",
							"name": "id",
							"type": "bytes32"
						}
					],
					"name": "RequestFulfilled",
					"type": "event"
				},
				{
					"anonymous": false,
					"inputs": [
						{
							"indexed": true,
							"internalType": "bytes32",
							"name": "id",
							"type": "bytes32"
						}
					],
					"name": "RequestSent",
					"type": "event"
				},
				{
					"inputs": [
						{
							"internalType": "bytes32",
							"name": "requestId",
							"type": "bytes32"
						},
						{
							"internalType": "bytes",
							"name": "response",
							"type": "bytes"
						},
						{
							"internalType": "bytes",
							"name": "err",
							"type": "bytes"
						}
					],
					"name": "handleOracleFulfillment",
					"outputs": [],
					"stateMutability": "nonpayable",
					"type": "function"
				},
				{
					"inputs": [],
					"name": "lastBeerName",
					"outputs": [
						{
							"internalType": "string",
							"name": "",
							"type": "string"
						}
					],
					"stateMutability": "view",
					"type": "function"
				},
				{
					"inputs": [],
					"name": "lastError",
					"outputs": [
						{
							"internalType": "bytes",
							"name": "",
							"type": "bytes"
						}
					],
					"stateMutability": "view",
					"type": "function"
				},
				{
					"inputs": [],
					"name": "lastRequestId",
					"outputs": [
						{
							"internalType": "bytes32",
							"name": "",
							"type": "bytes32"
						}
					],
					"stateMutability": "view",
					"type": "function"
				},
				{
					"inputs": [],
					"name": "lastResponse",
					"outputs": [
						{
							"internalType": "bytes",
							"name": "",
							"type": "bytes"
						}
					],
					"stateMutability": "view",
					"type": "function"
				},
				{
					"inputs": [
						{
							"internalType": "uint64",
							"name": "subscriptionId",
							"type": "uint64"
						}
					],
					"name": "requestBeerData",
					"outputs": [
						{
							"internalType": "bytes32",
							"name": "",
							"type": "bytes32"
						}
					],
					"stateMutability": "nonpayable",
					"type": "function"
				},
				{
					"inputs": [],
					"name": "source",
					"outputs": [
						{
							"internalType": "string",
							"name": "",
							"type": "string"
						}
					],
					"stateMutability": "view",
					"type": "function"
				}
			],
			"devdoc": {
				"kind": "dev",
				"methods": {
					"handleOracleFulfillment(bytes32,bytes,bytes)": {
						"details": "Either response or error parameter will be set, but never both.",
						"params": {
							"err": "Aggregated error either from the request's source code or from the execution pipeline.",
							"requestId": "The requestId returned by FunctionsClient.sendRequest().",
							"response": "Aggregated response from the request's source code."
						}
					},
					"requestBeerData(uint64)": {
						"params": {
							"subscriptionId": "ID твоей подписки с сайта functions.chain.link"
						}
					}
				},
				"version": 1
			},
			"evm": {
				"assembly": "    /* \"contracts/ChainlInkFunctions.sol\":271:2140  contract BeerConsumer is FunctionsClient {... */\n  mstore(0x40, 0xa0)\n    /* \"contracts/ChainlInkFunctions.sol\":517:833  string public source = ... */\n  mload(0x40)\n  dup1\n  0x0120\n  add\n  0x40\n  mstore\n  dup1\n  0xe7\n  dup2\n  mstore\n  0x20\n  add\n  data_de17701cada76d60d579072b194d267857742ebd76d9e816e996912ecb71a1d9\n  0xe7\n  swap2\n  codecopy\n  0x00\n  swap1\n  dup2\n  tag_1\n  swap2\n  swap1\n  tag_2\n  jump\t// in\ntag_1:\n  pop\n    /* \"contracts/ChainlInkFunctions.sol\":1054:1096  0xb83E47C2bC239B3bf370bc41e1459A34b41238D0 */\n  0xb83e47c2bc239b3bf370bc41e1459a34b41238d0\n    /* \"contracts/ChainlInkFunctions.sol\":1037:1096  address router = 0xb83E47C2bC239B3bf370bc41e1459A34b41238D0 */\n  0x05\n  exp(0x0100, 0x00)\n  dup2\n  sload\n  dup2\n  0xffffffffffffffffffffffffffffffffffffffff\n  mul\n  not\n  and\n  swap1\n  dup4\n  0xffffffffffffffffffffffffffffffffffffffff\n  and\n  mul\n  or\n  swap1\n  sstore\n  pop\n    /* \"contracts/ChainlInkFunctions.sol\":1118:1184  0x66756e2d657468657265756d2d7365706f6c69612d3100000000000000000000 */\n  0x66756e2d657468657265756d2d7365706f6c69612d3100000000000000000000\n    /* \"contracts/ChainlInkFunctions.sol\":1102:1184  bytes32 donID = 0x66756e2d657468657265756d2d7365706f6c69612d3100000000000000000000 */\n  0x00\n  shl\n  0x06\n  sstore\n    /* \"contracts/ChainlInkFunctions.sol\":1228:1268  constructor() FunctionsClient(router) {} */\n  callvalue\n  dup1\n  iszero\n  tag_3\n  jumpi\n  revert(0x00, 0x00)\ntag_3:\n  pop\n    /* \"contracts/ChainlInkFunctions.sol\":1258:1264  router */\n  0x05\n  0x00\n  swap1\n  sload\n  swap1\n  0x0100\n  exp\n  swap1\n  div\n  0xffffffffffffffffffffffffffffffffffffffff\n  and\n    /* \"@chainlink/contracts/src/v0.8/functions/v1_0_0/FunctionsClient.sol\":772:778  router */\n  dup1\n    /* \"@chainlink/contracts/src/v0.8/functions/v1_0_0/FunctionsClient.sol\":744:779  i_router = IFunctionsRouter(router) */\n  0xffffffffffffffffffffffffffffffffffffffff\n  and\n  0x80\n  dup2\n  0xffffffffffffffffffffffffffffffffffffffff\n  and\n  dup2\n  mstore\n  pop\n  pop\n    /* \"@chainlink/contracts/src/v0.8/functions/v1_0_0/FunctionsClient.sol\":702:784  constructor(... */\n  pop\n    /* \"contracts/ChainlInkFunctions.sol\":271:2140  contract BeerConsumer is FunctionsClient {... */\n  jump(tag_8)\n    /* \"#utility.yul\":7:106   */\ntag_9:\n    /* \"#utility.yul\":59:65   */\n  0x00\n    /* \"#utility.yul\":93:98   */\n  dup2\n    /* \"#utility.yul\":87:99   */\n  mload\n    /* \"#utility.yul\":77:99   */\n  swap1\n  pop\n    /* \"#utility.yul\":7:106   */\n  swap2\n  swap1\n  pop\n  jump\t// out\n    /* \"#utility.yul\":112:292   */\ntag_10:\n    /* \"#utility.yul\":160:237   */\n  0x4e487b7100000000000000000000000000000000000000000000000000000000\n    /* \"#utility.yul\":157:158   */\n  0x00\n    /* \"#utility.yul\":150:238   */\n  mstore\n    /* \"#utility.yul\":257:261   */\n  0x41\n    /* \"#utility.yul\":254:255   */\n  0x04\n    /* \"#utility.yul\":247:262   */\n  mstore\n    /* \"#utility.yul\":281:285   */\n  0x24\n    /* \"#utility.yul\":278:279   */\n  0x00\n    /* \"#utility.yul\":271:286   */\n  revert\n    /* \"#utility.yul\":298:478   */\ntag_11:\n    /* \"#utility.yul\":346:423   */\n  0x4e487b7100000000000000000000000000000000000000000000000000000000\n    /* \"#utility.yul\":343:344   */\n  0x00\n    /* \"#utility.yul\":336:424   */\n  mstore\n    /* \"#utility.yul\":443:447   */\n  0x22\n    /* \"#utility.yul\":440:441   */\n  0x04\n    /* \"#utility.yul\":433:448   */\n  mstore\n    /* \"#utility.yul\":467:471   */\n  0x24\n    /* \"#utility.yul\":464:465   */\n  0x00\n    /* \"#utility.yul\":457:472   */\n  revert\n    /* \"#utility.yul\":484:804   */\ntag_12:\n    /* \"#utility.yul\":528:534   */\n  0x00\n    /* \"#utility.yul\":565:566   */\n  0x02\n    /* \"#utility.yul\":559:563   */\n  dup3\n    /* \"#utility.yul\":555:567   */\n  div\n    /* \"#utility.yul\":545:567   */\n  swap1\n  pop\n    /* \"#utility.yul\":612:613   */\n  0x01\n    /* \"#utility.yul\":606:610   */\n  dup3\n    /* \"#utility.yul\":602:614   */\n  and\n    /* \"#utility.yul\":633:651   */\n  dup1\n    /* \"#utility.yul\":623:704   */\n  tag_34\n  jumpi\n    /* \"#utility.yul\":689:693   */\n  0x7f\n    /* \"#utility.yul\":681:687   */\n  dup3\n    /* \"#utility.yul\":677:694   */\n  and\n    /* \"#utility.yul\":667:694   */\n  swap2\n  pop\n    /* \"#utility.yul\":623:704   */\ntag_34:\n    /* \"#utility.yul\":751:753   */\n  0x20\n    /* \"#utility.yul\":743:749   */\n  dup3\n    /* \"#utility.yul\":740:754   */\n  lt\n    /* \"#utility.yul\":720:738   */\n  dup2\n    /* \"#utility.yul\":717:755   */\n  sub\n    /* \"#utility.yul\":714:798   */\n  tag_35\n  jumpi\n    /* \"#utility.yul\":770:788   */\n  tag_36\n  tag_11\n  jump\t// in\ntag_36:\n    /* \"#utility.yul\":714:798   */\ntag_35:\n    /* \"#utility.yul\":535:804   */\n  pop\n    /* \"#utility.yul\":484:804   */\n  swap2\n  swap1\n  pop\n  jump\t// out\n    /* \"#utility.yul\":810:951   */\ntag_13:\n    /* \"#utility.yul\":859:863   */\n  0x00\n    /* \"#utility.yul\":882:885   */\n  dup2\n    /* \"#utility.yul\":874:885   */\n  swap1\n  pop\n    /* \"#utility.yul\":905:908   */\n  dup2\n    /* \"#utility.yul\":902:903   */\n  0x00\n    /* \"#utility.yul\":895:909   */\n  mstore\n    /* \"#utility.yul\":939:943   */\n  0x20\n    /* \"#utility.yul\":936:937   */\n  0x00\n    /* \"#utility.yul\":926:944   */\n  keccak256\n    /* \"#utility.yul\":918:944   */\n  swap1\n  pop\n    /* \"#utility.yul\":810:951   */\n  swap2\n  swap1\n  pop\n  jump\t// out\n    /* \"#utility.yul\":957:1050   */\ntag_14:\n    /* \"#utility.yul\":994:1000   */\n  0x00\n    /* \"#utility.yul\":1041:1043   */\n  0x20\n    /* \"#utility.yul\":1036:1038   */\n  0x1f\n    /* \"#utility.yul\":1029:1034   */\n  dup4\n    /* \"#utility.yul\":1025:1039   */\n  add\n    /* \"#utility.yul\":1021:1044   */\n  div\n    /* \"#utility.yul\":1011:1044   */\n  swap1\n  pop\n    /* \"#utility.yul\":957:1050   */\n  swap2\n  swap1\n  pop\n  jump\t// out\n    /* \"#utility.yul\":1056:1163   */\ntag_15:\n    /* \"#utility.yul\":1100:1108   */\n  0x00\n    /* \"#utility.yul\":1150:1155   */\n  dup3\n    /* \"#utility.yul\":1144:1148   */\n  dup3\n    /* \"#utility.yul\":1140:1156   */\n  shl\n    /* \"#utility.yul\":1119:1156   */\n  swap1\n  pop\n    /* \"#utility.yul\":1056:1163   */\n  swap3\n  swap2\n  pop\n  pop\n  jump\t// out\n    /* \"#utility.yul\":1169:1562   */\ntag_16:\n    /* \"#utility.yul\":1238:1244   */\n  0x00\n    /* \"#utility.yul\":1288:1289   */\n  0x08\n    /* \"#utility.yul\":1276:1286   */\n  dup4\n    /* \"#utility.yul\":1272:1290   */\n  mul\n    /* \"#utility.yul\":1311:1408   */\n  tag_41\n    /* \"#utility.yul\":1341:1407   */\n  0xffffffffffffffffffffffffffffffffffffffffffffffffffffffffffffffff\n    /* \"#utility.yul\":1330:1339   */\n  dup3\n    /* \"#utility.yul\":1311:1408   */\n  tag_15\n  jump\t// in\ntag_41:\n    /* \"#utility.yul\":1429:1468   */\n  tag_42\n    /* \"#utility.yul\":1459:1467   */\n  dup7\n    /* \"#utility.yul\":1448:1457   */\n  dup4\n    /* \"#utility.yul\":1429:1468   */\n  tag_15\n  jump\t// in\ntag_42:\n    /* \"#utility.yul\":1417:1468   */\n  swap6\n  pop\n    /* \"#utility.yul\":1501:1505   */\n  dup1\n    /* \"#utility.yul\":1497:1506   */\n  not\n    /* \"#utility.yul\":1490:1495   */\n  dup5\n    /* \"#utility.yul\":1486:1507   */\n  and\n    /* \"#utility.yul\":1477:1507   */\n  swap4\n  pop\n    /* \"#utility.yul\":1550:1554   */\n  dup1\n    /* \"#utility.yul\":1540:1548   */\n  dup7\n    /* \"#utility.yul\":1536:1555   */\n  and\n    /* \"#utility.yul\":1529:1534   */\n  dup5\n    /* \"#utility.yul\":1526:1556   */\n  or\n    /* \"#utility.yul\":1516:1556   */\n  swap3\n  pop\n    /* \"#utility.yul\":1245:1562   */\n  pop\n  pop\n    /* \"#utility.yul\":1169:1562   */\n  swap4\n  swap3\n  pop\n  pop\n  pop\n  jump\t// out\n    /* \"#utility.yul\":1568:1645   */\ntag_17:\n    /* \"#utility.yul\":1605:1612   */\n  0x00\n    /* \"#utility.yul\":1634:1639   */\n  dup2\n    /* \"#utility.yul\":1623:1639   */\n  swap1\n  pop\n    /* \"#utility.yul\":1568:1645   */\n  swap2\n  swap1\n  pop\n  jump\t// out\n    /* \"#utility.yul\":1651:1711   */\ntag_18:\n    /* \"#utility.yul\":1679:1682   */\n  0x00\n    /* \"#utility.yul\":1700:1705   */\n  dup2\n    /* \"#utility.yul\":1693:1705   */\n  swap1\n  pop\n    /* \"#utility.yul\":1651:1711   */\n  swap2\n  swap1\n  pop\n  jump\t// out\n    /* \"#utility.yul\":1717:1859   */\ntag_19:\n    /* \"#utility.yul\":1767:1776   */\n  0x00\n    /* \"#utility.yul\":1800:1853   */\n  tag_46\n    /* \"#utility.yul\":1818:1852   */\n  tag_47\n    /* \"#utility.yul\":1827:1851   */\n  tag_48\n    /* \"#utility.yul\":1845:1850   */\n  dup5\n    /* \"#utility.yul\":1827:1851   */\n  tag_17\n  jump\t// in\ntag_48:\n    /* \"#utility.yul\":1818:1852   */\n  tag_18\n  jump\t// in\ntag_47:\n    /* \"#utility.yul\":1800:1853   */\n  tag_17\n  jump\t// in\ntag_46:\n    /* \"#utility.yul\":1787:1853   */\n  swap1\n  pop\n    /* \"#utility.yul\":1717:1859   */\n  swap2\n  swap1\n  pop\n  jump\t// out\n    /* \"#utility.yul\":1865:1940   */\ntag_20:\n    /* \"#utility.yul\":1908:1911   */\n  0x00\n    /* \"#utility.yul\":1929:1934   */\n  dup2\n    /* \"#utility.yul\":1922:1934   */\n  swap1\n  pop\n    /* \"#utility.yul\":1865:1940   */\n  swap2\n  swap1\n  pop\n  jump\t// out\n    /* \"#utility.yul\":1946:2215   */\ntag_21:\n    /* \"#utility.yul\":2056:2095   */\n  tag_51\n    /* \"#utility.yul\":2087:2094   */\n  dup4\n    /* \"#utility.yul\":2056:2095   */\n  tag_19\n  jump\t// in\ntag_51:\n    /* \"#utility.yul\":2117:2208   */\n  tag_52\n    /* \"#utility.yul\":2166:2207   */\n  tag_53\n    /* \"#utility.yul\":2190:2206   */\n  dup3\n    /* \"#utility.yul\":2166:2207   */\n  tag_20\n  jump\t// in\ntag_53:\n    /* \"#utility.yul\":2158:2164   */\n  dup5\n    /* \"#utility.yul\":2151:2155   */\n  dup5\n    /* \"#utility.yul\":2145:2156   */\n  sload\n    /* \"#utility.yul\":2117:2208   */\n  tag_16\n  jump\t// in\ntag_52:\n    /* \"#utility.yul\":2111:2115   */\n  dup3\n    /* \"#utility.yul\":2104:2209   */\n  sstore\n    /* \"#utility.yul\":2022:2215   */\n  pop\n    /* \"#utility.yul\":1946:2215   */\n  pop\n  pop\n  pop\n  jump\t// out\n    /* \"#utility.yul\":2221:2294   */\ntag_22:\n    /* \"#utility.yul\":2266:2269   */\n  0x00\n    /* \"#utility.yul\":2287:2288   */\n  0x00\n    /* \"#utility.yul\":2280:2288   */\n  swap1\n  pop\n    /* \"#utility.yul\":2221:2294   */\n  swap1\n  jump\t// out\n    /* \"#utility.yul\":2300:2489   */\ntag_23:\n    /* \"#utility.yul\":2377:2409   */\n  tag_56\n  tag_22\n  jump\t// in\ntag_56:\n    /* \"#utility.yul\":2418:2483   */\n  tag_57\n    /* \"#utility.yul\":2476:2482   */\n  dup2\n    /* \"#utility.yul\":2468:2474   */\n  dup5\n    /* \"#utility.yul\":2462:2466   */\n  dup5\n    /* \"#utility.yul\":2418:2483   */\n  tag_21\n  jump\t// in\ntag_57:\n    /* \"#utility.yul\":2353:2489   */\n  pop\n    /* \"#utility.yul\":2300:2489   */\n  pop\n  pop\n  jump\t// out\n    /* \"#utility.yul\":2495:2681   */\ntag_24:\n    /* \"#utility.yul\":2555:2675   */\ntag_59:\n    /* \"#utility.yul\":2572:2575   */\n  dup2\n    /* \"#utility.yul\":2565:2570   */\n  dup2\n    /* \"#utility.yul\":2562:2576   */\n  lt\n    /* \"#utility.yul\":2555:2675   */\n  iszero\n  tag_61\n  jumpi\n    /* \"#utility.yul\":2626:2665   */\n  tag_62\n    /* \"#utility.yul\":2663:2664   */\n  0x00\n    /* \"#utility.yul\":2656:2661   */\n  dup3\n    /* \"#utility.yul\":2626:2665   */\n  tag_23\n  jump\t// in\ntag_62:\n    /* \"#utility.yul\":2599:2600   */\n  0x01\n    /* \"#utility.yul\":2592:2597   */\n  dup2\n    /* \"#utility.yul\":2588:2601   */\n  add\n    /* \"#utility.yul\":2579:2601   */\n  swap1\n  pop\n    /* \"#utility.yul\":2555:2675   */\n  jump(tag_59)\ntag_61:\n    /* \"#utility.yul\":2495:2681   */\n  pop\n  pop\n  jump\t// out\n    /* \"#utility.yul\":2687:3230   */\ntag_25:\n    /* \"#utility.yul\":2788:2790   */\n  0x1f\n    /* \"#utility.yul\":2783:2786   */\n  dup3\n    /* \"#utility.yul\":2780:2791   */\n  gt\n    /* \"#utility.yul\":2777:3223   */\n  iszero\n  tag_64\n  jumpi\n    /* \"#utility.yul\":2822:2860   */\n  tag_65\n    /* \"#utility.yul\":2854:2859   */\n  dup2\n    /* \"#utility.yul\":2822:2860   */\n  tag_13\n  jump\t// in\ntag_65:\n    /* \"#utility.yul\":2906:2935   */\n  tag_66\n    /* \"#utility.yul\":2924:2934   */\n  dup5\n    /* \"#utility.yul\":2906:2935   */\n  tag_14\n  jump\t// in\ntag_66:\n    /* \"#utility.yul\":2896:2904   */\n  dup2\n    /* \"#utility.yul\":2892:2936   */\n  add\n    /* \"#utility.yul\":3089:3091   */\n  0x20\n    /* \"#utility.yul\":3077:3087   */\n  dup6\n    /* \"#utility.yul\":3074:3092   */\n  lt\n    /* \"#utility.yul\":3071:3120   */\n  iszero\n  tag_67\n  jumpi\n    /* \"#utility.yul\":3110:3118   */\n  dup2\n    /* \"#utility.yul\":3095:3118   */\n  swap1\n  pop\n    /* \"#utility.yul\":3071:3120   */\ntag_67:\n    /* \"#utility.yul\":3133:3213   */\n  tag_68\n    /* \"#utility.yul\":3189:3211   */\n  tag_69\n    /* \"#utility.yul\":3207:3210   */\n  dup6\n    /* \"#utility.yul\":3189:3211   */\n  tag_14\n  jump\t// in\ntag_69:\n    /* \"#utility.yul\":3179:3187   */\n  dup4\n    /* \"#utility.yul\":3175:3212   */\n  add\n    /* \"#utility.yul\":3162:3173   */\n  dup3\n    /* \"#utility.yul\":3133:3213   */\n  tag_24\n  jump\t// in\ntag_68:\n    /* \"#utility.yul\":2792:3223   */\n  pop\n  pop\n    /* \"#utility.yul\":2777:3223   */\ntag_64:\n    /* \"#utility.yul\":2687:3230   */\n  pop\n  pop\n  pop\n  jump\t// out\n    /* \"#utility.yul\":3236:3353   */\ntag_26:\n    /* \"#utility.yul\":3290:3298   */\n  0x00\n    /* \"#utility.yul\":3340:3345   */\n  dup3\n    /* \"#utility.yul\":3334:3338   */\n  dup3\n    /* \"#utility.yul\":3330:3346   */\n  shr\n    /* \"#utility.yul\":3309:3346   */\n  swap1\n  pop\n    /* \"#utility.yul\":3236:3353   */\n  swap3\n  swap2\n  pop\n  pop\n  jump\t// out\n    /* \"#utility.yul\":3359:3528   */\ntag_27:\n    /* \"#utility.yul\":3403:3409   */\n  0x00\n    /* \"#utility.yul\":3436:3487   */\n  tag_72\n    /* \"#utility.yul\":3484:3485   */\n  0x00\n    /* \"#utility.yul\":3480:3486   */\n  not\n    /* \"#utility.yul\":3472:3477   */\n  dup5\n    /* \"#utility.yul\":3469:3470   */\n  0x08\n    /* \"#utility.yul\":3465:3478   */\n  mul\n    /* \"#utility.yul\":3436:3487   */\n  tag_26\n  jump\t// in\ntag_72:\n    /* \"#utility.yul\":3432:3488   */\n  not\n    /* \"#utility.yul\":3517:3521   */\n  dup1\n    /* \"#utility.yul\":3511:3515   */\n  dup4\n    /* \"#utility.yul\":3507:3522   */\n  and\n    /* \"#utility.yul\":3497:3522   */\n  swap2\n  pop\n    /* \"#utility.yul\":3410:3528   */\n  pop\n    /* \"#utility.yul\":3359:3528   */\n  swap3\n  swap2\n  pop\n  pop\n  jump\t// out\n    /* \"#utility.yul\":3533:3828   */\ntag_28:\n    /* \"#utility.yul\":3609:3613   */\n  0x00\n    /* \"#utility.yul\":3755:3784   */\n  tag_74\n    /* \"#utility.yul\":3780:3783   */\n  dup4\n    /* \"#utility.yul\":3774:3778   */\n  dup4\n    /* \"#utility.yul\":3755:3784   */\n  tag_27\n  jump\t// in\ntag_74:\n    /* \"#utility.yul\":3747:3784   */\n  swap2\n  pop\n    /* \"#utility.yul\":3817:3820   */\n  dup3\n    /* \"#utility.yul\":3814:3815   */\n  0x02\n    /* \"#utility.yul\":3810:3821   */\n  mul\n    /* \"#utility.yul\":3804:3808   */\n  dup3\n    /* \"#utility.yul\":3801:3822   */\n  or\n    /* \"#utility.yul\":3793:3822   */\n  swap1\n  pop\n    /* \"#utility.yul\":3533:3828   */\n  swap3\n  swap2\n  pop\n  pop\n  jump\t// out\n    /* \"#utility.yul\":3833:5228   */\ntag_2:\n    /* \"#utility.yul\":3950:3987   */\n  tag_76\n    /* \"#utility.yul\":3983:3986   */\n  dup3\n    /* \"#utility.yul\":3950:3987   */\n  tag_9\n  jump\t// in\ntag_76:\n    /* \"#utility.yul\":4052:4070   */\n  0xffffffffffffffff\n    /* \"#utility.yul\":4044:4050   */\n  dup2\n    /* \"#utility.yul\":4041:4071   */\n  gt\n    /* \"#utility.yul\":4038:4094   */\n  iszero\n  tag_77\n  jumpi\n    /* \"#utility.yul\":4074:4092   */\n  tag_78\n  tag_10\n  jump\t// in\ntag_78:\n    /* \"#utility.yul\":4038:4094   */\ntag_77:\n    /* \"#utility.yul\":4118:4156   */\n  tag_79\n    /* \"#utility.yul\":4150:4154   */\n  dup3\n    /* \"#utility.yul\":4144:4155   */\n  sload\n    /* \"#utility.yul\":4118:4156   */\n  tag_12\n  jump\t// in\ntag_79:\n    /* \"#utility.yul\":4203:4270   */\n  tag_80\n    /* \"#utility.yul\":4263:4269   */\n  dup3\n    /* \"#utility.yul\":4255:4261   */\n  dup3\n    /* \"#utility.yul\":4249:4253   */\n  dup6\n    /* \"#utility.yul\":4203:4270   */\n  tag_25\n  jump\t// in\ntag_80:\n    /* \"#utility.yul\":4297:4298   */\n  0x00\n    /* \"#utility.yul\":4321:4325   */\n  0x20\n    /* \"#utility.yul\":4308:4325   */\n  swap1\n  pop\n    /* \"#utility.yul\":4353:4355   */\n  0x1f\n    /* \"#utility.yul\":4345:4351   */\n  dup4\n    /* \"#utility.yul\":4342:4356   */\n  gt\n    /* \"#utility.yul\":4370:4371   */\n  0x01\n    /* \"#utility.yul\":4365:4983   */\n  dup2\n  eq\n  tag_82\n  jumpi\n    /* \"#utility.yul\":5027:5028   */\n  0x00\n    /* \"#utility.yul\":5044:5050   */\n  dup5\n    /* \"#utility.yul\":5041:5118   */\n  iszero\n  tag_83\n  jumpi\n    /* \"#utility.yul\":5093:5102   */\n  dup3\n    /* \"#utility.yul\":5088:5091   */\n  dup8\n    /* \"#utility.yul\":5084:5103   */\n  add\n    /* \"#utility.yul\":5078:5104   */\n  mload\n    /* \"#utility.yul\":5069:5104   */\n  swap1\n  pop\n    /* \"#utility.yul\":5041:5118   */\ntag_83:\n    /* \"#utility.yul\":5144:5211   */\n  tag_84\n    /* \"#utility.yul\":5204:5210   */\n  dup6\n    /* \"#utility.yul\":5197:5202   */\n  dup3\n    /* \"#utility.yul\":5144:5211   */\n  tag_28\n  jump\t// in\ntag_84:\n    /* \"#utility.yul\":5138:5142   */\n  dup7\n    /* \"#utility.yul\":5131:5212   */\n  sstore\n    /* \"#utility.yul\":5000:5222   */\n  pop\n    /* \"#utility.yul\":4335:5222   */\n  jump(tag_81)\n    /* \"#utility.yul\":4365:4983   */\ntag_82:\n    /* \"#utility.yul\":4417:4421   */\n  0x1f\n    /* \"#utility.yul\":4413:4422   */\n  not\n    /* \"#utility.yul\":4405:4411   */\n  dup5\n    /* \"#utility.yul\":4401:4423   */\n  and\n    /* \"#utility.yul\":4451:4488   */\n  tag_85\n    /* \"#utility.yul\":4483:4487   */\n  dup7\n    /* \"#utility.yul\":4451:4488   */\n  tag_13\n  jump\t// in\ntag_85:\n    /* \"#utility.yul\":4510:4511   */\n  0x00\n    /* \"#utility.yul\":4524:4732   */\ntag_86:\n    /* \"#utility.yul\":4538:4545   */\n  dup3\n    /* \"#utility.yul\":4535:4536   */\n  dup2\n    /* \"#utility.yul\":4532:4546   */\n  lt\n    /* \"#utility.yul\":4524:4732   */\n  iszero\n  tag_88\n  jumpi\n    /* \"#utility.yul\":4617:4626   */\n  dup5\n    /* \"#utility.yul\":4612:4615   */\n  dup10\n    /* \"#utility.yul\":4608:4627   */\n  add\n    /* \"#utility.yul\":4602:4628   */\n  mload\n    /* \"#utility.yul\":4594:4600   */\n  dup3\n    /* \"#utility.yul\":4587:4629   */\n  sstore\n    /* \"#utility.yul\":4668:4669   */\n  0x01\n    /* \"#utility.yul\":4660:4666   */\n  dup3\n    /* \"#utility.yul\":4656:4670   */\n  add\n    /* \"#utility.yul\":4646:4670   */\n  swap2\n  pop\n    /* \"#utility.yul\":4715:4717   */\n  0x20\n    /* \"#utility.yul\":4704:4713   */\n  dup6\n    /* \"#utility.yul\":4700:4718   */\n  add\n    /* \"#utility.yul\":4687:4718   */\n  swap5\n  pop\n    /* \"#utility.yul\":4561:4565   */\n  0x20\n    /* \"#utility.yul\":4558:4559   */\n  dup2\n    /* \"#utility.yul\":4554:4566   */\n  add\n    /* \"#utility.yul\":4549:4566   */\n  swap1\n  pop\n    /* \"#utility.yul\":4524:4732   */\n  jump(tag_86)\ntag_88:\n    /* \"#utility.yul\":4760:4766   */\n  dup7\n    /* \"#utility.yul\":4751:4758   */\n  dup4\n    /* \"#utility.yul\":4748:4767   */\n  lt\n    /* \"#utility.yul\":4745:4924   */\n  iszero\n  tag_89\n  jumpi\n    /* \"#utility.yul\":4818:4827   */\n  dup5\n    /* \"#utility.yul\":4813:4816   */\n  dup10\n    /* \"#utility.yul\":4809:4828   */\n  add\n    /* \"#utility.yul\":4803:4829   */\n  mload\n    /* \"#utility.yul\":4861:4909   */\n  tag_90\n    /* \"#utility.yul\":4903:4907   */\n  0x1f\n    /* \"#utility.yul\":4895:4901   */\n  dup10\n    /* \"#utility.yul\":4891:4908   */\n  and\n    /* \"#utility.yul\":4880:4889   */\n  dup3\n    /* \"#utility.yul\":4861:4909   */\n  tag_27\n  jump\t// in\ntag_90:\n    /* \"#utility.yul\":4853:4859   */\n  dup4\n    /* \"#utility.yul\":4846:4910   */\n  sstore\n    /* \"#utility.yul\":4768:4924   */\n  pop\n    /* \"#utility.yul\":4745:4924   */\ntag_89:\n    /* \"#utility.yul\":4970:4971   */\n  0x01\n    /* \"#utility.yul\":4966:4967   */\n  0x02\n    /* \"#utility.yul\":4958:4964   */\n  dup9\n    /* \"#utility.yul\":4954:4968   */\n  mul\n    /* \"#utility.yul\":4950:4972   */\n  add\n    /* \"#utility.yul\":4944:4948   */\n  dup9\n    /* \"#utility.yul\":4937:4973   */\n  sstore\n    /* \"#utility.yul\":4372:4983   */\n  pop\n  pop\n  pop\n    /* \"#utility.yul\":4335:5222   */\ntag_81:\n  pop\n    /* \"#utility.yul\":3925:5228   */\n  pop\n  pop\n  pop\n    /* \"#utility.yul\":3833:5228   */\n  pop\n  pop\n  jump\t// out\n    /* \"contracts/ChainlInkFunctions.sol\":271:2140  contract BeerConsumer is FunctionsClient {... */\ntag_8:\n  mload(0x80)\n  codecopy(0x00, dataOffset(sub_0), dataSize(sub_0))\n  0x00\n  assignImmutable(\"0x8e8fab5f003314da8d1873ea7720e8d9f47650136d916064d1edb8a11d682624\")\n  return(0x00, dataSize(sub_0))\nstop\ndata_de17701cada76d60d579072b194d267857742ebd76d9e816e996912ecb71a1d9 636f6e737420617069526573706f6e7365203d2061776169742046756e6374696f6e732e6d616b654874747052657175657374287b202075726c3a202768747470733a2f2f6170692e73616d706c65617069732e636f6d2f62656572732f616c65277d293b69662028617069526573706f6e73652e6572726f7229207468726f77204572726f722827415049204572726f7227293b636f6e737420626565724e616d65203d20617069526573706f6e73652e646174615b305d2e6e616d653b72657475726e2046756e6374696f6e732e656e636f6465537472696e6728626565724e616d65293b\n\nsub_0: assembly {\n        /* \"contracts/ChainlInkFunctions.sol\":271:2140  contract BeerConsumer is FunctionsClient {... */\n      mstore(0x40, 0x80)\n      callvalue\n      dup1\n      iszero\n      tag_1\n      jumpi\n      revert(0x00, 0x00)\n    tag_1:\n      pop\n      jumpi(tag_2, lt(calldatasize, 0x04))\n      shr(0xe0, calldataload(0x00))\n      dup1\n      0x62747e42\n      gt\n      tag_10\n      jumpi\n      dup1\n      0x62747e42\n      eq\n      tag_6\n      jumpi\n      dup1\n      0x67e828bf\n      eq\n      tag_7\n      jumpi\n      dup1\n      0xb5401332\n      eq\n      tag_8\n      jumpi\n      dup1\n      0xfc2a88c3\n      eq\n      tag_9\n      jumpi\n      jump(tag_2)\n    tag_10:\n      dup1\n      0x0ca76175\n      eq\n      tag_3\n      jumpi\n      dup1\n      0x29f0de3f\n      eq\n      tag_4\n      jumpi\n      dup1\n      0x5e63aa46\n      eq\n      tag_5\n      jumpi\n    tag_2:\n      revert(0x00, 0x00)\n        /* \"@chainlink/contracts/src/v0.8/functions/v1_0_0/FunctionsClient.sol\":2056:2342  function handleOracleFulfillment(bytes32 requestId, bytes memory response, bytes memory err) external override {... */\n    tag_3:\n      tag_11\n      0x04\n      dup1\n      calldatasize\n      sub\n      dup2\n      add\n      swap1\n      tag_12\n      swap2\n      swap1\n      tag_13\n      jump\t// in\n    tag_12:\n      tag_14\n      jump\t// in\n    tag_11:\n      stop\n        /* \"contracts/ChainlInkFunctions.sol\":937:959  bytes public lastError */\n    tag_4:\n      tag_15\n      tag_16\n      jump\t// in\n    tag_15:\n      mload(0x40)\n      tag_17\n      swap2\n      swap1\n      tag_18\n      jump\t// in\n    tag_17:\n      mload(0x40)\n      dup1\n      swap2\n      sub\n      swap1\n      return\n        /* \"contracts/ChainlInkFunctions.sol\":840:866  string public lastBeerName */\n    tag_5:\n      tag_19\n      tag_20\n      jump\t// in\n    tag_19:\n      mload(0x40)\n      tag_21\n      swap2\n      swap1\n      tag_22\n      jump\t// in\n    tag_21:\n      mload(0x40)\n      dup1\n      swap2\n      sub\n      swap1\n      return\n        /* \"contracts/ChainlInkFunctions.sol\":906:931  bytes public lastResponse */\n    tag_6:\n      tag_23\n      tag_24\n      jump\t// in\n    tag_23:\n      mload(0x40)\n      tag_25\n      swap2\n      swap1\n      tag_18\n      jump\t// in\n    tag_25:\n      mload(0x40)\n      dup1\n      swap2\n      sub\n      swap1\n      return\n        /* \"contracts/ChainlInkFunctions.sol\":517:833  string public source = ... */\n    tag_7:\n      tag_26\n      tag_27\n      jump\t// in\n    tag_26:\n      mload(0x40)\n      tag_28\n      swap2\n      swap1\n      tag_22\n      jump\t// in\n    tag_28:\n      mload(0x40)\n      dup1\n      swap2\n      sub\n      swap1\n      return\n        /* \"contracts/ChainlInkFunctions.sol\":1441:1830  function requestBeerData(uint64 subscriptionId) external returns (bytes32) {... */\n    tag_8:\n      tag_29\n      0x04\n      dup1\n      calldatasize\n      sub\n      dup2\n      add\n      swap1\n      tag_30\n      swap2\n      swap1\n      tag_31\n      jump\t// in\n    tag_30:\n      tag_32\n      jump\t// in\n    tag_29:\n      mload(0x40)\n      tag_33\n      swap2\n      swap1\n      tag_34\n      jump\t// in\n    tag_33:\n      mload(0x40)\n      dup1\n      swap2\n      sub\n      swap1\n      return\n        /* \"contracts/ChainlInkFunctions.sol\":872:900  bytes32 public lastRequestId */\n    tag_9:\n      tag_35\n      tag_36\n      jump\t// in\n    tag_35:\n      mload(0x40)\n      tag_37\n      swap2\n      swap1\n      tag_34\n      jump\t// in\n    tag_37:\n      mload(0x40)\n      dup1\n      swap2\n      sub\n      swap1\n      return\n        /* \"@chainlink/contracts/src/v0.8/functions/v1_0_0/FunctionsClient.sol\":2056:2342  function handleOracleFulfillment(bytes32 requestId, bytes memory response, bytes memory err) external override {... */\n    tag_14:\n        /* \"@chainlink/contracts/src/v0.8/functions/v1_0_0/FunctionsClient.sol\":2199:2207  i_router */\n      immutable(\"0x8e8fab5f003314da8d1873ea7720e8d9f47650136d916064d1edb8a11d682624\")\n        /* \"@chainlink/contracts/src/v0.8/functions/v1_0_0/FunctionsClient.sol\":2177:2208  msg.sender != address(i_router) */\n      0xffffffffffffffffffffffffffffffffffffffff\n      and\n        /* \"@chainlink/contracts/src/v0.8/functions/v1_0_0/FunctionsClient.sol\":2177:2187  msg.sender */\n      caller\n        /* \"@chainlink/contracts/src/v0.8/functions/v1_0_0/FunctionsClient.sol\":2177:2208  msg.sender != address(i_router) */\n      0xffffffffffffffffffffffffffffffffffffffff\n      and\n      eq\n        /* \"@chainlink/contracts/src/v0.8/functions/v1_0_0/FunctionsClient.sol\":2173:2254  if (msg.sender != address(i_router)) {... */\n      tag_39\n      jumpi\n        /* \"@chainlink/contracts/src/v0.8/functions/v1_0_0/FunctionsClient.sol\":2225:2247  OnlyRouterCanFulfill() */\n      mload(0x40)\n      0xc6829f8300000000000000000000000000000000000000000000000000000000\n      dup2\n      mstore\n      0x04\n      add\n      mload(0x40)\n      dup1\n      swap2\n      sub\n      swap1\n      revert\n        /* \"@chainlink/contracts/src/v0.8/functions/v1_0_0/FunctionsClient.sol\":2173:2254  if (msg.sender != address(i_router)) {... */\n    tag_39:\n        /* \"@chainlink/contracts/src/v0.8/functions/v1_0_0/FunctionsClient.sol\":2259:2299  fulfillRequest(requestId, response, err) */\n      tag_40\n        /* \"@chainlink/contracts/src/v0.8/functions/v1_0_0/FunctionsClient.sol\":2274:2283  requestId */\n      dup4\n        /* \"@chainlink/contracts/src/v0.8/functions/v1_0_0/FunctionsClient.sol\":2285:2293  response */\n      dup4\n        /* \"@chainlink/contracts/src/v0.8/functions/v1_0_0/FunctionsClient.sol\":2295:2298  err */\n      dup4\n        /* \"@chainlink/contracts/src/v0.8/functions/v1_0_0/FunctionsClient.sol\":2259:2273  fulfillRequest */\n      tag_41\n        /* \"@chainlink/contracts/src/v0.8/functions/v1_0_0/FunctionsClient.sol\":2259:2299  fulfillRequest(requestId, response, err) */\n      jump\t// in\n    tag_40:\n        /* \"@chainlink/contracts/src/v0.8/functions/v1_0_0/FunctionsClient.sol\":2327:2336  requestId */\n      dup3\n        /* \"@chainlink/contracts/src/v0.8/functions/v1_0_0/FunctionsClient.sol\":2310:2337  RequestFulfilled(requestId) */\n      0x85e1543bf2f84fe80c6badbce3648c8539ad1df4d2b3d822938ca0538be727e6\n      mload(0x40)\n      mload(0x40)\n      dup1\n      swap2\n      sub\n      swap1\n      log2\n        /* \"@chainlink/contracts/src/v0.8/functions/v1_0_0/FunctionsClient.sol\":2056:2342  function handleOracleFulfillment(bytes32 requestId, bytes memory response, bytes memory err) external override {... */\n      pop\n      pop\n      pop\n      jump\t// out\n        /* \"contracts/ChainlInkFunctions.sol\":937:959  bytes public lastError */\n    tag_16:\n      0x04\n      dup1\n      sload\n      tag_42\n      swap1\n      tag_43\n      jump\t// in\n    tag_42:\n      dup1\n      0x1f\n      add\n      0x20\n      dup1\n      swap2\n      div\n      mul\n      0x20\n      add\n      mload(0x40)\n      swap1\n      dup2\n      add\n      0x40\n      mstore\n      dup1\n      swap3\n      swap2\n      swap1\n      dup2\n      dup2\n      mstore\n      0x20\n      add\n      dup3\n      dup1\n      sload\n      tag_44\n      swap1\n      tag_43\n      jump\t// in\n    tag_44:\n      dup1\n      iszero\n      tag_45\n      jumpi\n      dup1\n      0x1f\n      lt\n      tag_46\n      jumpi\n      0x0100\n      dup1\n      dup4\n      sload\n      div\n      mul\n      dup4\n      mstore\n      swap2\n      0x20\n      add\n      swap2\n      jump(tag_45)\n    tag_46:\n      dup3\n      add\n      swap2\n      swap1\n      0x00\n      mstore\n      keccak256(0x00, 0x20)\n      swap1\n    tag_47:\n      dup2\n      sload\n      dup2\n      mstore\n      swap1\n      0x01\n      add\n      swap1\n      0x20\n      add\n      dup1\n      dup4\n      gt\n      tag_47\n      jumpi\n      dup3\n      swap1\n      sub\n      0x1f\n      and\n      dup3\n      add\n      swap2\n    tag_45:\n      pop\n      pop\n      pop\n      pop\n      pop\n      dup2\n      jump\t// out\n        /* \"contracts/ChainlInkFunctions.sol\":840:866  string public lastBeerName */\n    tag_20:\n      0x01\n      dup1\n      sload\n      tag_48\n      swap1\n      tag_43\n      jump\t// in\n    tag_48:\n      dup1\n      0x1f\n      add\n      0x20\n      dup1\n      swap2\n      div\n      mul\n      0x20\n      add\n      mload(0x40)\n      swap1\n      dup2\n      add\n      0x40\n      mstore\n      dup1\n      swap3\n      swap2\n      swap1\n      dup2\n      dup2\n      mstore\n      0x20\n      add\n      dup3\n      dup1\n      sload\n      tag_49\n      swap1\n      tag_43\n      jump\t// in\n    tag_49:\n      dup1\n      iszero\n      tag_50\n      jumpi\n      dup1\n      0x1f\n      lt\n      tag_51\n      jumpi\n      0x0100\n      dup1\n      dup4\n      sload\n      div\n      mul\n      dup4\n      mstore\n      swap2\n      0x20\n      add\n      swap2\n      jump(tag_50)\n    tag_51:\n      dup3\n      add\n      swap2\n      swap1\n      0x00\n      mstore\n      keccak256(0x00, 0x20)\n      swap1\n    tag_52:\n      dup2\n      sload\n      dup2\n      mstore\n      swap1\n      0x01\n      add\n      swap1\n      0x20\n      add\n      dup1\n      dup4\n      gt\n      tag_52\n      jumpi\n      dup3\n      swap1\n      sub\n      0x1f\n      and\n      dup3\n      add\n      swap2\n    tag_50:\n      pop\n      pop\n      pop\n      pop\n      pop\n      dup2\n      jump\t// out\n        /* \"contracts/ChainlInkFunctions.sol\":906:931  bytes public lastResponse */\n    tag_24:\n      0x03\n      dup1\n      sload\n      tag_53\n      swap1\n      tag_43\n      jump\t// in\n    tag_53:\n      dup1\n      0x1f\n      add\n      0x20\n      dup1\n      swap2\n      div\n      mul\n      0x20\n      add\n      mload(0x40)\n      swap1\n      dup2\n      add\n      0x40\n      mstore\n      dup1\n      swap3\n      swap2\n      swap1\n      dup2\n      dup2\n      mstore\n      0x20\n      add\n      dup3\n      dup1\n      sload\n      tag_54\n      swap1\n      tag_43\n      jump\t// in\n    tag_54:\n      dup1\n      iszero\n      tag_55\n      jumpi\n      dup1\n      0x1f\n      lt\n      tag_56\n      jumpi\n      0x0100\n      dup1\n      dup4\n      sload\n      div\n      mul\n      dup4\n      mstore\n      swap2\n      0x20\n      add\n      swap2\n      jump(tag_55)\n    tag_56:\n      dup3\n      add\n      swap2\n      swap1\n      0x00\n      mstore\n      keccak256(0x00, 0x20)\n      swap1\n    tag_57:\n      dup2\n      sload\n      dup2\n      mstore\n      swap1\n      0x01\n      add\n      swap1\n      0x20\n      add\n      dup1\n      dup4\n      gt\n      tag_57\n      jumpi\n      dup3\n      swap1\n      sub\n      0x1f\n      and\n      dup3\n      add\n      swap2\n    tag_55:\n      pop\n      pop\n      pop\n      pop\n      pop\n      dup2\n      jump\t// out\n        /* \"contracts/ChainlInkFunctions.sol\":517:833  string public source = ... */\n    tag_27:\n      0x00\n      dup1\n      sload\n      tag_58\n      swap1\n      tag_43\n      jump\t// in\n    tag_58:\n      dup1\n      0x1f\n      add\n      0x20\n      dup1\n      swap2\n      div\n      mul\n      0x20\n      add\n      mload(0x40)\n      swap1\n      dup2\n      add\n      0x40\n      mstore\n      dup1\n      swap3\n      swap2\n      swap1\n      dup2\n      dup2\n      mstore\n      0x20\n      add\n      dup3\n      dup1\n      sload\n      tag_59\n      swap1\n      tag_43\n      jump\t// in\n    tag_59:\n      dup1\n      iszero\n      tag_60\n      jumpi\n      dup1\n      0x1f\n      lt\n      tag_61\n      jumpi\n      0x0100\n      dup1\n      dup4\n      sload\n      div\n      mul\n      dup4\n      mstore\n      swap2\n      0x20\n      add\n      swap2\n      jump(tag_60)\n    tag_61:\n      dup3\n      add\n      swap2\n      swap1\n      0x00\n      mstore\n      keccak256(0x00, 0x20)\n      swap1\n    tag_62:\n      dup2\n      sload\n      dup2\n      mstore\n      swap1\n      0x01\n      add\n      swap1\n      0x20\n      add\n      dup1\n      dup4\n      gt\n      tag_62\n      jumpi\n      dup3\n      swap1\n      sub\n      0x1f\n      and\n      dup3\n      add\n      swap2\n    tag_60:\n      pop\n      pop\n      pop\n      pop\n      pop\n      dup2\n      jump\t// out\n        /* \"contracts/ChainlInkFunctions.sol\":1441:1830  function requestBeerData(uint64 subscriptionId) external returns (bytes32) {... */\n    tag_32:\n        /* \"contracts/ChainlInkFunctions.sol\":1507:1514  bytes32 */\n      0x00\n        /* \"contracts/ChainlInkFunctions.sol\":1526:1561  FunctionsRequest.Request memory req */\n      tag_64\n      tag_65\n      jump\t// in\n    tag_64:\n        /* \"contracts/ChainlInkFunctions.sol\":1571:1619  req.initializeRequestForInlineJavaScript(source) */\n      tag_66\n        /* \"contracts/ChainlInkFunctions.sol\":1612:1618  source */\n      0x00\n        /* \"contracts/ChainlInkFunctions.sol\":1571:1619  req.initializeRequestForInlineJavaScript(source) */\n      dup1\n      sload\n      tag_67\n      swap1\n      tag_43\n      jump\t// in\n    tag_67:\n      dup1\n      0x1f\n      add\n      0x20\n      dup1\n      swap2\n      div\n      mul\n      0x20\n      add\n      mload(0x40)\n      swap1\n      dup2\n      add\n      0x40\n      mstore\n      dup1\n      swap3\n      swap2\n      swap1\n      dup2\n      dup2\n      mstore\n      0x20\n      add\n      dup3\n      dup1\n      sload\n      tag_68\n      swap1\n      tag_43\n      jump\t// in\n    tag_68:\n      dup1\n      iszero\n      tag_69\n      jumpi\n      dup1\n      0x1f\n      lt\n      tag_70\n      jumpi\n      0x0100\n      dup1\n      dup4\n      sload\n      div\n      mul\n      dup4\n      mstore\n      swap2\n      0x20\n      add\n      swap2\n      jump(tag_69)\n    tag_70:\n      dup3\n      add\n      swap2\n      swap1\n      0x00\n      mstore\n      keccak256(0x00, 0x20)\n      swap1\n    tag_71:\n      dup2\n      sload\n      dup2\n      mstore\n      swap1\n      0x01\n      add\n      swap1\n      0x20\n      add\n      dup1\n      dup4\n      gt\n      tag_71\n      jumpi\n      dup3\n      swap1\n      sub\n      0x1f\n      and\n      dup3\n      add\n      swap2\n    tag_69:\n      pop\n      pop\n      pop\n      pop\n      pop\n        /* \"contracts/ChainlInkFunctions.sol\":1571:1574  req */\n      dup3\n        /* \"contracts/ChainlInkFunctions.sol\":1571:1611  req.initializeRequestForInlineJavaScript */\n      tag_72\n      swap1\n        /* \"contracts/ChainlInkFunctions.sol\":1571:1619  req.initializeRequestForInlineJavaScript(source) */\n      swap2\n      swap1\n      0xffffffff\n      and\n      jump\t// in\n    tag_66:\n        /* \"contracts/ChainlInkFunctions.sol\":1732:1793  _sendRequest(req.encodeCBOR(), subscriptionId, 300000, donID) */\n      tag_73\n        /* \"contracts/ChainlInkFunctions.sol\":1745:1761  req.encodeCBOR() */\n      tag_74\n        /* \"contracts/ChainlInkFunctions.sol\":1745:1748  req */\n      dup3\n        /* \"contracts/ChainlInkFunctions.sol\":1745:1759  req.encodeCBOR */\n      tag_75\n        /* \"contracts/ChainlInkFunctions.sol\":1745:1761  req.encodeCBOR() */\n      jump\t// in\n    tag_74:\n        /* \"contracts/ChainlInkFunctions.sol\":1763:1777  subscriptionId */\n      dup5\n        /* \"contracts/ChainlInkFunctions.sol\":1779:1785  300000 */\n      0x0493e0\n        /* \"contracts/ChainlInkFunctions.sol\":1787:1792  donID */\n      sload(0x06)\n        /* \"contracts/ChainlInkFunctions.sol\":1732:1744  _sendRequest */\n      tag_76\n        /* \"contracts/ChainlInkFunctions.sol\":1732:1793  _sendRequest(req.encodeCBOR(), subscriptionId, 300000, donID) */\n      jump\t// in\n    tag_73:\n        /* \"contracts/ChainlInkFunctions.sol\":1716:1729  lastRequestId */\n      0x02\n        /* \"contracts/ChainlInkFunctions.sol\":1716:1793  lastRequestId = _sendRequest(req.encodeCBOR(), subscriptionId, 300000, donID) */\n      dup2\n      swap1\n      sstore\n      pop\n        /* \"contracts/ChainlInkFunctions.sol\":1810:1823  lastRequestId */\n      sload(0x02)\n        /* \"contracts/ChainlInkFunctions.sol\":1803:1823  return lastRequestId */\n      swap2\n      pop\n      pop\n        /* \"contracts/ChainlInkFunctions.sol\":1441:1830  function requestBeerData(uint64 subscriptionId) external returns (bytes32) {... */\n      swap2\n      swap1\n      pop\n      jump\t// out\n        /* \"contracts/ChainlInkFunctions.sol\":872:900  bytes32 public lastRequestId */\n    tag_36:\n      sload(0x02)\n      dup2\n      jump\t// out\n        /* \"contracts/ChainlInkFunctions.sol\":1836:2138  function fulfillRequest(... */\n    tag_41:\n        /* \"contracts/ChainlInkFunctions.sol\":1999:2007  response */\n      dup2\n        /* \"contracts/ChainlInkFunctions.sol\":1984:1996  lastResponse */\n      0x03\n        /* \"contracts/ChainlInkFunctions.sol\":1984:2007  lastResponse = response */\n      swap1\n      dup2\n      tag_78\n      swap2\n      swap1\n      tag_79\n      jump\t// in\n    tag_78:\n      pop\n        /* \"contracts/ChainlInkFunctions.sol\":2029:2032  err */\n      dup1\n        /* \"contracts/ChainlInkFunctions.sol\":2017:2026  lastError */\n      0x04\n        /* \"contracts/ChainlInkFunctions.sol\":2017:2032  lastError = err */\n      swap1\n      dup2\n      tag_80\n      swap2\n      swap1\n      tag_79\n      jump\t// in\n    tag_80:\n      pop\n        /* \"contracts/ChainlInkFunctions.sol\":2073:2074  0 */\n      0x00\n        /* \"contracts/ChainlInkFunctions.sol\":2055:2063  response */\n      dup3\n        /* \"contracts/ChainlInkFunctions.sol\":2055:2070  response.length */\n      mload\n        /* \"contracts/ChainlInkFunctions.sol\":2055:2074  response.length > 0 */\n      gt\n        /* \"contracts/ChainlInkFunctions.sol\":2051:2132  if (response.length > 0) {... */\n      iszero\n      tag_81\n      jumpi\n        /* \"contracts/ChainlInkFunctions.sol\":2112:2120  response */\n      dup2\n        /* \"contracts/ChainlInkFunctions.sol\":2090:2102  lastBeerName */\n      0x01\n        /* \"contracts/ChainlInkFunctions.sol\":2090:2121  lastBeerName = string(response) */\n      swap1\n      dup2\n      tag_82\n      swap2\n      swap1\n      tag_83\n      jump\t// in\n    tag_82:\n      pop\n        /* \"contracts/ChainlInkFunctions.sol\":2051:2132  if (response.length > 0) {... */\n    tag_81:\n        /* \"contracts/ChainlInkFunctions.sol\":1836:2138  function fulfillRequest(... */\n      pop\n      pop\n      pop\n      jump\t// out\n        /* \"@chainlink/contracts/src/v0.8/functions/v1_0_0/libraries/FunctionsRequest.sol\":4384:4591  function initializeRequestForInlineJavaScript(Request memory self, string memory javaScriptSource) internal pure {... */\n    tag_72:\n        /* \"@chainlink/contracts/src/v0.8/functions/v1_0_0/libraries/FunctionsRequest.sol\":4503:4586  initializeRequest(self, Location.Inline, CodeLanguage.JavaScript, javaScriptSource) */\n      tag_85\n        /* \"@chainlink/contracts/src/v0.8/functions/v1_0_0/libraries/FunctionsRequest.sol\":4521:4525  self */\n      dup3\n        /* \"@chainlink/contracts/src/v0.8/functions/v1_0_0/libraries/FunctionsRequest.sol\":4527:4542  Location.Inline */\n      0x00\n        /* \"@chainlink/contracts/src/v0.8/functions/v1_0_0/libraries/FunctionsRequest.sol\":4544:4567  CodeLanguage.JavaScript */\n      0x00\n        /* \"@chainlink/contracts/src/v0.8/functions/v1_0_0/libraries/FunctionsRequest.sol\":4569:4585  javaScriptSource */\n      dup5\n        /* \"@chainlink/contracts/src/v0.8/functions/v1_0_0/libraries/FunctionsRequest.sol\":4503:4520  initializeRequest */\n      tag_86\n        /* \"@chainlink/contracts/src/v0.8/functions/v1_0_0/libraries/FunctionsRequest.sol\":4503:4586  initializeRequest(self, Location.Inline, CodeLanguage.JavaScript, javaScriptSource) */\n      jump\t// in\n    tag_85:\n        /* \"@chainlink/contracts/src/v0.8/functions/v1_0_0/libraries/FunctionsRequest.sol\":4384:4591  function initializeRequestForInlineJavaScript(Request memory self, string memory javaScriptSource) internal pure {... */\n      pop\n      pop\n      jump\t// out\n        /* \"@chainlink/contracts/src/v0.8/functions/v1_0_0/libraries/FunctionsRequest.sol\":2211:3489  function encodeCBOR(... */\n    tag_75:\n        /* \"@chainlink/contracts/src/v0.8/functions/v1_0_0/libraries/FunctionsRequest.sol\":2283:2295  bytes memory */\n      0x60\n        /* \"@chainlink/contracts/src/v0.8/functions/v1_0_0/libraries/FunctionsRequest.sol\":2303:2332  CBOR.CBORBuffer memory buffer */\n      0x00\n        /* \"@chainlink/contracts/src/v0.8/functions/v1_0_0/libraries/FunctionsRequest.sol\":2335:2367  CBOR.create(DEFAULT_BUFFER_SIZE) */\n      tag_88\n        /* \"@chainlink/contracts/src/v0.8/functions/v1_0_0/libraries/FunctionsRequest.sol\":375:378  256 */\n      0x0100\n        /* \"@chainlink/contracts/src/v0.8/functions/v1_0_0/libraries/FunctionsRequest.sol\":2335:2346  CBOR.create */\n      tag_89\n        /* \"@chainlink/contracts/src/v0.8/functions/v1_0_0/libraries/FunctionsRequest.sol\":2335:2367  CBOR.create(DEFAULT_BUFFER_SIZE) */\n      jump\t// in\n    tag_88:\n        /* \"@chainlink/contracts/src/v0.8/functions/v1_0_0/libraries/FunctionsRequest.sol\":2303:2367  CBOR.CBORBuffer memory buffer = CBOR.create(DEFAULT_BUFFER_SIZE) */\n      swap1\n      pop\n        /* \"@chainlink/contracts/src/v0.8/functions/v1_0_0/libraries/FunctionsRequest.sol\":2374:2408  buffer.writeString(\"codeLocation\") */\n      tag_90\n      mload(0x40)\n      dup1\n      0x40\n      add\n      0x40\n      mstore\n      dup1\n      0x0c\n      dup2\n      mstore\n      0x20\n      add\n      0x636f64654c6f636174696f6e0000000000000000000000000000000000000000\n      dup2\n      mstore\n      pop\n        /* \"@chainlink/contracts/src/v0.8/functions/v1_0_0/libraries/FunctionsRequest.sol\":2374:2380  buffer */\n      dup3\n        /* \"@chainlink/contracts/src/v0.8/functions/v1_0_0/libraries/FunctionsRequest.sol\":2374:2392  buffer.writeString */\n      tag_91\n      swap1\n        /* \"@chainlink/contracts/src/v0.8/functions/v1_0_0/libraries/FunctionsRequest.sol\":2374:2408  buffer.writeString(\"codeLocation\") */\n      swap2\n      swap1\n      0xffffffff\n      and\n      jump\t// in\n    tag_90:\n        /* \"@chainlink/contracts/src/v0.8/functions/v1_0_0/libraries/FunctionsRequest.sol\":2414:2461  buffer.writeUInt256(uint256(self.codeLocation)) */\n      tag_92\n        /* \"@chainlink/contracts/src/v0.8/functions/v1_0_0/libraries/FunctionsRequest.sol\":2442:2446  self */\n      dup4\n        /* \"@chainlink/contracts/src/v0.8/functions/v1_0_0/libraries/FunctionsRequest.sol\":2442:2459  self.codeLocation */\n      0x00\n      add\n      mload\n        /* \"@chainlink/contracts/src/v0.8/functions/v1_0_0/libraries/FunctionsRequest.sol\":2434:2460  uint256(self.codeLocation) */\n      0x02\n      dup2\n      gt\n      iszero\n      tag_93\n      jumpi\n      tag_94\n      tag_95\n      jump\t// in\n    tag_94:\n    tag_93:\n        /* \"@chainlink/contracts/src/v0.8/functions/v1_0_0/libraries/FunctionsRequest.sol\":2414:2420  buffer */\n      dup3\n        /* \"@chainlink/contracts/src/v0.8/functions/v1_0_0/libraries/FunctionsRequest.sol\":2414:2433  buffer.writeUInt256 */\n      tag_96\n      swap1\n        /* \"@chainlink/contracts/src/v0.8/functions/v1_0_0/libraries/FunctionsRequest.sol\":2414:2461  buffer.writeUInt256(uint256(self.codeLocation)) */\n      swap2\n      swap1\n      0xffffffff\n      and\n      jump\t// in\n    tag_92:\n        /* \"@chainlink/contracts/src/v0.8/functions/v1_0_0/libraries/FunctionsRequest.sol\":2468:2498  buffer.writeString(\"language\") */\n      tag_97\n      mload(0x40)\n      dup1\n      0x40\n      add\n      0x40\n      mstore\n      dup1\n      0x08\n      dup2\n      mstore\n      0x20\n      add\n      0x6c616e6775616765000000000000000000000000000000000000000000000000\n      dup2\n      mstore\n      pop\n        /* \"@chainlink/contracts/src/v0.8/functions/v1_0_0/libraries/FunctionsRequest.sol\":2468:2474  buffer */\n      dup3\n        /* \"@chainlink/contracts/src/v0.8/functions/v1_0_0/libraries/FunctionsRequest.sol\":2468:2486  buffer.writeString */\n      tag_91\n      swap1\n        /* \"@chainlink/contracts/src/v0.8/functions/v1_0_0/libraries/FunctionsRequest.sol\":2468:2498  buffer.writeString(\"language\") */\n      swap2\n      swap1\n      0xffffffff\n      and\n      jump\t// in\n    tag_97:\n        /* \"@chainlink/contracts/src/v0.8/functions/v1_0_0/libraries/FunctionsRequest.sol\":2504:2547  buffer.writeUInt256(uint256(self.language)) */\n      tag_98\n        /* \"@chainlink/contracts/src/v0.8/functions/v1_0_0/libraries/FunctionsRequest.sol\":2532:2536  self */\n      dup4\n        /* \"@chainlink/contracts/src/v0.8/functions/v1_0_0/libraries/FunctionsRequest.sol\":2532:2545  self.language */\n      0x40\n      add\n      mload\n        /* \"@chainlink/contracts/src/v0.8/functions/v1_0_0/libraries/FunctionsRequest.sol\":2524:2546  uint256(self.language) */\n      0x00\n      dup2\n      gt\n      iszero\n      tag_99\n      jumpi\n      tag_100\n      tag_95\n      jump\t// in\n    tag_100:\n    tag_99:\n        /* \"@chainlink/contracts/src/v0.8/functions/v1_0_0/libraries/FunctionsRequest.sol\":2504:2510  buffer */\n      dup3\n        /* \"@chainlink/contracts/src/v0.8/functions/v1_0_0/libraries/FunctionsRequest.sol\":2504:2523  buffer.writeUInt256 */\n      tag_96\n      swap1\n        /* \"@chainlink/contracts/src/v0.8/functions/v1_0_0/libraries/FunctionsRequest.sol\":2504:2547  buffer.writeUInt256(uint256(self.language)) */\n      swap2\n      swap1\n      0xffffffff\n      and\n      jump\t// in\n    tag_98:\n        /* \"@chainlink/contracts/src/v0.8/functions/v1_0_0/libraries/FunctionsRequest.sol\":2554:2582  buffer.writeString(\"source\") */\n      tag_101\n      mload(0x40)\n      dup1\n      0x40\n      add\n      0x40\n      mstore\n      dup1\n      0x06\n      dup2\n      mstore\n      0x20\n      add\n      0x736f757263650000000000000000000000000000000000000000000000000000\n      dup2\n      mstore\n      pop\n        /* \"@chainlink/contracts/src/v0.8/functions/v1_0_0/libraries/FunctionsRequest.sol\":2554:2560  buffer */\n      dup3\n        /* \"@chainlink/contracts/src/v0.8/functions/v1_0_0/libraries/FunctionsRequest.sol\":2554:2572  buffer.writeString */\n      tag_91\n      swap1\n        /* \"@chainlink/contracts/src/v0.8/functions/v1_0_0/libraries/FunctionsRequest.sol\":2554:2582  buffer.writeString(\"source\") */\n      swap2\n      swap1\n      0xffffffff\n      and\n      jump\t// in\n    tag_101:\n        /* \"@chainlink/contracts/src/v0.8/functions/v1_0_0/libraries/FunctionsRequest.sol\":2588:2619  buffer.writeString(self.source) */\n      tag_102\n        /* \"@chainlink/contracts/src/v0.8/functions/v1_0_0/libraries/FunctionsRequest.sol\":2607:2611  self */\n      dup4\n        /* \"@chainlink/contracts/src/v0.8/functions/v1_0_0/libraries/FunctionsRequest.sol\":2607:2618  self.source */\n      0x60\n      add\n      mload\n        /* \"@chainlink/contracts/src/v0.8/functions/v1_0_0/libraries/FunctionsRequest.sol\":2588:2594  buffer */\n      dup3\n        /* \"@chainlink/contracts/src/v0.8/functions/v1_0_0/libraries/FunctionsRequest.sol\":2588:2606  buffer.writeString */\n      tag_91\n      swap1\n        /* \"@chainlink/contracts/src/v0.8/functions/v1_0_0/libraries/FunctionsRequest.sol\":2588:2619  buffer.writeString(self.source) */\n      swap2\n      swap1\n      0xffffffff\n      and\n      jump\t// in\n    tag_102:\n        /* \"@chainlink/contracts/src/v0.8/functions/v1_0_0/libraries/FunctionsRequest.sol\":2649:2650  0 */\n      0x00\n        /* \"@chainlink/contracts/src/v0.8/functions/v1_0_0/libraries/FunctionsRequest.sol\":2630:2634  self */\n      dup4\n        /* \"@chainlink/contracts/src/v0.8/functions/v1_0_0/libraries/FunctionsRequest.sol\":2630:2639  self.args */\n      0xa0\n      add\n      mload\n        /* \"@chainlink/contracts/src/v0.8/functions/v1_0_0/libraries/FunctionsRequest.sol\":2630:2646  self.args.length */\n      mload\n        /* \"@chainlink/contracts/src/v0.8/functions/v1_0_0/libraries/FunctionsRequest.sol\":2630:2650  self.args.length > 0 */\n      gt\n        /* \"@chainlink/contracts/src/v0.8/functions/v1_0_0/libraries/FunctionsRequest.sol\":2626:2853  if (self.args.length > 0) {... */\n      iszero\n      tag_103\n      jumpi\n        /* \"@chainlink/contracts/src/v0.8/functions/v1_0_0/libraries/FunctionsRequest.sol\":2660:2686  buffer.writeString(\"args\") */\n      tag_104\n      mload(0x40)\n      dup1\n      0x40\n      add\n      0x40\n      mstore\n      dup1\n      0x04\n      dup2\n      mstore\n      0x20\n      add\n      0x6172677300000000000000000000000000000000000000000000000000000000\n      dup2\n      mstore\n      pop\n        /* \"@chainlink/contracts/src/v0.8/functions/v1_0_0/libraries/FunctionsRequest.sol\":2660:2666  buffer */\n      dup3\n        /* \"@chainlink/contracts/src/v0.8/functions/v1_0_0/libraries/FunctionsRequest.sol\":2660:2678  buffer.writeString */\n      tag_91\n      swap1\n        /* \"@chainlink/contracts/src/v0.8/functions/v1_0_0/libraries/FunctionsRequest.sol\":2660:2686  buffer.writeString(\"args\") */\n      swap2\n      swap1\n      0xffffffff\n      and\n      jump\t// in\n    tag_104:\n        /* \"@chainlink/contracts/src/v0.8/functions/v1_0_0/libraries/FunctionsRequest.sol\":2694:2713  buffer.startArray() */\n      tag_105\n        /* \"@chainlink/contracts/src/v0.8/functions/v1_0_0/libraries/FunctionsRequest.sol\":2694:2700  buffer */\n      dup2\n        /* \"@chainlink/contracts/src/v0.8/functions/v1_0_0/libraries/FunctionsRequest.sol\":2694:2711  buffer.startArray */\n      tag_106\n        /* \"@chainlink/contracts/src/v0.8/functions/v1_0_0/libraries/FunctionsRequest.sol\":2694:2713  buffer.startArray() */\n      jump\t// in\n    tag_105:\n        /* \"@chainlink/contracts/src/v0.8/functions/v1_0_0/libraries/FunctionsRequest.sol\":2726:2735  uint256 i */\n      0x00\n        /* \"@chainlink/contracts/src/v0.8/functions/v1_0_0/libraries/FunctionsRequest.sol\":2738:2739  0 */\n      0x00\n        /* \"@chainlink/contracts/src/v0.8/functions/v1_0_0/libraries/FunctionsRequest.sol\":2726:2739  uint256 i = 0 */\n      swap1\n      pop\n        /* \"@chainlink/contracts/src/v0.8/functions/v1_0_0/libraries/FunctionsRequest.sol\":2721:2819  for (uint256 i = 0; i < self.args.length; ++i) {... */\n    tag_107:\n        /* \"@chainlink/contracts/src/v0.8/functions/v1_0_0/libraries/FunctionsRequest.sol\":2745:2749  self */\n      dup4\n        /* \"@chainlink/contracts/src/v0.8/functions/v1_0_0/libraries/FunctionsRequest.sol\":2745:2754  self.args */\n      0xa0\n      add\n      mload\n        /* \"@chainlink/contracts/src/v0.8/functions/v1_0_0/libraries/FunctionsRequest.sol\":2745:2761  self.args.length */\n      mload\n        /* \"@chainlink/contracts/src/v0.8/functions/v1_0_0/libraries/FunctionsRequest.sol\":2741:2742  i */\n      dup2\n        /* \"@chainlink/contracts/src/v0.8/functions/v1_0_0/libraries/FunctionsRequest.sol\":2741:2761  i < self.args.length */\n      lt\n        /* \"@chainlink/contracts/src/v0.8/functions/v1_0_0/libraries/FunctionsRequest.sol\":2721:2819  for (uint256 i = 0; i < self.args.length; ++i) {... */\n      iszero\n      tag_108\n      jumpi\n        /* \"@chainlink/contracts/src/v0.8/functions/v1_0_0/libraries/FunctionsRequest.sol\":2778:2810  buffer.writeString(self.args[i]) */\n      tag_110\n        /* \"@chainlink/contracts/src/v0.8/functions/v1_0_0/libraries/FunctionsRequest.sol\":2797:2801  self */\n      dup5\n        /* \"@chainlink/contracts/src/v0.8/functions/v1_0_0/libraries/FunctionsRequest.sol\":2797:2806  self.args */\n      0xa0\n      add\n      mload\n        /* \"@chainlink/contracts/src/v0.8/functions/v1_0_0/libraries/FunctionsRequest.sol\":2807:2808  i */\n      dup3\n        /* \"@chainlink/contracts/src/v0.8/functions/v1_0_0/libraries/FunctionsRequest.sol\":2797:2809  self.args[i] */\n      dup2\n      mload\n      dup2\n      lt\n      tag_111\n      jumpi\n      tag_112\n      tag_113\n      jump\t// in\n    tag_112:\n    tag_111:\n      0x20\n      mul\n      0x20\n      add\n      add\n      mload\n        /* \"@chainlink/contracts/src/v0.8/functions/v1_0_0/libraries/FunctionsRequest.sol\":2778:2784  buffer */\n      dup4\n        /* \"@chainlink/contracts/src/v0.8/functions/v1_0_0/libraries/FunctionsRequest.sol\":2778:2796  buffer.writeString */\n      tag_91\n      swap1\n        /* \"@chainlink/contracts/src/v0.8/functions/v1_0_0/libraries/FunctionsRequest.sol\":2778:2810  buffer.writeString(self.args[i]) */\n      swap2\n      swap1\n      0xffffffff\n      and\n      jump\t// in\n    tag_110:\n        /* \"@chainlink/contracts/src/v0.8/functions/v1_0_0/libraries/FunctionsRequest.sol\":2763:2766  ++i */\n      dup1\n      0x01\n      add\n      swap1\n      pop\n        /* \"@chainlink/contracts/src/v0.8/functions/v1_0_0/libraries/FunctionsRequest.sol\":2721:2819  for (uint256 i = 0; i < self.args.length; ++i) {... */\n      jump(tag_107)\n    tag_108:\n      pop\n        /* \"@chainlink/contracts/src/v0.8/functions/v1_0_0/libraries/FunctionsRequest.sol\":2826:2846  buffer.endSequence() */\n      tag_114\n        /* \"@chainlink/contracts/src/v0.8/functions/v1_0_0/libraries/FunctionsRequest.sol\":2826:2832  buffer */\n      dup2\n        /* \"@chainlink/contracts/src/v0.8/functions/v1_0_0/libraries/FunctionsRequest.sol\":2826:2844  buffer.endSequence */\n      tag_115\n        /* \"@chainlink/contracts/src/v0.8/functions/v1_0_0/libraries/FunctionsRequest.sol\":2826:2846  buffer.endSequence() */\n      jump\t// in\n    tag_114:\n        /* \"@chainlink/contracts/src/v0.8/functions/v1_0_0/libraries/FunctionsRequest.sol\":2626:2853  if (self.args.length > 0) {... */\n    tag_103:\n        /* \"@chainlink/contracts/src/v0.8/functions/v1_0_0/libraries/FunctionsRequest.sol\":2903:2904  0 */\n      0x00\n        /* \"@chainlink/contracts/src/v0.8/functions/v1_0_0/libraries/FunctionsRequest.sol\":2863:2867  self */\n      dup4\n        /* \"@chainlink/contracts/src/v0.8/functions/v1_0_0/libraries/FunctionsRequest.sol\":2863:2893  self.encryptedSecretsReference */\n      0x80\n      add\n      mload\n        /* \"@chainlink/contracts/src/v0.8/functions/v1_0_0/libraries/FunctionsRequest.sol\":2863:2900  self.encryptedSecretsReference.length */\n      mload\n        /* \"@chainlink/contracts/src/v0.8/functions/v1_0_0/libraries/FunctionsRequest.sol\":2863:2904  self.encryptedSecretsReference.length > 0 */\n      gt\n        /* \"@chainlink/contracts/src/v0.8/functions/v1_0_0/libraries/FunctionsRequest.sol\":2859:3205  if (self.encryptedSecretsReference.length > 0) {... */\n      iszero\n      tag_116\n      jumpi\n        /* \"@chainlink/contracts/src/v0.8/functions/v1_0_0/libraries/FunctionsRequest.sol\":2942:2957  Location.Inline */\n      0x00\n        /* \"@chainlink/contracts/src/v0.8/functions/v1_0_0/libraries/FunctionsRequest.sol\":2918:2957  self.secretsLocation == Location.Inline */\n      0x02\n      dup2\n      gt\n      iszero\n      tag_117\n      jumpi\n      tag_118\n      tag_95\n      jump\t// in\n    tag_118:\n    tag_117:\n        /* \"@chainlink/contracts/src/v0.8/functions/v1_0_0/libraries/FunctionsRequest.sol\":2918:2922  self */\n      dup4\n        /* \"@chainlink/contracts/src/v0.8/functions/v1_0_0/libraries/FunctionsRequest.sol\":2918:2938  self.secretsLocation */\n      0x20\n      add\n      mload\n        /* \"@chainlink/contracts/src/v0.8/functions/v1_0_0/libraries/FunctionsRequest.sol\":2918:2957  self.secretsLocation == Location.Inline */\n      0x02\n      dup2\n      gt\n      iszero\n      tag_119\n      jumpi\n      tag_120\n      tag_95\n      jump\t// in\n    tag_120:\n    tag_119:\n      sub\n        /* \"@chainlink/contracts/src/v0.8/functions/v1_0_0/libraries/FunctionsRequest.sol\":2914:3002  if (self.secretsLocation == Location.Inline) {... */\n      tag_121\n      jumpi\n        /* \"@chainlink/contracts/src/v0.8/functions/v1_0_0/libraries/FunctionsRequest.sol\":2976:2993  NoInlineSecrets() */\n      mload(0x40)\n      0xa80d31f700000000000000000000000000000000000000000000000000000000\n      dup2\n      mstore\n      0x04\n      add\n      mload(0x40)\n      dup1\n      swap2\n      sub\n      swap1\n      revert\n        /* \"@chainlink/contracts/src/v0.8/functions/v1_0_0/libraries/FunctionsRequest.sol\":2914:3002  if (self.secretsLocation == Location.Inline) {... */\n    tag_121:\n        /* \"@chainlink/contracts/src/v0.8/functions/v1_0_0/libraries/FunctionsRequest.sol\":3009:3046  buffer.writeString(\"secretsLocation\") */\n      tag_122\n      mload(0x40)\n      dup1\n      0x40\n      add\n      0x40\n      mstore\n      dup1\n      0x0f\n      dup2\n      mstore\n      0x20\n      add\n      0x736563726574734c6f636174696f6e0000000000000000000000000000000000\n      dup2\n      mstore\n      pop\n        /* \"@chainlink/contracts/src/v0.8/functions/v1_0_0/libraries/FunctionsRequest.sol\":3009:3015  buffer */\n      dup3\n        /* \"@chainlink/contracts/src/v0.8/functions/v1_0_0/libraries/FunctionsRequest.sol\":3009:3027  buffer.writeString */\n      tag_91\n      swap1\n        /* \"@chainlink/contracts/src/v0.8/functions/v1_0_0/libraries/FunctionsRequest.sol\":3009:3046  buffer.writeString(\"secretsLocation\") */\n      swap2\n      swap1\n      0xffffffff\n      and\n      jump\t// in\n    tag_122:\n        /* \"@chainlink/contracts/src/v0.8/functions/v1_0_0/libraries/FunctionsRequest.sol\":3054:3104  buffer.writeUInt256(uint256(self.secretsLocation)) */\n      tag_123\n        /* \"@chainlink/contracts/src/v0.8/functions/v1_0_0/libraries/FunctionsRequest.sol\":3082:3086  self */\n      dup4\n        /* \"@chainlink/contracts/src/v0.8/functions/v1_0_0/libraries/FunctionsRequest.sol\":3082:3102  self.secretsLocation */\n      0x20\n      add\n      mload\n        /* \"@chainlink/contracts/src/v0.8/functions/v1_0_0/libraries/FunctionsRequest.sol\":3074:3103  uint256(self.secretsLocation) */\n      0x02\n      dup2\n      gt\n      iszero\n      tag_124\n      jumpi\n      tag_125\n      tag_95\n      jump\t// in\n    tag_125:\n    tag_124:\n        /* \"@chainlink/contracts/src/v0.8/functions/v1_0_0/libraries/FunctionsRequest.sol\":3054:3060  buffer */\n      dup3\n        /* \"@chainlink/contracts/src/v0.8/functions/v1_0_0/libraries/FunctionsRequest.sol\":3054:3073  buffer.writeUInt256 */\n      tag_96\n      swap1\n        /* \"@chainlink/contracts/src/v0.8/functions/v1_0_0/libraries/FunctionsRequest.sol\":3054:3104  buffer.writeUInt256(uint256(self.secretsLocation)) */\n      swap2\n      swap1\n      0xffffffff\n      and\n      jump\t// in\n    tag_123:\n        /* \"@chainlink/contracts/src/v0.8/functions/v1_0_0/libraries/FunctionsRequest.sol\":3112:3141  buffer.writeString(\"secrets\") */\n      tag_126\n      mload(0x40)\n      dup1\n      0x40\n      add\n      0x40\n      mstore\n      dup1\n      0x07\n      dup2\n      mstore\n      0x20\n      add\n      0x7365637265747300000000000000000000000000000000000000000000000000\n      dup2\n      mstore\n      pop\n        /* \"@chainlink/contracts/src/v0.8/functions/v1_0_0/libraries/FunctionsRequest.sol\":3112:3118  buffer */\n      dup3\n        /* \"@chainlink/contracts/src/v0.8/functions/v1_0_0/libraries/FunctionsRequest.sol\":3112:3130  buffer.writeString */\n      tag_91\n      swap1\n        /* \"@chainlink/contracts/src/v0.8/functions/v1_0_0/libraries/FunctionsRequest.sol\":3112:3141  buffer.writeString(\"secrets\") */\n      swap2\n      swap1\n      0xffffffff\n      and\n      jump\t// in\n    tag_126:\n        /* \"@chainlink/contracts/src/v0.8/functions/v1_0_0/libraries/FunctionsRequest.sol\":3149:3198  buffer.writeBytes(self.encryptedSecretsReference) */\n      tag_127\n        /* \"@chainlink/contracts/src/v0.8/functions/v1_0_0/libraries/FunctionsRequest.sol\":3167:3171  self */\n      dup4\n        /* \"@chainlink/contracts/src/v0.8/functions/v1_0_0/libraries/FunctionsRequest.sol\":3167:3197  self.encryptedSecretsReference */\n      0x80\n      add\n      mload\n        /* \"@chainlink/contracts/src/v0.8/functions/v1_0_0/libraries/FunctionsRequest.sol\":3149:3155  buffer */\n      dup3\n        /* \"@chainlink/contracts/src/v0.8/functions/v1_0_0/libraries/FunctionsRequest.sol\":3149:3166  buffer.writeBytes */\n      tag_128\n      swap1\n        /* \"@chainlink/contracts/src/v0.8/functions/v1_0_0/libraries/FunctionsRequest.sol\":3149:3198  buffer.writeBytes(self.encryptedSecretsReference) */\n      swap2\n      swap1\n      0xffffffff\n      and\n      jump\t// in\n    tag_127:\n        /* \"@chainlink/contracts/src/v0.8/functions/v1_0_0/libraries/FunctionsRequest.sol\":2859:3205  if (self.encryptedSecretsReference.length > 0) {... */\n    tag_116:\n        /* \"@chainlink/contracts/src/v0.8/functions/v1_0_0/libraries/FunctionsRequest.sol\":3239:3240  0 */\n      0x00\n        /* \"@chainlink/contracts/src/v0.8/functions/v1_0_0/libraries/FunctionsRequest.sol\":3215:3219  self */\n      dup4\n        /* \"@chainlink/contracts/src/v0.8/functions/v1_0_0/libraries/FunctionsRequest.sol\":3215:3229  self.bytesArgs */\n      0xc0\n      add\n      mload\n        /* \"@chainlink/contracts/src/v0.8/functions/v1_0_0/libraries/FunctionsRequest.sol\":3215:3236  self.bytesArgs.length */\n      mload\n        /* \"@chainlink/contracts/src/v0.8/functions/v1_0_0/libraries/FunctionsRequest.sol\":3215:3240  self.bytesArgs.length > 0 */\n      gt\n        /* \"@chainlink/contracts/src/v0.8/functions/v1_0_0/libraries/FunctionsRequest.sol\":3211:3457  if (self.bytesArgs.length > 0) {... */\n      iszero\n      tag_129\n      jumpi\n        /* \"@chainlink/contracts/src/v0.8/functions/v1_0_0/libraries/FunctionsRequest.sol\":3250:3281  buffer.writeString(\"bytesArgs\") */\n      tag_130\n      mload(0x40)\n      dup1\n      0x40\n      add\n      0x40\n      mstore\n      dup1\n      0x09\n      dup2\n      mstore\n      0x20\n      add\n      0x6279746573417267730000000000000000000000000000000000000000000000\n      dup2\n      mstore\n      pop\n        /* \"@chainlink/contracts/src/v0.8/functions/v1_0_0/libraries/FunctionsRequest.sol\":3250:3256  buffer */\n      dup3\n        /* \"@chainlink/contracts/src/v0.8/functions/v1_0_0/libraries/FunctionsRequest.sol\":3250:3268  buffer.writeString */\n      tag_91\n      swap1\n        /* \"@chainlink/contracts/src/v0.8/functions/v1_0_0/libraries/FunctionsRequest.sol\":3250:3281  buffer.writeString(\"bytesArgs\") */\n      swap2\n      swap1\n      0xffffffff\n      and\n      jump\t// in\n    tag_130:\n        /* \"@chainlink/contracts/src/v0.8/functions/v1_0_0/libraries/FunctionsRequest.sol\":3289:3308  buffer.startArray() */\n      tag_131\n        /* \"@chainlink/contracts/src/v0.8/functions/v1_0_0/libraries/FunctionsRequest.sol\":3289:3295  buffer */\n      dup2\n        /* \"@chainlink/contracts/src/v0.8/functions/v1_0_0/libraries/FunctionsRequest.sol\":3289:3306  buffer.startArray */\n      tag_106\n        /* \"@chainlink/contracts/src/v0.8/functions/v1_0_0/libraries/FunctionsRequest.sol\":3289:3308  buffer.startArray() */\n      jump\t// in\n    tag_131:\n        /* \"@chainlink/contracts/src/v0.8/functions/v1_0_0/libraries/FunctionsRequest.sol\":3321:3330  uint256 i */\n      0x00\n        /* \"@chainlink/contracts/src/v0.8/functions/v1_0_0/libraries/FunctionsRequest.sol\":3333:3334  0 */\n      0x00\n        /* \"@chainlink/contracts/src/v0.8/functions/v1_0_0/libraries/FunctionsRequest.sol\":3321:3334  uint256 i = 0 */\n      swap1\n      pop\n        /* \"@chainlink/contracts/src/v0.8/functions/v1_0_0/libraries/FunctionsRequest.sol\":3316:3423  for (uint256 i = 0; i < self.bytesArgs.length; ++i) {... */\n    tag_132:\n        /* \"@chainlink/contracts/src/v0.8/functions/v1_0_0/libraries/FunctionsRequest.sol\":3340:3344  self */\n      dup4\n        /* \"@chainlink/contracts/src/v0.8/functions/v1_0_0/libraries/FunctionsRequest.sol\":3340:3354  self.bytesArgs */\n      0xc0\n      add\n      mload\n        /* \"@chainlink/contracts/src/v0.8/functions/v1_0_0/libraries/FunctionsRequest.sol\":3340:3361  self.bytesArgs.length */\n      mload\n        /* \"@chainlink/contracts/src/v0.8/functions/v1_0_0/libraries/FunctionsRequest.sol\":3336:3337  i */\n      dup2\n        /* \"@chainlink/contracts/src/v0.8/functions/v1_0_0/libraries/FunctionsRequest.sol\":3336:3361  i < self.bytesArgs.length */\n      lt\n        /* \"@chainlink/contracts/src/v0.8/functions/v1_0_0/libraries/FunctionsRequest.sol\":3316:3423  for (uint256 i = 0; i < self.bytesArgs.length; ++i) {... */\n      iszero\n      tag_133\n      jumpi\n        /* \"@chainlink/contracts/src/v0.8/functions/v1_0_0/libraries/FunctionsRequest.sol\":3378:3414  buffer.writeBytes(self.bytesArgs[i]) */\n      tag_135\n        /* \"@chainlink/contracts/src/v0.8/functions/v1_0_0/libraries/FunctionsRequest.sol\":3396:3400  self */\n      dup5\n        /* \"@chainlink/contracts/src/v0.8/functions/v1_0_0/libraries/FunctionsRequest.sol\":3396:3410  self.bytesArgs */\n      0xc0\n      add\n      mload\n        /* \"@chainlink/contracts/src/v0.8/functions/v1_0_0/libraries/FunctionsRequest.sol\":3411:3412  i */\n      dup3\n        /* \"@chainlink/contracts/src/v0.8/functions/v1_0_0/libraries/FunctionsRequest.sol\":3396:3413  self.bytesArgs[i] */\n      dup2\n      mload\n      dup2\n      lt\n      tag_136\n      jumpi\n      tag_137\n      tag_113\n      jump\t// in\n    tag_137:\n    tag_136:\n      0x20\n      mul\n      0x20\n      add\n      add\n      mload\n        /* \"@chainlink/contracts/src/v0.8/functions/v1_0_0/libraries/FunctionsRequest.sol\":3378:3384  buffer */\n      dup4\n        /* \"@chainlink/contracts/src/v0.8/functions/v1_0_0/libraries/FunctionsRequest.sol\":3378:3395  buffer.writeBytes */\n      tag_128\n      swap1\n        /* \"@chainlink/contracts/src/v0.8/functions/v1_0_0/libraries/FunctionsRequest.sol\":3378:3414  buffer.writeBytes(self.bytesArgs[i]) */\n      swap2\n      swap1\n      0xffffffff\n      and\n      jump\t// in\n    tag_135:\n        /* \"@chainlink/contracts/src/v0.8/functions/v1_0_0/libraries/FunctionsRequest.sol\":3363:3366  ++i */\n      dup1\n      0x01\n      add\n      swap1\n      pop\n        /* \"@chainlink/contracts/src/v0.8/functions/v1_0_0/libraries/FunctionsRequest.sol\":3316:3423  for (uint256 i = 0; i < self.bytesArgs.length; ++i) {... */\n      jump(tag_132)\n    tag_133:\n      pop\n        /* \"@chainlink/contracts/src/v0.8/functions/v1_0_0/libraries/FunctionsRequest.sol\":3430:3450  buffer.endSequence() */\n      tag_138\n        /* \"@chainlink/contracts/src/v0.8/functions/v1_0_0/libraries/FunctionsRequest.sol\":3430:3436  buffer */\n      dup2\n        /* \"@chainlink/contracts/src/v0.8/functions/v1_0_0/libraries/FunctionsRequest.sol\":3430:3448  buffer.endSequence */\n      tag_115\n        /* \"@chainlink/contracts/src/v0.8/functions/v1_0_0/libraries/FunctionsRequest.sol\":3430:3450  buffer.endSequence() */\n      jump\t// in\n    tag_138:\n        /* \"@chainlink/contracts/src/v0.8/functions/v1_0_0/libraries/FunctionsRequest.sol\":3211:3457  if (self.bytesArgs.length > 0) {... */\n    tag_129:\n        /* \"@chainlink/contracts/src/v0.8/functions/v1_0_0/libraries/FunctionsRequest.sol\":3470:3476  buffer */\n      dup1\n        /* \"@chainlink/contracts/src/v0.8/functions/v1_0_0/libraries/FunctionsRequest.sol\":3470:3480  buffer.buf */\n      0x00\n      add\n      mload\n        /* \"@chainlink/contracts/src/v0.8/functions/v1_0_0/libraries/FunctionsRequest.sol\":3470:3484  buffer.buf.buf */\n      0x00\n      add\n      mload\n        /* \"@chainlink/contracts/src/v0.8/functions/v1_0_0/libraries/FunctionsRequest.sol\":3463:3484  return buffer.buf.buf */\n      swap2\n      pop\n      pop\n        /* \"@chainlink/contracts/src/v0.8/functions/v1_0_0/libraries/FunctionsRequest.sol\":2211:3489  function encodeCBOR(... */\n      swap2\n      swap1\n      pop\n      jump\t// out\n        /* \"@chainlink/contracts/src/v0.8/functions/v1_0_0/FunctionsClient.sol\":1166:1515  function _sendRequest(... */\n    tag_76:\n        /* \"@chainlink/contracts/src/v0.8/functions/v1_0_0/FunctionsClient.sol\":1308:1315  bytes32 */\n      0x00\n        /* \"@chainlink/contracts/src/v0.8/functions/v1_0_0/FunctionsClient.sol\":1323:1340  bytes32 requestId */\n      0x00\n        /* \"@chainlink/contracts/src/v0.8/functions/v1_0_0/FunctionsClient.sol\":1349:1357  i_router */\n      immutable(\"0x8e8fab5f003314da8d1873ea7720e8d9f47650136d916064d1edb8a11d682624\")\n        /* \"@chainlink/contracts/src/v0.8/functions/v1_0_0/FunctionsClient.sol\":1349:1369  i_router.sendRequest */\n      0xffffffffffffffffffffffffffffffffffffffff\n      and\n      0x461d2762\n        /* \"@chainlink/contracts/src/v0.8/functions/v1_0_0/FunctionsClient.sol\":1370:1384  subscriptionId */\n      dup7\n        /* \"@chainlink/contracts/src/v0.8/functions/v1_0_0/FunctionsClient.sol\":1386:1390  data */\n      dup9\n        /* \"@chainlink/contracts/src/v0.8/functions/v1_0_0/libraries/FunctionsRequest.sol\":322:323  1 */\n      0x01\n        /* \"@chainlink/contracts/src/v0.8/functions/v1_0_0/FunctionsClient.sol\":1431:1447  callbackGasLimit */\n      dup9\n        /* \"@chainlink/contracts/src/v0.8/functions/v1_0_0/FunctionsClient.sol\":1449:1454  donId */\n      dup9\n        /* \"@chainlink/contracts/src/v0.8/functions/v1_0_0/FunctionsClient.sol\":1349:1455  i_router.sendRequest(subscriptionId, data, FunctionsRequest.REQUEST_DATA_VERSION, callbackGasLimit, donId) */\n      mload(0x40)\n      dup7\n      0xffffffff\n      and\n      0xe0\n      shl\n      dup2\n      mstore\n      0x04\n      add\n      tag_140\n      swap6\n      swap5\n      swap4\n      swap3\n      swap2\n      swap1\n      tag_141\n      jump\t// in\n    tag_140:\n      0x20\n      mload(0x40)\n      dup1\n      dup4\n      sub\n      dup2\n      0x00\n      dup8\n      gas\n      call\n      iszero\n      dup1\n      iszero\n      tag_143\n      jumpi\n      returndatacopy(0x00, 0x00, returndatasize)\n      revert(0x00, returndatasize)\n    tag_143:\n      pop\n      pop\n      pop\n      pop\n      mload(0x40)\n      returndatasize\n      not(0x1f)\n      0x1f\n      dup3\n      add\n      and\n      dup3\n      add\n      dup1\n      0x40\n      mstore\n      pop\n      dup2\n      add\n      swap1\n      tag_144\n      swap2\n      swap1\n      tag_145\n      jump\t// in\n    tag_144:\n        /* \"@chainlink/contracts/src/v0.8/functions/v1_0_0/FunctionsClient.sol\":1323:1455  bytes32 requestId =... */\n      swap1\n      pop\n        /* \"@chainlink/contracts/src/v0.8/functions/v1_0_0/FunctionsClient.sol\":1478:1487  requestId */\n      dup1\n        /* \"@chainlink/contracts/src/v0.8/functions/v1_0_0/FunctionsClient.sol\":1466:1488  RequestSent(requestId) */\n      0x1131472297a800fee664d1d89cfa8f7676ff07189ecc53f80bbb5f4969099db8\n      mload(0x40)\n      mload(0x40)\n      dup1\n      swap2\n      sub\n      swap1\n      log2\n        /* \"@chainlink/contracts/src/v0.8/functions/v1_0_0/FunctionsClient.sol\":1501:1510  requestId */\n      dup1\n        /* \"@chainlink/contracts/src/v0.8/functions/v1_0_0/FunctionsClient.sol\":1494:1510  return requestId */\n      swap2\n      pop\n      pop\n        /* \"@chainlink/contracts/src/v0.8/functions/v1_0_0/FunctionsClient.sol\":1166:1515  function _sendRequest(... */\n      swap5\n      swap4\n      pop\n      pop\n      pop\n      pop\n      jump\t// out\n        /* \"@chainlink/contracts/src/v0.8/functions/v1_0_0/libraries/FunctionsRequest.sol\":3838:4145  function initializeRequest(... */\n    tag_86:\n        /* \"@chainlink/contracts/src/v0.8/functions/v1_0_0/libraries/FunctionsRequest.sol\":4022:4023  0 */\n      0x00\n        /* \"@chainlink/contracts/src/v0.8/functions/v1_0_0/libraries/FunctionsRequest.sol\":4004:4010  source */\n      dup2\n        /* \"@chainlink/contracts/src/v0.8/functions/v1_0_0/libraries/FunctionsRequest.sol\":3998:4018  bytes(source).length */\n      mload\n        /* \"@chainlink/contracts/src/v0.8/functions/v1_0_0/libraries/FunctionsRequest.sol\":3998:4023  bytes(source).length == 0 */\n      sub\n        /* \"@chainlink/contracts/src/v0.8/functions/v1_0_0/libraries/FunctionsRequest.sol\":3994:4045  if (bytes(source).length == 0) revert EmptySource() */\n      tag_147\n      jumpi\n        /* \"@chainlink/contracts/src/v0.8/functions/v1_0_0/libraries/FunctionsRequest.sol\":4032:4045  EmptySource() */\n      mload(0x40)\n      0x22ce3edd00000000000000000000000000000000000000000000000000000000\n      dup2\n      mstore\n      0x04\n      add\n      mload(0x40)\n      dup1\n      swap2\n      sub\n      swap1\n      revert\n        /* \"@chainlink/contracts/src/v0.8/functions/v1_0_0/libraries/FunctionsRequest.sol\":3994:4045  if (bytes(source).length == 0) revert EmptySource() */\n    tag_147:\n        /* \"@chainlink/contracts/src/v0.8/functions/v1_0_0/libraries/FunctionsRequest.sol\":4072:4084  codeLocation */\n      dup3\n        /* \"@chainlink/contracts/src/v0.8/functions/v1_0_0/libraries/FunctionsRequest.sol\":4052:4056  self */\n      dup5\n        /* \"@chainlink/contracts/src/v0.8/functions/v1_0_0/libraries/FunctionsRequest.sol\":4052:4069  self.codeLocation */\n      0x00\n      add\n        /* \"@chainlink/contracts/src/v0.8/functions/v1_0_0/libraries/FunctionsRequest.sol\":4052:4084  self.codeLocation = codeLocation */\n      swap1\n      0x02\n      dup2\n      gt\n      iszero\n      tag_148\n      jumpi\n      tag_149\n      tag_95\n      jump\t// in\n    tag_149:\n    tag_148:\n      swap1\n      dup2\n      0x02\n      dup2\n      gt\n      iszero\n      tag_150\n      jumpi\n      tag_151\n      tag_95\n      jump\t// in\n    tag_151:\n    tag_150:\n      dup2\n      mstore\n      pop\n      pop\n        /* \"@chainlink/contracts/src/v0.8/functions/v1_0_0/libraries/FunctionsRequest.sol\":4106:4114  language */\n      dup2\n        /* \"@chainlink/contracts/src/v0.8/functions/v1_0_0/libraries/FunctionsRequest.sol\":4090:4094  self */\n      dup5\n        /* \"@chainlink/contracts/src/v0.8/functions/v1_0_0/libraries/FunctionsRequest.sol\":4090:4103  self.language */\n      0x40\n      add\n        /* \"@chainlink/contracts/src/v0.8/functions/v1_0_0/libraries/FunctionsRequest.sol\":4090:4114  self.language = language */\n      swap1\n      0x00\n      dup2\n      gt\n      iszero\n      tag_152\n      jumpi\n      tag_153\n      tag_95\n      jump\t// in\n    tag_153:\n    tag_152:\n      swap1\n      dup2\n      0x00\n      dup2\n      gt\n      iszero\n      tag_154\n      jumpi\n      tag_155\n      tag_95\n      jump\t// in\n    tag_155:\n    tag_154:\n      dup2\n      mstore\n      pop\n      pop\n        /* \"@chainlink/contracts/src/v0.8/functions/v1_0_0/libraries/FunctionsRequest.sol\":4134:4140  source */\n      dup1\n        /* \"@chainlink/contracts/src/v0.8/functions/v1_0_0/libraries/FunctionsRequest.sol\":4120:4124  self */\n      dup5\n        /* \"@chainlink/contracts/src/v0.8/functions/v1_0_0/libraries/FunctionsRequest.sol\":4120:4131  self.source */\n      0x60\n      add\n        /* \"@chainlink/contracts/src/v0.8/functions/v1_0_0/libraries/FunctionsRequest.sol\":4120:4140  self.source = source */\n      dup2\n      swap1\n      mstore\n      pop\n        /* \"@chainlink/contracts/src/v0.8/functions/v1_0_0/libraries/FunctionsRequest.sol\":3838:4145  function initializeRequest(... */\n      pop\n      pop\n      pop\n      pop\n      jump\t// out\n        /* \"@chainlink/contracts/src/v0.8/vendor/solidity-cborutils/v2.0.0/CBOR.sol\":1490:1663  function create(uint256 capacity) internal pure returns(CBORBuffer memory cbor) {... */\n    tag_89:\n        /* \"@chainlink/contracts/src/v0.8/vendor/solidity-cborutils/v2.0.0/CBOR.sol\":1546:1568  CBORBuffer memory cbor */\n      tag_156\n      tag_157\n      jump\t// in\n    tag_156:\n        /* \"@chainlink/contracts/src/v0.8/vendor/solidity-cborutils/v2.0.0/CBOR.sol\":1580:1611  Buffer.init(cbor.buf, capacity) */\n      tag_159\n        /* \"@chainlink/contracts/src/v0.8/vendor/solidity-cborutils/v2.0.0/CBOR.sol\":1592:1596  cbor */\n      dup2\n        /* \"@chainlink/contracts/src/v0.8/vendor/solidity-cborutils/v2.0.0/CBOR.sol\":1592:1600  cbor.buf */\n      0x00\n      add\n      mload\n        /* \"@chainlink/contracts/src/v0.8/vendor/solidity-cborutils/v2.0.0/CBOR.sol\":1602:1610  capacity */\n      dup4\n        /* \"@chainlink/contracts/src/v0.8/vendor/solidity-cborutils/v2.0.0/CBOR.sol\":1580:1591  Buffer.init */\n      tag_160\n        /* \"@chainlink/contracts/src/v0.8/vendor/solidity-cborutils/v2.0.0/CBOR.sol\":1580:1611  Buffer.init(cbor.buf, capacity) */\n      jump\t// in\n    tag_159:\n      pop\n        /* \"@chainlink/contracts/src/v0.8/vendor/solidity-cborutils/v2.0.0/CBOR.sol\":1634:1635  0 */\n      0x00\n        /* \"@chainlink/contracts/src/v0.8/vendor/solidity-cborutils/v2.0.0/CBOR.sol\":1621:1625  cbor */\n      dup2\n        /* \"@chainlink/contracts/src/v0.8/vendor/solidity-cborutils/v2.0.0/CBOR.sol\":1621:1631  cbor.depth */\n      0x20\n      add\n        /* \"@chainlink/contracts/src/v0.8/vendor/solidity-cborutils/v2.0.0/CBOR.sol\":1621:1635  cbor.depth = 0 */\n      dup2\n      dup2\n      mstore\n      pop\n      pop\n        /* \"@chainlink/contracts/src/v0.8/vendor/solidity-cborutils/v2.0.0/CBOR.sol\":1490:1663  function create(uint256 capacity) internal pure returns(CBORBuffer memory cbor) {... */\n      swap2\n      swap1\n      pop\n      jump\t// out\n        /* \"@chainlink/contracts/src/v0.8/vendor/solidity-cborutils/v2.0.0/CBOR.sol\":3021:3225  function writeString(CBORBuffer memory buf, string memory value) internal pure {... */\n    tag_91:\n        /* \"@chainlink/contracts/src/v0.8/vendor/solidity-cborutils/v2.0.0/CBOR.sol\":3110:3180  writeFixedNumeric(buf, MAJOR_TYPE_STRING, uint64(bytes(value).length)) */\n      tag_162\n        /* \"@chainlink/contracts/src/v0.8/vendor/solidity-cborutils/v2.0.0/CBOR.sol\":3128:3131  buf */\n      dup3\n        /* \"@chainlink/contracts/src/v0.8/vendor/solidity-cborutils/v2.0.0/CBOR.sol\":998:999  3 */\n      0x03\n        /* \"@chainlink/contracts/src/v0.8/vendor/solidity-cborutils/v2.0.0/CBOR.sol\":3165:3170  value */\n      dup4\n        /* \"@chainlink/contracts/src/v0.8/vendor/solidity-cborutils/v2.0.0/CBOR.sol\":3159:3178  bytes(value).length */\n      mload\n        /* \"@chainlink/contracts/src/v0.8/vendor/solidity-cborutils/v2.0.0/CBOR.sol\":3110:3127  writeFixedNumeric */\n      tag_163\n        /* \"@chainlink/contracts/src/v0.8/vendor/solidity-cborutils/v2.0.0/CBOR.sol\":3110:3180  writeFixedNumeric(buf, MAJOR_TYPE_STRING, uint64(bytes(value).length)) */\n      jump\t// in\n    tag_162:\n        /* \"@chainlink/contracts/src/v0.8/vendor/solidity-cborutils/v2.0.0/CBOR.sol\":3190:3218  buf.buf.append(bytes(value)) */\n      tag_164\n        /* \"@chainlink/contracts/src/v0.8/vendor/solidity-cborutils/v2.0.0/CBOR.sol\":3211:3216  value */\n      dup2\n        /* \"@chainlink/contracts/src/v0.8/vendor/solidity-cborutils/v2.0.0/CBOR.sol\":3190:3193  buf */\n      dup4\n        /* \"@chainlink/contracts/src/v0.8/vendor/solidity-cborutils/v2.0.0/CBOR.sol\":3190:3197  buf.buf */\n      0x00\n      add\n      mload\n        /* \"@chainlink/contracts/src/v0.8/vendor/solidity-cborutils/v2.0.0/CBOR.sol\":3190:3204  buf.buf.append */\n      tag_165\n      swap1\n        /* \"@chainlink/contracts/src/v0.8/vendor/solidity-cborutils/v2.0.0/CBOR.sol\":3190:3218  buf.buf.append(bytes(value)) */\n      swap2\n      swap1\n      0xffffffff\n      and\n      jump\t// in\n    tag_164:\n      pop\n        /* \"@chainlink/contracts/src/v0.8/vendor/solidity-cborutils/v2.0.0/CBOR.sol\":3021:3225  function writeString(CBORBuffer memory buf, string memory value) internal pure {... */\n      pop\n      pop\n      jump\t// out\n        /* \"@chainlink/contracts/src/v0.8/vendor/solidity-cborutils/v2.0.0/CBOR.sol\":1832:2034  function writeUInt256(CBORBuffer memory buf, uint256 value) internal pure {... */\n    tag_96:\n        /* \"@chainlink/contracts/src/v0.8/vendor/solidity-cborutils/v2.0.0/CBOR.sol\":1916:1983  buf.buf.appendUint8(uint8((MAJOR_TYPE_TAG << 5) | TAG_TYPE_BIGNUM)) */\n      tag_167\n        /* \"@chainlink/contracts/src/v0.8/vendor/solidity-cborutils/v2.0.0/CBOR.sol\":1246:1247  2 */\n      0x02\n        /* \"@chainlink/contracts/src/v0.8/vendor/solidity-cborutils/v2.0.0/CBOR.sol\":1961:1962  5 */\n      0x05\n        /* \"@chainlink/contracts/src/v0.8/vendor/solidity-cborutils/v2.0.0/CBOR.sol\":1141:1142  6 */\n      0x06\n        /* \"@chainlink/contracts/src/v0.8/vendor/solidity-cborutils/v2.0.0/CBOR.sol\":1943:1962  MAJOR_TYPE_TAG << 5 */\n      0xff\n      and\n      swap1\n      shl\n        /* \"@chainlink/contracts/src/v0.8/vendor/solidity-cborutils/v2.0.0/CBOR.sol\":1942:1981  (MAJOR_TYPE_TAG << 5) | TAG_TYPE_BIGNUM */\n      or\n        /* \"@chainlink/contracts/src/v0.8/vendor/solidity-cborutils/v2.0.0/CBOR.sol\":1916:1919  buf */\n      dup4\n        /* \"@chainlink/contracts/src/v0.8/vendor/solidity-cborutils/v2.0.0/CBOR.sol\":1916:1923  buf.buf */\n      0x00\n      add\n      mload\n        /* \"@chainlink/contracts/src/v0.8/vendor/solidity-cborutils/v2.0.0/CBOR.sol\":1916:1935  buf.buf.appendUint8 */\n      tag_168\n      swap1\n        /* \"@chainlink/contracts/src/v0.8/vendor/solidity-cborutils/v2.0.0/CBOR.sol\":1916:1983  buf.buf.appendUint8(uint8((MAJOR_TYPE_TAG << 5) | TAG_TYPE_BIGNUM)) */\n      swap2\n      swap1\n      0xffffffff\n      and\n      jump\t// in\n    tag_167:\n      pop\n        /* \"@chainlink/contracts/src/v0.8/vendor/solidity-cborutils/v2.0.0/CBOR.sol\":1993:2027  writeBytes(buf, abi.encode(value)) */\n      tag_169\n        /* \"@chainlink/contracts/src/v0.8/vendor/solidity-cborutils/v2.0.0/CBOR.sol\":2004:2007  buf */\n      dup3\n        /* \"@chainlink/contracts/src/v0.8/vendor/solidity-cborutils/v2.0.0/CBOR.sol\":2020:2025  value */\n      dup3\n        /* \"@chainlink/contracts/src/v0.8/vendor/solidity-cborutils/v2.0.0/CBOR.sol\":2009:2026  abi.encode(value) */\n      add(0x20, mload(0x40))\n      tag_170\n      swap2\n      swap1\n      tag_171\n      jump\t// in\n    tag_170:\n      mload(0x40)\n      0x20\n      dup2\n      dup4\n      sub\n      sub\n      dup2\n      mstore\n      swap1\n      0x40\n      mstore\n        /* \"@chainlink/contracts/src/v0.8/vendor/solidity-cborutils/v2.0.0/CBOR.sol\":1993:2003  writeBytes */\n      tag_128\n        /* \"@chainlink/contracts/src/v0.8/vendor/solidity-cborutils/v2.0.0/CBOR.sol\":1993:2027  writeBytes(buf, abi.encode(value)) */\n      jump\t// in\n    tag_169:\n        /* \"@chainlink/contracts/src/v0.8/vendor/solidity-cborutils/v2.0.0/CBOR.sol\":1832:2034  function writeUInt256(CBORBuffer memory buf, uint256 value) internal pure {... */\n      pop\n      pop\n      jump\t// out\n        /* \"@chainlink/contracts/src/v0.8/vendor/solidity-cborutils/v2.0.0/CBOR.sol\":3607:3753  function startArray(CBORBuffer memory buf) internal pure {... */\n    tag_106:\n        /* \"@chainlink/contracts/src/v0.8/vendor/solidity-cborutils/v2.0.0/CBOR.sol\":3674:3722  writeIndefiniteLengthType(buf, MAJOR_TYPE_ARRAY) */\n      tag_173\n        /* \"@chainlink/contracts/src/v0.8/vendor/solidity-cborutils/v2.0.0/CBOR.sol\":3700:3703  buf */\n      dup2\n        /* \"@chainlink/contracts/src/v0.8/vendor/solidity-cborutils/v2.0.0/CBOR.sol\":1047:1048  4 */\n      0x04\n        /* \"@chainlink/contracts/src/v0.8/vendor/solidity-cborutils/v2.0.0/CBOR.sol\":3674:3699  writeIndefiniteLengthType */\n      tag_174\n        /* \"@chainlink/contracts/src/v0.8/vendor/solidity-cborutils/v2.0.0/CBOR.sol\":3674:3722  writeIndefiniteLengthType(buf, MAJOR_TYPE_ARRAY) */\n      jump\t// in\n    tag_173:\n        /* \"@chainlink/contracts/src/v0.8/vendor/solidity-cborutils/v2.0.0/CBOR.sol\":3745:3746  1 */\n      0x01\n        /* \"@chainlink/contracts/src/v0.8/vendor/solidity-cborutils/v2.0.0/CBOR.sol\":3732:3735  buf */\n      dup2\n        /* \"@chainlink/contracts/src/v0.8/vendor/solidity-cborutils/v2.0.0/CBOR.sol\":3732:3741  buf.depth */\n      0x20\n      add\n        /* \"@chainlink/contracts/src/v0.8/vendor/solidity-cborutils/v2.0.0/CBOR.sol\":3732:3746  buf.depth += 1 */\n      dup2\n      dup2\n      mload\n      tag_175\n      swap2\n      swap1\n      tag_176\n      jump\t// in\n    tag_175:\n      swap2\n      pop\n      dup2\n      dup2\n      mstore\n      pop\n      pop\n        /* \"@chainlink/contracts/src/v0.8/vendor/solidity-cborutils/v2.0.0/CBOR.sol\":3607:3753  function startArray(CBORBuffer memory buf) internal pure {... */\n      pop\n      jump\t// out\n        /* \"@chainlink/contracts/src/v0.8/vendor/solidity-cborutils/v2.0.0/CBOR.sol\":4211:4365  function endSequence(CBORBuffer memory buf) internal pure {... */\n    tag_115:\n        /* \"@chainlink/contracts/src/v0.8/vendor/solidity-cborutils/v2.0.0/CBOR.sol\":4279:4334  writeIndefiniteLengthType(buf, MAJOR_TYPE_CONTENT_FREE) */\n      tag_178\n        /* \"@chainlink/contracts/src/v0.8/vendor/solidity-cborutils/v2.0.0/CBOR.sol\":4305:4308  buf */\n      dup2\n        /* \"@chainlink/contracts/src/v0.8/vendor/solidity-cborutils/v2.0.0/CBOR.sol\":1197:1198  7 */\n      0x07\n        /* \"@chainlink/contracts/src/v0.8/vendor/solidity-cborutils/v2.0.0/CBOR.sol\":4279:4304  writeIndefiniteLengthType */\n      tag_174\n        /* \"@chainlink/contracts/src/v0.8/vendor/solidity-cborutils/v2.0.0/CBOR.sol\":4279:4334  writeIndefiniteLengthType(buf, MAJOR_TYPE_CONTENT_FREE) */\n      jump\t// in\n    tag_178:\n        /* \"@chainlink/contracts/src/v0.8/vendor/solidity-cborutils/v2.0.0/CBOR.sol\":4357:4358  1 */\n      0x01\n        /* \"@chainlink/contracts/src/v0.8/vendor/solidity-cborutils/v2.0.0/CBOR.sol\":4344:4347  buf */\n      dup2\n        /* \"@chainlink/contracts/src/v0.8/vendor/solidity-cborutils/v2.0.0/CBOR.sol\":4344:4353  buf.depth */\n      0x20\n      add\n        /* \"@chainlink/contracts/src/v0.8/vendor/solidity-cborutils/v2.0.0/CBOR.sol\":4344:4358  buf.depth -= 1 */\n      dup2\n      dup2\n      mload\n      tag_179\n      swap2\n      swap1\n      tag_180\n      jump\t// in\n    tag_179:\n      swap2\n      pop\n      dup2\n      dup2\n      mstore\n      pop\n      pop\n        /* \"@chainlink/contracts/src/v0.8/vendor/solidity-cborutils/v2.0.0/CBOR.sol\":4211:4365  function endSequence(CBORBuffer memory buf) internal pure {... */\n      pop\n      jump\t// out\n        /* \"@chainlink/contracts/src/v0.8/vendor/solidity-cborutils/v2.0.0/CBOR.sol\":2828:3015  function writeBytes(CBORBuffer memory buf, bytes memory value) internal pure {... */\n    tag_128:\n        /* \"@chainlink/contracts/src/v0.8/vendor/solidity-cborutils/v2.0.0/CBOR.sol\":2915:2977  writeFixedNumeric(buf, MAJOR_TYPE_BYTES, uint64(value.length)) */\n      tag_182\n        /* \"@chainlink/contracts/src/v0.8/vendor/solidity-cborutils/v2.0.0/CBOR.sol\":2933:2936  buf */\n      dup3\n        /* \"@chainlink/contracts/src/v0.8/vendor/solidity-cborutils/v2.0.0/CBOR.sol\":948:949  2 */\n      0x02\n        /* \"@chainlink/contracts/src/v0.8/vendor/solidity-cborutils/v2.0.0/CBOR.sol\":2963:2968  value */\n      dup4\n        /* \"@chainlink/contracts/src/v0.8/vendor/solidity-cborutils/v2.0.0/CBOR.sol\":2963:2975  value.length */\n      mload\n        /* \"@chainlink/contracts/src/v0.8/vendor/solidity-cborutils/v2.0.0/CBOR.sol\":2915:2932  writeFixedNumeric */\n      tag_163\n        /* \"@chainlink/contracts/src/v0.8/vendor/solidity-cborutils/v2.0.0/CBOR.sol\":2915:2977  writeFixedNumeric(buf, MAJOR_TYPE_BYTES, uint64(value.length)) */\n      jump\t// in\n    tag_182:\n        /* \"@chainlink/contracts/src/v0.8/vendor/solidity-cborutils/v2.0.0/CBOR.sol\":2987:3008  buf.buf.append(value) */\n      tag_183\n        /* \"@chainlink/contracts/src/v0.8/vendor/solidity-cborutils/v2.0.0/CBOR.sol\":3002:3007  value */\n      dup2\n        /* \"@chainlink/contracts/src/v0.8/vendor/solidity-cborutils/v2.0.0/CBOR.sol\":2987:2990  buf */\n      dup4\n        /* \"@chainlink/contracts/src/v0.8/vendor/solidity-cborutils/v2.0.0/CBOR.sol\":2987:2994  buf.buf */\n      0x00\n      add\n      mload\n        /* \"@chainlink/contracts/src/v0.8/vendor/solidity-cborutils/v2.0.0/CBOR.sol\":2987:3001  buf.buf.append */\n      tag_165\n      swap1\n        /* \"@chainlink/contracts/src/v0.8/vendor/solidity-cborutils/v2.0.0/CBOR.sol\":2987:3008  buf.buf.append(value) */\n      swap2\n      swap1\n      0xffffffff\n      and\n      jump\t// in\n    tag_183:\n      pop\n        /* \"@chainlink/contracts/src/v0.8/vendor/solidity-cborutils/v2.0.0/CBOR.sol\":2828:3015  function writeBytes(CBORBuffer memory buf, bytes memory value) internal pure {... */\n      pop\n      pop\n      jump\t// out\n        /* \"@chainlink/contracts/src/v0.8/vendor/@ensdomains/buffer/v0.1.0/Buffer.sol\":1020:1575  function init(buffer memory buf, uint capacity) internal pure returns(buffer memory) {... */\n    tag_160:\n        /* \"@chainlink/contracts/src/v0.8/vendor/@ensdomains/buffer/v0.1.0/Buffer.sol\":1090:1103  buffer memory */\n      tag_184\n      tag_185\n      jump\t// in\n    tag_184:\n        /* \"@chainlink/contracts/src/v0.8/vendor/@ensdomains/buffer/v0.1.0/Buffer.sol\":1136:1137  0 */\n      0x00\n        /* \"@chainlink/contracts/src/v0.8/vendor/@ensdomains/buffer/v0.1.0/Buffer.sol\":1130:1132  32 */\n      0x20\n        /* \"@chainlink/contracts/src/v0.8/vendor/@ensdomains/buffer/v0.1.0/Buffer.sol\":1119:1127  capacity */\n      dup4\n        /* \"@chainlink/contracts/src/v0.8/vendor/@ensdomains/buffer/v0.1.0/Buffer.sol\":1119:1132  capacity % 32 */\n      tag_187\n      swap2\n      swap1\n      tag_188\n      jump\t// in\n    tag_187:\n        /* \"@chainlink/contracts/src/v0.8/vendor/@ensdomains/buffer/v0.1.0/Buffer.sol\":1119:1137  capacity % 32 != 0 */\n      eq\n        /* \"@chainlink/contracts/src/v0.8/vendor/@ensdomains/buffer/v0.1.0/Buffer.sol\":1115:1196  if (capacity % 32 != 0) {... */\n      tag_189\n      jumpi\n        /* \"@chainlink/contracts/src/v0.8/vendor/@ensdomains/buffer/v0.1.0/Buffer.sol\":1182:1184  32 */\n      0x20\n        /* \"@chainlink/contracts/src/v0.8/vendor/@ensdomains/buffer/v0.1.0/Buffer.sol\":1171:1179  capacity */\n      dup3\n        /* \"@chainlink/contracts/src/v0.8/vendor/@ensdomains/buffer/v0.1.0/Buffer.sol\":1171:1184  capacity % 32 */\n      tag_190\n      swap2\n      swap1\n      tag_188\n      jump\t// in\n    tag_190:\n        /* \"@chainlink/contracts/src/v0.8/vendor/@ensdomains/buffer/v0.1.0/Buffer.sol\":1165:1167  32 */\n      0x20\n        /* \"@chainlink/contracts/src/v0.8/vendor/@ensdomains/buffer/v0.1.0/Buffer.sol\":1165:1185  32 - (capacity % 32) */\n      tag_191\n      swap2\n      swap1\n      tag_180\n      jump\t// in\n    tag_191:\n        /* \"@chainlink/contracts/src/v0.8/vendor/@ensdomains/buffer/v0.1.0/Buffer.sol\":1153:1185  capacity += 32 - (capacity % 32) */\n      dup3\n      tag_192\n      swap2\n      swap1\n      tag_176\n      jump\t// in\n    tag_192:\n      swap2\n      pop\n        /* \"@chainlink/contracts/src/v0.8/vendor/@ensdomains/buffer/v0.1.0/Buffer.sol\":1115:1196  if (capacity % 32 != 0) {... */\n    tag_189:\n        /* \"@chainlink/contracts/src/v0.8/vendor/@ensdomains/buffer/v0.1.0/Buffer.sol\":1266:1274  capacity */\n      dup2\n        /* \"@chainlink/contracts/src/v0.8/vendor/@ensdomains/buffer/v0.1.0/Buffer.sol\":1251:1254  buf */\n      dup4\n        /* \"@chainlink/contracts/src/v0.8/vendor/@ensdomains/buffer/v0.1.0/Buffer.sol\":1251:1263  buf.capacity */\n      0x20\n      add\n        /* \"@chainlink/contracts/src/v0.8/vendor/@ensdomains/buffer/v0.1.0/Buffer.sol\":1251:1274  buf.capacity = capacity */\n      dup2\n      dup2\n      mstore\n      pop\n      pop\n        /* \"@chainlink/contracts/src/v0.8/vendor/@ensdomains/buffer/v0.1.0/Buffer.sol\":1324:1328  0x40 */\n      0x40\n        /* \"@chainlink/contracts/src/v0.8/vendor/@ensdomains/buffer/v0.1.0/Buffer.sol\":1318:1329  mload(0x40) */\n      mload\n        /* \"@chainlink/contracts/src/v0.8/vendor/@ensdomains/buffer/v0.1.0/Buffer.sol\":1354:1357  ptr */\n      dup1\n        /* \"@chainlink/contracts/src/v0.8/vendor/@ensdomains/buffer/v0.1.0/Buffer.sol\":1349:1352  buf */\n      dup5\n        /* \"@chainlink/contracts/src/v0.8/vendor/@ensdomains/buffer/v0.1.0/Buffer.sol\":1342:1358  mstore(buf, ptr) */\n      mstore\n        /* \"@chainlink/contracts/src/v0.8/vendor/@ensdomains/buffer/v0.1.0/Buffer.sol\":1383:1384  0 */\n      0x00\n        /* \"@chainlink/contracts/src/v0.8/vendor/@ensdomains/buffer/v0.1.0/Buffer.sol\":1378:1381  ptr */\n      dup2\n        /* \"@chainlink/contracts/src/v0.8/vendor/@ensdomains/buffer/v0.1.0/Buffer.sol\":1371:1385  mstore(ptr, 0) */\n      mstore\n        /* \"@chainlink/contracts/src/v0.8/vendor/@ensdomains/buffer/v0.1.0/Buffer.sol\":1426:1434  capacity */\n      dup3\n        /* \"@chainlink/contracts/src/v0.8/vendor/@ensdomains/buffer/v0.1.0/Buffer.sol\":1421:1424  ptr */\n      dup2\n        /* \"@chainlink/contracts/src/v0.8/vendor/@ensdomains/buffer/v0.1.0/Buffer.sol\":1417:1435  add(ptr, capacity) */\n      add\n        /* \"@chainlink/contracts/src/v0.8/vendor/@ensdomains/buffer/v0.1.0/Buffer.sol\":1413:1415  32 */\n      0x20\n        /* \"@chainlink/contracts/src/v0.8/vendor/@ensdomains/buffer/v0.1.0/Buffer.sol\":1409:1436  add(32, add(ptr, capacity)) */\n      add\n        /* \"@chainlink/contracts/src/v0.8/vendor/@ensdomains/buffer/v0.1.0/Buffer.sol\":1460:1463  ptr */\n      dup2\n        /* \"@chainlink/contracts/src/v0.8/vendor/@ensdomains/buffer/v0.1.0/Buffer.sol\":1455:1458  fpm */\n      dup2\n        /* \"@chainlink/contracts/src/v0.8/vendor/@ensdomains/buffer/v0.1.0/Buffer.sol\":1452:1464  lt(fpm, ptr) */\n      lt\n        /* \"@chainlink/contracts/src/v0.8/vendor/@ensdomains/buffer/v0.1.0/Buffer.sol\":1449:1509  if lt(fpm, ptr) {... */\n      iszero\n      tag_193\n      jumpi\n        /* \"@chainlink/contracts/src/v0.8/vendor/@ensdomains/buffer/v0.1.0/Buffer.sol\":1493:1494  0 */\n      0x00\n        /* \"@chainlink/contracts/src/v0.8/vendor/@ensdomains/buffer/v0.1.0/Buffer.sol\":1490:1491  0 */\n      0x00\n        /* \"@chainlink/contracts/src/v0.8/vendor/@ensdomains/buffer/v0.1.0/Buffer.sol\":1483:1495  revert(0, 0) */\n      revert\n        /* \"@chainlink/contracts/src/v0.8/vendor/@ensdomains/buffer/v0.1.0/Buffer.sol\":1449:1509  if lt(fpm, ptr) {... */\n    tag_193:\n        /* \"@chainlink/contracts/src/v0.8/vendor/@ensdomains/buffer/v0.1.0/Buffer.sol\":1535:1538  fpm */\n      dup1\n        /* \"@chainlink/contracts/src/v0.8/vendor/@ensdomains/buffer/v0.1.0/Buffer.sol\":1529:1533  0x40 */\n      0x40\n        /* \"@chainlink/contracts/src/v0.8/vendor/@ensdomains/buffer/v0.1.0/Buffer.sol\":1522:1539  mstore(0x40, fpm) */\n      mstore\n        /* \"@chainlink/contracts/src/v0.8/vendor/@ensdomains/buffer/v0.1.0/Buffer.sol\":1293:1549  {... */\n      pop\n      pop\n        /* \"@chainlink/contracts/src/v0.8/vendor/@ensdomains/buffer/v0.1.0/Buffer.sol\":1565:1568  buf */\n      dup3\n        /* \"@chainlink/contracts/src/v0.8/vendor/@ensdomains/buffer/v0.1.0/Buffer.sol\":1558:1568  return buf */\n      swap1\n      pop\n        /* \"@chainlink/contracts/src/v0.8/vendor/@ensdomains/buffer/v0.1.0/Buffer.sol\":1020:1575  function init(buffer memory buf, uint capacity) internal pure returns(buffer memory) {... */\n      swap3\n      swap2\n      pop\n      pop\n      jump\t// out\n        /* \"@chainlink/contracts/src/v0.8/vendor/solidity-cborutils/v2.0.0/CBOR.sol\":6156:6915  function writeFixedNumeric(... */\n    tag_163:\n        /* \"@chainlink/contracts/src/v0.8/vendor/solidity-cborutils/v2.0.0/CBOR.sol\":6299:6301  23 */\n      0x17\n        /* \"@chainlink/contracts/src/v0.8/vendor/solidity-cborutils/v2.0.0/CBOR.sol\":6290:6295  value */\n      dup2\n        /* \"@chainlink/contracts/src/v0.8/vendor/solidity-cborutils/v2.0.0/CBOR.sol\":6290:6301  value <= 23 */\n      0xffffffffffffffff\n      and\n      gt\n        /* \"@chainlink/contracts/src/v0.8/vendor/solidity-cborutils/v2.0.0/CBOR.sol\":6286:6909  if (value <= 23) {... */\n      tag_195\n      jumpi\n        /* \"@chainlink/contracts/src/v0.8/vendor/solidity-cborutils/v2.0.0/CBOR.sol\":6317:6365  buf.buf.appendUint8(uint8((major << 5) | value)) */\n      tag_196\n        /* \"@chainlink/contracts/src/v0.8/vendor/solidity-cborutils/v2.0.0/CBOR.sol\":6358:6363  value */\n      dup2\n        /* \"@chainlink/contracts/src/v0.8/vendor/solidity-cborutils/v2.0.0/CBOR.sol\":6353:6354  5 */\n      0x05\n        /* \"@chainlink/contracts/src/v0.8/vendor/solidity-cborutils/v2.0.0/CBOR.sol\":6344:6349  major */\n      dup5\n        /* \"@chainlink/contracts/src/v0.8/vendor/solidity-cborutils/v2.0.0/CBOR.sol\":6344:6354  major << 5 */\n      0xff\n      and\n      swap1\n      shl\n        /* \"@chainlink/contracts/src/v0.8/vendor/solidity-cborutils/v2.0.0/CBOR.sol\":6343:6363  (major << 5) | value */\n      0xff\n      and\n      or\n        /* \"@chainlink/contracts/src/v0.8/vendor/solidity-cborutils/v2.0.0/CBOR.sol\":6317:6320  buf */\n      dup5\n        /* \"@chainlink/contracts/src/v0.8/vendor/solidity-cborutils/v2.0.0/CBOR.sol\":6317:6324  buf.buf */\n      0x00\n      add\n      mload\n        /* \"@chainlink/contracts/src/v0.8/vendor/solidity-cborutils/v2.0.0/CBOR.sol\":6317:6336  buf.buf.appendUint8 */\n      tag_168\n      swap1\n        /* \"@chainlink/contracts/src/v0.8/vendor/solidity-cborutils/v2.0.0/CBOR.sol\":6317:6365  buf.buf.appendUint8(uint8((major << 5) | value)) */\n      swap2\n      swap1\n      0xffffffff\n      and\n      jump\t// in\n    tag_196:\n      pop\n        /* \"@chainlink/contracts/src/v0.8/vendor/solidity-cborutils/v2.0.0/CBOR.sol\":6286:6909  if (value <= 23) {... */\n      jump(tag_197)\n    tag_195:\n        /* \"@chainlink/contracts/src/v0.8/vendor/solidity-cborutils/v2.0.0/CBOR.sol\":6395:6399  0xFF */\n      0xff\n        /* \"@chainlink/contracts/src/v0.8/vendor/solidity-cborutils/v2.0.0/CBOR.sol\":6386:6391  value */\n      dup2\n        /* \"@chainlink/contracts/src/v0.8/vendor/solidity-cborutils/v2.0.0/CBOR.sol\":6386:6399  value <= 0xFF */\n      0xffffffffffffffff\n      and\n      gt\n        /* \"@chainlink/contracts/src/v0.8/vendor/solidity-cborutils/v2.0.0/CBOR.sol\":6382:6909  if (value <= 0xFF) {... */\n      tag_198\n      jumpi\n        /* \"@chainlink/contracts/src/v0.8/vendor/solidity-cborutils/v2.0.0/CBOR.sol\":6415:6460  buf.buf.appendUint8(uint8((major << 5) | 24)) */\n      tag_199\n        /* \"@chainlink/contracts/src/v0.8/vendor/solidity-cborutils/v2.0.0/CBOR.sol\":6456:6458  24 */\n      0x18\n        /* \"@chainlink/contracts/src/v0.8/vendor/solidity-cborutils/v2.0.0/CBOR.sol\":6451:6452  5 */\n      0x05\n        /* \"@chainlink/contracts/src/v0.8/vendor/solidity-cborutils/v2.0.0/CBOR.sol\":6442:6447  major */\n      dup5\n        /* \"@chainlink/contracts/src/v0.8/vendor/solidity-cborutils/v2.0.0/CBOR.sol\":6442:6452  major << 5 */\n      0xff\n      and\n      swap1\n      shl\n        /* \"@chainlink/contracts/src/v0.8/vendor/solidity-cborutils/v2.0.0/CBOR.sol\":6441:6458  (major << 5) | 24 */\n      or\n        /* \"@chainlink/contracts/src/v0.8/vendor/solidity-cborutils/v2.0.0/CBOR.sol\":6415:6418  buf */\n      dup5\n        /* \"@chainlink/contracts/src/v0.8/vendor/solidity-cborutils/v2.0.0/CBOR.sol\":6415:6422  buf.buf */\n      0x00\n      add\n      mload\n        /* \"@chainlink/contracts/src/v0.8/vendor/solidity-cborutils/v2.0.0/CBOR.sol\":6415:6434  buf.buf.appendUint8 */\n      tag_168\n      swap1\n        /* \"@chainlink/contracts/src/v0.8/vendor/solidity-cborutils/v2.0.0/CBOR.sol\":6415:6460  buf.buf.appendUint8(uint8((major << 5) | 24)) */\n      swap2\n      swap1\n      0xffffffff\n      and\n      jump\t// in\n    tag_199:\n      pop\n        /* \"@chainlink/contracts/src/v0.8/vendor/solidity-cborutils/v2.0.0/CBOR.sol\":6474:6501  buf.buf.appendInt(value, 1) */\n      tag_200\n        /* \"@chainlink/contracts/src/v0.8/vendor/solidity-cborutils/v2.0.0/CBOR.sol\":6492:6497  value */\n      dup2\n        /* \"@chainlink/contracts/src/v0.8/vendor/solidity-cborutils/v2.0.0/CBOR.sol\":6474:6501  buf.buf.appendInt(value, 1) */\n      0xffffffffffffffff\n      and\n        /* \"@chainlink/contracts/src/v0.8/vendor/solidity-cborutils/v2.0.0/CBOR.sol\":6499:6500  1 */\n      0x01\n        /* \"@chainlink/contracts/src/v0.8/vendor/solidity-cborutils/v2.0.0/CBOR.sol\":6474:6477  buf */\n      dup6\n        /* \"@chainlink/contracts/src/v0.8/vendor/solidity-cborutils/v2.0.0/CBOR.sol\":6474:6481  buf.buf */\n      0x00\n      add\n      mload\n        /* \"@chainlink/contracts/src/v0.8/vendor/solidity-cborutils/v2.0.0/CBOR.sol\":6474:6491  buf.buf.appendInt */\n      tag_201\n      swap1\n        /* \"@chainlink/contracts/src/v0.8/vendor/solidity-cborutils/v2.0.0/CBOR.sol\":6474:6501  buf.buf.appendInt(value, 1) */\n      swap3\n      swap2\n      swap1\n      0xffffffff\n      and\n      jump\t// in\n    tag_200:\n      pop\n        /* \"@chainlink/contracts/src/v0.8/vendor/solidity-cborutils/v2.0.0/CBOR.sol\":6382:6909  if (value <= 0xFF) {... */\n      jump(tag_202)\n    tag_198:\n        /* \"@chainlink/contracts/src/v0.8/vendor/solidity-cborutils/v2.0.0/CBOR.sol\":6531:6537  0xFFFF */\n      0xffff\n        /* \"@chainlink/contracts/src/v0.8/vendor/solidity-cborutils/v2.0.0/CBOR.sol\":6522:6527  value */\n      dup2\n        /* \"@chainlink/contracts/src/v0.8/vendor/solidity-cborutils/v2.0.0/CBOR.sol\":6522:6537  value <= 0xFFFF */\n      0xffffffffffffffff\n      and\n      gt\n        /* \"@chainlink/contracts/src/v0.8/vendor/solidity-cborutils/v2.0.0/CBOR.sol\":6518:6909  if (value <= 0xFFFF) {... */\n      tag_203\n      jumpi\n        /* \"@chainlink/contracts/src/v0.8/vendor/solidity-cborutils/v2.0.0/CBOR.sol\":6553:6598  buf.buf.appendUint8(uint8((major << 5) | 25)) */\n      tag_204\n        /* \"@chainlink/contracts/src/v0.8/vendor/solidity-cborutils/v2.0.0/CBOR.sol\":6594:6596  25 */\n      0x19\n        /* \"@chainlink/contracts/src/v0.8/vendor/solidity-cborutils/v2.0.0/CBOR.sol\":6589:6590  5 */\n      0x05\n        /* \"@chainlink/contracts/src/v0.8/vendor/solidity-cborutils/v2.0.0/CBOR.sol\":6580:6585  major */\n      dup5\n        /* \"@chainlink/contracts/src/v0.8/vendor/solidity-cborutils/v2.0.0/CBOR.sol\":6580:6590  major << 5 */\n      0xff\n      and\n      swap1\n      shl\n        /* \"@chainlink/contracts/src/v0.8/vendor/solidity-cborutils/v2.0.0/CBOR.sol\":6579:6596  (major << 5) | 25 */\n      or\n        /* \"@chainlink/contracts/src/v0.8/vendor/solidity-cborutils/v2.0.0/CBOR.sol\":6553:6556  buf */\n      dup5\n        /* \"@chainlink/contracts/src/v0.8/vendor/solidity-cborutils/v2.0.0/CBOR.sol\":6553:6560  buf.buf */\n      0x00\n      add\n      mload\n        /* \"@chainlink/contracts/src/v0.8/vendor/solidity-cborutils/v2.0.0/CBOR.sol\":6553:6572  buf.buf.appendUint8 */\n      tag_168\n      swap1\n        /* \"@chainlink/contracts/src/v0.8/vendor/solidity-cborutils/v2.0.0/CBOR.sol\":6553:6598  buf.buf.appendUint8(uint8((major << 5) | 25)) */\n      swap2\n      swap1\n      0xffffffff\n      and\n      jump\t// in\n    tag_204:\n      pop\n        /* \"@chainlink/contracts/src/v0.8/vendor/solidity-cborutils/v2.0.0/CBOR.sol\":6612:6639  buf.buf.appendInt(value, 2) */\n      tag_205\n        /* \"@chainlink/contracts/src/v0.8/vendor/solidity-cborutils/v2.0.0/CBOR.sol\":6630:6635  value */\n      dup2\n        /* \"@chainlink/contracts/src/v0.8/vendor/solidity-cborutils/v2.0.0/CBOR.sol\":6612:6639  buf.buf.appendInt(value, 2) */\n      0xffffffffffffffff\n      and\n        /* \"@chainlink/contracts/src/v0.8/vendor/solidity-cborutils/v2.0.0/CBOR.sol\":6637:6638  2 */\n      0x02\n        /* \"@chainlink/contracts/src/v0.8/vendor/solidity-cborutils/v2.0.0/CBOR.sol\":6612:6615  buf */\n      dup6\n        /* \"@chainlink/contracts/src/v0.8/vendor/solidity-cborutils/v2.0.0/CBOR.sol\":6612:6619  buf.buf */\n      0x00\n      add\n      mload\n        /* \"@chainlink/contracts/src/v0.8/vendor/solidity-cborutils/v2.0.0/CBOR.sol\":6612:6629  buf.buf.appendInt */\n      tag_201\n      swap1\n        /* \"@chainlink/contracts/src/v0.8/vendor/solidity-cborutils/v2.0.0/CBOR.sol\":6612:6639  buf.buf.appendInt(value, 2) */\n      swap3\n      swap2\n      swap1\n      0xffffffff\n      and\n      jump\t// in\n    tag_205:\n      pop\n        /* \"@chainlink/contracts/src/v0.8/vendor/solidity-cborutils/v2.0.0/CBOR.sol\":6518:6909  if (value <= 0xFFFF) {... */\n      jump(tag_206)\n    tag_203:\n        /* \"@chainlink/contracts/src/v0.8/vendor/solidity-cborutils/v2.0.0/CBOR.sol\":6669:6679  0xFFFFFFFF */\n      0xffffffff\n        /* \"@chainlink/contracts/src/v0.8/vendor/solidity-cborutils/v2.0.0/CBOR.sol\":6660:6665  value */\n      dup2\n        /* \"@chainlink/contracts/src/v0.8/vendor/solidity-cborutils/v2.0.0/CBOR.sol\":6660:6679  value <= 0xFFFFFFFF */\n      0xffffffffffffffff\n      and\n      gt\n        /* \"@chainlink/contracts/src/v0.8/vendor/solidity-cborutils/v2.0.0/CBOR.sol\":6656:6909  if (value <= 0xFFFFFFFF) {... */\n      tag_207\n      jumpi\n        /* \"@chainlink/contracts/src/v0.8/vendor/solidity-cborutils/v2.0.0/CBOR.sol\":6695:6740  buf.buf.appendUint8(uint8((major << 5) | 26)) */\n      tag_208\n        /* \"@chainlink/contracts/src/v0.8/vendor/solidity-cborutils/v2.0.0/CBOR.sol\":6736:6738  26 */\n      0x1a\n        /* \"@chainlink/contracts/src/v0.8/vendor/solidity-cborutils/v2.0.0/CBOR.sol\":6731:6732  5 */\n      0x05\n        /* \"@chainlink/contracts/src/v0.8/vendor/solidity-cborutils/v2.0.0/CBOR.sol\":6722:6727  major */\n      dup5\n        /* \"@chainlink/contracts/src/v0.8/vendor/solidity-cborutils/v2.0.0/CBOR.sol\":6722:6732  major << 5 */\n      0xff\n      and\n      swap1\n      shl\n        /* \"@chainlink/contracts/src/v0.8/vendor/solidity-cborutils/v2.0.0/CBOR.sol\":6721:6738  (major << 5) | 26 */\n      or\n        /* \"@chainlink/contracts/src/v0.8/vendor/solidity-cborutils/v2.0.0/CBOR.sol\":6695:6698  buf */\n      dup5\n        /* \"@chainlink/contracts/src/v0.8/vendor/solidity-cborutils/v2.0.0/CBOR.sol\":6695:6702  buf.buf */\n      0x00\n      add\n      mload\n        /* \"@chainlink/contracts/src/v0.8/vendor/solidity-cborutils/v2.0.0/CBOR.sol\":6695:6714  buf.buf.appendUint8 */\n      tag_168\n      swap1\n        /* \"@chainlink/contracts/src/v0.8/vendor/solidity-cborutils/v2.0.0/CBOR.sol\":6695:6740  buf.buf.appendUint8(uint8((major << 5) | 26)) */\n      swap2\n      swap1\n      0xffffffff\n      and\n      jump\t// in\n    tag_208:\n      pop\n        /* \"@chainlink/contracts/src/v0.8/vendor/solidity-cborutils/v2.0.0/CBOR.sol\":6754:6781  buf.buf.appendInt(value, 4) */\n      tag_209\n        /* \"@chainlink/contracts/src/v0.8/vendor/solidity-cborutils/v2.0.0/CBOR.sol\":6772:6777  value */\n      dup2\n        /* \"@chainlink/contracts/src/v0.8/vendor/solidity-cborutils/v2.0.0/CBOR.sol\":6754:6781  buf.buf.appendInt(value, 4) */\n      0xffffffffffffffff\n      and\n        /* \"@chainlink/contracts/src/v0.8/vendor/solidity-cborutils/v2.0.0/CBOR.sol\":6779:6780  4 */\n      0x04\n        /* \"@chainlink/contracts/src/v0.8/vendor/solidity-cborutils/v2.0.0/CBOR.sol\":6754:6757  buf */\n      dup6\n        /* \"@chainlink/contracts/src/v0.8/vendor/solidity-cborutils/v2.0.0/CBOR.sol\":6754:6761  buf.buf */\n      0x00\n      add\n      mload\n        /* \"@chainlink/contracts/src/v0.8/vendor/solidity-cborutils/v2.0.0/CBOR.sol\":6754:6771  buf.buf.appendInt */\n      tag_201\n      swap1\n        /* \"@chainlink/contracts/src/v0.8/vendor/solidity-cborutils/v2.0.0/CBOR.sol\":6754:6781  buf.buf.appendInt(value, 4) */\n      swap3\n      swap2\n      swap1\n      0xffffffff\n      and\n      jump\t// in\n    tag_209:\n      pop\n        /* \"@chainlink/contracts/src/v0.8/vendor/solidity-cborutils/v2.0.0/CBOR.sol\":6656:6909  if (value <= 0xFFFFFFFF) {... */\n      jump(tag_210)\n    tag_207:\n        /* \"@chainlink/contracts/src/v0.8/vendor/solidity-cborutils/v2.0.0/CBOR.sol\":6812:6857  buf.buf.appendUint8(uint8((major << 5) | 27)) */\n      tag_211\n        /* \"@chainlink/contracts/src/v0.8/vendor/solidity-cborutils/v2.0.0/CBOR.sol\":6853:6855  27 */\n      0x1b\n        /* \"@chainlink/contracts/src/v0.8/vendor/solidity-cborutils/v2.0.0/CBOR.sol\":6848:6849  5 */\n      0x05\n        /* \"@chainlink/contracts/src/v0.8/vendor/solidity-cborutils/v2.0.0/CBOR.sol\":6839:6844  major */\n      dup5\n        /* \"@chainlink/contracts/src/v0.8/vendor/solidity-cborutils/v2.0.0/CBOR.sol\":6839:6849  major << 5 */\n      0xff\n      and\n      swap1\n      shl\n        /* \"@chainlink/contracts/src/v0.8/vendor/solidity-cborutils/v2.0.0/CBOR.sol\":6838:6855  (major << 5) | 27 */\n      or\n        /* \"@chainlink/contracts/src/v0.8/vendor/solidity-cborutils/v2.0.0/CBOR.sol\":6812:6815  buf */\n      dup5\n        /* \"@chainlink/contracts/src/v0.8/vendor/solidity-cborutils/v2.0.0/CBOR.sol\":6812:6819  buf.buf */\n      0x00\n      add\n      mload\n        /* \"@chainlink/contracts/src/v0.8/vendor/solidity-cborutils/v2.0.0/CBOR.sol\":6812:6831  buf.buf.appendUint8 */\n      tag_168\n      swap1\n        /* \"@chainlink/contracts/src/v0.8/vendor/solidity-cborutils/v2.0.0/CBOR.sol\":6812:6857  buf.buf.appendUint8(uint8((major << 5) | 27)) */\n      swap2\n      swap1\n      0xffffffff\n      and\n      jump\t// in\n    tag_211:\n      pop\n        /* \"@chainlink/contracts/src/v0.8/vendor/solidity-cborutils/v2.0.0/CBOR.sol\":6871:6898  buf.buf.appendInt(value, 8) */\n      tag_212\n        /* \"@chainlink/contracts/src/v0.8/vendor/solidity-cborutils/v2.0.0/CBOR.sol\":6889:6894  value */\n      dup2\n        /* \"@chainlink/contracts/src/v0.8/vendor/solidity-cborutils/v2.0.0/CBOR.sol\":6871:6898  buf.buf.appendInt(value, 8) */\n      0xffffffffffffffff\n      and\n        /* \"@chainlink/contracts/src/v0.8/vendor/solidity-cborutils/v2.0.0/CBOR.sol\":6896:6897  8 */\n      0x08\n        /* \"@chainlink/contracts/src/v0.8/vendor/solidity-cborutils/v2.0.0/CBOR.sol\":6871:6874  buf */\n      dup6\n        /* \"@chainlink/contracts/src/v0.8/vendor/solidity-cborutils/v2.0.0/CBOR.sol\":6871:6878  buf.buf */\n      0x00\n      add\n      mload\n        /* \"@chainlink/contracts/src/v0.8/vendor/solidity-cborutils/v2.0.0/CBOR.sol\":6871:6888  buf.buf.appendInt */\n      tag_201\n      swap1\n        /* \"@chainlink/contracts/src/v0.8/vendor/solidity-cborutils/v2.0.0/CBOR.sol\":6871:6898  buf.buf.appendInt(value, 8) */\n      swap3\n      swap2\n      swap1\n      0xffffffff\n      and\n      jump\t// in\n    tag_212:\n      pop\n        /* \"@chainlink/contracts/src/v0.8/vendor/solidity-cborutils/v2.0.0/CBOR.sol\":6656:6909  if (value <= 0xFFFFFFFF) {... */\n    tag_210:\n        /* \"@chainlink/contracts/src/v0.8/vendor/solidity-cborutils/v2.0.0/CBOR.sol\":6518:6909  if (value <= 0xFFFF) {... */\n    tag_206:\n        /* \"@chainlink/contracts/src/v0.8/vendor/solidity-cborutils/v2.0.0/CBOR.sol\":6382:6909  if (value <= 0xFF) {... */\n    tag_202:\n        /* \"@chainlink/contracts/src/v0.8/vendor/solidity-cborutils/v2.0.0/CBOR.sol\":6286:6909  if (value <= 23) {... */\n    tag_197:\n        /* \"@chainlink/contracts/src/v0.8/vendor/solidity-cborutils/v2.0.0/CBOR.sol\":6156:6915  function writeFixedNumeric(... */\n      pop\n      pop\n      pop\n      jump\t// out\n        /* \"@chainlink/contracts/src/v0.8/vendor/@ensdomains/buffer/v0.1.0/Buffer.sol\":4539:4685  function append(buffer memory buf, bytes memory data) internal pure returns (buffer memory) {... */\n    tag_165:\n        /* \"@chainlink/contracts/src/v0.8/vendor/@ensdomains/buffer/v0.1.0/Buffer.sol\":4616:4629  buffer memory */\n      tag_213\n      tag_185\n      jump\t// in\n    tag_213:\n        /* \"@chainlink/contracts/src/v0.8/vendor/@ensdomains/buffer/v0.1.0/Buffer.sol\":4648:4678  append(buf, data, data.length) */\n      tag_215\n        /* \"@chainlink/contracts/src/v0.8/vendor/@ensdomains/buffer/v0.1.0/Buffer.sol\":4655:4658  buf */\n      dup4\n        /* \"@chainlink/contracts/src/v0.8/vendor/@ensdomains/buffer/v0.1.0/Buffer.sol\":4660:4664  data */\n      dup4\n        /* \"@chainlink/contracts/src/v0.8/vendor/@ensdomains/buffer/v0.1.0/Buffer.sol\":4666:4670  data */\n      dup5\n        /* \"@chainlink/contracts/src/v0.8/vendor/@ensdomains/buffer/v0.1.0/Buffer.sol\":4666:4677  data.length */\n      mload\n        /* \"@chainlink/contracts/src/v0.8/vendor/@ensdomains/buffer/v0.1.0/Buffer.sol\":4648:4654  append */\n      tag_216\n        /* \"@chainlink/contracts/src/v0.8/vendor/@ensdomains/buffer/v0.1.0/Buffer.sol\":4648:4678  append(buf, data, data.length) */\n      jump\t// in\n    tag_215:\n        /* \"@chainlink/contracts/src/v0.8/vendor/@ensdomains/buffer/v0.1.0/Buffer.sol\":4641:4678  return append(buf, data, data.length) */\n      swap1\n      pop\n        /* \"@chainlink/contracts/src/v0.8/vendor/@ensdomains/buffer/v0.1.0/Buffer.sol\":4539:4685  function append(buffer memory buf, bytes memory data) internal pure returns (buffer memory) {... */\n      swap3\n      swap2\n      pop\n      pop\n      jump\t// out\n        /* \"@chainlink/contracts/src/v0.8/vendor/@ensdomains/buffer/v0.1.0/Buffer.sol\":4948:5647  function appendUint8(buffer memory buf, uint8 data) internal pure returns(buffer memory) {... */\n    tag_168:\n        /* \"@chainlink/contracts/src/v0.8/vendor/@ensdomains/buffer/v0.1.0/Buffer.sol\":5022:5035  buffer memory */\n      tag_217\n      tag_185\n      jump\t// in\n    tag_217:\n        /* \"@chainlink/contracts/src/v0.8/vendor/@ensdomains/buffer/v0.1.0/Buffer.sol\":5047:5055  uint off */\n      0x00\n        /* \"@chainlink/contracts/src/v0.8/vendor/@ensdomains/buffer/v0.1.0/Buffer.sol\":5058:5061  buf */\n      dup4\n        /* \"@chainlink/contracts/src/v0.8/vendor/@ensdomains/buffer/v0.1.0/Buffer.sol\":5058:5065  buf.buf */\n      0x00\n      add\n      mload\n        /* \"@chainlink/contracts/src/v0.8/vendor/@ensdomains/buffer/v0.1.0/Buffer.sol\":5058:5072  buf.buf.length */\n      mload\n        /* \"@chainlink/contracts/src/v0.8/vendor/@ensdomains/buffer/v0.1.0/Buffer.sol\":5047:5072  uint off = buf.buf.length */\n      swap1\n      pop\n        /* \"@chainlink/contracts/src/v0.8/vendor/@ensdomains/buffer/v0.1.0/Buffer.sol\":5082:5097  uint offPlusOne */\n      0x00\n        /* \"@chainlink/contracts/src/v0.8/vendor/@ensdomains/buffer/v0.1.0/Buffer.sol\":5106:5107  1 */\n      0x01\n        /* \"@chainlink/contracts/src/v0.8/vendor/@ensdomains/buffer/v0.1.0/Buffer.sol\":5100:5103  off */\n      dup3\n        /* \"@chainlink/contracts/src/v0.8/vendor/@ensdomains/buffer/v0.1.0/Buffer.sol\":5100:5107  off + 1 */\n      tag_219\n      swap2\n      swap1\n      tag_176\n      jump\t// in\n    tag_219:\n        /* \"@chainlink/contracts/src/v0.8/vendor/@ensdomains/buffer/v0.1.0/Buffer.sol\":5082:5107  uint offPlusOne = off + 1 */\n      swap1\n      pop\n        /* \"@chainlink/contracts/src/v0.8/vendor/@ensdomains/buffer/v0.1.0/Buffer.sol\":5128:5131  buf */\n      dup5\n        /* \"@chainlink/contracts/src/v0.8/vendor/@ensdomains/buffer/v0.1.0/Buffer.sol\":5128:5140  buf.capacity */\n      0x20\n      add\n      mload\n        /* \"@chainlink/contracts/src/v0.8/vendor/@ensdomains/buffer/v0.1.0/Buffer.sol\":5121:5124  off */\n      dup3\n        /* \"@chainlink/contracts/src/v0.8/vendor/@ensdomains/buffer/v0.1.0/Buffer.sol\":5121:5140  off >= buf.capacity */\n      lt\n        /* \"@chainlink/contracts/src/v0.8/vendor/@ensdomains/buffer/v0.1.0/Buffer.sol\":5117:5194  if (off >= buf.capacity) {... */\n      tag_220\n      jumpi\n        /* \"@chainlink/contracts/src/v0.8/vendor/@ensdomains/buffer/v0.1.0/Buffer.sol\":5156:5183  resize(buf, offPlusOne * 2) */\n      tag_221\n        /* \"@chainlink/contracts/src/v0.8/vendor/@ensdomains/buffer/v0.1.0/Buffer.sol\":5163:5166  buf */\n      dup6\n        /* \"@chainlink/contracts/src/v0.8/vendor/@ensdomains/buffer/v0.1.0/Buffer.sol\":5181:5182  2 */\n      0x02\n        /* \"@chainlink/contracts/src/v0.8/vendor/@ensdomains/buffer/v0.1.0/Buffer.sol\":5168:5178  offPlusOne */\n      dup4\n        /* \"@chainlink/contracts/src/v0.8/vendor/@ensdomains/buffer/v0.1.0/Buffer.sol\":5168:5182  offPlusOne * 2 */\n      tag_222\n      swap2\n      swap1\n      tag_223\n      jump\t// in\n    tag_222:\n        /* \"@chainlink/contracts/src/v0.8/vendor/@ensdomains/buffer/v0.1.0/Buffer.sol\":5156:5162  resize */\n      tag_224\n        /* \"@chainlink/contracts/src/v0.8/vendor/@ensdomains/buffer/v0.1.0/Buffer.sol\":5156:5183  resize(buf, offPlusOne * 2) */\n      jump\t// in\n    tag_221:\n        /* \"@chainlink/contracts/src/v0.8/vendor/@ensdomains/buffer/v0.1.0/Buffer.sol\":5117:5194  if (off >= buf.capacity) {... */\n    tag_220:\n        /* \"@chainlink/contracts/src/v0.8/vendor/@ensdomains/buffer/v0.1.0/Buffer.sol\":5296:5299  buf */\n      dup5\n        /* \"@chainlink/contracts/src/v0.8/vendor/@ensdomains/buffer/v0.1.0/Buffer.sol\":5290:5300  mload(buf) */\n      mload\n        /* \"@chainlink/contracts/src/v0.8/vendor/@ensdomains/buffer/v0.1.0/Buffer.sol\":5417:5419  32 */\n      0x20\n        /* \"@chainlink/contracts/src/v0.8/vendor/@ensdomains/buffer/v0.1.0/Buffer.sol\":5411:5414  off */\n      dup4\n        /* \"@chainlink/contracts/src/v0.8/vendor/@ensdomains/buffer/v0.1.0/Buffer.sol\":5403:5409  bufptr */\n      dup3\n        /* \"@chainlink/contracts/src/v0.8/vendor/@ensdomains/buffer/v0.1.0/Buffer.sol\":5399:5415  add(bufptr, off) */\n      add\n        /* \"@chainlink/contracts/src/v0.8/vendor/@ensdomains/buffer/v0.1.0/Buffer.sol\":5395:5420  add(add(bufptr, off), 32) */\n      add\n        /* \"@chainlink/contracts/src/v0.8/vendor/@ensdomains/buffer/v0.1.0/Buffer.sol\":5447:5451  data */\n      dup6\n        /* \"@chainlink/contracts/src/v0.8/vendor/@ensdomains/buffer/v0.1.0/Buffer.sol\":5441:5445  dest */\n      dup2\n        /* \"@chainlink/contracts/src/v0.8/vendor/@ensdomains/buffer/v0.1.0/Buffer.sol\":5433:5452  mstore8(dest, data) */\n      mstore8\n        /* \"@chainlink/contracts/src/v0.8/vendor/@ensdomains/buffer/v0.1.0/Buffer.sol\":5543:5549  bufptr */\n      dup2\n        /* \"@chainlink/contracts/src/v0.8/vendor/@ensdomains/buffer/v0.1.0/Buffer.sol\":5537:5550  mload(bufptr) */\n      mload\n        /* \"@chainlink/contracts/src/v0.8/vendor/@ensdomains/buffer/v0.1.0/Buffer.sol\":5525:5535  offPlusOne */\n      dup4\n        /* \"@chainlink/contracts/src/v0.8/vendor/@ensdomains/buffer/v0.1.0/Buffer.sol\":5522:5551  gt(offPlusOne, mload(bufptr)) */\n      gt\n        /* \"@chainlink/contracts/src/v0.8/vendor/@ensdomains/buffer/v0.1.0/Buffer.sol\":5519:5610  if gt(offPlusOne, mload(bufptr)) {... */\n      iszero\n      tag_225\n      jumpi\n        /* \"@chainlink/contracts/src/v0.8/vendor/@ensdomains/buffer/v0.1.0/Buffer.sol\":5585:5595  offPlusOne */\n      dup3\n        /* \"@chainlink/contracts/src/v0.8/vendor/@ensdomains/buffer/v0.1.0/Buffer.sol\":5577:5583  bufptr */\n      dup3\n        /* \"@chainlink/contracts/src/v0.8/vendor/@ensdomains/buffer/v0.1.0/Buffer.sol\":5570:5596  mstore(bufptr, offPlusOne) */\n      mstore\n        /* \"@chainlink/contracts/src/v0.8/vendor/@ensdomains/buffer/v0.1.0/Buffer.sol\":5519:5610  if gt(offPlusOne, mload(bufptr)) {... */\n    tag_225:\n        /* \"@chainlink/contracts/src/v0.8/vendor/@ensdomains/buffer/v0.1.0/Buffer.sol\":5213:5620  {... */\n      pop\n      pop\n        /* \"@chainlink/contracts/src/v0.8/vendor/@ensdomains/buffer/v0.1.0/Buffer.sol\":5637:5640  buf */\n      dup5\n        /* \"@chainlink/contracts/src/v0.8/vendor/@ensdomains/buffer/v0.1.0/Buffer.sol\":5630:5640  return buf */\n      swap3\n      pop\n      pop\n      pop\n        /* \"@chainlink/contracts/src/v0.8/vendor/@ensdomains/buffer/v0.1.0/Buffer.sol\":4948:5647  function appendUint8(buffer memory buf, uint8 data) internal pure returns(buffer memory) {... */\n      swap3\n      swap2\n      pop\n      pop\n      jump\t// out\n        /* \"@chainlink/contracts/src/v0.8/vendor/solidity-cborutils/v2.0.0/CBOR.sol\":6921:7087  function writeIndefiniteLengthType(CBORBuffer memory buf, uint8 major)... */\n    tag_174:\n        /* \"@chainlink/contracts/src/v0.8/vendor/solidity-cborutils/v2.0.0/CBOR.sol\":7035:7080  buf.buf.appendUint8(uint8((major << 5) | 31)) */\n      tag_227\n        /* \"@chainlink/contracts/src/v0.8/vendor/solidity-cborutils/v2.0.0/CBOR.sol\":7076:7078  31 */\n      0x1f\n        /* \"@chainlink/contracts/src/v0.8/vendor/solidity-cborutils/v2.0.0/CBOR.sol\":7071:7072  5 */\n      0x05\n        /* \"@chainlink/contracts/src/v0.8/vendor/solidity-cborutils/v2.0.0/CBOR.sol\":7062:7067  major */\n      dup4\n        /* \"@chainlink/contracts/src/v0.8/vendor/solidity-cborutils/v2.0.0/CBOR.sol\":7062:7072  major << 5 */\n      0xff\n      and\n      swap1\n      shl\n        /* \"@chainlink/contracts/src/v0.8/vendor/solidity-cborutils/v2.0.0/CBOR.sol\":7061:7078  (major << 5) | 31 */\n      or\n        /* \"@chainlink/contracts/src/v0.8/vendor/solidity-cborutils/v2.0.0/CBOR.sol\":7035:7038  buf */\n      dup4\n        /* \"@chainlink/contracts/src/v0.8/vendor/solidity-cborutils/v2.0.0/CBOR.sol\":7035:7042  buf.buf */\n      0x00\n      add\n      mload\n        /* \"@chainlink/contracts/src/v0.8/vendor/solidity-cborutils/v2.0.0/CBOR.sol\":7035:7054  buf.buf.appendUint8 */\n      tag_168\n      swap1\n        /* \"@chainlink/contracts/src/v0.8/vendor/solidity-cborutils/v2.0.0/CBOR.sol\":7035:7080  buf.buf.appendUint8(uint8((major << 5) | 31)) */\n      swap2\n      swap1\n      0xffffffff\n      and\n      jump\t// in\n    tag_227:\n      pop\n        /* \"@chainlink/contracts/src/v0.8/vendor/solidity-cborutils/v2.0.0/CBOR.sol\":6921:7087  function writeIndefiniteLengthType(CBORBuffer memory buf, uint8 major)... */\n      pop\n      pop\n      jump\t// out\n        /* \"@chainlink/contracts/src/v0.8/vendor/@ensdomains/buffer/v0.1.0/Buffer.sol\":8083:8878  function appendInt(buffer memory buf, uint data, uint len) internal pure returns(buffer memory) {... */\n    tag_201:\n        /* \"@chainlink/contracts/src/v0.8/vendor/@ensdomains/buffer/v0.1.0/Buffer.sol\":8164:8177  buffer memory */\n      tag_228\n      tag_185\n      jump\t// in\n    tag_228:\n        /* \"@chainlink/contracts/src/v0.8/vendor/@ensdomains/buffer/v0.1.0/Buffer.sol\":8189:8197  uint off */\n      0x00\n        /* \"@chainlink/contracts/src/v0.8/vendor/@ensdomains/buffer/v0.1.0/Buffer.sol\":8200:8203  buf */\n      dup5\n        /* \"@chainlink/contracts/src/v0.8/vendor/@ensdomains/buffer/v0.1.0/Buffer.sol\":8200:8207  buf.buf */\n      0x00\n      add\n      mload\n        /* \"@chainlink/contracts/src/v0.8/vendor/@ensdomains/buffer/v0.1.0/Buffer.sol\":8200:8214  buf.buf.length */\n      mload\n        /* \"@chainlink/contracts/src/v0.8/vendor/@ensdomains/buffer/v0.1.0/Buffer.sol\":8189:8214  uint off = buf.buf.length */\n      swap1\n      pop\n        /* \"@chainlink/contracts/src/v0.8/vendor/@ensdomains/buffer/v0.1.0/Buffer.sol\":8224:8240  uint newCapacity */\n      0x00\n        /* \"@chainlink/contracts/src/v0.8/vendor/@ensdomains/buffer/v0.1.0/Buffer.sol\":8249:8252  off */\n      dup2\n        /* \"@chainlink/contracts/src/v0.8/vendor/@ensdomains/buffer/v0.1.0/Buffer.sol\":8243:8246  len */\n      dup5\n        /* \"@chainlink/contracts/src/v0.8/vendor/@ensdomains/buffer/v0.1.0/Buffer.sol\":8243:8252  len + off */\n      tag_230\n      swap2\n      swap1\n      tag_176\n      jump\t// in\n    tag_230:\n        /* \"@chainlink/contracts/src/v0.8/vendor/@ensdomains/buffer/v0.1.0/Buffer.sol\":8224:8252  uint newCapacity = len + off */\n      swap1\n      pop\n        /* \"@chainlink/contracts/src/v0.8/vendor/@ensdomains/buffer/v0.1.0/Buffer.sol\":8280:8283  buf */\n      dup6\n        /* \"@chainlink/contracts/src/v0.8/vendor/@ensdomains/buffer/v0.1.0/Buffer.sol\":8280:8292  buf.capacity */\n      0x20\n      add\n      mload\n        /* \"@chainlink/contracts/src/v0.8/vendor/@ensdomains/buffer/v0.1.0/Buffer.sol\":8266:8277  newCapacity */\n      dup2\n        /* \"@chainlink/contracts/src/v0.8/vendor/@ensdomains/buffer/v0.1.0/Buffer.sol\":8266:8292  newCapacity > buf.capacity */\n      gt\n        /* \"@chainlink/contracts/src/v0.8/vendor/@ensdomains/buffer/v0.1.0/Buffer.sol\":8262:8347  if (newCapacity > buf.capacity) {... */\n      iszero\n      tag_231\n      jumpi\n        /* \"@chainlink/contracts/src/v0.8/vendor/@ensdomains/buffer/v0.1.0/Buffer.sol\":8308:8336  resize(buf, newCapacity * 2) */\n      tag_232\n        /* \"@chainlink/contracts/src/v0.8/vendor/@ensdomains/buffer/v0.1.0/Buffer.sol\":8315:8318  buf */\n      dup7\n        /* \"@chainlink/contracts/src/v0.8/vendor/@ensdomains/buffer/v0.1.0/Buffer.sol\":8334:8335  2 */\n      0x02\n        /* \"@chainlink/contracts/src/v0.8/vendor/@ensdomains/buffer/v0.1.0/Buffer.sol\":8320:8331  newCapacity */\n      dup4\n        /* \"@chainlink/contracts/src/v0.8/vendor/@ensdomains/buffer/v0.1.0/Buffer.sol\":8320:8335  newCapacity * 2 */\n      tag_233\n      swap2\n      swap1\n      tag_223\n      jump\t// in\n    tag_233:\n        /* \"@chainlink/contracts/src/v0.8/vendor/@ensdomains/buffer/v0.1.0/Buffer.sol\":8308:8314  resize */\n      tag_224\n        /* \"@chainlink/contracts/src/v0.8/vendor/@ensdomains/buffer/v0.1.0/Buffer.sol\":8308:8336  resize(buf, newCapacity * 2) */\n      jump\t// in\n    tag_232:\n        /* \"@chainlink/contracts/src/v0.8/vendor/@ensdomains/buffer/v0.1.0/Buffer.sol\":8262:8347  if (newCapacity > buf.capacity) {... */\n    tag_231:\n        /* \"@chainlink/contracts/src/v0.8/vendor/@ensdomains/buffer/v0.1.0/Buffer.sol\":8357:8366  uint mask */\n      0x00\n        /* \"@chainlink/contracts/src/v0.8/vendor/@ensdomains/buffer/v0.1.0/Buffer.sol\":8384:8385  1 */\n      0x01\n        /* \"@chainlink/contracts/src/v0.8/vendor/@ensdomains/buffer/v0.1.0/Buffer.sol\":8377:8380  len */\n      dup6\n        /* \"@chainlink/contracts/src/v0.8/vendor/@ensdomains/buffer/v0.1.0/Buffer.sol\":8370:8373  256 */\n      0x0100\n        /* \"@chainlink/contracts/src/v0.8/vendor/@ensdomains/buffer/v0.1.0/Buffer.sol\":8370:8380  256 ** len */\n      tag_234\n      swap2\n      swap1\n      tag_235\n      jump\t// in\n    tag_234:\n        /* \"@chainlink/contracts/src/v0.8/vendor/@ensdomains/buffer/v0.1.0/Buffer.sol\":8369:8385  (256 ** len) - 1 */\n      tag_236\n      swap2\n      swap1\n      tag_180\n      jump\t// in\n    tag_236:\n        /* \"@chainlink/contracts/src/v0.8/vendor/@ensdomains/buffer/v0.1.0/Buffer.sol\":8357:8385  uint mask = (256 ** len) - 1 */\n      swap1\n      pop\n        /* \"@chainlink/contracts/src/v0.8/vendor/@ensdomains/buffer/v0.1.0/Buffer.sol\":8487:8490  buf */\n      dup7\n        /* \"@chainlink/contracts/src/v0.8/vendor/@ensdomains/buffer/v0.1.0/Buffer.sol\":8481:8491  mload(buf) */\n      mload\n        /* \"@chainlink/contracts/src/v0.8/vendor/@ensdomains/buffer/v0.1.0/Buffer.sol\":8606:8617  newCapacity */\n      dup3\n        /* \"@chainlink/contracts/src/v0.8/vendor/@ensdomains/buffer/v0.1.0/Buffer.sol\":8598:8604  bufptr */\n      dup2\n        /* \"@chainlink/contracts/src/v0.8/vendor/@ensdomains/buffer/v0.1.0/Buffer.sol\":8594:8618  add(bufptr, newCapacity) */\n      add\n        /* \"@chainlink/contracts/src/v0.8/vendor/@ensdomains/buffer/v0.1.0/Buffer.sol\":8676:8680  data */\n      dup8\n        /* \"@chainlink/contracts/src/v0.8/vendor/@ensdomains/buffer/v0.1.0/Buffer.sol\":8668:8672  mask */\n      dup4\n        /* \"@chainlink/contracts/src/v0.8/vendor/@ensdomains/buffer/v0.1.0/Buffer.sol\":8664:8673  not(mask) */\n      not\n        /* \"@chainlink/contracts/src/v0.8/vendor/@ensdomains/buffer/v0.1.0/Buffer.sol\":8657:8661  dest */\n      dup3\n        /* \"@chainlink/contracts/src/v0.8/vendor/@ensdomains/buffer/v0.1.0/Buffer.sol\":8651:8662  mload(dest) */\n      mload\n        /* \"@chainlink/contracts/src/v0.8/vendor/@ensdomains/buffer/v0.1.0/Buffer.sol\":8647:8674  and(mload(dest), not(mask)) */\n      and\n        /* \"@chainlink/contracts/src/v0.8/vendor/@ensdomains/buffer/v0.1.0/Buffer.sol\":8644:8681  or(and(mload(dest), not(mask)), data) */\n      or\n        /* \"@chainlink/contracts/src/v0.8/vendor/@ensdomains/buffer/v0.1.0/Buffer.sol\":8638:8642  dest */\n      dup2\n        /* \"@chainlink/contracts/src/v0.8/vendor/@ensdomains/buffer/v0.1.0/Buffer.sol\":8631:8682  mstore(dest, or(and(mload(dest), not(mask)), data)) */\n      mstore\n        /* \"@chainlink/contracts/src/v0.8/vendor/@ensdomains/buffer/v0.1.0/Buffer.sol\":8774:8780  bufptr */\n      dup2\n        /* \"@chainlink/contracts/src/v0.8/vendor/@ensdomains/buffer/v0.1.0/Buffer.sol\":8768:8781  mload(bufptr) */\n      mload\n        /* \"@chainlink/contracts/src/v0.8/vendor/@ensdomains/buffer/v0.1.0/Buffer.sol\":8755:8766  newCapacity */\n      dup5\n        /* \"@chainlink/contracts/src/v0.8/vendor/@ensdomains/buffer/v0.1.0/Buffer.sol\":8752:8782  gt(newCapacity, mload(bufptr)) */\n      gt\n        /* \"@chainlink/contracts/src/v0.8/vendor/@ensdomains/buffer/v0.1.0/Buffer.sol\":8749:8842  if gt(newCapacity, mload(bufptr)) {... */\n      iszero\n      tag_237\n      jumpi\n        /* \"@chainlink/contracts/src/v0.8/vendor/@ensdomains/buffer/v0.1.0/Buffer.sol\":8816:8827  newCapacity */\n      dup4\n        /* \"@chainlink/contracts/src/v0.8/vendor/@ensdomains/buffer/v0.1.0/Buffer.sol\":8808:8814  bufptr */\n      dup3\n        /* \"@chainlink/contracts/src/v0.8/vendor/@ensdomains/buffer/v0.1.0/Buffer.sol\":8801:8828  mstore(bufptr, newCapacity) */\n      mstore\n        /* \"@chainlink/contracts/src/v0.8/vendor/@ensdomains/buffer/v0.1.0/Buffer.sol\":8749:8842  if gt(newCapacity, mload(bufptr)) {... */\n    tag_237:\n        /* \"@chainlink/contracts/src/v0.8/vendor/@ensdomains/buffer/v0.1.0/Buffer.sol\":8404:8852  {... */\n      pop\n      pop\n        /* \"@chainlink/contracts/src/v0.8/vendor/@ensdomains/buffer/v0.1.0/Buffer.sol\":8868:8871  buf */\n      dup7\n        /* \"@chainlink/contracts/src/v0.8/vendor/@ensdomains/buffer/v0.1.0/Buffer.sol\":8861:8871  return buf */\n      swap4\n      pop\n      pop\n      pop\n      pop\n        /* \"@chainlink/contracts/src/v0.8/vendor/@ensdomains/buffer/v0.1.0/Buffer.sol\":8083:8878  function appendInt(buffer memory buf, uint data, uint len) internal pure returns(buffer memory) {... */\n      swap4\n      swap3\n      pop\n      pop\n      pop\n      jump\t// out\n        /* \"@chainlink/contracts/src/v0.8/vendor/@ensdomains/buffer/v0.1.0/Buffer.sol\":2844:4271  function append(buffer memory buf, bytes memory data, uint len) internal pure returns(buffer memory) {... */\n    tag_216:\n        /* \"@chainlink/contracts/src/v0.8/vendor/@ensdomains/buffer/v0.1.0/Buffer.sol\":2930:2943  buffer memory */\n      tag_238\n      tag_185\n      jump\t// in\n    tag_238:\n        /* \"@chainlink/contracts/src/v0.8/vendor/@ensdomains/buffer/v0.1.0/Buffer.sol\":2970:2974  data */\n      dup3\n        /* \"@chainlink/contracts/src/v0.8/vendor/@ensdomains/buffer/v0.1.0/Buffer.sol\":2970:2981  data.length */\n      mload\n        /* \"@chainlink/contracts/src/v0.8/vendor/@ensdomains/buffer/v0.1.0/Buffer.sol\":2963:2966  len */\n      dup3\n        /* \"@chainlink/contracts/src/v0.8/vendor/@ensdomains/buffer/v0.1.0/Buffer.sol\":2963:2981  len <= data.length */\n      gt\n      iszero\n        /* \"@chainlink/contracts/src/v0.8/vendor/@ensdomains/buffer/v0.1.0/Buffer.sol\":2955:2982  require(len <= data.length) */\n      tag_240\n      jumpi\n      revert(0x00, 0x00)\n    tag_240:\n        /* \"@chainlink/contracts/src/v0.8/vendor/@ensdomains/buffer/v0.1.0/Buffer.sol\":2993:3001  uint off */\n      0x00\n        /* \"@chainlink/contracts/src/v0.8/vendor/@ensdomains/buffer/v0.1.0/Buffer.sol\":3004:3007  buf */\n      dup5\n        /* \"@chainlink/contracts/src/v0.8/vendor/@ensdomains/buffer/v0.1.0/Buffer.sol\":3004:3011  buf.buf */\n      0x00\n      add\n      mload\n        /* \"@chainlink/contracts/src/v0.8/vendor/@ensdomains/buffer/v0.1.0/Buffer.sol\":3004:3018  buf.buf.length */\n      mload\n        /* \"@chainlink/contracts/src/v0.8/vendor/@ensdomains/buffer/v0.1.0/Buffer.sol\":2993:3018  uint off = buf.buf.length */\n      swap1\n      pop\n        /* \"@chainlink/contracts/src/v0.8/vendor/@ensdomains/buffer/v0.1.0/Buffer.sol\":3028:3044  uint newCapacity */\n      0x00\n        /* \"@chainlink/contracts/src/v0.8/vendor/@ensdomains/buffer/v0.1.0/Buffer.sol\":3053:3056  len */\n      dup4\n        /* \"@chainlink/contracts/src/v0.8/vendor/@ensdomains/buffer/v0.1.0/Buffer.sol\":3047:3050  off */\n      dup3\n        /* \"@chainlink/contracts/src/v0.8/vendor/@ensdomains/buffer/v0.1.0/Buffer.sol\":3047:3056  off + len */\n      tag_241\n      swap2\n      swap1\n      tag_176\n      jump\t// in\n    tag_241:\n        /* \"@chainlink/contracts/src/v0.8/vendor/@ensdomains/buffer/v0.1.0/Buffer.sol\":3028:3056  uint newCapacity = off + len */\n      swap1\n      pop\n        /* \"@chainlink/contracts/src/v0.8/vendor/@ensdomains/buffer/v0.1.0/Buffer.sol\":3084:3087  buf */\n      dup6\n        /* \"@chainlink/contracts/src/v0.8/vendor/@ensdomains/buffer/v0.1.0/Buffer.sol\":3084:3096  buf.capacity */\n      0x20\n      add\n      mload\n        /* \"@chainlink/contracts/src/v0.8/vendor/@ensdomains/buffer/v0.1.0/Buffer.sol\":3070:3081  newCapacity */\n      dup2\n        /* \"@chainlink/contracts/src/v0.8/vendor/@ensdomains/buffer/v0.1.0/Buffer.sol\":3070:3096  newCapacity > buf.capacity */\n      gt\n        /* \"@chainlink/contracts/src/v0.8/vendor/@ensdomains/buffer/v0.1.0/Buffer.sol\":3066:3151  if (newCapacity > buf.capacity) {... */\n      iszero\n      tag_242\n      jumpi\n        /* \"@chainlink/contracts/src/v0.8/vendor/@ensdomains/buffer/v0.1.0/Buffer.sol\":3112:3140  resize(buf, newCapacity * 2) */\n      tag_243\n        /* \"@chainlink/contracts/src/v0.8/vendor/@ensdomains/buffer/v0.1.0/Buffer.sol\":3119:3122  buf */\n      dup7\n        /* \"@chainlink/contracts/src/v0.8/vendor/@ensdomains/buffer/v0.1.0/Buffer.sol\":3138:3139  2 */\n      0x02\n        /* \"@chainlink/contracts/src/v0.8/vendor/@ensdomains/buffer/v0.1.0/Buffer.sol\":3124:3135  newCapacity */\n      dup4\n        /* \"@chainlink/contracts/src/v0.8/vendor/@ensdomains/buffer/v0.1.0/Buffer.sol\":3124:3139  newCapacity * 2 */\n      tag_244\n      swap2\n      swap1\n      tag_223\n      jump\t// in\n    tag_244:\n        /* \"@chainlink/contracts/src/v0.8/vendor/@ensdomains/buffer/v0.1.0/Buffer.sol\":3112:3118  resize */\n      tag_224\n        /* \"@chainlink/contracts/src/v0.8/vendor/@ensdomains/buffer/v0.1.0/Buffer.sol\":3112:3140  resize(buf, newCapacity * 2) */\n      jump\t// in\n    tag_243:\n        /* \"@chainlink/contracts/src/v0.8/vendor/@ensdomains/buffer/v0.1.0/Buffer.sol\":3066:3151  if (newCapacity > buf.capacity) {... */\n    tag_242:\n        /* \"@chainlink/contracts/src/v0.8/vendor/@ensdomains/buffer/v0.1.0/Buffer.sol\":3161:3170  uint dest */\n      0x00\n        /* \"@chainlink/contracts/src/v0.8/vendor/@ensdomains/buffer/v0.1.0/Buffer.sol\":3180:3188  uint src */\n      0x00\n        /* \"@chainlink/contracts/src/v0.8/vendor/@ensdomains/buffer/v0.1.0/Buffer.sol\":3290:3293  buf */\n      dup8\n        /* \"@chainlink/contracts/src/v0.8/vendor/@ensdomains/buffer/v0.1.0/Buffer.sol\":3284:3294  mload(buf) */\n      mload\n        /* \"@chainlink/contracts/src/v0.8/vendor/@ensdomains/buffer/v0.1.0/Buffer.sol\":3373:3379  bufptr */\n      dup1\n        /* \"@chainlink/contracts/src/v0.8/vendor/@ensdomains/buffer/v0.1.0/Buffer.sol\":3367:3380  mload(bufptr) */\n      mload\n        /* \"@chainlink/contracts/src/v0.8/vendor/@ensdomains/buffer/v0.1.0/Buffer.sol\":3501:3504  off */\n      dup6\n        /* \"@chainlink/contracts/src/v0.8/vendor/@ensdomains/buffer/v0.1.0/Buffer.sol\":3496:3498  32 */\n      0x20\n        /* \"@chainlink/contracts/src/v0.8/vendor/@ensdomains/buffer/v0.1.0/Buffer.sol\":3488:3494  bufptr */\n      dup4\n        /* \"@chainlink/contracts/src/v0.8/vendor/@ensdomains/buffer/v0.1.0/Buffer.sol\":3484:3499  add(bufptr, 32) */\n      add\n        /* \"@chainlink/contracts/src/v0.8/vendor/@ensdomains/buffer/v0.1.0/Buffer.sol\":3480:3505  add(add(bufptr, 32), off) */\n      add\n        /* \"@chainlink/contracts/src/v0.8/vendor/@ensdomains/buffer/v0.1.0/Buffer.sol\":3472:3505  dest := add(add(bufptr, 32), off) */\n      swap4\n      pop\n        /* \"@chainlink/contracts/src/v0.8/vendor/@ensdomains/buffer/v0.1.0/Buffer.sol\":3595:3601  buflen */\n      dup1\n        /* \"@chainlink/contracts/src/v0.8/vendor/@ensdomains/buffer/v0.1.0/Buffer.sol\":3582:3593  newCapacity */\n      dup6\n        /* \"@chainlink/contracts/src/v0.8/vendor/@ensdomains/buffer/v0.1.0/Buffer.sol\":3579:3602  gt(newCapacity, buflen) */\n      gt\n        /* \"@chainlink/contracts/src/v0.8/vendor/@ensdomains/buffer/v0.1.0/Buffer.sol\":3576:3662  if gt(newCapacity, buflen) {... */\n      iszero\n      tag_245\n      jumpi\n        /* \"@chainlink/contracts/src/v0.8/vendor/@ensdomains/buffer/v0.1.0/Buffer.sol\":3636:3647  newCapacity */\n      dup5\n        /* \"@chainlink/contracts/src/v0.8/vendor/@ensdomains/buffer/v0.1.0/Buffer.sol\":3628:3634  bufptr */\n      dup3\n        /* \"@chainlink/contracts/src/v0.8/vendor/@ensdomains/buffer/v0.1.0/Buffer.sol\":3621:3648  mstore(bufptr, newCapacity) */\n      mstore\n        /* \"@chainlink/contracts/src/v0.8/vendor/@ensdomains/buffer/v0.1.0/Buffer.sol\":3576:3662  if gt(newCapacity, buflen) {... */\n    tag_245:\n        /* \"@chainlink/contracts/src/v0.8/vendor/@ensdomains/buffer/v0.1.0/Buffer.sol\":3692:3694  32 */\n      0x20\n        /* \"@chainlink/contracts/src/v0.8/vendor/@ensdomains/buffer/v0.1.0/Buffer.sol\":3686:3690  data */\n      dup10\n        /* \"@chainlink/contracts/src/v0.8/vendor/@ensdomains/buffer/v0.1.0/Buffer.sol\":3682:3695  add(data, 32) */\n      add\n        /* \"@chainlink/contracts/src/v0.8/vendor/@ensdomains/buffer/v0.1.0/Buffer.sol\":3675:3695  src := add(data, 32) */\n      swap3\n      pop\n        /* \"@chainlink/contracts/src/v0.8/vendor/@ensdomains/buffer/v0.1.0/Buffer.sol\":3207:3705  {... */\n      pop\n      pop\n        /* \"@chainlink/contracts/src/v0.8/vendor/@ensdomains/buffer/v0.1.0/Buffer.sol\":3765:3930  for (; len >= 32; len -= 32) {... */\n    tag_246:\n        /* \"@chainlink/contracts/src/v0.8/vendor/@ensdomains/buffer/v0.1.0/Buffer.sol\":3779:3781  32 */\n      0x20\n        /* \"@chainlink/contracts/src/v0.8/vendor/@ensdomains/buffer/v0.1.0/Buffer.sol\":3772:3775  len */\n      dup7\n        /* \"@chainlink/contracts/src/v0.8/vendor/@ensdomains/buffer/v0.1.0/Buffer.sol\":3772:3781  len >= 32 */\n      lt\n        /* \"@chainlink/contracts/src/v0.8/vendor/@ensdomains/buffer/v0.1.0/Buffer.sol\":3765:3930  for (; len >= 32; len -= 32) {... */\n      tag_247\n      jumpi\n        /* \"@chainlink/contracts/src/v0.8/vendor/@ensdomains/buffer/v0.1.0/Buffer.sol\":3854:3857  src */\n      dup1\n        /* \"@chainlink/contracts/src/v0.8/vendor/@ensdomains/buffer/v0.1.0/Buffer.sol\":3848:3858  mload(src) */\n      mload\n        /* \"@chainlink/contracts/src/v0.8/vendor/@ensdomains/buffer/v0.1.0/Buffer.sol\":3842:3846  dest */\n      dup3\n        /* \"@chainlink/contracts/src/v0.8/vendor/@ensdomains/buffer/v0.1.0/Buffer.sol\":3835:3859  mstore(dest, mload(src)) */\n      mstore\n        /* \"@chainlink/contracts/src/v0.8/vendor/@ensdomains/buffer/v0.1.0/Buffer.sol\":3894:3896  32 */\n      0x20\n        /* \"@chainlink/contracts/src/v0.8/vendor/@ensdomains/buffer/v0.1.0/Buffer.sol\":3886:3896  dest += 32 */\n      dup3\n      tag_249\n      swap2\n      swap1\n      tag_176\n      jump\t// in\n    tag_249:\n      swap2\n      pop\n        /* \"@chainlink/contracts/src/v0.8/vendor/@ensdomains/buffer/v0.1.0/Buffer.sol\":3917:3919  32 */\n      0x20\n        /* \"@chainlink/contracts/src/v0.8/vendor/@ensdomains/buffer/v0.1.0/Buffer.sol\":3910:3919  src += 32 */\n      dup2\n      tag_250\n      swap2\n      swap1\n      tag_176\n      jump\t// in\n    tag_250:\n      swap1\n      pop\n        /* \"@chainlink/contracts/src/v0.8/vendor/@ensdomains/buffer/v0.1.0/Buffer.sol\":3790:3792  32 */\n      0x20\n        /* \"@chainlink/contracts/src/v0.8/vendor/@ensdomains/buffer/v0.1.0/Buffer.sol\":3783:3792  len -= 32 */\n      dup7\n      tag_251\n      swap2\n      swap1\n      tag_180\n      jump\t// in\n    tag_251:\n      swap6\n      pop\n        /* \"@chainlink/contracts/src/v0.8/vendor/@ensdomains/buffer/v0.1.0/Buffer.sol\":3765:3930  for (; len >= 32; len -= 32) {... */\n      jump(tag_246)\n    tag_247:\n        /* \"@chainlink/contracts/src/v0.8/vendor/@ensdomains/buffer/v0.1.0/Buffer.sol\":3996:4005  uint mask */\n      0x00\n        /* \"@chainlink/contracts/src/v0.8/vendor/@ensdomains/buffer/v0.1.0/Buffer.sol\":4030:4031  1 */\n      0x01\n        /* \"@chainlink/contracts/src/v0.8/vendor/@ensdomains/buffer/v0.1.0/Buffer.sol\":4022:4025  len */\n      dup8\n        /* \"@chainlink/contracts/src/v0.8/vendor/@ensdomains/buffer/v0.1.0/Buffer.sol\":4017:4019  32 */\n      0x20\n        /* \"@chainlink/contracts/src/v0.8/vendor/@ensdomains/buffer/v0.1.0/Buffer.sol\":4017:4025  32 - len */\n      sub\n        /* \"@chainlink/contracts/src/v0.8/vendor/@ensdomains/buffer/v0.1.0/Buffer.sol\":4009:4012  256 */\n      0x0100\n        /* \"@chainlink/contracts/src/v0.8/vendor/@ensdomains/buffer/v0.1.0/Buffer.sol\":4009:4026  256 ** (32 - len) */\n      exp\n        /* \"@chainlink/contracts/src/v0.8/vendor/@ensdomains/buffer/v0.1.0/Buffer.sol\":4008:4031  (256 ** (32 - len)) - 1 */\n      sub\n        /* \"@chainlink/contracts/src/v0.8/vendor/@ensdomains/buffer/v0.1.0/Buffer.sol\":3996:4031  uint mask = (256 ** (32 - len)) - 1 */\n      swap1\n      pop\n        /* \"@chainlink/contracts/src/v0.8/vendor/@ensdomains/buffer/v0.1.0/Buffer.sol\":4107:4111  mask */\n      dup1\n        /* \"@chainlink/contracts/src/v0.8/vendor/@ensdomains/buffer/v0.1.0/Buffer.sol\":4103:4112  not(mask) */\n      not\n        /* \"@chainlink/contracts/src/v0.8/vendor/@ensdomains/buffer/v0.1.0/Buffer.sol\":4097:4100  src */\n      dup3\n        /* \"@chainlink/contracts/src/v0.8/vendor/@ensdomains/buffer/v0.1.0/Buffer.sol\":4091:4101  mload(src) */\n      mload\n        /* \"@chainlink/contracts/src/v0.8/vendor/@ensdomains/buffer/v0.1.0/Buffer.sol\":4087:4113  and(mload(src), not(mask)) */\n      and\n        /* \"@chainlink/contracts/src/v0.8/vendor/@ensdomains/buffer/v0.1.0/Buffer.sol\":4163:4167  mask */\n      dup2\n        /* \"@chainlink/contracts/src/v0.8/vendor/@ensdomains/buffer/v0.1.0/Buffer.sol\":4156:4160  dest */\n      dup5\n        /* \"@chainlink/contracts/src/v0.8/vendor/@ensdomains/buffer/v0.1.0/Buffer.sol\":4150:4161  mload(dest) */\n      mload\n        /* \"@chainlink/contracts/src/v0.8/vendor/@ensdomains/buffer/v0.1.0/Buffer.sol\":4146:4168  and(mload(dest), mask) */\n      and\n        /* \"@chainlink/contracts/src/v0.8/vendor/@ensdomains/buffer/v0.1.0/Buffer.sol\":4211:4218  srcpart */\n      dup2\n        /* \"@chainlink/contracts/src/v0.8/vendor/@ensdomains/buffer/v0.1.0/Buffer.sol\":4201:4209  destpart */\n      dup2\n        /* \"@chainlink/contracts/src/v0.8/vendor/@ensdomains/buffer/v0.1.0/Buffer.sol\":4198:4219  or(destpart, srcpart) */\n      or\n        /* \"@chainlink/contracts/src/v0.8/vendor/@ensdomains/buffer/v0.1.0/Buffer.sol\":4192:4196  dest */\n      dup6\n        /* \"@chainlink/contracts/src/v0.8/vendor/@ensdomains/buffer/v0.1.0/Buffer.sol\":4185:4220  mstore(dest, or(destpart, srcpart)) */\n      mstore\n        /* \"@chainlink/contracts/src/v0.8/vendor/@ensdomains/buffer/v0.1.0/Buffer.sol\":4054:4234  {... */\n      pop\n      pop\n      pop\n        /* \"@chainlink/contracts/src/v0.8/vendor/@ensdomains/buffer/v0.1.0/Buffer.sol\":4261:4264  buf */\n      dup8\n        /* \"@chainlink/contracts/src/v0.8/vendor/@ensdomains/buffer/v0.1.0/Buffer.sol\":4254:4264  return buf */\n      swap5\n      pop\n      pop\n      pop\n      pop\n      pop\n        /* \"@chainlink/contracts/src/v0.8/vendor/@ensdomains/buffer/v0.1.0/Buffer.sol\":2844:4271  function append(buffer memory buf, bytes memory data, uint len) internal pure returns(buffer memory) {... */\n      swap4\n      swap3\n      pop\n      pop\n      pop\n      jump\t// out\n        /* \"@chainlink/contracts/src/v0.8/vendor/@ensdomains/buffer/v0.1.0/Buffer.sol\":2004:2171  function resize(buffer memory buf, uint capacity) private pure {... */\n    tag_224:\n        /* \"@chainlink/contracts/src/v0.8/vendor/@ensdomains/buffer/v0.1.0/Buffer.sol\":2077:2096  bytes memory oldbuf */\n      0x00\n        /* \"@chainlink/contracts/src/v0.8/vendor/@ensdomains/buffer/v0.1.0/Buffer.sol\":2099:2102  buf */\n      dup3\n        /* \"@chainlink/contracts/src/v0.8/vendor/@ensdomains/buffer/v0.1.0/Buffer.sol\":2099:2106  buf.buf */\n      0x00\n      add\n      mload\n        /* \"@chainlink/contracts/src/v0.8/vendor/@ensdomains/buffer/v0.1.0/Buffer.sol\":2077:2106  bytes memory oldbuf = buf.buf */\n      swap1\n      pop\n        /* \"@chainlink/contracts/src/v0.8/vendor/@ensdomains/buffer/v0.1.0/Buffer.sol\":2116:2135  init(buf, capacity) */\n      tag_253\n        /* \"@chainlink/contracts/src/v0.8/vendor/@ensdomains/buffer/v0.1.0/Buffer.sol\":2121:2124  buf */\n      dup4\n        /* \"@chainlink/contracts/src/v0.8/vendor/@ensdomains/buffer/v0.1.0/Buffer.sol\":2126:2134  capacity */\n      dup4\n        /* \"@chainlink/contracts/src/v0.8/vendor/@ensdomains/buffer/v0.1.0/Buffer.sol\":2116:2120  init */\n      tag_160\n        /* \"@chainlink/contracts/src/v0.8/vendor/@ensdomains/buffer/v0.1.0/Buffer.sol\":2116:2135  init(buf, capacity) */\n      jump\t// in\n    tag_253:\n      pop\n        /* \"@chainlink/contracts/src/v0.8/vendor/@ensdomains/buffer/v0.1.0/Buffer.sol\":2145:2164  append(buf, oldbuf) */\n      tag_254\n        /* \"@chainlink/contracts/src/v0.8/vendor/@ensdomains/buffer/v0.1.0/Buffer.sol\":2152:2155  buf */\n      dup4\n        /* \"@chainlink/contracts/src/v0.8/vendor/@ensdomains/buffer/v0.1.0/Buffer.sol\":2157:2163  oldbuf */\n      dup3\n        /* \"@chainlink/contracts/src/v0.8/vendor/@ensdomains/buffer/v0.1.0/Buffer.sol\":2145:2151  append */\n      tag_165\n        /* \"@chainlink/contracts/src/v0.8/vendor/@ensdomains/buffer/v0.1.0/Buffer.sol\":2145:2164  append(buf, oldbuf) */\n      jump\t// in\n    tag_254:\n      pop\n        /* \"@chainlink/contracts/src/v0.8/vendor/@ensdomains/buffer/v0.1.0/Buffer.sol\":2067:2171  {... */\n      pop\n        /* \"@chainlink/contracts/src/v0.8/vendor/@ensdomains/buffer/v0.1.0/Buffer.sol\":2004:2171  function resize(buffer memory buf, uint capacity) private pure {... */\n      pop\n      pop\n      jump\t// out\n    tag_65:\n      mload(0x40)\n      dup1\n      0xe0\n      add\n      0x40\n      mstore\n      dup1\n      0x00\n      0x02\n      dup2\n      gt\n      iszero\n      tag_255\n      jumpi\n      tag_256\n      tag_95\n      jump\t// in\n    tag_256:\n    tag_255:\n      dup2\n      mstore\n      0x20\n      add\n      0x00\n      0x02\n      dup2\n      gt\n      iszero\n      tag_257\n      jumpi\n      tag_258\n      tag_95\n      jump\t// in\n    tag_258:\n    tag_257:\n      dup2\n      mstore\n      0x20\n      add\n      0x00\n      0x00\n      dup2\n      gt\n      iszero\n      tag_259\n      jumpi\n      tag_260\n      tag_95\n      jump\t// in\n    tag_260:\n    tag_259:\n      dup2\n      mstore\n      0x20\n      add\n      0x60\n      dup2\n      mstore\n      0x20\n      add\n      0x60\n      dup2\n      mstore\n      0x20\n      add\n      0x60\n      dup2\n      mstore\n      0x20\n      add\n      0x60\n      dup2\n      mstore\n      pop\n      swap1\n      jump\t// out\n    tag_157:\n      mload(0x40)\n      dup1\n      0x40\n      add\n      0x40\n      mstore\n      dup1\n      tag_261\n      tag_185\n      jump\t// in\n    tag_261:\n      dup2\n      mstore\n      0x20\n      add\n      0x00\n      dup2\n      mstore\n      pop\n      swap1\n      jump\t// out\n    tag_185:\n      mload(0x40)\n      dup1\n      0x40\n      add\n      0x40\n      mstore\n      dup1\n      0x60\n      dup2\n      mstore\n      0x20\n      add\n      0x00\n      dup2\n      mstore\n      pop\n      swap1\n      jump\t// out\n        /* \"#utility.yul\":7:82   */\n    tag_262:\n        /* \"#utility.yul\":40:46   */\n      0x00\n        /* \"#utility.yul\":73:75   */\n      0x40\n        /* \"#utility.yul\":67:76   */\n      mload\n        /* \"#utility.yul\":57:76   */\n      swap1\n      pop\n        /* \"#utility.yul\":7:82   */\n      swap1\n      jump\t// out\n        /* \"#utility.yul\":88:205   */\n    tag_263:\n        /* \"#utility.yul\":197:198   */\n      0x00\n        /* \"#utility.yul\":194:195   */\n      0x00\n        /* \"#utility.yul\":187:199   */\n      revert\n        /* \"#utility.yul\":211:328   */\n    tag_264:\n        /* \"#utility.yul\":320:321   */\n      0x00\n        /* \"#utility.yul\":317:318   */\n      0x00\n        /* \"#utility.yul\":310:322   */\n      revert\n        /* \"#utility.yul\":334:411   */\n    tag_265:\n        /* \"#utility.yul\":371:378   */\n      0x00\n        /* \"#utility.yul\":400:405   */\n      dup2\n        /* \"#utility.yul\":389:405   */\n      swap1\n      pop\n        /* \"#utility.yul\":334:411   */\n      swap2\n      swap1\n      pop\n      jump\t// out\n        /* \"#utility.yul\":417:539   */\n    tag_266:\n        /* \"#utility.yul\":490:514   */\n      tag_326\n        /* \"#utility.yul\":508:513   */\n      dup2\n        /* \"#utility.yul\":490:514   */\n      tag_265\n      jump\t// in\n    tag_326:\n        /* \"#utility.yul\":483:488   */\n      dup2\n        /* \"#utility.yul\":480:515   */\n      eq\n        /* \"#utility.yul\":470:533   */\n      tag_327\n      jumpi\n        /* \"#utility.yul\":529:530   */\n      0x00\n        /* \"#utility.yul\":526:527   */\n      0x00\n        /* \"#utility.yul\":519:531   */\n      revert\n        /* \"#utility.yul\":470:533   */\n    tag_327:\n        /* \"#utility.yul\":417:539   */\n      pop\n      jump\t// out\n        /* \"#utility.yul\":545:684   */\n    tag_267:\n        /* \"#utility.yul\":591:596   */\n      0x00\n        /* \"#utility.yul\":629:635   */\n      dup2\n        /* \"#utility.yul\":616:636   */\n      calldataload\n        /* \"#utility.yul\":607:636   */\n      swap1\n      pop\n        /* \"#utility.yul\":645:678   */\n      tag_329\n        /* \"#utility.yul\":672:677   */\n      dup2\n        /* \"#utility.yul\":645:678   */\n      tag_266\n      jump\t// in\n    tag_329:\n        /* \"#utility.yul\":545:684   */\n      swap3\n      swap2\n      pop\n      pop\n      jump\t// out\n        /* \"#utility.yul\":690:807   */\n    tag_268:\n        /* \"#utility.yul\":799:800   */\n      0x00\n        /* \"#utility.yul\":796:797   */\n      0x00\n        /* \"#utility.yul\":789:801   */\n      revert\n        /* \"#utility.yul\":813:930   */\n    tag_269:\n        /* \"#utility.yul\":922:923   */\n      0x00\n        /* \"#utility.yul\":919:920   */\n      0x00\n        /* \"#utility.yul\":912:924   */\n      revert\n        /* \"#utility.yul\":936:1038   */\n    tag_270:\n        /* \"#utility.yul\":977:983   */\n      0x00\n        /* \"#utility.yul\":1028:1030   */\n      0x1f\n        /* \"#utility.yul\":1024:1031   */\n      not\n        /* \"#utility.yul\":1019:1021   */\n      0x1f\n        /* \"#utility.yul\":1012:1017   */\n      dup4\n        /* \"#utility.yul\":1008:1022   */\n      add\n        /* \"#utility.yul\":1004:1032   */\n      and\n        /* \"#utility.yul\":994:1032   */\n      swap1\n      pop\n        /* \"#utility.yul\":936:1038   */\n      swap2\n      swap1\n      pop\n      jump\t// out\n        /* \"#utility.yul\":1044:1224   */\n    tag_271:\n        /* \"#utility.yul\":1092:1169   */\n      0x4e487b7100000000000000000000000000000000000000000000000000000000\n        /* \"#utility.yul\":1089:1090   */\n      0x00\n        /* \"#utility.yul\":1082:1170   */\n      mstore\n        /* \"#utility.yul\":1189:1193   */\n      0x41\n        /* \"#utility.yul\":1186:1187   */\n      0x04\n        /* \"#utility.yul\":1179:1194   */\n      mstore\n        /* \"#utility.yul\":1213:1217   */\n      0x24\n        /* \"#utility.yul\":1210:1211   */\n      0x00\n        /* \"#utility.yul\":1203:1218   */\n      revert\n        /* \"#utility.yul\":1230:1511   */\n    tag_272:\n        /* \"#utility.yul\":1313:1340   */\n      tag_335\n        /* \"#utility.yul\":1335:1339   */\n      dup3\n        /* \"#utility.yul\":1313:1340   */\n      tag_270\n      jump\t// in\n    tag_335:\n        /* \"#utility.yul\":1305:1311   */\n      dup2\n        /* \"#utility.yul\":1301:1341   */\n      add\n        /* \"#utility.yul\":1443:1449   */\n      dup2\n        /* \"#utility.yul\":1431:1441   */\n      dup2\n        /* \"#utility.yul\":1428:1450   */\n      lt\n        /* \"#utility.yul\":1407:1425   */\n      0xffffffffffffffff\n        /* \"#utility.yul\":1395:1405   */\n      dup3\n        /* \"#utility.yul\":1392:1426   */\n      gt\n        /* \"#utility.yul\":1389:1451   */\n      or\n        /* \"#utility.yul\":1386:1474   */\n      iszero\n      tag_336\n      jumpi\n        /* \"#utility.yul\":1454:1472   */\n      tag_337\n      tag_271\n      jump\t// in\n    tag_337:\n        /* \"#utility.yul\":1386:1474   */\n    tag_336:\n        /* \"#utility.yul\":1494:1504   */\n      dup1\n        /* \"#utility.yul\":1490:1492   */\n      0x40\n        /* \"#utility.yul\":1483:1505   */\n      mstore\n        /* \"#utility.yul\":1273:1511   */\n      pop\n        /* \"#utility.yul\":1230:1511   */\n      pop\n      pop\n      jump\t// out\n        /* \"#utility.yul\":1517:1646   */\n    tag_273:\n        /* \"#utility.yul\":1551:1557   */\n      0x00\n        /* \"#utility.yul\":1578:1598   */\n      tag_339\n      tag_262\n      jump\t// in\n    tag_339:\n        /* \"#utility.yul\":1568:1598   */\n      swap1\n      pop\n        /* \"#utility.yul\":1607:1640   */\n      tag_340\n        /* \"#utility.yul\":1635:1639   */\n      dup3\n        /* \"#utility.yul\":1627:1633   */\n      dup3\n        /* \"#utility.yul\":1607:1640   */\n      tag_272\n      jump\t// in\n    tag_340:\n        /* \"#utility.yul\":1517:1646   */\n      swap2\n      swap1\n      pop\n      jump\t// out\n        /* \"#utility.yul\":1652:1959   */\n    tag_274:\n        /* \"#utility.yul\":1713:1717   */\n      0x00\n        /* \"#utility.yul\":1803:1821   */\n      0xffffffffffffffff\n        /* \"#utility.yul\":1795:1801   */\n      dup3\n        /* \"#utility.yul\":1792:1822   */\n      gt\n        /* \"#utility.yul\":1789:1845   */\n      iszero\n      tag_342\n      jumpi\n        /* \"#utility.yul\":1825:1843   */\n      tag_343\n      tag_271\n      jump\t// in\n    tag_343:\n        /* \"#utility.yul\":1789:1845   */\n    tag_342:\n        /* \"#utility.yul\":1863:1892   */\n      tag_344\n        /* \"#utility.yul\":1885:1891   */\n      dup3\n        /* \"#utility.yul\":1863:1892   */\n      tag_270\n      jump\t// in\n    tag_344:\n        /* \"#utility.yul\":1855:1892   */\n      swap1\n      pop\n        /* \"#utility.yul\":1947:1951   */\n      0x20\n        /* \"#utility.yul\":1941:1945   */\n      dup2\n        /* \"#utility.yul\":1937:1952   */\n      add\n        /* \"#utility.yul\":1929:1952   */\n      swap1\n      pop\n        /* \"#utility.yul\":1652:1959   */\n      swap2\n      swap1\n      pop\n      jump\t// out\n        /* \"#utility.yul\":1965:2113   */\n    tag_275:\n        /* \"#utility.yul\":2063:2069   */\n      dup3\n        /* \"#utility.yul\":2058:2061   */\n      dup2\n        /* \"#utility.yul\":2053:2056   */\n      dup4\n        /* \"#utility.yul\":2040:2070   */\n      calldatacopy\n        /* \"#utility.yul\":2104:2105   */\n      0x00\n        /* \"#utility.yul\":2095:2101   */\n      dup4\n        /* \"#utility.yul\":2090:2093   */\n      dup4\n        /* \"#utility.yul\":2086:2102   */\n      add\n        /* \"#utility.yul\":2079:2106   */\n      mstore\n        /* \"#utility.yul\":1965:2113   */\n      pop\n      pop\n      pop\n      jump\t// out\n        /* \"#utility.yul\":2119:2542   */\n    tag_276:\n        /* \"#utility.yul\":2196:2201   */\n      0x00\n        /* \"#utility.yul\":2221:2286   */\n      tag_347\n        /* \"#utility.yul\":2237:2285   */\n      tag_348\n        /* \"#utility.yul\":2278:2284   */\n      dup5\n        /* \"#utility.yul\":2237:2285   */\n      tag_274\n      jump\t// in\n    tag_348:\n        /* \"#utility.yul\":2221:2286   */\n      tag_273\n      jump\t// in\n    tag_347:\n        /* \"#utility.yul\":2212:2286   */\n      swap1\n      pop\n        /* \"#utility.yul\":2309:2315   */\n      dup3\n        /* \"#utility.yul\":2302:2307   */\n      dup2\n        /* \"#utility.yul\":2295:2316   */\n      mstore\n        /* \"#utility.yul\":2347:2351   */\n      0x20\n        /* \"#utility.yul\":2340:2345   */\n      dup2\n        /* \"#utility.yul\":2336:2352   */\n      add\n        /* \"#utility.yul\":2385:2388   */\n      dup5\n        /* \"#utility.yul\":2376:2382   */\n      dup5\n        /* \"#utility.yul\":2371:2374   */\n      dup5\n        /* \"#utility.yul\":2367:2383   */\n      add\n        /* \"#utility.yul\":2364:2389   */\n      gt\n        /* \"#utility.yul\":2361:2473   */\n      iszero\n      tag_349\n      jumpi\n        /* \"#utility.yul\":2392:2471   */\n      tag_350\n      tag_269\n      jump\t// in\n    tag_350:\n        /* \"#utility.yul\":2361:2473   */\n    tag_349:\n        /* \"#utility.yul\":2482:2536   */\n      tag_351\n        /* \"#utility.yul\":2529:2535   */\n      dup5\n        /* \"#utility.yul\":2524:2527   */\n      dup3\n        /* \"#utility.yul\":2519:2522   */\n      dup6\n        /* \"#utility.yul\":2482:2536   */\n      tag_275\n      jump\t// in\n    tag_351:\n        /* \"#utility.yul\":2202:2542   */\n      pop\n        /* \"#utility.yul\":2119:2542   */\n      swap4\n      swap3\n      pop\n      pop\n      pop\n      jump\t// out\n        /* \"#utility.yul\":2561:2899   */\n    tag_277:\n        /* \"#utility.yul\":2616:2621   */\n      0x00\n        /* \"#utility.yul\":2665:2668   */\n      dup3\n        /* \"#utility.yul\":2658:2662   */\n      0x1f\n        /* \"#utility.yul\":2650:2656   */\n      dup4\n        /* \"#utility.yul\":2646:2663   */\n      add\n        /* \"#utility.yul\":2642:2669   */\n      slt\n        /* \"#utility.yul\":2632:2754   */\n      tag_353\n      jumpi\n        /* \"#utility.yul\":2673:2752   */\n      tag_354\n      tag_268\n      jump\t// in\n    tag_354:\n        /* \"#utility.yul\":2632:2754   */\n    tag_353:\n        /* \"#utility.yul\":2790:2796   */\n      dup2\n        /* \"#utility.yul\":2777:2797   */\n      calldataload\n        /* \"#utility.yul\":2815:2893   */\n      tag_355\n        /* \"#utility.yul\":2889:2892   */\n      dup5\n        /* \"#utility.yul\":2881:2887   */\n      dup3\n        /* \"#utility.yul\":2874:2878   */\n      0x20\n        /* \"#utility.yul\":2866:2872   */\n      dup7\n        /* \"#utility.yul\":2862:2879   */\n      add\n        /* \"#utility.yul\":2815:2893   */\n      tag_276\n      jump\t// in\n    tag_355:\n        /* \"#utility.yul\":2806:2893   */\n      swap2\n      pop\n        /* \"#utility.yul\":2622:2899   */\n      pop\n        /* \"#utility.yul\":2561:2899   */\n      swap3\n      swap2\n      pop\n      pop\n      jump\t// out\n        /* \"#utility.yul\":2905:3880   */\n    tag_13:\n        /* \"#utility.yul\":3000:3006   */\n      0x00\n        /* \"#utility.yul\":3008:3014   */\n      0x00\n        /* \"#utility.yul\":3016:3022   */\n      0x00\n        /* \"#utility.yul\":3065:3067   */\n      0x60\n        /* \"#utility.yul\":3053:3062   */\n      dup5\n        /* \"#utility.yul\":3044:3051   */\n      dup7\n        /* \"#utility.yul\":3040:3063   */\n      sub\n        /* \"#utility.yul\":3036:3068   */\n      slt\n        /* \"#utility.yul\":3033:3152   */\n      iszero\n      tag_357\n      jumpi\n        /* \"#utility.yul\":3071:3150   */\n      tag_358\n      tag_263\n      jump\t// in\n    tag_358:\n        /* \"#utility.yul\":3033:3152   */\n    tag_357:\n        /* \"#utility.yul\":3191:3192   */\n      0x00\n        /* \"#utility.yul\":3216:3269   */\n      tag_359\n        /* \"#utility.yul\":3261:3268   */\n      dup7\n        /* \"#utility.yul\":3252:3258   */\n      dup3\n        /* \"#utility.yul\":3241:3250   */\n      dup8\n        /* \"#utility.yul\":3237:3259   */\n      add\n        /* \"#utility.yul\":3216:3269   */\n      tag_267\n      jump\t// in\n    tag_359:\n        /* \"#utility.yul\":3206:3269   */\n      swap4\n      pop\n        /* \"#utility.yul\":3162:3279   */\n      pop\n        /* \"#utility.yul\":3346:3348   */\n      0x20\n        /* \"#utility.yul\":3335:3344   */\n      dup5\n        /* \"#utility.yul\":3331:3349   */\n      add\n        /* \"#utility.yul\":3318:3350   */\n      calldataload\n        /* \"#utility.yul\":3377:3395   */\n      0xffffffffffffffff\n        /* \"#utility.yul\":3369:3375   */\n      dup2\n        /* \"#utility.yul\":3366:3396   */\n      gt\n        /* \"#utility.yul\":3363:3480   */\n      iszero\n      tag_360\n      jumpi\n        /* \"#utility.yul\":3399:3478   */\n      tag_361\n      tag_264\n      jump\t// in\n    tag_361:\n        /* \"#utility.yul\":3363:3480   */\n    tag_360:\n        /* \"#utility.yul\":3504:3566   */\n      tag_362\n        /* \"#utility.yul\":3558:3565   */\n      dup7\n        /* \"#utility.yul\":3549:3555   */\n      dup3\n        /* \"#utility.yul\":3538:3547   */\n      dup8\n        /* \"#utility.yul\":3534:3556   */\n      add\n        /* \"#utility.yul\":3504:3566   */\n      tag_277\n      jump\t// in\n    tag_362:\n        /* \"#utility.yul\":3494:3566   */\n      swap3\n      pop\n        /* \"#utility.yul\":3289:3576   */\n      pop\n        /* \"#utility.yul\":3643:3645   */\n      0x40\n        /* \"#utility.yul\":3632:3641   */\n      dup5\n        /* \"#utility.yul\":3628:3646   */\n      add\n        /* \"#utility.yul\":3615:3647   */\n      calldataload\n        /* \"#utility.yul\":3674:3692   */\n      0xffffffffffffffff\n        /* \"#utility.yul\":3666:3672   */\n      dup2\n        /* \"#utility.yul\":3663:3693   */\n      gt\n        /* \"#utility.yul\":3660:3777   */\n      iszero\n      tag_363\n      jumpi\n        /* \"#utility.yul\":3696:3775   */\n      tag_364\n      tag_264\n      jump\t// in\n    tag_364:\n        /* \"#utility.yul\":3660:3777   */\n    tag_363:\n        /* \"#utility.yul\":3801:3863   */\n      tag_365\n        /* \"#utility.yul\":3855:3862   */\n      dup7\n        /* \"#utility.yul\":3846:3852   */\n      dup3\n        /* \"#utility.yul\":3835:3844   */\n      dup8\n        /* \"#utility.yul\":3831:3853   */\n      add\n        /* \"#utility.yul\":3801:3863   */\n      tag_277\n      jump\t// in\n    tag_365:\n        /* \"#utility.yul\":3791:3863   */\n      swap2\n      pop\n        /* \"#utility.yul\":3586:3873   */\n      pop\n        /* \"#utility.yul\":2905:3880   */\n      swap3\n      pop\n      swap3\n      pop\n      swap3\n      jump\t// out\n        /* \"#utility.yul\":3886:3984   */\n    tag_278:\n        /* \"#utility.yul\":3937:3943   */\n      0x00\n        /* \"#utility.yul\":3971:3976   */\n      dup2\n        /* \"#utility.yul\":3965:3977   */\n      mload\n        /* \"#utility.yul\":3955:3977   */\n      swap1\n      pop\n        /* \"#utility.yul\":3886:3984   */\n      swap2\n      swap1\n      pop\n      jump\t// out\n        /* \"#utility.yul\":3990:4158   */\n    tag_279:\n        /* \"#utility.yul\":4073:4084   */\n      0x00\n        /* \"#utility.yul\":4107:4113   */\n      dup3\n        /* \"#utility.yul\":4102:4105   */\n      dup3\n        /* \"#utility.yul\":4095:4114   */\n      mstore\n        /* \"#utility.yul\":4147:4151   */\n      0x20\n        /* \"#utility.yul\":4142:4145   */\n      dup3\n        /* \"#utility.yul\":4138:4152   */\n      add\n        /* \"#utility.yul\":4123:4152   */\n      swap1\n      pop\n        /* \"#utility.yul\":3990:4158   */\n      swap3\n      swap2\n      pop\n      pop\n      jump\t// out\n        /* \"#utility.yul\":4164:4303   */\n    tag_280:\n        /* \"#utility.yul\":4253:4259   */\n      dup3\n        /* \"#utility.yul\":4248:4251   */\n      dup2\n        /* \"#utility.yul\":4243:4246   */\n      dup4\n        /* \"#utility.yul\":4237:4260   */\n      mcopy\n        /* \"#utility.yul\":4294:4295   */\n      0x00\n        /* \"#utility.yul\":4285:4291   */\n      dup4\n        /* \"#utility.yul\":4280:4283   */\n      dup4\n        /* \"#utility.yul\":4276:4292   */\n      add\n        /* \"#utility.yul\":4269:4296   */\n      mstore\n        /* \"#utility.yul\":4164:4303   */\n      pop\n      pop\n      pop\n      jump\t// out\n        /* \"#utility.yul\":4309:4682   */\n    tag_281:\n        /* \"#utility.yul\":4395:4398   */\n      0x00\n        /* \"#utility.yul\":4423:4461   */\n      tag_370\n        /* \"#utility.yul\":4455:4460   */\n      dup3\n        /* \"#utility.yul\":4423:4461   */\n      tag_278\n      jump\t// in\n    tag_370:\n        /* \"#utility.yul\":4477:4547   */\n      tag_371\n        /* \"#utility.yul\":4540:4546   */\n      dup2\n        /* \"#utility.yul\":4535:4538   */\n      dup6\n        /* \"#utility.yul\":4477:4547   */\n      tag_279\n      jump\t// in\n    tag_371:\n        /* \"#utility.yul\":4470:4547   */\n      swap4\n      pop\n        /* \"#utility.yul\":4556:4621   */\n      tag_372\n        /* \"#utility.yul\":4614:4620   */\n      dup2\n        /* \"#utility.yul\":4609:4612   */\n      dup6\n        /* \"#utility.yul\":4602:4606   */\n      0x20\n        /* \"#utility.yul\":4595:4600   */\n      dup7\n        /* \"#utility.yul\":4591:4607   */\n      add\n        /* \"#utility.yul\":4556:4621   */\n      tag_280\n      jump\t// in\n    tag_372:\n        /* \"#utility.yul\":4646:4675   */\n      tag_373\n        /* \"#utility.yul\":4668:4674   */\n      dup2\n        /* \"#utility.yul\":4646:4675   */\n      tag_270\n      jump\t// in\n    tag_373:\n        /* \"#utility.yul\":4641:4644   */\n      dup5\n        /* \"#utility.yul\":4637:4676   */\n      add\n        /* \"#utility.yul\":4630:4676   */\n      swap2\n      pop\n        /* \"#utility.yul\":4399:4682   */\n      pop\n        /* \"#utility.yul\":4309:4682   */\n      swap3\n      swap2\n      pop\n      pop\n      jump\t// out\n        /* \"#utility.yul\":4688:4997   */\n    tag_18:\n        /* \"#utility.yul\":4799:4803   */\n      0x00\n        /* \"#utility.yul\":4837:4839   */\n      0x20\n        /* \"#utility.yul\":4826:4835   */\n      dup3\n        /* \"#utility.yul\":4822:4840   */\n      add\n        /* \"#utility.yul\":4814:4840   */\n      swap1\n      pop\n        /* \"#utility.yul\":4886:4895   */\n      dup2\n        /* \"#utility.yul\":4880:4884   */\n      dup2\n        /* \"#utility.yul\":4876:4896   */\n      sub\n        /* \"#utility.yul\":4872:4873   */\n      0x00\n        /* \"#utility.yul\":4861:4870   */\n      dup4\n        /* \"#utility.yul\":4857:4874   */\n      add\n        /* \"#utility.yul\":4850:4897   */\n      mstore\n        /* \"#utility.yul\":4914:4990   */\n      tag_375\n        /* \"#utility.yul\":4985:4989   */\n      dup2\n        /* \"#utility.yul\":4976:4982   */\n      dup5\n        /* \"#utility.yul\":4914:4990   */\n      tag_281\n      jump\t// in\n    tag_375:\n        /* \"#utility.yul\":4906:4990   */\n      swap1\n      pop\n        /* \"#utility.yul\":4688:4997   */\n      swap3\n      swap2\n      pop\n      pop\n      jump\t// out\n        /* \"#utility.yul\":5003:5102   */\n    tag_282:\n        /* \"#utility.yul\":5055:5061   */\n      0x00\n        /* \"#utility.yul\":5089:5094   */\n      dup2\n        /* \"#utility.yul\":5083:5095   */\n      mload\n        /* \"#utility.yul\":5073:5095   */\n      swap1\n      pop\n        /* \"#utility.yul\":5003:5102   */\n      swap2\n      swap1\n      pop\n      jump\t// out\n        /* \"#utility.yul\":5108:5277   */\n    tag_283:\n        /* \"#utility.yul\":5192:5203   */\n      0x00\n        /* \"#utility.yul\":5226:5232   */\n      dup3\n        /* \"#utility.yul\":5221:5224   */\n      dup3\n        /* \"#utility.yul\":5214:5233   */\n      mstore\n        /* \"#utility.yul\":5266:5270   */\n      0x20\n        /* \"#utility.yul\":5261:5264   */\n      dup3\n        /* \"#utility.yul\":5257:5271   */\n      add\n        /* \"#utility.yul\":5242:5271   */\n      swap1\n      pop\n        /* \"#utility.yul\":5108:5277   */\n      swap3\n      swap2\n      pop\n      pop\n      jump\t// out\n        /* \"#utility.yul\":5283:5660   */\n    tag_284:\n        /* \"#utility.yul\":5371:5374   */\n      0x00\n        /* \"#utility.yul\":5399:5438   */\n      tag_379\n        /* \"#utility.yul\":5432:5437   */\n      dup3\n        /* \"#utility.yul\":5399:5438   */\n      tag_282\n      jump\t// in\n    tag_379:\n        /* \"#utility.yul\":5454:5525   */\n      tag_380\n        /* \"#utility.yul\":5518:5524   */\n      dup2\n        /* \"#utility.yul\":5513:5516   */\n      dup6\n        /* \"#utility.yul\":5454:5525   */\n      tag_283\n      jump\t// in\n    tag_380:\n        /* \"#utility.yul\":5447:5525   */\n      swap4\n      pop\n        /* \"#utility.yul\":5534:5599   */\n      tag_381\n        /* \"#utility.yul\":5592:5598   */\n      dup2\n        /* \"#utility.yul\":5587:5590   */\n      dup6\n        /* \"#utility.yul\":5580:5584   */\n      0x20\n        /* \"#utility.yul\":5573:5578   */\n      dup7\n        /* \"#utility.yul\":5569:5585   */\n      add\n        /* \"#utility.yul\":5534:5599   */\n      tag_280\n      jump\t// in\n    tag_381:\n        /* \"#utility.yul\":5624:5653   */\n      tag_382\n        /* \"#utility.yul\":5646:5652   */\n      dup2\n        /* \"#utility.yul\":5624:5653   */\n      tag_270\n      jump\t// in\n    tag_382:\n        /* \"#utility.yul\":5619:5622   */\n      dup5\n        /* \"#utility.yul\":5615:5654   */\n      add\n        /* \"#utility.yul\":5608:5654   */\n      swap2\n      pop\n        /* \"#utility.yul\":5375:5660   */\n      pop\n        /* \"#utility.yul\":5283:5660   */\n      swap3\n      swap2\n      pop\n      pop\n      jump\t// out\n        /* \"#utility.yul\":5666:5979   */\n    tag_22:\n        /* \"#utility.yul\":5779:5783   */\n      0x00\n        /* \"#utility.yul\":5817:5819   */\n      0x20\n        /* \"#utility.yul\":5806:5815   */\n      dup3\n        /* \"#utility.yul\":5802:5820   */\n      add\n        /* \"#utility.yul\":5794:5820   */\n      swap1\n      pop\n        /* \"#utility.yul\":5866:5875   */\n      dup2\n        /* \"#utility.yul\":5860:5864   */\n      dup2\n        /* \"#utility.yul\":5856:5876   */\n      sub\n        /* \"#utility.yul\":5852:5853   */\n      0x00\n        /* \"#utility.yul\":5841:5850   */\n      dup4\n        /* \"#utility.yul\":5837:5854   */\n      add\n        /* \"#utility.yul\":5830:5877   */\n      mstore\n        /* \"#utility.yul\":5894:5972   */\n      tag_384\n        /* \"#utility.yul\":5967:5971   */\n      dup2\n        /* \"#utility.yul\":5958:5964   */\n      dup5\n        /* \"#utility.yul\":5894:5972   */\n      tag_284\n      jump\t// in\n    tag_384:\n        /* \"#utility.yul\":5886:5972   */\n      swap1\n      pop\n        /* \"#utility.yul\":5666:5979   */\n      swap3\n      swap2\n      pop\n      pop\n      jump\t// out\n        /* \"#utility.yul\":5985:6086   */\n    tag_285:\n        /* \"#utility.yul\":6021:6028   */\n      0x00\n        /* \"#utility.yul\":6061:6079   */\n      0xffffffffffffffff\n        /* \"#utility.yul\":6054:6059   */\n      dup3\n        /* \"#utility.yul\":6050:6080   */\n      and\n        /* \"#utility.yul\":6039:6080   */\n      swap1\n      pop\n        /* \"#utility.yul\":5985:6086   */\n      swap2\n      swap1\n      pop\n      jump\t// out\n        /* \"#utility.yul\":6092:6212   */\n    tag_286:\n        /* \"#utility.yul\":6164:6187   */\n      tag_387\n        /* \"#utility.yul\":6181:6186   */\n      dup2\n        /* \"#utility.yul\":6164:6187   */\n      tag_285\n      jump\t// in\n    tag_387:\n        /* \"#utility.yul\":6157:6162   */\n      dup2\n        /* \"#utility.yul\":6154:6188   */\n      eq\n        /* \"#utility.yul\":6144:6206   */\n      tag_388\n      jumpi\n        /* \"#utility.yul\":6202:6203   */\n      0x00\n        /* \"#utility.yul\":6199:6200   */\n      0x00\n        /* \"#utility.yul\":6192:6204   */\n      revert\n        /* \"#utility.yul\":6144:6206   */\n    tag_388:\n        /* \"#utility.yul\":6092:6212   */\n      pop\n      jump\t// out\n        /* \"#utility.yul\":6218:6355   */\n    tag_287:\n        /* \"#utility.yul\":6263:6268   */\n      0x00\n        /* \"#utility.yul\":6301:6307   */\n      dup2\n        /* \"#utility.yul\":6288:6308   */\n      calldataload\n        /* \"#utility.yul\":6279:6308   */\n      swap1\n      pop\n        /* \"#utility.yul\":6317:6349   */\n      tag_390\n        /* \"#utility.yul\":6343:6348   */\n      dup2\n        /* \"#utility.yul\":6317:6349   */\n      tag_286\n      jump\t// in\n    tag_390:\n        /* \"#utility.yul\":6218:6355   */\n      swap3\n      swap2\n      pop\n      pop\n      jump\t// out\n        /* \"#utility.yul\":6361:6688   */\n    tag_31:\n        /* \"#utility.yul\":6419:6425   */\n      0x00\n        /* \"#utility.yul\":6468:6470   */\n      0x20\n        /* \"#utility.yul\":6456:6465   */\n      dup3\n        /* \"#utility.yul\":6447:6454   */\n      dup5\n        /* \"#utility.yul\":6443:6466   */\n      sub\n        /* \"#utility.yul\":6439:6471   */\n      slt\n        /* \"#utility.yul\":6436:6555   */\n      iszero\n      tag_392\n      jumpi\n        /* \"#utility.yul\":6474:6553   */\n      tag_393\n      tag_263\n      jump\t// in\n    tag_393:\n        /* \"#utility.yul\":6436:6555   */\n    tag_392:\n        /* \"#utility.yul\":6594:6595   */\n      0x00\n        /* \"#utility.yul\":6619:6671   */\n      tag_394\n        /* \"#utility.yul\":6663:6670   */\n      dup5\n        /* \"#utility.yul\":6654:6660   */\n      dup3\n        /* \"#utility.yul\":6643:6652   */\n      dup6\n        /* \"#utility.yul\":6639:6661   */\n      add\n        /* \"#utility.yul\":6619:6671   */\n      tag_287\n      jump\t// in\n    tag_394:\n        /* \"#utility.yul\":6609:6671   */\n      swap2\n      pop\n        /* \"#utility.yul\":6565:6681   */\n      pop\n        /* \"#utility.yul\":6361:6688   */\n      swap3\n      swap2\n      pop\n      pop\n      jump\t// out\n        /* \"#utility.yul\":6694:6812   */\n    tag_288:\n        /* \"#utility.yul\":6781:6805   */\n      tag_396\n        /* \"#utility.yul\":6799:6804   */\n      dup2\n        /* \"#utility.yul\":6781:6805   */\n      tag_265\n      jump\t// in\n    tag_396:\n        /* \"#utility.yul\":6776:6779   */\n      dup3\n        /* \"#utility.yul\":6769:6806   */\n      mstore\n        /* \"#utility.yul\":6694:6812   */\n      pop\n      pop\n      jump\t// out\n        /* \"#utility.yul\":6818:7040   */\n    tag_34:\n        /* \"#utility.yul\":6911:6915   */\n      0x00\n        /* \"#utility.yul\":6949:6951   */\n      0x20\n        /* \"#utility.yul\":6938:6947   */\n      dup3\n        /* \"#utility.yul\":6934:6952   */\n      add\n        /* \"#utility.yul\":6926:6952   */\n      swap1\n      pop\n        /* \"#utility.yul\":6962:7033   */\n      tag_398\n        /* \"#utility.yul\":7030:7031   */\n      0x00\n        /* \"#utility.yul\":7019:7028   */\n      dup4\n        /* \"#utility.yul\":7015:7032   */\n      add\n        /* \"#utility.yul\":7006:7012   */\n      dup5\n        /* \"#utility.yul\":6962:7033   */\n      tag_288\n      jump\t// in\n    tag_398:\n        /* \"#utility.yul\":6818:7040   */\n      swap3\n      swap2\n      pop\n      pop\n      jump\t// out\n        /* \"#utility.yul\":7046:7226   */\n    tag_289:\n        /* \"#utility.yul\":7094:7171   */\n      0x4e487b7100000000000000000000000000000000000000000000000000000000\n        /* \"#utility.yul\":7091:7092   */\n      0x00\n        /* \"#utility.yul\":7084:7172   */\n      mstore\n        /* \"#utility.yul\":7191:7195   */\n      0x22\n        /* \"#utility.yul\":7188:7189   */\n      0x04\n        /* \"#utility.yul\":7181:7196   */\n      mstore\n        /* \"#utility.yul\":7215:7219   */\n      0x24\n        /* \"#utility.yul\":7212:7213   */\n      0x00\n        /* \"#utility.yul\":7205:7220   */\n      revert\n        /* \"#utility.yul\":7232:7552   */\n    tag_43:\n        /* \"#utility.yul\":7276:7282   */\n      0x00\n        /* \"#utility.yul\":7313:7314   */\n      0x02\n        /* \"#utility.yul\":7307:7311   */\n      dup3\n        /* \"#utility.yul\":7303:7315   */\n      div\n        /* \"#utility.yul\":7293:7315   */\n      swap1\n      pop\n        /* \"#utility.yul\":7360:7361   */\n      0x01\n        /* \"#utility.yul\":7354:7358   */\n      dup3\n        /* \"#utility.yul\":7350:7362   */\n      and\n        /* \"#utility.yul\":7381:7399   */\n      dup1\n        /* \"#utility.yul\":7371:7452   */\n      tag_401\n      jumpi\n        /* \"#utility.yul\":7437:7441   */\n      0x7f\n        /* \"#utility.yul\":7429:7435   */\n      dup3\n        /* \"#utility.yul\":7425:7442   */\n      and\n        /* \"#utility.yul\":7415:7442   */\n      swap2\n      pop\n        /* \"#utility.yul\":7371:7452   */\n    tag_401:\n        /* \"#utility.yul\":7499:7501   */\n      0x20\n        /* \"#utility.yul\":7491:7497   */\n      dup3\n        /* \"#utility.yul\":7488:7502   */\n      lt\n        /* \"#utility.yul\":7468:7486   */\n      dup2\n        /* \"#utility.yul\":7465:7503   */\n      sub\n        /* \"#utility.yul\":7462:7546   */\n      tag_402\n      jumpi\n        /* \"#utility.yul\":7518:7536   */\n      tag_403\n      tag_289\n      jump\t// in\n    tag_403:\n        /* \"#utility.yul\":7462:7546   */\n    tag_402:\n        /* \"#utility.yul\":7283:7552   */\n      pop\n        /* \"#utility.yul\":7232:7552   */\n      swap2\n      swap1\n      pop\n      jump\t// out\n        /* \"#utility.yul\":7558:7698   */\n    tag_290:\n        /* \"#utility.yul\":7606:7610   */\n      0x00\n        /* \"#utility.yul\":7629:7632   */\n      dup2\n        /* \"#utility.yul\":7621:7632   */\n      swap1\n      pop\n        /* \"#utility.yul\":7652:7655   */\n      dup2\n        /* \"#utility.yul\":7649:7650   */\n      0x00\n        /* \"#utility.yul\":7642:7656   */\n      mstore\n        /* \"#utility.yul\":7686:7690   */\n      0x20\n        /* \"#utility.yul\":7683:7684   */\n      0x00\n        /* \"#utility.yul\":7673:7691   */\n      keccak256\n        /* \"#utility.yul\":7665:7691   */\n      swap1\n      pop\n        /* \"#utility.yul\":7558:7698   */\n      swap2\n      swap1\n      pop\n      jump\t// out\n        /* \"#utility.yul\":7704:7797   */\n    tag_291:\n        /* \"#utility.yul\":7741:7747   */\n      0x00\n        /* \"#utility.yul\":7788:7790   */\n      0x20\n        /* \"#utility.yul\":7783:7785   */\n      0x1f\n        /* \"#utility.yul\":7776:7781   */\n      dup4\n        /* \"#utility.yul\":7772:7786   */\n      add\n        /* \"#utility.yul\":7768:7791   */\n      div\n        /* \"#utility.yul\":7758:7791   */\n      swap1\n      pop\n        /* \"#utility.yul\":7704:7797   */\n      swap2\n      swap1\n      pop\n      jump\t// out\n        /* \"#utility.yul\":7803:7910   */\n    tag_292:\n        /* \"#utility.yul\":7847:7855   */\n      0x00\n        /* \"#utility.yul\":7897:7902   */\n      dup3\n        /* \"#utility.yul\":7891:7895   */\n      dup3\n        /* \"#utility.yul\":7887:7903   */\n      shl\n        /* \"#utility.yul\":7866:7903   */\n      swap1\n      pop\n        /* \"#utility.yul\":7803:7910   */\n      swap3\n      swap2\n      pop\n      pop\n      jump\t// out\n        /* \"#utility.yul\":7916:8309   */\n    tag_293:\n        /* \"#utility.yul\":7985:7991   */\n      0x00\n        /* \"#utility.yul\":8035:8036   */\n      0x08\n        /* \"#utility.yul\":8023:8033   */\n      dup4\n        /* \"#utility.yul\":8019:8037   */\n      mul\n        /* \"#utility.yul\":8058:8155   */\n      tag_408\n        /* \"#utility.yul\":8088:8154   */\n      0xffffffffffffffffffffffffffffffffffffffffffffffffffffffffffffffff\n        /* \"#utility.yul\":8077:8086   */\n      dup3\n        /* \"#utility.yul\":8058:8155   */\n      tag_292\n      jump\t// in\n    tag_408:\n        /* \"#utility.yul\":8176:8215   */\n      tag_409\n        /* \"#utility.yul\":8206:8214   */\n      dup7\n        /* \"#utility.yul\":8195:8204   */\n      dup4\n        /* \"#utility.yul\":8176:8215   */\n      tag_292\n      jump\t// in\n    tag_409:\n        /* \"#utility.yul\":8164:8215   */\n      swap6\n      pop\n        /* \"#utility.yul\":8248:8252   */\n      dup1\n        /* \"#utility.yul\":8244:8253   */\n      not\n        /* \"#utility.yul\":8237:8242   */\n      dup5\n        /* \"#utility.yul\":8233:8254   */\n      and\n        /* \"#utility.yul\":8224:8254   */\n      swap4\n      pop\n        /* \"#utility.yul\":8297:8301   */\n      dup1\n        /* \"#utility.yul\":8287:8295   */\n      dup7\n        /* \"#utility.yul\":8283:8302   */\n      and\n        /* \"#utility.yul\":8276:8281   */\n      dup5\n        /* \"#utility.yul\":8273:8303   */\n      or\n        /* \"#utility.yul\":8263:8303   */\n      swap3\n      pop\n        /* \"#utility.yul\":7992:8309   */\n      pop\n      pop\n        /* \"#utility.yul\":7916:8309   */\n      swap4\n      swap3\n      pop\n      pop\n      pop\n      jump\t// out\n        /* \"#utility.yul\":8315:8392   */\n    tag_294:\n        /* \"#utility.yul\":8352:8359   */\n      0x00\n        /* \"#utility.yul\":8381:8386   */\n      dup2\n        /* \"#utility.yul\":8370:8386   */\n      swap1\n      pop\n        /* \"#utility.yul\":8315:8392   */\n      swap2\n      swap1\n      pop\n      jump\t// out\n        /* \"#utility.yul\":8398:8458   */\n    tag_295:\n        /* \"#utility.yul\":8426:8429   */\n      0x00\n        /* \"#utility.yul\":8447:8452   */\n      dup2\n        /* \"#utility.yul\":8440:8452   */\n      swap1\n      pop\n        /* \"#utility.yul\":8398:8458   */\n      swap2\n      swap1\n      pop\n      jump\t// out\n        /* \"#utility.yul\":8464:8606   */\n    tag_296:\n        /* \"#utility.yul\":8514:8523   */\n      0x00\n        /* \"#utility.yul\":8547:8600   */\n      tag_413\n        /* \"#utility.yul\":8565:8599   */\n      tag_414\n        /* \"#utility.yul\":8574:8598   */\n      tag_415\n        /* \"#utility.yul\":8592:8597   */\n      dup5\n        /* \"#utility.yul\":8574:8598   */\n      tag_294\n      jump\t// in\n    tag_415:\n        /* \"#utility.yul\":8565:8599   */\n      tag_295\n      jump\t// in\n    tag_414:\n        /* \"#utility.yul\":8547:8600   */\n      tag_294\n      jump\t// in\n    tag_413:\n        /* \"#utility.yul\":8534:8600   */\n      swap1\n      pop\n        /* \"#utility.yul\":8464:8606   */\n      swap2\n      swap1\n      pop\n      jump\t// out\n        /* \"#utility.yul\":8612:8687   */\n    tag_297:\n        /* \"#utility.yul\":8655:8658   */\n      0x00\n        /* \"#utility.yul\":8676:8681   */\n      dup2\n        /* \"#utility.yul\":8669:8681   */\n      swap1\n      pop\n        /* \"#utility.yul\":8612:8687   */\n      swap2\n      swap1\n      pop\n      jump\t// out\n        /* \"#utility.yul\":8693:8962   */\n    tag_298:\n        /* \"#utility.yul\":8803:8842   */\n      tag_418\n        /* \"#utility.yul\":8834:8841   */\n      dup4\n        /* \"#utility.yul\":8803:8842   */\n      tag_296\n      jump\t// in\n    tag_418:\n        /* \"#utility.yul\":8864:8955   */\n      tag_419\n        /* \"#utility.yul\":8913:8954   */\n      tag_420\n        /* \"#utility.yul\":8937:8953   */\n      dup3\n        /* \"#utility.yul\":8913:8954   */\n      tag_297\n      jump\t// in\n    tag_420:\n        /* \"#utility.yul\":8905:8911   */\n      dup5\n        /* \"#utility.yul\":8898:8902   */\n      dup5\n        /* \"#utility.yul\":8892:8903   */\n      sload\n        /* \"#utility.yul\":8864:8955   */\n      tag_293\n      jump\t// in\n    tag_419:\n        /* \"#utility.yul\":8858:8862   */\n      dup3\n        /* \"#utility.yul\":8851:8956   */\n      sstore\n        /* \"#utility.yul\":8769:8962   */\n      pop\n        /* \"#utility.yul\":8693:8962   */\n      pop\n      pop\n      pop\n      jump\t// out\n        /* \"#utility.yul\":8968:9041   */\n    tag_299:\n        /* \"#utility.yul\":9013:9016   */\n      0x00\n        /* \"#utility.yul\":9034:9035   */\n      0x00\n        /* \"#utility.yul\":9027:9035   */\n      swap1\n      pop\n        /* \"#utility.yul\":8968:9041   */\n      swap1\n      jump\t// out\n        /* \"#utility.yul\":9047:9236   */\n    tag_300:\n        /* \"#utility.yul\":9124:9156   */\n      tag_423\n      tag_299\n      jump\t// in\n    tag_423:\n        /* \"#utility.yul\":9165:9230   */\n      tag_424\n        /* \"#utility.yul\":9223:9229   */\n      dup2\n        /* \"#utility.yul\":9215:9221   */\n      dup5\n        /* \"#utility.yul\":9209:9213   */\n      dup5\n        /* \"#utility.yul\":9165:9230   */\n      tag_298\n      jump\t// in\n    tag_424:\n        /* \"#utility.yul\":9100:9236   */\n      pop\n        /* \"#utility.yul\":9047:9236   */\n      pop\n      pop\n      jump\t// out\n        /* \"#utility.yul\":9242:9428   */\n    tag_301:\n        /* \"#utility.yul\":9302:9422   */\n    tag_426:\n        /* \"#utility.yul\":9319:9322   */\n      dup2\n        /* \"#utility.yul\":9312:9317   */\n      dup2\n        /* \"#utility.yul\":9309:9323   */\n      lt\n        /* \"#utility.yul\":9302:9422   */\n      iszero\n      tag_428\n      jumpi\n        /* \"#utility.yul\":9373:9412   */\n      tag_429\n        /* \"#utility.yul\":9410:9411   */\n      0x00\n        /* \"#utility.yul\":9403:9408   */\n      dup3\n        /* \"#utility.yul\":9373:9412   */\n      tag_300\n      jump\t// in\n    tag_429:\n        /* \"#utility.yul\":9346:9347   */\n      0x01\n        /* \"#utility.yul\":9339:9344   */\n      dup2\n        /* \"#utility.yul\":9335:9348   */\n      add\n        /* \"#utility.yul\":9326:9348   */\n      swap1\n      pop\n        /* \"#utility.yul\":9302:9422   */\n      jump(tag_426)\n    tag_428:\n        /* \"#utility.yul\":9242:9428   */\n      pop\n      pop\n      jump\t// out\n        /* \"#utility.yul\":9434:9975   */\n    tag_302:\n        /* \"#utility.yul\":9534:9536   */\n      0x1f\n        /* \"#utility.yul\":9529:9532   */\n      dup3\n        /* \"#utility.yul\":9526:9537   */\n      gt\n        /* \"#utility.yul\":9523:9968   */\n      iszero\n      tag_431\n      jumpi\n        /* \"#utility.yul\":9568:9605   */\n      tag_432\n        /* \"#utility.yul\":9599:9604   */\n      dup2\n        /* \"#utility.yul\":9568:9605   */\n      tag_290\n      jump\t// in\n    tag_432:\n        /* \"#utility.yul\":9651:9680   */\n      tag_433\n        /* \"#utility.yul\":9669:9679   */\n      dup5\n        /* \"#utility.yul\":9651:9680   */\n      tag_291\n      jump\t// in\n    tag_433:\n        /* \"#utility.yul\":9641:9649   */\n      dup2\n        /* \"#utility.yul\":9637:9681   */\n      add\n        /* \"#utility.yul\":9834:9836   */\n      0x20\n        /* \"#utility.yul\":9822:9832   */\n      dup6\n        /* \"#utility.yul\":9819:9837   */\n      lt\n        /* \"#utility.yul\":9816:9865   */\n      iszero\n      tag_434\n      jumpi\n        /* \"#utility.yul\":9855:9863   */\n      dup2\n        /* \"#utility.yul\":9840:9863   */\n      swap1\n      pop\n        /* \"#utility.yul\":9816:9865   */\n    tag_434:\n        /* \"#utility.yul\":9878:9958   */\n      tag_435\n        /* \"#utility.yul\":9934:9956   */\n      tag_436\n        /* \"#utility.yul\":9952:9955   */\n      dup6\n        /* \"#utility.yul\":9934:9956   */\n      tag_291\n      jump\t// in\n    tag_436:\n        /* \"#utility.yul\":9924:9932   */\n      dup4\n        /* \"#utility.yul\":9920:9957   */\n      add\n        /* \"#utility.yul\":9907:9918   */\n      dup3\n        /* \"#utility.yul\":9878:9958   */\n      tag_301\n      jump\t// in\n    tag_435:\n        /* \"#utility.yul\":9538:9968   */\n      pop\n      pop\n        /* \"#utility.yul\":9523:9968   */\n    tag_431:\n        /* \"#utility.yul\":9434:9975   */\n      pop\n      pop\n      pop\n      jump\t// out\n        /* \"#utility.yul\":9981:10098   */\n    tag_303:\n        /* \"#utility.yul\":10035:10043   */\n      0x00\n        /* \"#utility.yul\":10085:10090   */\n      dup3\n        /* \"#utility.yul\":10079:10083   */\n      dup3\n        /* \"#utility.yul\":10075:10091   */\n      shr\n        /* \"#utility.yul\":10054:10091   */\n      swap1\n      pop\n        /* \"#utility.yul\":9981:10098   */\n      swap3\n      swap2\n      pop\n      pop\n      jump\t// out\n        /* \"#utility.yul\":10104:10273   */\n    tag_304:\n        /* \"#utility.yul\":10148:10154   */\n      0x00\n        /* \"#utility.yul\":10181:10232   */\n      tag_439\n        /* \"#utility.yul\":10229:10230   */\n      0x00\n        /* \"#utility.yul\":10225:10231   */\n      not\n        /* \"#utility.yul\":10217:10222   */\n      dup5\n        /* \"#utility.yul\":10214:10215   */\n      0x08\n        /* \"#utility.yul\":10210:10223   */\n      mul\n        /* \"#utility.yul\":10181:10232   */\n      tag_303\n      jump\t// in\n    tag_439:\n        /* \"#utility.yul\":10177:10233   */\n      not\n        /* \"#utility.yul\":10262:10266   */\n      dup1\n        /* \"#utility.yul\":10256:10260   */\n      dup4\n        /* \"#utility.yul\":10252:10267   */\n      and\n        /* \"#utility.yul\":10242:10267   */\n      swap2\n      pop\n        /* \"#utility.yul\":10155:10273   */\n      pop\n        /* \"#utility.yul\":10104:10273   */\n      swap3\n      swap2\n      pop\n      pop\n      jump\t// out\n        /* \"#utility.yul\":10278:10573   */\n    tag_305:\n        /* \"#utility.yul\":10354:10358   */\n      0x00\n        /* \"#utility.yul\":10500:10529   */\n      tag_441\n        /* \"#utility.yul\":10525:10528   */\n      dup4\n        /* \"#utility.yul\":10519:10523   */\n      dup4\n        /* \"#utility.yul\":10500:10529   */\n      tag_304\n      jump\t// in\n    tag_441:\n        /* \"#utility.yul\":10492:10529   */\n      swap2\n      pop\n        /* \"#utility.yul\":10562:10565   */\n      dup3\n        /* \"#utility.yul\":10559:10560   */\n      0x02\n        /* \"#utility.yul\":10555:10566   */\n      mul\n        /* \"#utility.yul\":10549:10553   */\n      dup3\n        /* \"#utility.yul\":10546:10567   */\n      or\n        /* \"#utility.yul\":10538:10567   */\n      swap1\n      pop\n        /* \"#utility.yul\":10278:10573   */\n      swap3\n      swap2\n      pop\n      pop\n      jump\t// out\n        /* \"#utility.yul\":10578:11968   */\n    tag_79:\n        /* \"#utility.yul\":10693:10729   */\n      tag_443\n        /* \"#utility.yul\":10725:10728   */\n      dup3\n        /* \"#utility.yul\":10693:10729   */\n      tag_278\n      jump\t// in\n    tag_443:\n        /* \"#utility.yul\":10794:10812   */\n      0xffffffffffffffff\n        /* \"#utility.yul\":10786:10792   */\n      dup2\n        /* \"#utility.yul\":10783:10813   */\n      gt\n        /* \"#utility.yul\":10780:10836   */\n      iszero\n      tag_444\n      jumpi\n        /* \"#utility.yul\":10816:10834   */\n      tag_445\n      tag_271\n      jump\t// in\n    tag_445:\n        /* \"#utility.yul\":10780:10836   */\n    tag_444:\n        /* \"#utility.yul\":10860:10898   */\n      tag_446\n        /* \"#utility.yul\":10892:10896   */\n      dup3\n        /* \"#utility.yul\":10886:10897   */\n      sload\n        /* \"#utility.yul\":10860:10898   */\n      tag_43\n      jump\t// in\n    tag_446:\n        /* \"#utility.yul\":10945:11011   */\n      tag_447\n        /* \"#utility.yul\":11004:11010   */\n      dup3\n        /* \"#utility.yul\":10996:11002   */\n      dup3\n        /* \"#utility.yul\":10990:10994   */\n      dup6\n        /* \"#utility.yul\":10945:11011   */\n      tag_302\n      jump\t// in\n    tag_447:\n        /* \"#utility.yul\":11038:11039   */\n      0x00\n        /* \"#utility.yul\":11062:11066   */\n      0x20\n        /* \"#utility.yul\":11049:11066   */\n      swap1\n      pop\n        /* \"#utility.yul\":11094:11096   */\n      0x1f\n        /* \"#utility.yul\":11086:11092   */\n      dup4\n        /* \"#utility.yul\":11083:11097   */\n      gt\n        /* \"#utility.yul\":11111:11112   */\n      0x01\n        /* \"#utility.yul\":11106:11723   */\n      dup2\n      eq\n      tag_449\n      jumpi\n        /* \"#utility.yul\":11767:11768   */\n      0x00\n        /* \"#utility.yul\":11784:11790   */\n      dup5\n        /* \"#utility.yul\":11781:11858   */\n      iszero\n      tag_450\n      jumpi\n        /* \"#utility.yul\":11833:11842   */\n      dup3\n        /* \"#utility.yul\":11828:11831   */\n      dup8\n        /* \"#utility.yul\":11824:11843   */\n      add\n        /* \"#utility.yul\":11818:11844   */\n      mload\n        /* \"#utility.yul\":11809:11844   */\n      swap1\n      pop\n        /* \"#utility.yul\":11781:11858   */\n    tag_450:\n        /* \"#utility.yul\":11884:11951   */\n      tag_451\n        /* \"#utility.yul\":11944:11950   */\n      dup6\n        /* \"#utility.yul\":11937:11942   */\n      dup3\n        /* \"#utility.yul\":11884:11951   */\n      tag_305\n      jump\t// in\n    tag_451:\n        /* \"#utility.yul\":11878:11882   */\n      dup7\n        /* \"#utility.yul\":11871:11952   */\n      sstore\n        /* \"#utility.yul\":11740:11962   */\n      pop\n        /* \"#utility.yul\":11076:11962   */\n      jump(tag_448)\n        /* \"#utility.yul\":11106:11723   */\n    tag_449:\n        /* \"#utility.yul\":11158:11162   */\n      0x1f\n        /* \"#utility.yul\":11154:11163   */\n      not\n        /* \"#utility.yul\":11146:11152   */\n      dup5\n        /* \"#utility.yul\":11142:11164   */\n      and\n        /* \"#utility.yul\":11192:11228   */\n      tag_452\n        /* \"#utility.yul\":11223:11227   */\n      dup7\n        /* \"#utility.yul\":11192:11228   */\n      tag_290\n      jump\t// in\n    tag_452:\n        /* \"#utility.yul\":11250:11251   */\n      0x00\n        /* \"#utility.yul\":11264:11472   */\n    tag_453:\n        /* \"#utility.yul\":11278:11285   */\n      dup3\n        /* \"#utility.yul\":11275:11276   */\n      dup2\n        /* \"#utility.yul\":11272:11286   */\n      lt\n        /* \"#utility.yul\":11264:11472   */\n      iszero\n      tag_455\n      jumpi\n        /* \"#utility.yul\":11357:11366   */\n      dup5\n        /* \"#utility.yul\":11352:11355   */\n      dup10\n        /* \"#utility.yul\":11348:11367   */\n      add\n        /* \"#utility.yul\":11342:11368   */\n      mload\n        /* \"#utility.yul\":11334:11340   */\n      dup3\n        /* \"#utility.yul\":11327:11369   */\n      sstore\n        /* \"#utility.yul\":11408:11409   */\n      0x01\n        /* \"#utility.yul\":11400:11406   */\n      dup3\n        /* \"#utility.yul\":11396:11410   */\n      add\n        /* \"#utility.yul\":11386:11410   */\n      swap2\n      pop\n        /* \"#utility.yul\":11455:11457   */\n      0x20\n        /* \"#utility.yul\":11444:11453   */\n      dup6\n        /* \"#utility.yul\":11440:11458   */\n      add\n        /* \"#utility.yul\":11427:11458   */\n      swap5\n      pop\n        /* \"#utility.yul\":11301:11305   */\n      0x20\n        /* \"#utility.yul\":11298:11299   */\n      dup2\n        /* \"#utility.yul\":11294:11306   */\n      add\n        /* \"#utility.yul\":11289:11306   */\n      swap1\n      pop\n        /* \"#utility.yul\":11264:11472   */\n      jump(tag_453)\n    tag_455:\n        /* \"#utility.yul\":11500:11506   */\n      dup7\n        /* \"#utility.yul\":11491:11498   */\n      dup4\n        /* \"#utility.yul\":11488:11507   */\n      lt\n        /* \"#utility.yul\":11485:11664   */\n      iszero\n      tag_456\n      jumpi\n        /* \"#utility.yul\":11558:11567   */\n      dup5\n        /* \"#utility.yul\":11553:11556   */\n      dup10\n        /* \"#utility.yul\":11549:11568   */\n      add\n        /* \"#utility.yul\":11543:11569   */\n      mload\n        /* \"#utility.yul\":11601:11649   */\n      tag_457\n        /* \"#utility.yul\":11643:11647   */\n      0x1f\n        /* \"#utility.yul\":11635:11641   */\n      dup10\n        /* \"#utility.yul\":11631:11648   */\n      and\n        /* \"#utility.yul\":11620:11629   */\n      dup3\n        /* \"#utility.yul\":11601:11649   */\n      tag_304\n      jump\t// in\n    tag_457:\n        /* \"#utility.yul\":11593:11599   */\n      dup4\n        /* \"#utility.yul\":11586:11650   */\n      sstore\n        /* \"#utility.yul\":11508:11664   */\n      pop\n        /* \"#utility.yul\":11485:11664   */\n    tag_456:\n        /* \"#utility.yul\":11710:11711   */\n      0x01\n        /* \"#utility.yul\":11706:11707   */\n      0x02\n        /* \"#utility.yul\":11698:11704   */\n      dup9\n        /* \"#utility.yul\":11694:11708   */\n      mul\n        /* \"#utility.yul\":11690:11712   */\n      add\n        /* \"#utility.yul\":11684:11688   */\n      dup9\n        /* \"#utility.yul\":11677:11713   */\n      sstore\n        /* \"#utility.yul\":11113:11723   */\n      pop\n      pop\n      pop\n        /* \"#utility.yul\":11076:11962   */\n    tag_448:\n      pop\n        /* \"#utility.yul\":10668:11968   */\n      pop\n      pop\n      pop\n        /* \"#utility.yul\":10578:11968   */\n      pop\n      pop\n      jump\t// out\n        /* \"#utility.yul\":11974:12115   */\n    tag_306:\n        /* \"#utility.yul\":12023:12027   */\n      0x00\n        /* \"#utility.yul\":12046:12049   */\n      dup2\n        /* \"#utility.yul\":12038:12049   */\n      swap1\n      pop\n        /* \"#utility.yul\":12069:12072   */\n      dup2\n        /* \"#utility.yul\":12066:12067   */\n      0x00\n        /* \"#utility.yul\":12059:12073   */\n      mstore\n        /* \"#utility.yul\":12103:12107   */\n      0x20\n        /* \"#utility.yul\":12100:12101   */\n      0x00\n        /* \"#utility.yul\":12090:12108   */\n      keccak256\n        /* \"#utility.yul\":12082:12108   */\n      swap1\n      pop\n        /* \"#utility.yul\":11974:12115   */\n      swap2\n      swap1\n      pop\n      jump\t// out\n        /* \"#utility.yul\":12121:12664   */\n    tag_307:\n        /* \"#utility.yul\":12222:12224   */\n      0x1f\n        /* \"#utility.yul\":12217:12220   */\n      dup3\n        /* \"#utility.yul\":12214:12225   */\n      gt\n        /* \"#utility.yul\":12211:12657   */\n      iszero\n      tag_460\n      jumpi\n        /* \"#utility.yul\":12256:12294   */\n      tag_461\n        /* \"#utility.yul\":12288:12293   */\n      dup2\n        /* \"#utility.yul\":12256:12294   */\n      tag_306\n      jump\t// in\n    tag_461:\n        /* \"#utility.yul\":12340:12369   */\n      tag_462\n        /* \"#utility.yul\":12358:12368   */\n      dup5\n        /* \"#utility.yul\":12340:12369   */\n      tag_291\n      jump\t// in\n    tag_462:\n        /* \"#utility.yul\":12330:12338   */\n      dup2\n        /* \"#utility.yul\":12326:12370   */\n      add\n        /* \"#utility.yul\":12523:12525   */\n      0x20\n        /* \"#utility.yul\":12511:12521   */\n      dup6\n        /* \"#utility.yul\":12508:12526   */\n      lt\n        /* \"#utility.yul\":12505:12554   */\n      iszero\n      tag_463\n      jumpi\n        /* \"#utility.yul\":12544:12552   */\n      dup2\n        /* \"#utility.yul\":12529:12552   */\n      swap1\n      pop\n        /* \"#utility.yul\":12505:12554   */\n    tag_463:\n        /* \"#utility.yul\":12567:12647   */\n      tag_464\n        /* \"#utility.yul\":12623:12645   */\n      tag_465\n        /* \"#utility.yul\":12641:12644   */\n      dup6\n        /* \"#utility.yul\":12623:12645   */\n      tag_291\n      jump\t// in\n    tag_465:\n        /* \"#utility.yul\":12613:12621   */\n      dup4\n        /* \"#utility.yul\":12609:12646   */\n      add\n        /* \"#utility.yul\":12596:12607   */\n      dup3\n        /* \"#utility.yul\":12567:12647   */\n      tag_301\n      jump\t// in\n    tag_464:\n        /* \"#utility.yul\":12226:12657   */\n      pop\n      pop\n        /* \"#utility.yul\":12211:12657   */\n    tag_460:\n        /* \"#utility.yul\":12121:12664   */\n      pop\n      pop\n      pop\n      jump\t// out\n        /* \"#utility.yul\":12670:14065   */\n    tag_83:\n        /* \"#utility.yul\":12787:12824   */\n      tag_467\n        /* \"#utility.yul\":12820:12823   */\n      dup3\n        /* \"#utility.yul\":12787:12824   */\n      tag_282\n      jump\t// in\n    tag_467:\n        /* \"#utility.yul\":12889:12907   */\n      0xffffffffffffffff\n        /* \"#utility.yul\":12881:12887   */\n      dup2\n        /* \"#utility.yul\":12878:12908   */\n      gt\n        /* \"#utility.yul\":12875:12931   */\n      iszero\n      tag_468\n      jumpi\n        /* \"#utility.yul\":12911:12929   */\n      tag_469\n      tag_271\n      jump\t// in\n    tag_469:\n        /* \"#utility.yul\":12875:12931   */\n    tag_468:\n        /* \"#utility.yul\":12955:12993   */\n      tag_470\n        /* \"#utility.yul\":12987:12991   */\n      dup3\n        /* \"#utility.yul\":12981:12992   */\n      sload\n        /* \"#utility.yul\":12955:12993   */\n      tag_43\n      jump\t// in\n    tag_470:\n        /* \"#utility.yul\":13040:13107   */\n      tag_471\n        /* \"#utility.yul\":13100:13106   */\n      dup3\n        /* \"#utility.yul\":13092:13098   */\n      dup3\n        /* \"#utility.yul\":13086:13090   */\n      dup6\n        /* \"#utility.yul\":13040:13107   */\n      tag_307\n      jump\t// in\n    tag_471:\n        /* \"#utility.yul\":13134:13135   */\n      0x00\n        /* \"#utility.yul\":13158:13162   */\n      0x20\n        /* \"#utility.yul\":13145:13162   */\n      swap1\n      pop\n        /* \"#utility.yul\":13190:13192   */\n      0x1f\n        /* \"#utility.yul\":13182:13188   */\n      dup4\n        /* \"#utility.yul\":13179:13193   */\n      gt\n        /* \"#utility.yul\":13207:13208   */\n      0x01\n        /* \"#utility.yul\":13202:13820   */\n      dup2\n      eq\n      tag_473\n      jumpi\n        /* \"#utility.yul\":13864:13865   */\n      0x00\n        /* \"#utility.yul\":13881:13887   */\n      dup5\n        /* \"#utility.yul\":13878:13955   */\n      iszero\n      tag_474\n      jumpi\n        /* \"#utility.yul\":13930:13939   */\n      dup3\n        /* \"#utility.yul\":13925:13928   */\n      dup8\n        /* \"#utility.yul\":13921:13940   */\n      add\n        /* \"#utility.yul\":13915:13941   */\n      mload\n        /* \"#utility.yul\":13906:13941   */\n      swap1\n      pop\n        /* \"#utility.yul\":13878:13955   */\n    tag_474:\n        /* \"#utility.yul\":13981:14048   */\n      tag_475\n        /* \"#utility.yul\":14041:14047   */\n      dup6\n        /* \"#utility.yul\":14034:14039   */\n      dup3\n        /* \"#utility.yul\":13981:14048   */\n      tag_305\n      jump\t// in\n    tag_475:\n        /* \"#utility.yul\":13975:13979   */\n      dup7\n        /* \"#utility.yul\":13968:14049   */\n      sstore\n        /* \"#utility.yul\":13837:14059   */\n      pop\n        /* \"#utility.yul\":13172:14059   */\n      jump(tag_472)\n        /* \"#utility.yul\":13202:13820   */\n    tag_473:\n        /* \"#utility.yul\":13254:13258   */\n      0x1f\n        /* \"#utility.yul\":13250:13259   */\n      not\n        /* \"#utility.yul\":13242:13248   */\n      dup5\n        /* \"#utility.yul\":13238:13260   */\n      and\n        /* \"#utility.yul\":13288:13325   */\n      tag_476\n        /* \"#utility.yul\":13320:13324   */\n      dup7\n        /* \"#utility.yul\":13288:13325   */\n      tag_306\n      jump\t// in\n    tag_476:\n        /* \"#utility.yul\":13347:13348   */\n      0x00\n        /* \"#utility.yul\":13361:13569   */\n    tag_477:\n        /* \"#utility.yul\":13375:13382   */\n      dup3\n        /* \"#utility.yul\":13372:13373   */\n      dup2\n        /* \"#utility.yul\":13369:13383   */\n      lt\n        /* \"#utility.yul\":13361:13569   */\n      iszero\n      tag_479\n      jumpi\n        /* \"#utility.yul\":13454:13463   */\n      dup5\n        /* \"#utility.yul\":13449:13452   */\n      dup10\n        /* \"#utility.yul\":13445:13464   */\n      add\n        /* \"#utility.yul\":13439:13465   */\n      mload\n        /* \"#utility.yul\":13431:13437   */\n      dup3\n        /* \"#utility.yul\":13424:13466   */\n      sstore\n        /* \"#utility.yul\":13505:13506   */\n      0x01\n        /* \"#utility.yul\":13497:13503   */\n      dup3\n        /* \"#utility.yul\":13493:13507   */\n      add\n        /* \"#utility.yul\":13483:13507   */\n      swap2\n      pop\n        /* \"#utility.yul\":13552:13554   */\n      0x20\n        /* \"#utility.yul\":13541:13550   */\n      dup6\n        /* \"#utility.yul\":13537:13555   */\n      add\n        /* \"#utility.yul\":13524:13555   */\n      swap5\n      pop\n        /* \"#utility.yul\":13398:13402   */\n      0x20\n        /* \"#utility.yul\":13395:13396   */\n      dup2\n        /* \"#utility.yul\":13391:13403   */\n      add\n        /* \"#utility.yul\":13386:13403   */\n      swap1\n      pop\n        /* \"#utility.yul\":13361:13569   */\n      jump(tag_477)\n    tag_479:\n        /* \"#utility.yul\":13597:13603   */\n      dup7\n        /* \"#utility.yul\":13588:13595   */\n      dup4\n        /* \"#utility.yul\":13585:13604   */\n      lt\n        /* \"#utility.yul\":13582:13761   */\n      iszero\n      tag_480\n      jumpi\n        /* \"#utility.yul\":13655:13664   */\n      dup5\n        /* \"#utility.yul\":13650:13653   */\n      dup10\n        /* \"#utility.yul\":13646:13665   */\n      add\n        /* \"#utility.yul\":13640:13666   */\n      mload\n        /* \"#utility.yul\":13698:13746   */\n      tag_481\n        /* \"#utility.yul\":13740:13744   */\n      0x1f\n        /* \"#utility.yul\":13732:13738   */\n      dup10\n        /* \"#utility.yul\":13728:13745   */\n      and\n        /* \"#utility.yul\":13717:13726   */\n      dup3\n        /* \"#utility.yul\":13698:13746   */\n      tag_304\n      jump\t// in\n    tag_481:\n        /* \"#utility.yul\":13690:13696   */\n      dup4\n        /* \"#utility.yul\":13683:13747   */\n      sstore\n        /* \"#utility.yul\":13605:13761   */\n      pop\n        /* \"#utility.yul\":13582:13761   */\n    tag_480:\n        /* \"#utility.yul\":13807:13808   */\n      0x01\n        /* \"#utility.yul\":13803:13804   */\n      0x02\n        /* \"#utility.yul\":13795:13801   */\n      dup9\n        /* \"#utility.yul\":13791:13805   */\n      mul\n        /* \"#utility.yul\":13787:13809   */\n      add\n        /* \"#utility.yul\":13781:13785   */\n      dup9\n        /* \"#utility.yul\":13774:13810   */\n      sstore\n        /* \"#utility.yul\":13209:13820   */\n      pop\n      pop\n      pop\n        /* \"#utility.yul\":13172:14059   */\n    tag_472:\n      pop\n        /* \"#utility.yul\":12762:14065   */\n      pop\n      pop\n      pop\n        /* \"#utility.yul\":12670:14065   */\n      pop\n      pop\n      jump\t// out\n        /* \"#utility.yul\":14071:14251   */\n    tag_95:\n        /* \"#utility.yul\":14119:14196   */\n      0x4e487b7100000000000000000000000000000000000000000000000000000000\n        /* \"#utility.yul\":14116:14117   */\n      0x00\n        /* \"#utility.yul\":14109:14197   */\n      mstore\n        /* \"#utility.yul\":14216:14220   */\n      0x21\n        /* \"#utility.yul\":14213:14214   */\n      0x04\n        /* \"#utility.yul\":14206:14221   */\n      mstore\n        /* \"#utility.yul\":14240:14244   */\n      0x24\n        /* \"#utility.yul\":14237:14238   */\n      0x00\n        /* \"#utility.yul\":14230:14245   */\n      revert\n        /* \"#utility.yul\":14257:14437   */\n    tag_113:\n        /* \"#utility.yul\":14305:14382   */\n      0x4e487b7100000000000000000000000000000000000000000000000000000000\n        /* \"#utility.yul\":14302:14303   */\n      0x00\n        /* \"#utility.yul\":14295:14383   */\n      mstore\n        /* \"#utility.yul\":14402:14406   */\n      0x32\n        /* \"#utility.yul\":14399:14400   */\n      0x04\n        /* \"#utility.yul\":14392:14407   */\n      mstore\n        /* \"#utility.yul\":14426:14430   */\n      0x24\n        /* \"#utility.yul\":14423:14424   */\n      0x00\n        /* \"#utility.yul\":14416:14431   */\n      revert\n        /* \"#utility.yul\":14443:14558   */\n    tag_308:\n        /* \"#utility.yul\":14528:14551   */\n      tag_485\n        /* \"#utility.yul\":14545:14550   */\n      dup2\n        /* \"#utility.yul\":14528:14551   */\n      tag_285\n      jump\t// in\n    tag_485:\n        /* \"#utility.yul\":14523:14526   */\n      dup3\n        /* \"#utility.yul\":14516:14552   */\n      mstore\n        /* \"#utility.yul\":14443:14558   */\n      pop\n      pop\n      jump\t// out\n        /* \"#utility.yul\":14564:14653   */\n    tag_309:\n        /* \"#utility.yul\":14600:14607   */\n      0x00\n        /* \"#utility.yul\":14640:14646   */\n      0xffff\n        /* \"#utility.yul\":14633:14638   */\n      dup3\n        /* \"#utility.yul\":14629:14647   */\n      and\n        /* \"#utility.yul\":14618:14647   */\n      swap1\n      pop\n        /* \"#utility.yul\":14564:14653   */\n      swap2\n      swap1\n      pop\n      jump\t// out\n        /* \"#utility.yul\":14659:14774   */\n    tag_310:\n        /* \"#utility.yul\":14744:14767   */\n      tag_488\n        /* \"#utility.yul\":14761:14766   */\n      dup2\n        /* \"#utility.yul\":14744:14767   */\n      tag_309\n      jump\t// in\n    tag_488:\n        /* \"#utility.yul\":14739:14742   */\n      dup3\n        /* \"#utility.yul\":14732:14768   */\n      mstore\n        /* \"#utility.yul\":14659:14774   */\n      pop\n      pop\n      jump\t// out\n        /* \"#utility.yul\":14780:14873   */\n    tag_311:\n        /* \"#utility.yul\":14816:14823   */\n      0x00\n        /* \"#utility.yul\":14856:14866   */\n      0xffffffff\n        /* \"#utility.yul\":14849:14854   */\n      dup3\n        /* \"#utility.yul\":14845:14867   */\n      and\n        /* \"#utility.yul\":14834:14867   */\n      swap1\n      pop\n        /* \"#utility.yul\":14780:14873   */\n      swap2\n      swap1\n      pop\n      jump\t// out\n        /* \"#utility.yul\":14879:14994   */\n    tag_312:\n        /* \"#utility.yul\":14964:14987   */\n      tag_491\n        /* \"#utility.yul\":14981:14986   */\n      dup2\n        /* \"#utility.yul\":14964:14987   */\n      tag_311\n      jump\t// in\n    tag_491:\n        /* \"#utility.yul\":14959:14962   */\n      dup3\n        /* \"#utility.yul\":14952:14988   */\n      mstore\n        /* \"#utility.yul\":14879:14994   */\n      pop\n      pop\n      jump\t// out\n        /* \"#utility.yul\":15000:15739   */\n    tag_141:\n        /* \"#utility.yul\":15217:15221   */\n      0x00\n        /* \"#utility.yul\":15255:15258   */\n      0xa0\n        /* \"#utility.yul\":15244:15253   */\n      dup3\n        /* \"#utility.yul\":15240:15259   */\n      add\n        /* \"#utility.yul\":15232:15259   */\n      swap1\n      pop\n        /* \"#utility.yul\":15269:15338   */\n      tag_493\n        /* \"#utility.yul\":15335:15336   */\n      0x00\n        /* \"#utility.yul\":15324:15333   */\n      dup4\n        /* \"#utility.yul\":15320:15337   */\n      add\n        /* \"#utility.yul\":15311:15317   */\n      dup9\n        /* \"#utility.yul\":15269:15338   */\n      tag_308\n      jump\t// in\n    tag_493:\n        /* \"#utility.yul\":15385:15394   */\n      dup2\n        /* \"#utility.yul\":15379:15383   */\n      dup2\n        /* \"#utility.yul\":15375:15395   */\n      sub\n        /* \"#utility.yul\":15370:15372   */\n      0x20\n        /* \"#utility.yul\":15359:15368   */\n      dup4\n        /* \"#utility.yul\":15355:15373   */\n      add\n        /* \"#utility.yul\":15348:15396   */\n      mstore\n        /* \"#utility.yul\":15413:15489   */\n      tag_494\n        /* \"#utility.yul\":15484:15488   */\n      dup2\n        /* \"#utility.yul\":15475:15481   */\n      dup8\n        /* \"#utility.yul\":15413:15489   */\n      tag_281\n      jump\t// in\n    tag_494:\n        /* \"#utility.yul\":15405:15489   */\n      swap1\n      pop\n        /* \"#utility.yul\":15499:15569   */\n      tag_495\n        /* \"#utility.yul\":15565:15567   */\n      0x40\n        /* \"#utility.yul\":15554:15563   */\n      dup4\n        /* \"#utility.yul\":15550:15568   */\n      add\n        /* \"#utility.yul\":15541:15547   */\n      dup7\n        /* \"#utility.yul\":15499:15569   */\n      tag_310\n      jump\t// in\n    tag_495:\n        /* \"#utility.yul\":15579:15649   */\n      tag_496\n        /* \"#utility.yul\":15645:15647   */\n      0x60\n        /* \"#utility.yul\":15634:15643   */\n      dup4\n        /* \"#utility.yul\":15630:15648   */\n      add\n        /* \"#utility.yul\":15621:15627   */\n      dup6\n        /* \"#utility.yul\":15579:15649   */\n      tag_312\n      jump\t// in\n    tag_496:\n        /* \"#utility.yul\":15659:15732   */\n      tag_497\n        /* \"#utility.yul\":15727:15730   */\n      0x80\n        /* \"#utility.yul\":15716:15725   */\n      dup4\n        /* \"#utility.yul\":15712:15731   */\n      add\n        /* \"#utility.yul\":15703:15709   */\n      dup5\n        /* \"#utility.yul\":15659:15732   */\n      tag_288\n      jump\t// in\n    tag_497:\n        /* \"#utility.yul\":15000:15739   */\n      swap7\n      swap6\n      pop\n      pop\n      pop\n      pop\n      pop\n      pop\n      jump\t// out\n        /* \"#utility.yul\":15745:15888   */\n    tag_313:\n        /* \"#utility.yul\":15802:15807   */\n      0x00\n        /* \"#utility.yul\":15833:15839   */\n      dup2\n        /* \"#utility.yul\":15827:15840   */\n      mload\n        /* \"#utility.yul\":15818:15840   */\n      swap1\n      pop\n        /* \"#utility.yul\":15849:15882   */\n      tag_499\n        /* \"#utility.yul\":15876:15881   */\n      dup2\n        /* \"#utility.yul\":15849:15882   */\n      tag_266\n      jump\t// in\n    tag_499:\n        /* \"#utility.yul\":15745:15888   */\n      swap3\n      swap2\n      pop\n      pop\n      jump\t// out\n        /* \"#utility.yul\":15894:16245   */\n    tag_145:\n        /* \"#utility.yul\":15964:15970   */\n      0x00\n        /* \"#utility.yul\":16013:16015   */\n      0x20\n        /* \"#utility.yul\":16001:16010   */\n      dup3\n        /* \"#utility.yul\":15992:15999   */\n      dup5\n        /* \"#utility.yul\":15988:16011   */\n      sub\n        /* \"#utility.yul\":15984:16016   */\n      slt\n        /* \"#utility.yul\":15981:16100   */\n      iszero\n      tag_501\n      jumpi\n        /* \"#utility.yul\":16019:16098   */\n      tag_502\n      tag_263\n      jump\t// in\n    tag_502:\n        /* \"#utility.yul\":15981:16100   */\n    tag_501:\n        /* \"#utility.yul\":16139:16140   */\n      0x00\n        /* \"#utility.yul\":16164:16228   */\n      tag_503\n        /* \"#utility.yul\":16220:16227   */\n      dup5\n        /* \"#utility.yul\":16211:16217   */\n      dup3\n        /* \"#utility.yul\":16200:16209   */\n      dup6\n        /* \"#utility.yul\":16196:16218   */\n      add\n        /* \"#utility.yul\":16164:16228   */\n      tag_313\n      jump\t// in\n    tag_503:\n        /* \"#utility.yul\":16154:16228   */\n      swap2\n      pop\n        /* \"#utility.yul\":16110:16238   */\n      pop\n        /* \"#utility.yul\":15894:16245   */\n      swap3\n      swap2\n      pop\n      pop\n      jump\t// out\n        /* \"#utility.yul\":16251:16369   */\n    tag_314:\n        /* \"#utility.yul\":16338:16362   */\n      tag_505\n        /* \"#utility.yul\":16356:16361   */\n      dup2\n        /* \"#utility.yul\":16338:16362   */\n      tag_294\n      jump\t// in\n    tag_505:\n        /* \"#utility.yul\":16333:16336   */\n      dup3\n        /* \"#utility.yul\":16326:16363   */\n      mstore\n        /* \"#utility.yul\":16251:16369   */\n      pop\n      pop\n      jump\t// out\n        /* \"#utility.yul\":16375:16597   */\n    tag_171:\n        /* \"#utility.yul\":16468:16472   */\n      0x00\n        /* \"#utility.yul\":16506:16508   */\n      0x20\n        /* \"#utility.yul\":16495:16504   */\n      dup3\n        /* \"#utility.yul\":16491:16509   */\n      add\n        /* \"#utility.yul\":16483:16509   */\n      swap1\n      pop\n        /* \"#utility.yul\":16519:16590   */\n      tag_507\n        /* \"#utility.yul\":16587:16588   */\n      0x00\n        /* \"#utility.yul\":16576:16585   */\n      dup4\n        /* \"#utility.yul\":16572:16589   */\n      add\n        /* \"#utility.yul\":16563:16569   */\n      dup5\n        /* \"#utility.yul\":16519:16590   */\n      tag_314\n      jump\t// in\n    tag_507:\n        /* \"#utility.yul\":16375:16597   */\n      swap3\n      swap2\n      pop\n      pop\n      jump\t// out\n        /* \"#utility.yul\":16603:16783   */\n    tag_315:\n        /* \"#utility.yul\":16651:16728   */\n      0x4e487b7100000000000000000000000000000000000000000000000000000000\n        /* \"#utility.yul\":16648:16649   */\n      0x00\n        /* \"#utility.yul\":16641:16729   */\n      mstore\n        /* \"#utility.yul\":16748:16752   */\n      0x11\n        /* \"#utility.yul\":16745:16746   */\n      0x04\n        /* \"#utility.yul\":16738:16753   */\n      mstore\n        /* \"#utility.yul\":16772:16776   */\n      0x24\n        /* \"#utility.yul\":16769:16770   */\n      0x00\n        /* \"#utility.yul\":16762:16777   */\n      revert\n        /* \"#utility.yul\":16789:16980   */\n    tag_176:\n        /* \"#utility.yul\":16829:16832   */\n      0x00\n        /* \"#utility.yul\":16848:16868   */\n      tag_510\n        /* \"#utility.yul\":16866:16867   */\n      dup3\n        /* \"#utility.yul\":16848:16868   */\n      tag_294\n      jump\t// in\n    tag_510:\n        /* \"#utility.yul\":16843:16868   */\n      swap2\n      pop\n        /* \"#utility.yul\":16882:16902   */\n      tag_511\n        /* \"#utility.yul\":16900:16901   */\n      dup4\n        /* \"#utility.yul\":16882:16902   */\n      tag_294\n      jump\t// in\n    tag_511:\n        /* \"#utility.yul\":16877:16902   */\n      swap3\n      pop\n        /* \"#utility.yul\":16925:16926   */\n      dup3\n        /* \"#utility.yul\":16922:16923   */\n      dup3\n        /* \"#utility.yul\":16918:16927   */\n      add\n        /* \"#utility.yul\":16911:16927   */\n      swap1\n      pop\n        /* \"#utility.yul\":16946:16949   */\n      dup1\n        /* \"#utility.yul\":16943:16944   */\n      dup3\n        /* \"#utility.yul\":16940:16950   */\n      gt\n        /* \"#utility.yul\":16937:16973   */\n      iszero\n      tag_512\n      jumpi\n        /* \"#utility.yul\":16953:16971   */\n      tag_513\n      tag_315\n      jump\t// in\n    tag_513:\n        /* \"#utility.yul\":16937:16973   */\n    tag_512:\n        /* \"#utility.yul\":16789:16980   */\n      swap3\n      swap2\n      pop\n      pop\n      jump\t// out\n        /* \"#utility.yul\":16986:17180   */\n    tag_180:\n        /* \"#utility.yul\":17026:17030   */\n      0x00\n        /* \"#utility.yul\":17046:17066   */\n      tag_515\n        /* \"#utility.yul\":17064:17065   */\n      dup3\n        /* \"#utility.yul\":17046:17066   */\n      tag_294\n      jump\t// in\n    tag_515:\n        /* \"#utility.yul\":17041:17066   */\n      swap2\n      pop\n        /* \"#utility.yul\":17080:17100   */\n      tag_516\n        /* \"#utility.yul\":17098:17099   */\n      dup4\n        /* \"#utility.yul\":17080:17100   */\n      tag_294\n      jump\t// in\n    tag_516:\n        /* \"#utility.yul\":17075:17100   */\n      swap3\n      pop\n        /* \"#utility.yul\":17124:17125   */\n      dup3\n        /* \"#utility.yul\":17121:17122   */\n      dup3\n        /* \"#utility.yul\":17117:17126   */\n      sub\n        /* \"#utility.yul\":17109:17126   */\n      swap1\n      pop\n        /* \"#utility.yul\":17148:17149   */\n      dup2\n        /* \"#utility.yul\":17142:17146   */\n      dup2\n        /* \"#utility.yul\":17139:17150   */\n      gt\n        /* \"#utility.yul\":17136:17173   */\n      iszero\n      tag_517\n      jumpi\n        /* \"#utility.yul\":17153:17171   */\n      tag_518\n      tag_315\n      jump\t// in\n    tag_518:\n        /* \"#utility.yul\":17136:17173   */\n    tag_517:\n        /* \"#utility.yul\":16986:17180   */\n      swap3\n      swap2\n      pop\n      pop\n      jump\t// out\n        /* \"#utility.yul\":17186:17366   */\n    tag_316:\n        /* \"#utility.yul\":17234:17311   */\n      0x4e487b7100000000000000000000000000000000000000000000000000000000\n        /* \"#utility.yul\":17231:17232   */\n      0x00\n        /* \"#utility.yul\":17224:17312   */\n      mstore\n        /* \"#utility.yul\":17331:17335   */\n      0x12\n        /* \"#utility.yul\":17328:17329   */\n      0x04\n        /* \"#utility.yul\":17321:17336   */\n      mstore\n        /* \"#utility.yul\":17355:17359   */\n      0x24\n        /* \"#utility.yul\":17352:17353   */\n      0x00\n        /* \"#utility.yul\":17345:17360   */\n      revert\n        /* \"#utility.yul\":17372:17548   */\n    tag_188:\n        /* \"#utility.yul\":17404:17405   */\n      0x00\n        /* \"#utility.yul\":17421:17441   */\n      tag_521\n        /* \"#utility.yul\":17439:17440   */\n      dup3\n        /* \"#utility.yul\":17421:17441   */\n      tag_294\n      jump\t// in\n    tag_521:\n        /* \"#utility.yul\":17416:17441   */\n      swap2\n      pop\n        /* \"#utility.yul\":17455:17475   */\n      tag_522\n        /* \"#utility.yul\":17473:17474   */\n      dup4\n        /* \"#utility.yul\":17455:17475   */\n      tag_294\n      jump\t// in\n    tag_522:\n        /* \"#utility.yul\":17450:17475   */\n      swap3\n      pop\n        /* \"#utility.yul\":17494:17495   */\n      dup3\n        /* \"#utility.yul\":17484:17519   */\n      tag_523\n      jumpi\n        /* \"#utility.yul\":17499:17517   */\n      tag_524\n      tag_316\n      jump\t// in\n    tag_524:\n        /* \"#utility.yul\":17484:17519   */\n    tag_523:\n        /* \"#utility.yul\":17540:17541   */\n      dup3\n        /* \"#utility.yul\":17537:17538   */\n      dup3\n        /* \"#utility.yul\":17533:17542   */\n      mod\n        /* \"#utility.yul\":17528:17542   */\n      swap1\n      pop\n        /* \"#utility.yul\":17372:17548   */\n      swap3\n      swap2\n      pop\n      pop\n      jump\t// out\n        /* \"#utility.yul\":17554:17964   */\n    tag_223:\n        /* \"#utility.yul\":17594:17601   */\n      0x00\n        /* \"#utility.yul\":17617:17637   */\n      tag_526\n        /* \"#utility.yul\":17635:17636   */\n      dup3\n        /* \"#utility.yul\":17617:17637   */\n      tag_294\n      jump\t// in\n    tag_526:\n        /* \"#utility.yul\":17612:17637   */\n      swap2\n      pop\n        /* \"#utility.yul\":17651:17671   */\n      tag_527\n        /* \"#utility.yul\":17669:17670   */\n      dup4\n        /* \"#utility.yul\":17651:17671   */\n      tag_294\n      jump\t// in\n    tag_527:\n        /* \"#utility.yul\":17646:17671   */\n      swap3\n      pop\n        /* \"#utility.yul\":17706:17707   */\n      dup3\n        /* \"#utility.yul\":17703:17704   */\n      dup3\n        /* \"#utility.yul\":17699:17708   */\n      mul\n        /* \"#utility.yul\":17728:17758   */\n      tag_528\n        /* \"#utility.yul\":17746:17757   */\n      dup2\n        /* \"#utility.yul\":17728:17758   */\n      tag_294\n      jump\t// in\n    tag_528:\n        /* \"#utility.yul\":17717:17758   */\n      swap2\n      pop\n        /* \"#utility.yul\":17907:17908   */\n      dup3\n        /* \"#utility.yul\":17898:17905   */\n      dup3\n        /* \"#utility.yul\":17894:17909   */\n      div\n        /* \"#utility.yul\":17891:17892   */\n      dup5\n        /* \"#utility.yul\":17888:17910   */\n      eq\n        /* \"#utility.yul\":17868:17869   */\n      dup4\n        /* \"#utility.yul\":17861:17870   */\n      iszero\n        /* \"#utility.yul\":17841:17924   */\n      or\n        /* \"#utility.yul\":17818:17957   */\n      tag_529\n      jumpi\n        /* \"#utility.yul\":17937:17955   */\n      tag_530\n      tag_315\n      jump\t// in\n    tag_530:\n        /* \"#utility.yul\":17818:17957   */\n    tag_529:\n        /* \"#utility.yul\":17602:17964   */\n      pop\n        /* \"#utility.yul\":17554:17964   */\n      swap3\n      swap2\n      pop\n      pop\n      jump\t// out\n        /* \"#utility.yul\":17970:18072   */\n    tag_317:\n        /* \"#utility.yul\":18012:18020   */\n      0x00\n        /* \"#utility.yul\":18059:18064   */\n      dup2\n        /* \"#utility.yul\":18056:18057   */\n      0x01\n        /* \"#utility.yul\":18052:18065   */\n      shr\n        /* \"#utility.yul\":18031:18065   */\n      swap1\n      pop\n        /* \"#utility.yul\":17970:18072   */\n      swap2\n      swap1\n      pop\n      jump\t// out\n        /* \"#utility.yul\":18078:18926   */\n    tag_318:\n        /* \"#utility.yul\":18139:18144   */\n      0x00\n        /* \"#utility.yul\":18146:18150   */\n      0x00\n        /* \"#utility.yul\":18170:18176   */\n      dup3\n        /* \"#utility.yul\":18161:18176   */\n      swap2\n      pop\n        /* \"#utility.yul\":18194:18199   */\n      dup4\n        /* \"#utility.yul\":18185:18199   */\n      swap1\n      pop\n        /* \"#utility.yul\":18208:18920   */\n    tag_533:\n        /* \"#utility.yul\":18229:18230   */\n      0x01\n        /* \"#utility.yul\":18219:18227   */\n      dup6\n        /* \"#utility.yul\":18216:18231   */\n      gt\n        /* \"#utility.yul\":18208:18920   */\n      iszero\n      tag_535\n      jumpi\n        /* \"#utility.yul\":18324:18328   */\n      dup1\n        /* \"#utility.yul\":18319:18322   */\n      dup7\n        /* \"#utility.yul\":18315:18329   */\n      div\n        /* \"#utility.yul\":18309:18313   */\n      dup2\n        /* \"#utility.yul\":18306:18330   */\n      gt\n        /* \"#utility.yul\":18303:18353   */\n      iszero\n      tag_536\n      jumpi\n        /* \"#utility.yul\":18333:18351   */\n      tag_537\n      tag_315\n      jump\t// in\n    tag_537:\n        /* \"#utility.yul\":18303:18353   */\n    tag_536:\n        /* \"#utility.yul\":18383:18384   */\n      0x01\n        /* \"#utility.yul\":18373:18381   */\n      dup6\n        /* \"#utility.yul\":18369:18385   */\n      and\n        /* \"#utility.yul\":18366:18817   */\n      iszero\n      tag_538\n      jumpi\n        /* \"#utility.yul\":18798:18802   */\n      dup1\n        /* \"#utility.yul\":18791:18796   */\n      dup3\n        /* \"#utility.yul\":18787:18803   */\n      mul\n        /* \"#utility.yul\":18778:18803   */\n      swap2\n      pop\n        /* \"#utility.yul\":18366:18817   */\n    tag_538:\n        /* \"#utility.yul\":18848:18852   */\n      dup1\n        /* \"#utility.yul\":18842:18846   */\n      dup2\n        /* \"#utility.yul\":18838:18853   */\n      mul\n        /* \"#utility.yul\":18830:18853   */\n      swap1\n      pop\n        /* \"#utility.yul\":18878:18910   */\n      tag_539\n        /* \"#utility.yul\":18901:18909   */\n      dup6\n        /* \"#utility.yul\":18878:18910   */\n      tag_317\n      jump\t// in\n    tag_539:\n        /* \"#utility.yul\":18866:18910   */\n      swap5\n      pop\n        /* \"#utility.yul\":18208:18920   */\n      jump(tag_533)\n    tag_535:\n        /* \"#utility.yul\":18078:18926   */\n      swap5\n      pop\n      swap5\n      swap3\n      pop\n      pop\n      pop\n      jump\t// out\n        /* \"#utility.yul\":18932:20005   */\n    tag_319:\n        /* \"#utility.yul\":18986:18991   */\n      0x00\n        /* \"#utility.yul\":19177:19185   */\n      dup3\n        /* \"#utility.yul\":19167:19207   */\n      tag_541\n      jumpi\n        /* \"#utility.yul\":19198:19199   */\n      0x01\n        /* \"#utility.yul\":19189:19199   */\n      swap1\n      pop\n        /* \"#utility.yul\":19200:19205   */\n      jump(tag_540)\n        /* \"#utility.yul\":19167:19207   */\n    tag_541:\n        /* \"#utility.yul\":19226:19230   */\n      dup2\n        /* \"#utility.yul\":19216:19252   */\n      tag_542\n      jumpi\n        /* \"#utility.yul\":19243:19244   */\n      0x00\n        /* \"#utility.yul\":19234:19244   */\n      swap1\n      pop\n        /* \"#utility.yul\":19245:19250   */\n      jump(tag_540)\n        /* \"#utility.yul\":19216:19252   */\n    tag_542:\n        /* \"#utility.yul\":19312:19316   */\n      dup2\n        /* \"#utility.yul\":19360:19361   */\n      0x01\n        /* \"#utility.yul\":19355:19382   */\n      dup2\n      eq\n      tag_544\n      jumpi\n        /* \"#utility.yul\":19396:19397   */\n      0x02\n        /* \"#utility.yul\":19391:19582   */\n      dup2\n      eq\n      tag_545\n      jumpi\n        /* \"#utility.yul\":19305:19582   */\n      jump(tag_543)\n        /* \"#utility.yul\":19355:19382   */\n    tag_544:\n        /* \"#utility.yul\":19373:19374   */\n      0x01\n        /* \"#utility.yul\":19364:19374   */\n      swap2\n      pop\n        /* \"#utility.yul\":19375:19380   */\n      pop\n      jump(tag_540)\n        /* \"#utility.yul\":19391:19582   */\n    tag_545:\n        /* \"#utility.yul\":19436:19439   */\n      0xff\n        /* \"#utility.yul\":19426:19434   */\n      dup5\n        /* \"#utility.yul\":19423:19440   */\n      gt\n        /* \"#utility.yul\":19420:19463   */\n      iszero\n      tag_546\n      jumpi\n        /* \"#utility.yul\":19443:19461   */\n      tag_547\n      tag_315\n      jump\t// in\n    tag_547:\n        /* \"#utility.yul\":19420:19463   */\n    tag_546:\n        /* \"#utility.yul\":19492:19500   */\n      dup4\n        /* \"#utility.yul\":19489:19490   */\n      0x02\n        /* \"#utility.yul\":19485:19501   */\n      exp\n        /* \"#utility.yul\":19476:19501   */\n      swap2\n      pop\n        /* \"#utility.yul\":19527:19530   */\n      dup5\n        /* \"#utility.yul\":19520:19525   */\n      dup3\n        /* \"#utility.yul\":19517:19531   */\n      gt\n        /* \"#utility.yul\":19514:19554   */\n      iszero\n      tag_548\n      jumpi\n        /* \"#utility.yul\":19534:19552   */\n      tag_549\n      tag_315\n      jump\t// in\n    tag_549:\n        /* \"#utility.yul\":19514:19554   */\n    tag_548:\n        /* \"#utility.yul\":19567:19572   */\n      pop\n      jump(tag_540)\n        /* \"#utility.yul\":19305:19582   */\n    tag_543:\n      pop\n        /* \"#utility.yul\":19691:19693   */\n      0x20\n        /* \"#utility.yul\":19681:19689   */\n      dup4\n        /* \"#utility.yul\":19678:19694   */\n      lt\n        /* \"#utility.yul\":19672:19675   */\n      0x0133\n        /* \"#utility.yul\":19666:19670   */\n      dup4\n        /* \"#utility.yul\":19663:19676   */\n      lt\n        /* \"#utility.yul\":19659:19695   */\n      and\n        /* \"#utility.yul\":19641:19643   */\n      0x4e\n        /* \"#utility.yul\":19631:19639   */\n      dup5\n        /* \"#utility.yul\":19628:19644   */\n      lt\n        /* \"#utility.yul\":19623:19625   */\n      0x0b\n        /* \"#utility.yul\":19617:19621   */\n      dup5\n        /* \"#utility.yul\":19614:19626   */\n      lt\n        /* \"#utility.yul\":19610:19645   */\n      and\n        /* \"#utility.yul\":19594:19705   */\n      or\n        /* \"#utility.yul\":19591:19837   */\n      iszero\n      tag_550\n      jumpi\n        /* \"#utility.yul\":19747:19755   */\n      dup3\n        /* \"#utility.yul\":19741:19745   */\n      dup3\n        /* \"#utility.yul\":19737:19756   */\n      exp\n        /* \"#utility.yul\":19728:19756   */\n      swap1\n      pop\n        /* \"#utility.yul\":19782:19785   */\n      dup4\n        /* \"#utility.yul\":19775:19780   */\n      dup2\n        /* \"#utility.yul\":19772:19786   */\n      gt\n        /* \"#utility.yul\":19769:19809   */\n      iszero\n      tag_551\n      jumpi\n        /* \"#utility.yul\":19789:19807   */\n      tag_552\n      tag_315\n      jump\t// in\n    tag_552:\n        /* \"#utility.yul\":19769:19809   */\n    tag_551:\n        /* \"#utility.yul\":19822:19827   */\n      jump(tag_540)\n        /* \"#utility.yul\":19591:19837   */\n    tag_550:\n        /* \"#utility.yul\":19862:19904   */\n      tag_553\n        /* \"#utility.yul\":19900:19903   */\n      dup5\n        /* \"#utility.yul\":19890:19898   */\n      dup5\n        /* \"#utility.yul\":19884:19888   */\n      dup5\n        /* \"#utility.yul\":19881:19882   */\n      0x01\n        /* \"#utility.yul\":19862:19904   */\n      tag_318\n      jump\t// in\n    tag_553:\n        /* \"#utility.yul\":19847:19904   */\n      swap3\n      pop\n      swap1\n      pop\n        /* \"#utility.yul\":19936:19940   */\n      dup2\n        /* \"#utility.yul\":19931:19934   */\n      dup5\n        /* \"#utility.yul\":19927:19941   */\n      div\n        /* \"#utility.yul\":19920:19925   */\n      dup2\n        /* \"#utility.yul\":19917:19942   */\n      gt\n        /* \"#utility.yul\":19914:19965   */\n      iszero\n      tag_554\n      jumpi\n        /* \"#utility.yul\":19945:19963   */\n      tag_555\n      tag_315\n      jump\t// in\n    tag_555:\n        /* \"#utility.yul\":19914:19965   */\n    tag_554:\n        /* \"#utility.yul\":19994:19998   */\n      dup2\n        /* \"#utility.yul\":19987:19992   */\n      dup2\n        /* \"#utility.yul\":19983:19999   */\n      mul\n        /* \"#utility.yul\":19974:19999   */\n      swap1\n      pop\n        /* \"#utility.yul\":18932:20005   */\n    tag_540:\n      swap4\n      swap3\n      pop\n      pop\n      pop\n      jump\t// out\n        /* \"#utility.yul\":20011:20296   */\n    tag_235:\n        /* \"#utility.yul\":20071:20076   */\n      0x00\n        /* \"#utility.yul\":20095:20118   */\n      tag_557\n        /* \"#utility.yul\":20113:20117   */\n      dup3\n        /* \"#utility.yul\":20095:20118   */\n      tag_294\n      jump\t// in\n    tag_557:\n        /* \"#utility.yul\":20087:20118   */\n      swap2\n      pop\n        /* \"#utility.yul\":20139:20166   */\n      tag_558\n        /* \"#utility.yul\":20157:20165   */\n      dup4\n        /* \"#utility.yul\":20139:20166   */\n      tag_294\n      jump\t// in\n    tag_558:\n        /* \"#utility.yul\":20127:20166   */\n      swap3\n      pop\n        /* \"#utility.yul\":20185:20289   */\n      tag_559\n        /* \"#utility.yul\":20222:20288   */\n      0xffffffffffffffffffffffffffffffffffffffffffffffffffffffffffffffff\n        /* \"#utility.yul\":20212:20220   */\n      dup5\n        /* \"#utility.yul\":20206:20210   */\n      dup5\n        /* \"#utility.yul\":20185:20289   */\n      tag_319\n      jump\t// in\n    tag_559:\n        /* \"#utility.yul\":20176:20289   */\n      swap1\n      pop\n        /* \"#utility.yul\":20011:20296   */\n      swap3\n      swap2\n      pop\n      pop\n      jump\t// out\n\n    auxdata: 0xa2646970667358221220ba445a7aefd70ac846c6389bd12c86f101c8388607be5c5e8772d9bcdbad161164736f6c634300081f0033\n}\n",
				"bytecode": {
					"linkReferences": {},
					"object": "60a060405260405180610120016040528060e7815260200161210660e791395f908161002b919061034b565b5073b83e47c2bc239b3bf370bc41e1459a34b41238d060055f6101000a81548173ffffffffffffffffffffffffffffffffffffffff021916908373ffffffffffffffffffffffffffffffffffffffff1602179055507f66756e2d657468657265756d2d7365706f6c69612d31000000000000000000005f1b6006553480156100b1575f5ffd5b5060055f9054906101000a900473ffffffffffffffffffffffffffffffffffffffff168073ffffffffffffffffffffffffffffffffffffffff1660808173ffffffffffffffffffffffffffffffffffffffff16815250505061041a565b5f81519050919050565b7f4e487b71000000000000000000000000000000000000000000000000000000005f52604160045260245ffd5b7f4e487b71000000000000000000000000000000000000000000000000000000005f52602260045260245ffd5b5f600282049050600182168061018957607f821691505b60208210810361019c5761019b610145565b5b50919050565b5f819050815f5260205f209050919050565b5f6020601f8301049050919050565b5f82821b905092915050565b5f600883026101fe7fffffffffffffffffffffffffffffffffffffffffffffffffffffffffffffffff826101c3565b61020886836101c3565b95508019841693508086168417925050509392505050565b5f819050919050565b5f819050919050565b5f61024c61024761024284610220565b610229565b610220565b9050919050565b5f819050919050565b61026583610232565b61027961027182610253565b8484546101cf565b825550505050565b5f5f905090565b610290610281565b61029b81848461025c565b505050565b5b818110156102be576102b35f82610288565b6001810190506102a1565b5050565b601f821115610303576102d4816101a2565b6102dd846101b4565b810160208510156102ec578190505b6103006102f8856101b4565b8301826102a0565b50505b505050565b5f82821c905092915050565b5f6103235f1984600802610308565b1980831691505092915050565b5f61033b8383610314565b9150826002028217905092915050565b6103548261010e565b67ffffffffffffffff81111561036d5761036c610118565b5b6103778254610172565b6103828282856102c2565b5f60209050601f8311600181146103b3575f84156103a1578287015190505b6103ab8582610330565b865550610412565b601f1984166103c1866101a2565b5f5b828110156103e8578489015182556001820191506020850194506020810190506103c3565b868310156104055784890151610401601f891682610314565b8355505b6001600288020188555050505b505050505050565b608051611ccd6104395f395f818161016301526109830152611ccd5ff3fe608060405234801561000f575f5ffd5b506004361061007b575f3560e01c806362747e421161005957806362747e42146100d757806367e828bf146100f5578063b540133214610113578063fc2a88c3146101435761007b565b80630ca761751461007f57806329f0de3f1461009b5780635e63aa46146100b9575b5f5ffd5b61009960048036038101906100949190611285565b610161565b005b6100a3610223565b6040516100b0919061136d565b60405180910390f35b6100c16102af565b6040516100ce91906113df565b60405180910390f35b6100df61033b565b6040516100ec919061136d565b60405180910390f35b6100fd6103c7565b60405161010a91906113df565b60405180910390f35b61012d6004803603810190610128919061143c565b610452565b60405161013a9190611476565b60405180910390f35b61014b61051f565b6040516101589190611476565b60405180910390f35b7f000000000000000000000000000000000000000000000000000000000000000073ffffffffffffffffffffffffffffffffffffffff163373ffffffffffffffffffffffffffffffffffffffff16146101e6576040517fc6829f8300000000000000000000000000000000000000000000000000000000815260040160405180910390fd5b6101f1838383610525565b827f85e1543bf2f84fe80c6badbce3648c8539ad1df4d2b3d822938ca0538be727e660405160405180910390a2505050565b60048054610230906114bc565b80601f016020809104026020016040519081016040528092919081815260200182805461025c906114bc565b80156102a75780601f1061027e576101008083540402835291602001916102a7565b820191905f5260205f20905b81548152906001019060200180831161028a57829003601f168201915b505050505081565b600180546102bc906114bc565b80601f01602080910402602001604051908101604052809291908181526020018280546102e8906114bc565b80156103335780601f1061030a57610100808354040283529160200191610333565b820191905f5260205f20905b81548152906001019060200180831161031657829003601f168201915b505050505081565b60038054610348906114bc565b80601f0160208091040260200160405190810160405280929190818152602001828054610374906114bc565b80156103bf5780601f10610396576101008083540402835291602001916103bf565b820191905f5260205f20905b8154815290600101906020018083116103a257829003601f168201915b505050505081565b5f80546103d3906114bc565b80601f01602080910402602001604051908101604052809291908181526020018280546103ff906114bc565b801561044a5780601f106104215761010080835404028352916020019161044a565b820191905f5260205f20905b81548152906001019060200180831161042d57829003601f168201915b505050505081565b5f61045b61105e565b6104f55f805461046a906114bc565b80601f0160208091040260200160405190810160405280929190818152602001828054610496906114bc565b80156104e15780601f106104b8576101008083540402835291602001916104e1565b820191905f5260205f20905b8154815290600101906020018083116104c457829003601f168201915b50505050508261056490919063ffffffff16565b61050e61050182610574565b84620493e060065461097f565b600281905550600254915050919050565b60025481565b81600390816105349190611695565b5080600490816105449190611695565b505f8251111561055f57816001908161055d91906117bc565b505b505050565b610570825f5f84610a5e565b5050565b60605f610582610100610b04565b90506105cc6040518060400160405280600c81526020017f636f64654c6f636174696f6e000000000000000000000000000000000000000081525082610b2990919063ffffffff16565b6105f4835f015160028111156105e5576105e461188b565b5b82610b5190919063ffffffff16565b61063c6040518060400160405280600881526020017f6c616e677561676500000000000000000000000000000000000000000000000081525082610b2990919063ffffffff16565b61066483604001515f8111156106555761065461188b565b5b82610b5190919063ffffffff16565b6106ac6040518060400160405280600681526020017f736f75726365000000000000000000000000000000000000000000000000000081525082610b2990919063ffffffff16565b6106c3836060015182610b2990919063ffffffff16565b5f8360a0015151111561077a576107186040518060400160405280600481526020017f617267730000000000000000000000000000000000000000000000000000000081525082610b2990919063ffffffff16565b61072181610ba0565b5f5f90505b8360a001515181101561076f576107648460a00151828151811061074d5761074c6118b8565b5b602002602001015183610b2990919063ffffffff16565b806001019050610726565b5061077981610bc8565b5b5f83608001515111156108b9575f600281111561079a5761079961188b565b5b836020015160028111156107b1576107b061188b565b5b036107e8576040517fa80d31f700000000000000000000000000000000000000000000000000000000815260040160405180910390fd5b6108306040518060400160405280600f81526020017f736563726574734c6f636174696f6e000000000000000000000000000000000081525082610b2990919063ffffffff16565b6108598360200151600281111561084a5761084961188b565b5b82610b5190919063ffffffff16565b6108a16040518060400160405280600781526020017f736563726574730000000000000000000000000000000000000000000000000081525082610b2990919063ffffffff16565b6108b8836080015182610bf090919063ffffffff16565b5b5f8360c001515111156109705761090e6040518060400160405280600981526020017f627974657341726773000000000000000000000000000000000000000000000081525082610b2990919063ffffffff16565b61091781610ba0565b5f5f90505b8360c00151518110156109655761095a8460c001518281518110610943576109426118b8565b5b602002602001015183610bf090919063ffffffff16565b80600101905061091c565b5061096f81610bc8565b5b805f01515f0151915050919050565b5f5f7f000000000000000000000000000000000000000000000000000000000000000073ffffffffffffffffffffffffffffffffffffffff1663461d27628688600188886040518663ffffffff1660e01b81526004016109e395949392919061192e565b6020604051808303815f875af11580156109ff573d5f5f3e3d5ffd5b505050506040513d601f19601f82011682018060405250810190610a23919061199a565b9050807f1131472297a800fee664d1d89cfa8f7676ff07189ecc53f80bbb5f4969099db860405160405180910390a280915050949350505050565b5f815103610a98576040517f22ce3edd00000000000000000000000000000000000000000000000000000000815260040160405180910390fd5b82845f01906002811115610aaf57610aae61188b565b5b90816002811115610ac357610ac261188b565b5b815250508184604001905f811115610ade57610add61188b565b5b90815f811115610af157610af061188b565b5b8152505080846060018190525050505050565b610b0c6110cd565b610b19815f015183610c18565b505f816020018181525050919050565b610b368260038351610c8e565b610b4c81835f0151610e2e90919063ffffffff16565b505050565b610b7260026005600660ff16901b17835f0151610e4a90919063ffffffff16565b50610b9c8282604051602001610b8891906119d4565b604051602081830303815290604052610bf0565b5050565b610bab816004610eb1565b600181602001818151610bbe9190611a1a565b9150818152505050565b610bd3816007610eb1565b600181602001818151610be69190611a4d565b9150818152505050565b610bfd8260028351610c8e565b610c1381835f0151610e2e90919063ffffffff16565b505050565b610c206110ec565b5f602083610c2e9190611aad565b14610c5a57602082610c409190611aad565b6020610c4c9190611a4d565b82610c579190611a1a565b91505b818360200181815250506040518084525f815282810160200181811015610c7f575f5ffd5b80604052505082905092915050565b60178167ffffffffffffffff1611610cc857610cc28160058460ff16901b60ff1617845f0151610e4a90919063ffffffff16565b50610e29565b60ff8167ffffffffffffffff1611610d2457610cfa601860058460ff16901b17845f0151610e4a90919063ffffffff16565b50610d1e8167ffffffffffffffff166001855f0151610ed69092919063ffffffff16565b50610e28565b61ffff8167ffffffffffffffff1611610d8157610d57601960058460ff16901b17845f0151610e4a90919063ffffffff16565b50610d7b8167ffffffffffffffff166002855f0151610ed69092919063ffffffff16565b50610e27565b63ffffffff8167ffffffffffffffff1611610de057610db6601a60058460ff16901b17845f0151610e4a90919063ffffffff16565b50610dda8167ffffffffffffffff166004855f0151610ed69092919063ffffffff16565b50610e26565b610e00601b60058460ff16901b17845f0151610e4a90919063ffffffff16565b50610e248167ffffffffffffffff166008855f0151610ed69092919063ffffffff16565b505b5b5b5b505050565b610e366110ec565b610e4283838451610f5f565b905092915050565b610e526110ec565b5f835f01515190505f600182610e689190611a1a565b905084602001518210610e8c57610e8b85600283610e869190611add565b61103c565b5b84516020838201018581538151831115610ea4578282525b5050849250505092915050565b610ed1601f60058360ff16901b17835f0151610e4a90919063ffffffff16565b505050565b610ede6110ec565b5f845f01515190505f8184610ef39190611a1a565b90508560200151811115610f1857610f1786600283610f129190611add565b61103c565b5b5f600185610100610f299190611c4d565b610f339190611a4d565b905086518281018783198251161781528151841115610f50578382525b50508693505050509392505050565b610f676110ec565b8251821115610f74575f5ffd5b5f845f01515190505f8382610f899190611a1a565b90508560200151811115610fae57610fad86600283610fa89190611add565b61103c565b5b5f5f87518051856020830101935080851115610fc8578482525b60208901925050505b6020861061100f5780518252602082610fea9190611a1a565b9150602081610ff99190611a1a565b90506020866110089190611a4d565b9550610fd1565b5f6001876020036101000a0390508019825116818451168181178552505050879450505050509392505050565b5f825f0151905061104d8383610c18565b506110588382610e2e565b50505050565b6040518060e001604052805f600281111561107c5761107b61188b565b5b81526020015f60028111156110945761109361188b565b5b81526020015f5f8111156110ab576110aa61188b565b5b8152602001606081526020016060815260200160608152602001606081525090565b60405180604001604052806110e06110ec565b81526020015f81525090565b6040518060400160405280606081526020015f81525090565b5f604051905090565b5f5ffd5b5f5ffd5b5f819050919050565b61112881611116565b8114611132575f5ffd5b50565b5f813590506111438161111f565b92915050565b5f5ffd5b5f5ffd5b5f601f19601f8301169050919050565b7f4e487b71000000000000000000000000000000000000000000000000000000005f52604160045260245ffd5b61119782611151565b810181811067ffffffffffffffff821117156111b6576111b5611161565b5b80604052505050565b5f6111c8611105565b90506111d4828261118e565b919050565b5f67ffffffffffffffff8211156111f3576111f2611161565b5b6111fc82611151565b9050602081019050919050565b828183375f83830152505050565b5f611229611224846111d9565b6111bf565b9050828152602081018484840111156112455761124461114d565b5b611250848285611209565b509392505050565b5f82601f83011261126c5761126b611149565b5b813561127c848260208601611217565b91505092915050565b5f5f5f6060848603121561129c5761129b61110e565b5b5f6112a986828701611135565b935050602084013567ffffffffffffffff8111156112ca576112c9611112565b5b6112d686828701611258565b925050604084013567ffffffffffffffff8111156112f7576112f6611112565b5b61130386828701611258565b9150509250925092565b5f81519050919050565b5f82825260208201905092915050565b8281835e5f83830152505050565b5f61133f8261130d565b6113498185611317565b9350611359818560208601611327565b61136281611151565b840191505092915050565b5f6020820190508181035f8301526113858184611335565b905092915050565b5f81519050919050565b5f82825260208201905092915050565b5f6113b18261138d565b6113bb8185611397565b93506113cb818560208601611327565b6113d481611151565b840191505092915050565b5f6020820190508181035f8301526113f781846113a7565b905092915050565b5f67ffffffffffffffff82169050919050565b61141b816113ff565b8114611425575f5ffd5b50565b5f8135905061143681611412565b92915050565b5f602082840312156114515761145061110e565b5b5f61145e84828501611428565b91505092915050565b61147081611116565b82525050565b5f6020820190506114895f830184611467565b92915050565b7f4e487b71000000000000000000000000000000000000000000000000000000005f52602260045260245ffd5b5f60028204905060018216806114d357607f821691505b6020821081036114e6576114e561148f565b5b50919050565b5f819050815f5260205f209050919050565b5f6020601f8301049050919050565b5f82821b905092915050565b5f600883026115487fffffffffffffffffffffffffffffffffffffffffffffffffffffffffffffffff8261150d565b611552868361150d565b95508019841693508086168417925050509392505050565b5f819050919050565b5f819050919050565b5f61159661159161158c8461156a565b611573565b61156a565b9050919050565b5f819050919050565b6115af8361157c565b6115c36115bb8261159d565b848454611519565b825550505050565b5f5f905090565b6115da6115cb565b6115e58184846115a6565b505050565b5b81811015611608576115fd5f826115d2565b6001810190506115eb565b5050565b601f82111561164d5761161e816114ec565b611627846114fe565b81016020851015611636578190505b61164a611642856114fe565b8301826115ea565b50505b505050565b5f82821c905092915050565b5f61166d5f1984600802611652565b1980831691505092915050565b5f611685838361165e565b9150826002028217905092915050565b61169e8261130d565b67ffffffffffffffff8111156116b7576116b6611161565b5b6116c182546114bc565b6116cc82828561160c565b5f60209050601f8311600181146116fd575f84156116eb578287015190505b6116f5858261167a565b86555061175c565b601f19841661170b866114ec565b5f5b828110156117325784890151825560018201915060208501945060208101905061170d565b8683101561174f578489015161174b601f89168261165e565b8355505b6001600288020188555050505b505050505050565b5f819050815f5260205f209050919050565b601f8211156117b75761178881611764565b611791846114fe565b810160208510156117a0578190505b6117b46117ac856114fe565b8301826115ea565b50505b505050565b6117c58261138d565b67ffffffffffffffff8111156117de576117dd611161565b5b6117e882546114bc565b6117f3828285611776565b5f60209050601f831160018114611824575f8415611812578287015190505b61181c858261167a565b865550611883565b601f19841661183286611764565b5f5b8281101561185957848901518255600182019150602085019450602081019050611834565b868310156118765784890151611872601f89168261165e565b8355505b6001600288020188555050505b505050505050565b7f4e487b71000000000000000000000000000000000000000000000000000000005f52602160045260245ffd5b7f4e487b71000000000000000000000000000000000000000000000000000000005f52603260045260245ffd5b6118ee816113ff565b82525050565b5f61ffff82169050919050565b61190a816118f4565b82525050565b5f63ffffffff82169050919050565b61192881611910565b82525050565b5f60a0820190506119415f8301886118e5565b81810360208301526119538187611335565b90506119626040830186611901565b61196f606083018561191f565b61197c6080830184611467565b9695505050505050565b5f815190506119948161111f565b92915050565b5f602082840312156119af576119ae61110e565b5b5f6119bc84828501611986565b91505092915050565b6119ce8161156a565b82525050565b5f6020820190506119e75f8301846119c5565b92915050565b7f4e487b71000000000000000000000000000000000000000000000000000000005f52601160045260245ffd5b5f611a248261156a565b9150611a2f8361156a565b9250828201905080821115611a4757611a466119ed565b5b92915050565b5f611a578261156a565b9150611a628361156a565b9250828203905081811115611a7a57611a796119ed565b5b92915050565b7f4e487b71000000000000000000000000000000000000000000000000000000005f52601260045260245ffd5b5f611ab78261156a565b9150611ac28361156a565b925082611ad257611ad1611a80565b5b828206905092915050565b5f611ae78261156a565b9150611af28361156a565b9250828202611b008161156a565b91508282048414831517611b1757611b166119ed565b5b5092915050565b5f8160011c9050919050565b5f5f8291508390505b6001851115611b7357808604811115611b4f57611b4e6119ed565b5b6001851615611b5e5780820291505b8081029050611b6c85611b1e565b9450611b33565b94509492505050565b5f82611b8b5760019050611c46565b81611b98575f9050611c46565b8160018114611bae5760028114611bb857611be7565b6001915050611c46565b60ff841115611bca57611bc96119ed565b5b8360020a915084821115611be157611be06119ed565b5b50611c46565b5060208310610133831016604e8410600b8410161715611c1c5782820a905083811115611c1757611c166119ed565b5b611c46565b611c298484846001611b2a565b92509050818404811115611c4057611c3f6119ed565b5b81810290505b9392505050565b5f611c578261156a565b9150611c628361156a565b9250611c8f7fffffffffffffffffffffffffffffffffffffffffffffffffffffffffffffffff8484611b7c565b90509291505056fea2646970667358221220ba445a7aefd70ac846c6389bd12c86f101c8388607be5c5e8772d9bcdbad161164736f6c634300081f0033636f6e737420617069526573706f6e7365203d2061776169742046756e6374696f6e732e6d616b654874747052657175657374287b202075726c3a202768747470733a2f2f6170692e73616d706c65617069732e636f6d2f62656572732f616c65277d293b69662028617069526573706f6e73652e6572726f7229207468726f77204572726f722827415049204572726f7227293b636f6e737420626565724e616d65203d20617069526573706f6e73652e646174615b305d2e6e616d653b72657475726e2046756e6374696f6e732e656e636f6465537472696e6728626565724e616d65293b",
					"opcodes": "PUSH1 0xA0 PUSH1 0x40 MSTORE PUSH1 0x40 MLOAD DUP1 PUSH2 0x120 ADD PUSH1 0x40 MSTORE DUP1 PUSH1 0xE7 DUP2 MSTORE PUSH1 0x20 ADD PUSH2 0x2106 PUSH1 0xE7 SWAP2 CODECOPY PUSH0 SWAP1 DUP2 PUSH2 0x2B SWAP2 SWAP1 PUSH2 0x34B JUMP JUMPDEST POP PUSH20 0xB83E47C2BC239B3BF370BC41E1459A34B41238D0 PUSH1 0x5 PUSH0 PUSH2 0x100 EXP DUP2 SLOAD DUP2 PUSH20 0xFFFFFFFFFFFFFFFFFFFFFFFFFFFFFFFFFFFFFFFF MUL NOT AND SWAP1 DUP4 PUSH20 0xFFFFFFFFFFFFFFFFFFFFFFFFFFFFFFFFFFFFFFFF AND MUL OR SWAP1 SSTORE POP PUSH32 0x66756E2D657468657265756D2D7365706F6C69612D3100000000000000000000 PUSH0 SHL PUSH1 0x6 SSTORE CALLVALUE DUP1 ISZERO PUSH2 0xB1 JUMPI PUSH0 PUSH0 REVERT JUMPDEST POP PUSH1 0x5 PUSH0 SWAP1 SLOAD SWAP1 PUSH2 0x100 EXP SWAP1 DIV PUSH20 0xFFFFFFFFFFFFFFFFFFFFFFFFFFFFFFFFFFFFFFFF AND DUP1 PUSH20 0xFFFFFFFFFFFFFFFFFFFFFFFFFFFFFFFFFFFFFFFF AND PUSH1 0x80 DUP2 PUSH20 0xFFFFFFFFFFFFFFFFFFFFFFFFFFFFFFFFFFFFFFFF AND DUP2 MSTORE POP POP POP PUSH2 0x41A JUMP JUMPDEST PUSH0 DUP2 MLOAD SWAP1 POP SWAP2 SWAP1 POP JUMP JUMPDEST PUSH32 0x4E487B7100000000000000000000000000000000000000000000000000000000 PUSH0 MSTORE PUSH1 0x41 PUSH1 0x4 MSTORE PUSH1 0x24 PUSH0 REVERT JUMPDEST PUSH32 0x4E487B7100000000000000000000000000000000000000000000000000000000 PUSH0 MSTORE PUSH1 0x22 PUSH1 0x4 MSTORE PUSH1 0x24 PUSH0 REVERT JUMPDEST PUSH0 PUSH1 0x2 DUP3 DIV SWAP1 POP PUSH1 0x1 DUP3 AND DUP1 PUSH2 0x189 JUMPI PUSH1 0x7F DUP3 AND SWAP2 POP JUMPDEST PUSH1 0x20 DUP3 LT DUP2 SUB PUSH2 0x19C JUMPI PUSH2 0x19B PUSH2 0x145 JUMP JUMPDEST JUMPDEST POP SWAP2 SWAP1 POP JUMP JUMPDEST PUSH0 DUP2 SWAP1 POP DUP2 PUSH0 MSTORE PUSH1 0x20 PUSH0 KECCAK256 SWAP1 POP SWAP2 SWAP1 POP JUMP JUMPDEST PUSH0 PUSH1 0x20 PUSH1 0x1F DUP4 ADD DIV SWAP1 POP SWAP2 SWAP1 POP JUMP JUMPDEST PUSH0 DUP3 DUP3 SHL SWAP1 POP SWAP3 SWAP2 POP POP JUMP JUMPDEST PUSH0 PUSH1 0x8 DUP4 MUL PUSH2 0x1FE PUSH32 0xFFFFFFFFFFFFFFFFFFFFFFFFFFFFFFFFFFFFFFFFFFFFFFFFFFFFFFFFFFFFFFFF DUP3 PUSH2 0x1C3 JUMP JUMPDEST PUSH2 0x208 DUP7 DUP4 PUSH2 0x1C3 JUMP JUMPDEST SWAP6 POP DUP1 NOT DUP5 AND SWAP4 POP DUP1 DUP7 AND DUP5 OR SWAP3 POP POP POP SWAP4 SWAP3 POP POP POP JUMP JUMPDEST PUSH0 DUP2 SWAP1 POP SWAP2 SWAP1 POP JUMP JUMPDEST PUSH0 DUP2 SWAP1 POP SWAP2 SWAP1 POP JUMP JUMPDEST PUSH0 PUSH2 0x24C PUSH2 0x247 PUSH2 0x242 DUP5 PUSH2 0x220 JUMP JUMPDEST PUSH2 0x229 JUMP JUMPDEST PUSH2 0x220 JUMP JUMPDEST SWAP1 POP SWAP2 SWAP1 POP JUMP JUMPDEST PUSH0 DUP2 SWAP1 POP SWAP2 SWAP1 POP JUMP JUMPDEST PUSH2 0x265 DUP4 PUSH2 0x232 JUMP JUMPDEST PUSH2 0x279 PUSH2 0x271 DUP3 PUSH2 0x253 JUMP JUMPDEST DUP5 DUP5 SLOAD PUSH2 0x1CF JUMP JUMPDEST DUP3 SSTORE POP POP POP POP JUMP JUMPDEST PUSH0 PUSH0 SWAP1 POP SWAP1 JUMP JUMPDEST PUSH2 0x290 PUSH2 0x281 JUMP JUMPDEST PUSH2 0x29B DUP2 DUP5 DUP5 PUSH2 0x25C JUMP JUMPDEST POP POP POP JUMP JUMPDEST JUMPDEST DUP2 DUP2 LT ISZERO PUSH2 0x2BE JUMPI PUSH2 0x2B3 PUSH0 DUP3 PUSH2 0x288 JUMP JUMPDEST PUSH1 0x1 DUP2 ADD SWAP1 POP PUSH2 0x2A1 JUMP JUMPDEST POP POP JUMP JUMPDEST PUSH1 0x1F DUP3 GT ISZERO PUSH2 0x303 JUMPI PUSH2 0x2D4 DUP2 PUSH2 0x1A2 JUMP JUMPDEST PUSH2 0x2DD DUP5 PUSH2 0x1B4 JUMP JUMPDEST DUP2 ADD PUSH1 0x20 DUP6 LT ISZERO PUSH2 0x2EC JUMPI DUP2 SWAP1 POP JUMPDEST PUSH2 0x300 PUSH2 0x2F8 DUP6 PUSH2 0x1B4 JUMP JUMPDEST DUP4 ADD DUP3 PUSH2 0x2A0 JUMP JUMPDEST POP POP JUMPDEST POP POP POP JUMP JUMPDEST PUSH0 DUP3 DUP3 SHR SWAP1 POP SWAP3 SWAP2 POP POP JUMP JUMPDEST PUSH0 PUSH2 0x323 PUSH0 NOT DUP5 PUSH1 0x8 MUL PUSH2 0x308 JUMP JUMPDEST NOT DUP1 DUP4 AND SWAP2 POP POP SWAP3 SWAP2 POP POP JUMP JUMPDEST PUSH0 PUSH2 0x33B DUP4 DUP4 PUSH2 0x314 JUMP JUMPDEST SWAP2 POP DUP3 PUSH1 0x2 MUL DUP3 OR SWAP1 POP SWAP3 SWAP2 POP POP JUMP JUMPDEST PUSH2 0x354 DUP3 PUSH2 0x10E JUMP JUMPDEST PUSH8 0xFFFFFFFFFFFFFFFF DUP2 GT ISZERO PUSH2 0x36D JUMPI PUSH2 0x36C PUSH2 0x118 JUMP JUMPDEST JUMPDEST PUSH2 0x377 DUP3 SLOAD PUSH2 0x172 JUMP JUMPDEST PUSH2 0x382 DUP3 DUP3 DUP6 PUSH2 0x2C2 JUMP JUMPDEST PUSH0 PUSH1 0x20 SWAP1 POP PUSH1 0x1F DUP4 GT PUSH1 0x1 DUP2 EQ PUSH2 0x3B3 JUMPI PUSH0 DUP5 ISZERO PUSH2 0x3A1 JUMPI DUP3 DUP8 ADD MLOAD SWAP1 POP JUMPDEST PUSH2 0x3AB DUP6 DUP3 PUSH2 0x330 JUMP JUMPDEST DUP7 SSTORE POP PUSH2 0x412 JUMP JUMPDEST PUSH1 0x1F NOT DUP5 AND PUSH2 0x3C1 DUP7 PUSH2 0x1A2 JUMP JUMPDEST PUSH0 JUMPDEST DUP3 DUP2 LT ISZERO PUSH2 0x3E8 JUMPI DUP5 DUP10 ADD MLOAD DUP3 SSTORE PUSH1 0x1 DUP3 ADD SWAP2 POP PUSH1 0x20 DUP6 ADD SWAP5 POP PUSH1 0x20 DUP2 ADD SWAP1 POP PUSH2 0x3C3 JUMP JUMPDEST DUP7 DUP4 LT ISZERO PUSH2 0x405 JUMPI DUP5 DUP10 ADD MLOAD PUSH2 0x401 PUSH1 0x1F DUP10 AND DUP3 PUSH2 0x314 JUMP JUMPDEST DUP4 SSTORE POP JUMPDEST PUSH1 0x1 PUSH1 0x2 DUP9 MUL ADD DUP9 SSTORE POP POP POP JUMPDEST POP POP POP POP POP POP JUMP JUMPDEST PUSH1 0x80 MLOAD PUSH2 0x1CCD PUSH2 0x439 PUSH0 CODECOPY PUSH0 DUP2 DUP2 PUSH2 0x163 ADD MSTORE PUSH2 0x983 ADD MSTORE PUSH2 0x1CCD PUSH0 RETURN INVALID PUSH1 0x80 PUSH1 0x40 MSTORE CALLVALUE DUP1 ISZERO PUSH2 0xF JUMPI PUSH0 PUSH0 REVERT JUMPDEST POP PUSH1 0x4 CALLDATASIZE LT PUSH2 0x7B JUMPI PUSH0 CALLDATALOAD PUSH1 0xE0 SHR DUP1 PUSH4 0x62747E42 GT PUSH2 0x59 JUMPI DUP1 PUSH4 0x62747E42 EQ PUSH2 0xD7 JUMPI DUP1 PUSH4 0x67E828BF EQ PUSH2 0xF5 JUMPI DUP1 PUSH4 0xB5401332 EQ PUSH2 0x113 JUMPI DUP1 PUSH4 0xFC2A88C3 EQ PUSH2 0x143 JUMPI PUSH2 0x7B JUMP JUMPDEST DUP1 PUSH4 0xCA76175 EQ PUSH2 0x7F JUMPI DUP1 PUSH4 0x29F0DE3F EQ PUSH2 0x9B JUMPI DUP1 PUSH4 0x5E63AA46 EQ PUSH2 0xB9 JUMPI JUMPDEST PUSH0 PUSH0 REVERT JUMPDEST PUSH2 0x99 PUSH1 0x4 DUP1 CALLDATASIZE SUB DUP2 ADD SWAP1 PUSH2 0x94 SWAP2 SWAP1 PUSH2 0x1285 JUMP JUMPDEST PUSH2 0x161 JUMP JUMPDEST STOP JUMPDEST PUSH2 0xA3 PUSH2 0x223 JUMP JUMPDEST PUSH1 0x40 MLOAD PUSH2 0xB0 SWAP2 SWAP1 PUSH2 0x136D JUMP JUMPDEST PUSH1 0x40 MLOAD DUP1 SWAP2 SUB SWAP1 RETURN JUMPDEST PUSH2 0xC1 PUSH2 0x2AF JUMP JUMPDEST PUSH1 0x40 MLOAD PUSH2 0xCE SWAP2 SWAP1 PUSH2 0x13DF JUMP JUMPDEST PUSH1 0x40 MLOAD DUP1 SWAP2 SUB SWAP1 RETURN JUMPDEST PUSH2 0xDF PUSH2 0x33B JUMP JUMPDEST PUSH1 0x40 MLOAD PUSH2 0xEC SWAP2 SWAP1 PUSH2 0x136D JUMP JUMPDEST PUSH1 0x40 MLOAD DUP1 SWAP2 SUB SWAP1 RETURN JUMPDEST PUSH2 0xFD PUSH2 0x3C7 JUMP JUMPDEST PUSH1 0x40 MLOAD PUSH2 0x10A SWAP2 SWAP1 PUSH2 0x13DF JUMP JUMPDEST PUSH1 0x40 MLOAD DUP1 SWAP2 SUB SWAP1 RETURN JUMPDEST PUSH2 0x12D PUSH1 0x4 DUP1 CALLDATASIZE SUB DUP2 ADD SWAP1 PUSH2 0x128 SWAP2 SWAP1 PUSH2 0x143C JUMP JUMPDEST PUSH2 0x452 JUMP JUMPDEST PUSH1 0x40 MLOAD PUSH2 0x13A SWAP2 SWAP1 PUSH2 0x1476 JUMP JUMPDEST PUSH1 0x40 MLOAD DUP1 SWAP2 SUB SWAP1 RETURN JUMPDEST PUSH2 0x14B PUSH2 0x51F JUMP JUMPDEST PUSH1 0x40 MLOAD PUSH2 0x158 SWAP2 SWAP1 PUSH2 0x1476 JUMP JUMPDEST PUSH1 0x40 MLOAD DUP1 SWAP2 SUB SWAP1 RETURN JUMPDEST PUSH32 0x0 PUSH20 0xFFFFFFFFFFFFFFFFFFFFFFFFFFFFFFFFFFFFFFFF AND CALLER PUSH20 0xFFFFFFFFFFFFFFFFFFFFFFFFFFFFFFFFFFFFFFFF AND EQ PUSH2 0x1E6 JUMPI PUSH1 0x40 MLOAD PUSH32 0xC6829F8300000000000000000000000000000000000000000000000000000000 DUP2 MSTORE PUSH1 0x4 ADD PUSH1 0x40 MLOAD DUP1 SWAP2 SUB SWAP1 REVERT JUMPDEST PUSH2 0x1F1 DUP4 DUP4 DUP4 PUSH2 0x525 JUMP JUMPDEST DUP3 PUSH32 0x85E1543BF2F84FE80C6BADBCE3648C8539AD1DF4D2B3D822938CA0538BE727E6 PUSH1 0x40 MLOAD PUSH1 0x40 MLOAD DUP1 SWAP2 SUB SWAP1 LOG2 POP POP POP JUMP JUMPDEST PUSH1 0x4 DUP1 SLOAD PUSH2 0x230 SWAP1 PUSH2 0x14BC JUMP JUMPDEST DUP1 PUSH1 0x1F ADD PUSH1 0x20 DUP1 SWAP2 DIV MUL PUSH1 0x20 ADD PUSH1 0x40 MLOAD SWAP1 DUP2 ADD PUSH1 0x40 MSTORE DUP1 SWAP3 SWAP2 SWAP1 DUP2 DUP2 MSTORE PUSH1 0x20 ADD DUP3 DUP1 SLOAD PUSH2 0x25C SWAP1 PUSH2 0x14BC JUMP JUMPDEST DUP1 ISZERO PUSH2 0x2A7 JUMPI DUP1 PUSH1 0x1F LT PUSH2 0x27E JUMPI PUSH2 0x100 DUP1 DUP4 SLOAD DIV MUL DUP4 MSTORE SWAP2 PUSH1 0x20 ADD SWAP2 PUSH2 0x2A7 JUMP JUMPDEST DUP3 ADD SWAP2 SWAP1 PUSH0 MSTORE PUSH1 0x20 PUSH0 KECCAK256 SWAP1 JUMPDEST DUP2 SLOAD DUP2 MSTORE SWAP1 PUSH1 0x1 ADD SWAP1 PUSH1 0x20 ADD DUP1 DUP4 GT PUSH2 0x28A JUMPI DUP3 SWAP1 SUB PUSH1 0x1F AND DUP3 ADD SWAP2 JUMPDEST POP POP POP POP POP DUP2 JUMP JUMPDEST PUSH1 0x1 DUP1 SLOAD PUSH2 0x2BC SWAP1 PUSH2 0x14BC JUMP JUMPDEST DUP1 PUSH1 0x1F ADD PUSH1 0x20 DUP1 SWAP2 DIV MUL PUSH1 0x20 ADD PUSH1 0x40 MLOAD SWAP1 DUP2 ADD PUSH1 0x40 MSTORE DUP1 SWAP3 SWAP2 SWAP1 DUP2 DUP2 MSTORE PUSH1 0x20 ADD DUP3 DUP1 SLOAD PUSH2 0x2E8 SWAP1 PUSH2 0x14BC JUMP JUMPDEST DUP1 ISZERO PUSH2 0x333 JUMPI DUP1 PUSH1 0x1F LT PUSH2 0x30A JUMPI PUSH2 0x100 DUP1 DUP4 SLOAD DIV MUL DUP4 MSTORE SWAP2 PUSH1 0x20 ADD SWAP2 PUSH2 0x333 JUMP JUMPDEST DUP3 ADD SWAP2 SWAP1 PUSH0 MSTORE PUSH1 0x20 PUSH0 KECCAK256 SWAP1 JUMPDEST DUP2 SLOAD DUP2 MSTORE SWAP1 PUSH1 0x1 ADD SWAP1 PUSH1 0x20 ADD DUP1 DUP4 GT PUSH2 0x316 JUMPI DUP3 SWAP1 SUB PUSH1 0x1F AND DUP3 ADD SWAP2 JUMPDEST POP POP POP POP POP DUP2 JUMP JUMPDEST PUSH1 0x3 DUP1 SLOAD PUSH2 0x348 SWAP1 PUSH2 0x14BC JUMP JUMPDEST DUP1 PUSH1 0x1F ADD PUSH1 0x20 DUP1 SWAP2 DIV MUL PUSH1 0x20 ADD PUSH1 0x40 MLOAD SWAP1 DUP2 ADD PUSH1 0x40 MSTORE DUP1 SWAP3 SWAP2 SWAP1 DUP2 DUP2 MSTORE PUSH1 0x20 ADD DUP3 DUP1 SLOAD PUSH2 0x374 SWAP1 PUSH2 0x14BC JUMP JUMPDEST DUP1 ISZERO PUSH2 0x3BF JUMPI DUP1 PUSH1 0x1F LT PUSH2 0x396 JUMPI PUSH2 0x100 DUP1 DUP4 SLOAD DIV MUL DUP4 MSTORE SWAP2 PUSH1 0x20 ADD SWAP2 PUSH2 0x3BF JUMP JUMPDEST DUP3 ADD SWAP2 SWAP1 PUSH0 MSTORE PUSH1 0x20 PUSH0 KECCAK256 SWAP1 JUMPDEST DUP2 SLOAD DUP2 MSTORE SWAP1 PUSH1 0x1 ADD SWAP1 PUSH1 0x20 ADD DUP1 DUP4 GT PUSH2 0x3A2 JUMPI DUP3 SWAP1 SUB PUSH1 0x1F AND DUP3 ADD SWAP2 JUMPDEST POP POP POP POP POP DUP2 JUMP JUMPDEST PUSH0 DUP1 SLOAD PUSH2 0x3D3 SWAP1 PUSH2 0x14BC JUMP JUMPDEST DUP1 PUSH1 0x1F ADD PUSH1 0x20 DUP1 SWAP2 DIV MUL PUSH1 0x20 ADD PUSH1 0x40 MLOAD SWAP1 DUP2 ADD PUSH1 0x40 MSTORE DUP1 SWAP3 SWAP2 SWAP1 DUP2 DUP2 MSTORE PUSH1 0x20 ADD DUP3 DUP1 SLOAD PUSH2 0x3FF SWAP1 PUSH2 0x14BC JUMP JUMPDEST DUP1 ISZERO PUSH2 0x44A JUMPI DUP1 PUSH1 0x1F LT PUSH2 0x421 JUMPI PUSH2 0x100 DUP1 DUP4 SLOAD DIV MUL DUP4 MSTORE SWAP2 PUSH1 0x20 ADD SWAP2 PUSH2 0x44A JUMP JUMPDEST DUP3 ADD SWAP2 SWAP1 PUSH0 MSTORE PUSH1 0x20 PUSH0 KECCAK256 SWAP1 JUMPDEST DUP2 SLOAD DUP2 MSTORE SWAP1 PUSH1 0x1 ADD SWAP1 PUSH1 0x20 ADD DUP1 DUP4 GT PUSH2 0x42D JUMPI DUP3 SWAP1 SUB PUSH1 0x1F AND DUP3 ADD SWAP2 JUMPDEST POP POP POP POP POP DUP2 JUMP JUMPDEST PUSH0 PUSH2 0x45B PUSH2 0x105E JUMP JUMPDEST PUSH2 0x4F5 PUSH0 DUP1 SLOAD PUSH2 0x46A SWAP1 PUSH2 0x14BC JUMP JUMPDEST DUP1 PUSH1 0x1F ADD PUSH1 0x20 DUP1 SWAP2 DIV MUL PUSH1 0x20 ADD PUSH1 0x40 MLOAD SWAP1 DUP2 ADD PUSH1 0x40 MSTORE DUP1 SWAP3 SWAP2 SWAP1 DUP2 DUP2 MSTORE PUSH1 0x20 ADD DUP3 DUP1 SLOAD PUSH2 0x496 SWAP1 PUSH2 0x14BC JUMP JUMPDEST DUP1 ISZERO PUSH2 0x4E1 JUMPI DUP1 PUSH1 0x1F LT PUSH2 0x4B8 JUMPI PUSH2 0x100 DUP1 DUP4 SLOAD DIV MUL DUP4 MSTORE SWAP2 PUSH1 0x20 ADD SWAP2 PUSH2 0x4E1 JUMP JUMPDEST DUP3 ADD SWAP2 SWAP1 PUSH0 MSTORE PUSH1 0x20 PUSH0 KECCAK256 SWAP1 JUMPDEST DUP2 SLOAD DUP2 MSTORE SWAP1 PUSH1 0x1 ADD SWAP1 PUSH1 0x20 ADD DUP1 DUP4 GT PUSH2 0x4C4 JUMPI DUP3 SWAP1 SUB PUSH1 0x1F AND DUP3 ADD SWAP2 JUMPDEST POP POP POP POP POP DUP3 PUSH2 0x564 SWAP1 SWAP2 SWAP1 PUSH4 0xFFFFFFFF AND JUMP JUMPDEST PUSH2 0x50E PUSH2 0x501 DUP3 PUSH2 0x574 JUMP JUMPDEST DUP5 PUSH3 0x493E0 PUSH1 0x6 SLOAD PUSH2 0x97F JUMP JUMPDEST PUSH1 0x2 DUP2 SWAP1 SSTORE POP PUSH1 0x2 SLOAD SWAP2 POP POP SWAP2 SWAP1 POP JUMP JUMPDEST PUSH1 0x2 SLOAD DUP2 JUMP JUMPDEST DUP2 PUSH1 0x3 SWAP1 DUP2 PUSH2 0x534 SWAP2 SWAP1 PUSH2 0x1695 JUMP JUMPDEST POP DUP1 PUSH1 0x4 SWAP1 DUP2 PUSH2 0x544 SWAP2 SWAP1 PUSH2 0x1695 JUMP JUMPDEST POP PUSH0 DUP3 MLOAD GT ISZERO PUSH2 0x55F JUMPI DUP2 PUSH1 0x1 SWAP1 DUP2 PUSH2 0x55D SWAP2 SWAP1 PUSH2 0x17BC JUMP JUMPDEST POP JUMPDEST POP POP POP JUMP JUMPDEST PUSH2 0x570 DUP3 PUSH0 PUSH0 DUP5 PUSH2 0xA5E JUMP JUMPDEST POP POP JUMP JUMPDEST PUSH1 0x60 PUSH0 PUSH2 0x582 PUSH2 0x100 PUSH2 0xB04 JUMP JUMPDEST SWAP1 POP PUSH2 0x5CC PUSH1 0x40 MLOAD DUP1 PUSH1 0x40 ADD PUSH1 0x40 MSTORE DUP1 PUSH1 0xC DUP2 MSTORE PUSH1 0x20 ADD PUSH32 0x636F64654C6F636174696F6E0000000000000000000000000000000000000000 DUP2 MSTORE POP DUP3 PUSH2 0xB29 SWAP1 SWAP2 SWAP1 PUSH4 0xFFFFFFFF AND JUMP JUMPDEST PUSH2 0x5F4 DUP4 PUSH0 ADD MLOAD PUSH1 0x2 DUP2 GT ISZERO PUSH2 0x5E5 JUMPI PUSH2 0x5E4 PUSH2 0x188B JUMP JUMPDEST JUMPDEST DUP3 PUSH2 0xB51 SWAP1 SWAP2 SWAP1 PUSH4 0xFFFFFFFF AND JUMP JUMPDEST PUSH2 0x63C PUSH1 0x40 MLOAD DUP1 PUSH1 0x40 ADD PUSH1 0x40 MSTORE DUP1 PUSH1 0x8 DUP2 MSTORE PUSH1 0x20 ADD PUSH32 0x6C616E6775616765000000000000000000000000000000000000000000000000 DUP2 MSTORE POP DUP3 PUSH2 0xB29 SWAP1 SWAP2 SWAP1 PUSH4 0xFFFFFFFF AND JUMP JUMPDEST PUSH2 0x664 DUP4 PUSH1 0x40 ADD MLOAD PUSH0 DUP2 GT ISZERO PUSH2 0x655 JUMPI PUSH2 0x654 PUSH2 0x188B JUMP JUMPDEST JUMPDEST DUP3 PUSH2 0xB51 SWAP1 SWAP2 SWAP1 PUSH4 0xFFFFFFFF AND JUMP JUMPDEST PUSH2 0x6AC PUSH1 0x40 MLOAD DUP1 PUSH1 0x40 ADD PUSH1 0x40 MSTORE DUP1 PUSH1 0x6 DUP2 MSTORE PUSH1 0x20 ADD PUSH32 0x736F757263650000000000000000000000000000000000000000000000000000 DUP2 MSTORE POP DUP3 PUSH2 0xB29 SWAP1 SWAP2 SWAP1 PUSH4 0xFFFFFFFF AND JUMP JUMPDEST PUSH2 0x6C3 DUP4 PUSH1 0x60 ADD MLOAD DUP3 PUSH2 0xB29 SWAP1 SWAP2 SWAP1 PUSH4 0xFFFFFFFF AND JUMP JUMPDEST PUSH0 DUP4 PUSH1 0xA0 ADD MLOAD MLOAD GT ISZERO PUSH2 0x77A JUMPI PUSH2 0x718 PUSH1 0x40 MLOAD DUP1 PUSH1 0x40 ADD PUSH1 0x40 MSTORE DUP1 PUSH1 0x4 DUP2 MSTORE PUSH1 0x20 ADD PUSH32 0x6172677300000000000000000000000000000000000000000000000000000000 DUP2 MSTORE POP DUP3 PUSH2 0xB29 SWAP1 SWAP2 SWAP1 PUSH4 0xFFFFFFFF AND JUMP JUMPDEST PUSH2 0x721 DUP2 PUSH2 0xBA0 JUMP JUMPDEST PUSH0 PUSH0 SWAP1 POP JUMPDEST DUP4 PUSH1 0xA0 ADD MLOAD MLOAD DUP2 LT ISZERO PUSH2 0x76F JUMPI PUSH2 0x764 DUP5 PUSH1 0xA0 ADD MLOAD DUP3 DUP2 MLOAD DUP2 LT PUSH2 0x74D JUMPI PUSH2 0x74C PUSH2 0x18B8 JUMP JUMPDEST JUMPDEST PUSH1 0x20 MUL PUSH1 0x20 ADD ADD MLOAD DUP4 PUSH2 0xB29 SWAP1 SWAP2 SWAP1 PUSH4 0xFFFFFFFF AND JUMP JUMPDEST DUP1 PUSH1 0x1 ADD SWAP1 POP PUSH2 0x726 JUMP JUMPDEST POP PUSH2 0x779 DUP2 PUSH2 0xBC8 JUMP JUMPDEST JUMPDEST PUSH0 DUP4 PUSH1 0x80 ADD MLOAD MLOAD GT ISZERO PUSH2 0x8B9 JUMPI PUSH0 PUSH1 0x2 DUP2 GT ISZERO PUSH2 0x79A JUMPI PUSH2 0x799 PUSH2 0x188B JUMP JUMPDEST JUMPDEST DUP4 PUSH1 0x20 ADD MLOAD PUSH1 0x2 DUP2 GT ISZERO PUSH2 0x7B1 JUMPI PUSH2 0x7B0 PUSH2 0x188B JUMP JUMPDEST JUMPDEST SUB PUSH2 0x7E8 JUMPI PUSH1 0x40 MLOAD PUSH32 0xA80D31F700000000000000000000000000000000000000000000000000000000 DUP2 MSTORE PUSH1 0x4 ADD PUSH1 0x40 MLOAD DUP1 SWAP2 SUB SWAP1 REVERT JUMPDEST PUSH2 0x830 PUSH1 0x40 MLOAD DUP1 PUSH1 0x40 ADD PUSH1 0x40 MSTORE DUP1 PUSH1 0xF DUP2 MSTORE PUSH1 0x20 ADD PUSH32 0x736563726574734C6F636174696F6E0000000000000000000000000000000000 DUP2 MSTORE POP DUP3 PUSH2 0xB29 SWAP1 SWAP2 SWAP1 PUSH4 0xFFFFFFFF AND JUMP JUMPDEST PUSH2 0x859 DUP4 PUSH1 0x20 ADD MLOAD PUSH1 0x2 DUP2 GT ISZERO PUSH2 0x84A JUMPI PUSH2 0x849 PUSH2 0x188B JUMP JUMPDEST JUMPDEST DUP3 PUSH2 0xB51 SWAP1 SWAP2 SWAP1 PUSH4 0xFFFFFFFF AND JUMP JUMPDEST PUSH2 0x8A1 PUSH1 0x40 MLOAD DUP1 PUSH1 0x40 ADD PUSH1 0x40 MSTORE DUP1 PUSH1 0x7 DUP2 MSTORE PUSH1 0x20 ADD PUSH32 0x7365637265747300000000000000000000000000000000000000000000000000 DUP2 MSTORE POP DUP3 PUSH2 0xB29 SWAP1 SWAP2 SWAP1 PUSH4 0xFFFFFFFF AND JUMP JUMPDEST PUSH2 0x8B8 DUP4 PUSH1 0x80 ADD MLOAD DUP3 PUSH2 0xBF0 SWAP1 SWAP2 SWAP1 PUSH4 0xFFFFFFFF AND JUMP JUMPDEST JUMPDEST PUSH0 DUP4 PUSH1 0xC0 ADD MLOAD MLOAD GT ISZERO PUSH2 0x970 JUMPI PUSH2 0x90E PUSH1 0x40 MLOAD DUP1 PUSH1 0x40 ADD PUSH1 0x40 MSTORE DUP1 PUSH1 0x9 DUP2 MSTORE PUSH1 0x20 ADD PUSH32 0x6279746573417267730000000000000000000000000000000000000000000000 DUP2 MSTORE POP DUP3 PUSH2 0xB29 SWAP1 SWAP2 SWAP1 PUSH4 0xFFFFFFFF AND JUMP JUMPDEST PUSH2 0x917 DUP2 PUSH2 0xBA0 JUMP JUMPDEST PUSH0 PUSH0 SWAP1 POP JUMPDEST DUP4 PUSH1 0xC0 ADD MLOAD MLOAD DUP2 LT ISZERO PUSH2 0x965 JUMPI PUSH2 0x95A DUP5 PUSH1 0xC0 ADD MLOAD DUP3 DUP2 MLOAD DUP2 LT PUSH2 0x943 JUMPI PUSH2 0x942 PUSH2 0x18B8 JUMP JUMPDEST JUMPDEST PUSH1 0x20 MUL PUSH1 0x20 ADD ADD MLOAD DUP4 PUSH2 0xBF0 SWAP1 SWAP2 SWAP1 PUSH4 0xFFFFFFFF AND JUMP JUMPDEST DUP1 PUSH1 0x1 ADD SWAP1 POP PUSH2 0x91C JUMP JUMPDEST POP PUSH2 0x96F DUP2 PUSH2 0xBC8 JUMP JUMPDEST JUMPDEST DUP1 PUSH0 ADD MLOAD PUSH0 ADD MLOAD SWAP2 POP POP SWAP2 SWAP1 POP JUMP JUMPDEST PUSH0 PUSH0 PUSH32 0x0 PUSH20 0xFFFFFFFFFFFFFFFFFFFFFFFFFFFFFFFFFFFFFFFF AND PUSH4 0x461D2762 DUP7 DUP9 PUSH1 0x1 DUP9 DUP9 PUSH1 0x40 MLOAD DUP7 PUSH4 0xFFFFFFFF AND PUSH1 0xE0 SHL DUP2 MSTORE PUSH1 0x4 ADD PUSH2 0x9E3 SWAP6 SWAP5 SWAP4 SWAP3 SWAP2 SWAP1 PUSH2 0x192E JUMP JUMPDEST PUSH1 0x20 PUSH1 0x40 MLOAD DUP1 DUP4 SUB DUP2 PUSH0 DUP8 GAS CALL ISZERO DUP1 ISZERO PUSH2 0x9FF JUMPI RETURNDATASIZE PUSH0 PUSH0 RETURNDATACOPY RETURNDATASIZE PUSH0 REVERT JUMPDEST POP POP POP POP PUSH1 0x40 MLOAD RETURNDATASIZE PUSH1 0x1F NOT PUSH1 0x1F DUP3 ADD AND DUP3 ADD DUP1 PUSH1 0x40 MSTORE POP DUP2 ADD SWAP1 PUSH2 0xA23 SWAP2 SWAP1 PUSH2 0x199A JUMP JUMPDEST SWAP1 POP DUP1 PUSH32 0x1131472297A800FEE664D1D89CFA8F7676FF07189ECC53F80BBB5F4969099DB8 PUSH1 0x40 MLOAD PUSH1 0x40 MLOAD DUP1 SWAP2 SUB SWAP1 LOG2 DUP1 SWAP2 POP POP SWAP5 SWAP4 POP POP POP POP JUMP JUMPDEST PUSH0 DUP2 MLOAD SUB PUSH2 0xA98 JUMPI PUSH1 0x40 MLOAD PUSH32 0x22CE3EDD00000000000000000000000000000000000000000000000000000000 DUP2 MSTORE PUSH1 0x4 ADD PUSH1 0x40 MLOAD DUP1 SWAP2 SUB SWAP1 REVERT JUMPDEST DUP3 DUP5 PUSH0 ADD SWAP1 PUSH1 0x2 DUP2 GT ISZERO PUSH2 0xAAF JUMPI PUSH2 0xAAE PUSH2 0x188B JUMP JUMPDEST JUMPDEST SWAP1 DUP2 PUSH1 0x2 DUP2 GT ISZERO PUSH2 0xAC3 JUMPI PUSH2 0xAC2 PUSH2 0x188B JUMP JUMPDEST JUMPDEST DUP2 MSTORE POP POP DUP2 DUP5 PUSH1 0x40 ADD SWAP1 PUSH0 DUP2 GT ISZERO PUSH2 0xADE JUMPI PUSH2 0xADD PUSH2 0x188B JUMP JUMPDEST JUMPDEST SWAP1 DUP2 PUSH0 DUP2 GT ISZERO PUSH2 0xAF1 JUMPI PUSH2 0xAF0 PUSH2 0x188B JUMP JUMPDEST JUMPDEST DUP2 MSTORE POP POP DUP1 DUP5 PUSH1 0x60 ADD DUP2 SWAP1 MSTORE POP POP POP POP POP JUMP JUMPDEST PUSH2 0xB0C PUSH2 0x10CD JUMP JUMPDEST PUSH2 0xB19 DUP2 PUSH0 ADD MLOAD DUP4 PUSH2 0xC18 JUMP JUMPDEST POP PUSH0 DUP2 PUSH1 0x20 ADD DUP2 DUP2 MSTORE POP POP SWAP2 SWAP1 POP JUMP JUMPDEST PUSH2 0xB36 DUP3 PUSH1 0x3 DUP4 MLOAD PUSH2 0xC8E JUMP JUMPDEST PUSH2 0xB4C DUP2 DUP4 PUSH0 ADD MLOAD PUSH2 0xE2E SWAP1 SWAP2 SWAP1 PUSH4 0xFFFFFFFF AND JUMP JUMPDEST POP POP POP JUMP JUMPDEST PUSH2 0xB72 PUSH1 0x2 PUSH1 0x5 PUSH1 0x6 PUSH1 0xFF AND SWAP1 SHL OR DUP4 PUSH0 ADD MLOAD PUSH2 0xE4A SWAP1 SWAP2 SWAP1 PUSH4 0xFFFFFFFF AND JUMP JUMPDEST POP PUSH2 0xB9C DUP3 DUP3 PUSH1 0x40 MLOAD PUSH1 0x20 ADD PUSH2 0xB88 SWAP2 SWAP1 PUSH2 0x19D4 JUMP JUMPDEST PUSH1 0x40 MLOAD PUSH1 0x20 DUP2 DUP4 SUB SUB DUP2 MSTORE SWAP1 PUSH1 0x40 MSTORE PUSH2 0xBF0 JUMP JUMPDEST POP POP JUMP JUMPDEST PUSH2 0xBAB DUP2 PUSH1 0x4 PUSH2 0xEB1 JUMP JUMPDEST PUSH1 0x1 DUP2 PUSH1 0x20 ADD DUP2 DUP2 MLOAD PUSH2 0xBBE SWAP2 SWAP1 PUSH2 0x1A1A JUMP JUMPDEST SWAP2 POP DUP2 DUP2 MSTORE POP POP POP JUMP JUMPDEST PUSH2 0xBD3 DUP2 PUSH1 0x7 PUSH2 0xEB1 JUMP JUMPDEST PUSH1 0x1 DUP2 PUSH1 0x20 ADD DUP2 DUP2 MLOAD PUSH2 0xBE6 SWAP2 SWAP1 PUSH2 0x1A4D JUMP JUMPDEST SWAP2 POP DUP2 DUP2 MSTORE POP POP POP JUMP JUMPDEST PUSH2 0xBFD DUP3 PUSH1 0x2 DUP4 MLOAD PUSH2 0xC8E JUMP JUMPDEST PUSH2 0xC13 DUP2 DUP4 PUSH0 ADD MLOAD PUSH2 0xE2E SWAP1 SWAP2 SWAP1 PUSH4 0xFFFFFFFF AND JUMP JUMPDEST POP POP POP JUMP JUMPDEST PUSH2 0xC20 PUSH2 0x10EC JUMP JUMPDEST PUSH0 PUSH1 0x20 DUP4 PUSH2 0xC2E SWAP2 SWAP1 PUSH2 0x1AAD JUMP JUMPDEST EQ PUSH2 0xC5A JUMPI PUSH1 0x20 DUP3 PUSH2 0xC40 SWAP2 SWAP1 PUSH2 0x1AAD JUMP JUMPDEST PUSH1 0x20 PUSH2 0xC4C SWAP2 SWAP1 PUSH2 0x1A4D JUMP JUMPDEST DUP3 PUSH2 0xC57 SWAP2 SWAP1 PUSH2 0x1A1A JUMP JUMPDEST SWAP2 POP JUMPDEST DUP2 DUP4 PUSH1 0x20 ADD DUP2 DUP2 MSTORE POP POP PUSH1 0x40 MLOAD DUP1 DUP5 MSTORE PUSH0 DUP2 MSTORE DUP3 DUP2 ADD PUSH1 0x20 ADD DUP2 DUP2 LT ISZERO PUSH2 0xC7F JUMPI PUSH0 PUSH0 REVERT JUMPDEST DUP1 PUSH1 0x40 MSTORE POP POP DUP3 SWAP1 POP SWAP3 SWAP2 POP POP JUMP JUMPDEST PUSH1 0x17 DUP2 PUSH8 0xFFFFFFFFFFFFFFFF AND GT PUSH2 0xCC8 JUMPI PUSH2 0xCC2 DUP2 PUSH1 0x5 DUP5 PUSH1 0xFF AND SWAP1 SHL PUSH1 0xFF AND OR DUP5 PUSH0 ADD MLOAD PUSH2 0xE4A SWAP1 SWAP2 SWAP1 PUSH4 0xFFFFFFFF AND JUMP JUMPDEST POP PUSH2 0xE29 JUMP JUMPDEST PUSH1 0xFF DUP2 PUSH8 0xFFFFFFFFFFFFFFFF AND GT PUSH2 0xD24 JUMPI PUSH2 0xCFA PUSH1 0x18 PUSH1 0x5 DUP5 PUSH1 0xFF AND SWAP1 SHL OR DUP5 PUSH0 ADD MLOAD PUSH2 0xE4A SWAP1 SWAP2 SWAP1 PUSH4 0xFFFFFFFF AND JUMP JUMPDEST POP PUSH2 0xD1E DUP2 PUSH8 0xFFFFFFFFFFFFFFFF AND PUSH1 0x1 DUP6 PUSH0 ADD MLOAD PUSH2 0xED6 SWAP1 SWAP3 SWAP2 SWAP1 PUSH4 0xFFFFFFFF AND JUMP JUMPDEST POP PUSH2 0xE28 JUMP JUMPDEST PUSH2 0xFFFF DUP2 PUSH8 0xFFFFFFFFFFFFFFFF AND GT PUSH2 0xD81 JUMPI PUSH2 0xD57 PUSH1 0x19 PUSH1 0x5 DUP5 PUSH1 0xFF AND SWAP1 SHL OR DUP5 PUSH0 ADD MLOAD PUSH2 0xE4A SWAP1 SWAP2 SWAP1 PUSH4 0xFFFFFFFF AND JUMP JUMPDEST POP PUSH2 0xD7B DUP2 PUSH8 0xFFFFFFFFFFFFFFFF AND PUSH1 0x2 DUP6 PUSH0 ADD MLOAD PUSH2 0xED6 SWAP1 SWAP3 SWAP2 SWAP1 PUSH4 0xFFFFFFFF AND JUMP JUMPDEST POP PUSH2 0xE27 JUMP JUMPDEST PUSH4 0xFFFFFFFF DUP2 PUSH8 0xFFFFFFFFFFFFFFFF AND GT PUSH2 0xDE0 JUMPI PUSH2 0xDB6 PUSH1 0x1A PUSH1 0x5 DUP5 PUSH1 0xFF AND SWAP1 SHL OR DUP5 PUSH0 ADD MLOAD PUSH2 0xE4A SWAP1 SWAP2 SWAP1 PUSH4 0xFFFFFFFF AND JUMP JUMPDEST POP PUSH2 0xDDA DUP2 PUSH8 0xFFFFFFFFFFFFFFFF AND PUSH1 0x4 DUP6 PUSH0 ADD MLOAD PUSH2 0xED6 SWAP1 SWAP3 SWAP2 SWAP1 PUSH4 0xFFFFFFFF AND JUMP JUMPDEST POP PUSH2 0xE26 JUMP JUMPDEST PUSH2 0xE00 PUSH1 0x1B PUSH1 0x5 DUP5 PUSH1 0xFF AND SWAP1 SHL OR DUP5 PUSH0 ADD MLOAD PUSH2 0xE4A SWAP1 SWAP2 SWAP1 PUSH4 0xFFFFFFFF AND JUMP JUMPDEST POP PUSH2 0xE24 DUP2 PUSH8 0xFFFFFFFFFFFFFFFF AND PUSH1 0x8 DUP6 PUSH0 ADD MLOAD PUSH2 0xED6 SWAP1 SWAP3 SWAP2 SWAP1 PUSH4 0xFFFFFFFF AND JUMP JUMPDEST POP JUMPDEST JUMPDEST JUMPDEST JUMPDEST POP POP POP JUMP JUMPDEST PUSH2 0xE36 PUSH2 0x10EC JUMP JUMPDEST PUSH2 0xE42 DUP4 DUP4 DUP5 MLOAD PUSH2 0xF5F JUMP JUMPDEST SWAP1 POP SWAP3 SWAP2 POP POP JUMP JUMPDEST PUSH2 0xE52 PUSH2 0x10EC JUMP JUMPDEST PUSH0 DUP4 PUSH0 ADD MLOAD MLOAD SWAP1 POP PUSH0 PUSH1 0x1 DUP3 PUSH2 0xE68 SWAP2 SWAP1 PUSH2 0x1A1A JUMP JUMPDEST SWAP1 POP DUP5 PUSH1 0x20 ADD MLOAD DUP3 LT PUSH2 0xE8C JUMPI PUSH2 0xE8B DUP6 PUSH1 0x2 DUP4 PUSH2 0xE86 SWAP2 SWAP1 PUSH2 0x1ADD JUMP JUMPDEST PUSH2 0x103C JUMP JUMPDEST JUMPDEST DUP5 MLOAD PUSH1 0x20 DUP4 DUP3 ADD ADD DUP6 DUP2 MSTORE8 DUP2 MLOAD DUP4 GT ISZERO PUSH2 0xEA4 JUMPI DUP3 DUP3 MSTORE JUMPDEST POP POP DUP5 SWAP3 POP POP POP SWAP3 SWAP2 POP POP JUMP JUMPDEST PUSH2 0xED1 PUSH1 0x1F PUSH1 0x5 DUP4 PUSH1 0xFF AND SWAP1 SHL OR DUP4 PUSH0 ADD MLOAD PUSH2 0xE4A SWAP1 SWAP2 SWAP1 PUSH4 0xFFFFFFFF AND JUMP JUMPDEST POP POP POP JUMP JUMPDEST PUSH2 0xEDE PUSH2 0x10EC JUMP JUMPDEST PUSH0 DUP5 PUSH0 ADD MLOAD MLOAD SWAP1 POP PUSH0 DUP2 DUP5 PUSH2 0xEF3 SWAP2 SWAP1 PUSH2 0x1A1A JUMP JUMPDEST SWAP1 POP DUP6 PUSH1 0x20 ADD MLOAD DUP2 GT ISZERO PUSH2 0xF18 JUMPI PUSH2 0xF17 DUP7 PUSH1 0x2 DUP4 PUSH2 0xF12 SWAP2 SWAP1 PUSH2 0x1ADD JUMP JUMPDEST PUSH2 0x103C JUMP JUMPDEST JUMPDEST PUSH0 PUSH1 0x1 DUP6 PUSH2 0x100 PUSH2 0xF29 SWAP2 SWAP1 PUSH2 0x1C4D JUMP JUMPDEST PUSH2 0xF33 SWAP2 SWAP1 PUSH2 0x1A4D JUMP JUMPDEST SWAP1 POP DUP7 MLOAD DUP3 DUP2 ADD DUP8 DUP4 NOT DUP3 MLOAD AND OR DUP2 MSTORE DUP2 MLOAD DUP5 GT ISZERO PUSH2 0xF50 JUMPI DUP4 DUP3 MSTORE JUMPDEST POP POP DUP7 SWAP4 POP POP POP POP SWAP4 SWAP3 POP POP POP JUMP JUMPDEST PUSH2 0xF67 PUSH2 0x10EC JUMP JUMPDEST DUP3 MLOAD DUP3 GT ISZERO PUSH2 0xF74 JUMPI PUSH0 PUSH0 REVERT JUMPDEST PUSH0 DUP5 PUSH0 ADD MLOAD MLOAD SWAP1 POP PUSH0 DUP4 DUP3 PUSH2 0xF89 SWAP2 SWAP1 PUSH2 0x1A1A JUMP JUMPDEST SWAP1 POP DUP6 PUSH1 0x20 ADD MLOAD DUP2 GT ISZERO PUSH2 0xFAE JUMPI PUSH2 0xFAD DUP7 PUSH1 0x2 DUP4 PUSH2 0xFA8 SWAP2 SWAP1 PUSH2 0x1ADD JUMP JUMPDEST PUSH2 0x103C JUMP JUMPDEST JUMPDEST PUSH0 PUSH0 DUP8 MLOAD DUP1 MLOAD DUP6 PUSH1 0x20 DUP4 ADD ADD SWAP4 POP DUP1 DUP6 GT ISZERO PUSH2 0xFC8 JUMPI DUP5 DUP3 MSTORE JUMPDEST PUSH1 0x20 DUP10 ADD SWAP3 POP POP POP JUMPDEST PUSH1 0x20 DUP7 LT PUSH2 0x100F JUMPI DUP1 MLOAD DUP3 MSTORE PUSH1 0x20 DUP3 PUSH2 0xFEA SWAP2 SWAP1 PUSH2 0x1A1A JUMP JUMPDEST SWAP2 POP PUSH1 0x20 DUP2 PUSH2 0xFF9 SWAP2 SWAP1 PUSH2 0x1A1A JUMP JUMPDEST SWAP1 POP PUSH1 0x20 DUP7 PUSH2 0x1008 SWAP2 SWAP1 PUSH2 0x1A4D JUMP JUMPDEST SWAP6 POP PUSH2 0xFD1 JUMP JUMPDEST PUSH0 PUSH1 0x1 DUP8 PUSH1 0x20 SUB PUSH2 0x100 EXP SUB SWAP1 POP DUP1 NOT DUP3 MLOAD AND DUP2 DUP5 MLOAD AND DUP2 DUP2 OR DUP6 MSTORE POP POP POP DUP8 SWAP5 POP POP POP POP POP SWAP4 SWAP3 POP POP POP JUMP JUMPDEST PUSH0 DUP3 PUSH0 ADD MLOAD SWAP1 POP PUSH2 0x104D DUP4 DUP4 PUSH2 0xC18 JUMP JUMPDEST POP PUSH2 0x1058 DUP4 DUP3 PUSH2 0xE2E JUMP JUMPDEST POP POP POP POP JUMP JUMPDEST PUSH1 0x40 MLOAD DUP1 PUSH1 0xE0 ADD PUSH1 0x40 MSTORE DUP1 PUSH0 PUSH1 0x2 DUP2 GT ISZERO PUSH2 0x107C JUMPI PUSH2 0x107B PUSH2 0x188B JUMP JUMPDEST JUMPDEST DUP2 MSTORE PUSH1 0x20 ADD PUSH0 PUSH1 0x2 DUP2 GT ISZERO PUSH2 0x1094 JUMPI PUSH2 0x1093 PUSH2 0x188B JUMP JUMPDEST JUMPDEST DUP2 MSTORE PUSH1 0x20 ADD PUSH0 PUSH0 DUP2 GT ISZERO PUSH2 0x10AB JUMPI PUSH2 0x10AA PUSH2 0x188B JUMP JUMPDEST JUMPDEST DUP2 MSTORE PUSH1 0x20 ADD PUSH1 0x60 DUP2 MSTORE PUSH1 0x20 ADD PUSH1 0x60 DUP2 MSTORE PUSH1 0x20 ADD PUSH1 0x60 DUP2 MSTORE PUSH1 0x20 ADD PUSH1 0x60 DUP2 MSTORE POP SWAP1 JUMP JUMPDEST PUSH1 0x40 MLOAD DUP1 PUSH1 0x40 ADD PUSH1 0x40 MSTORE DUP1 PUSH2 0x10E0 PUSH2 0x10EC JUMP JUMPDEST DUP2 MSTORE PUSH1 0x20 ADD PUSH0 DUP2 MSTORE POP SWAP1 JUMP JUMPDEST PUSH1 0x40 MLOAD DUP1 PUSH1 0x40 ADD PUSH1 0x40 MSTORE DUP1 PUSH1 0x60 DUP2 MSTORE PUSH1 0x20 ADD PUSH0 DUP2 MSTORE POP SWAP1 JUMP JUMPDEST PUSH0 PUSH1 0x40 MLOAD SWAP1 POP SWAP1 JUMP JUMPDEST PUSH0 PUSH0 REVERT JUMPDEST PUSH0 PUSH0 REVERT JUMPDEST PUSH0 DUP2 SWAP1 POP SWAP2 SWAP1 POP JUMP JUMPDEST PUSH2 0x1128 DUP2 PUSH2 0x1116 JUMP JUMPDEST DUP2 EQ PUSH2 0x1132 JUMPI PUSH0 PUSH0 REVERT JUMPDEST POP JUMP JUMPDEST PUSH0 DUP2 CALLDATALOAD SWAP1 POP PUSH2 0x1143 DUP2 PUSH2 0x111F JUMP JUMPDEST SWAP3 SWAP2 POP POP JUMP JUMPDEST PUSH0 PUSH0 REVERT JUMPDEST PUSH0 PUSH0 REVERT JUMPDEST PUSH0 PUSH1 0x1F NOT PUSH1 0x1F DUP4 ADD AND SWAP1 POP SWAP2 SWAP1 POP JUMP JUMPDEST PUSH32 0x4E487B7100000000000000000000000000000000000000000000000000000000 PUSH0 MSTORE PUSH1 0x41 PUSH1 0x4 MSTORE PUSH1 0x24 PUSH0 REVERT JUMPDEST PUSH2 0x1197 DUP3 PUSH2 0x1151 JUMP JUMPDEST DUP2 ADD DUP2 DUP2 LT PUSH8 0xFFFFFFFFFFFFFFFF DUP3 GT OR ISZERO PUSH2 0x11B6 JUMPI PUSH2 0x11B5 PUSH2 0x1161 JUMP JUMPDEST JUMPDEST DUP1 PUSH1 0x40 MSTORE POP POP POP JUMP JUMPDEST PUSH0 PUSH2 0x11C8 PUSH2 0x1105 JUMP JUMPDEST SWAP1 POP PUSH2 0x11D4 DUP3 DUP3 PUSH2 0x118E JUMP JUMPDEST SWAP2 SWAP1 POP JUMP JUMPDEST PUSH0 PUSH8 0xFFFFFFFFFFFFFFFF DUP3 GT ISZERO PUSH2 0x11F3 JUMPI PUSH2 0x11F2 PUSH2 0x1161 JUMP JUMPDEST JUMPDEST PUSH2 0x11FC DUP3 PUSH2 0x1151 JUMP JUMPDEST SWAP1 POP PUSH1 0x20 DUP2 ADD SWAP1 POP SWAP2 SWAP1 POP JUMP JUMPDEST DUP3 DUP2 DUP4 CALLDATACOPY PUSH0 DUP4 DUP4 ADD MSTORE POP POP POP JUMP JUMPDEST PUSH0 PUSH2 0x1229 PUSH2 0x1224 DUP5 PUSH2 0x11D9 JUMP JUMPDEST PUSH2 0x11BF JUMP JUMPDEST SWAP1 POP DUP3 DUP2 MSTORE PUSH1 0x20 DUP2 ADD DUP5 DUP5 DUP5 ADD GT ISZERO PUSH2 0x1245 JUMPI PUSH2 0x1244 PUSH2 0x114D JUMP JUMPDEST JUMPDEST PUSH2 0x1250 DUP5 DUP3 DUP6 PUSH2 0x1209 JUMP JUMPDEST POP SWAP4 SWAP3 POP POP POP JUMP JUMPDEST PUSH0 DUP3 PUSH1 0x1F DUP4 ADD SLT PUSH2 0x126C JUMPI PUSH2 0x126B PUSH2 0x1149 JUMP JUMPDEST JUMPDEST DUP2 CALLDATALOAD PUSH2 0x127C DUP5 DUP3 PUSH1 0x20 DUP7 ADD PUSH2 0x1217 JUMP JUMPDEST SWAP2 POP POP SWAP3 SWAP2 POP POP JUMP JUMPDEST PUSH0 PUSH0 PUSH0 PUSH1 0x60 DUP5 DUP7 SUB SLT ISZERO PUSH2 0x129C JUMPI PUSH2 0x129B PUSH2 0x110E JUMP JUMPDEST JUMPDEST PUSH0 PUSH2 0x12A9 DUP7 DUP3 DUP8 ADD PUSH2 0x1135 JUMP JUMPDEST SWAP4 POP POP PUSH1 0x20 DUP5 ADD CALLDATALOAD PUSH8 0xFFFFFFFFFFFFFFFF DUP2 GT ISZERO PUSH2 0x12CA JUMPI PUSH2 0x12C9 PUSH2 0x1112 JUMP JUMPDEST JUMPDEST PUSH2 0x12D6 DUP7 DUP3 DUP8 ADD PUSH2 0x1258 JUMP JUMPDEST SWAP3 POP POP PUSH1 0x40 DUP5 ADD CALLDATALOAD PUSH8 0xFFFFFFFFFFFFFFFF DUP2 GT ISZERO PUSH2 0x12F7 JUMPI PUSH2 0x12F6 PUSH2 0x1112 JUMP JUMPDEST JUMPDEST PUSH2 0x1303 DUP7 DUP3 DUP8 ADD PUSH2 0x1258 JUMP JUMPDEST SWAP2 POP POP SWAP3 POP SWAP3 POP SWAP3 JUMP JUMPDEST PUSH0 DUP2 MLOAD SWAP1 POP SWAP2 SWAP1 POP JUMP JUMPDEST PUSH0 DUP3 DUP3 MSTORE PUSH1 0x20 DUP3 ADD SWAP1 POP SWAP3 SWAP2 POP POP JUMP JUMPDEST DUP3 DUP2 DUP4 MCOPY PUSH0 DUP4 DUP4 ADD MSTORE POP POP POP JUMP JUMPDEST PUSH0 PUSH2 0x133F DUP3 PUSH2 0x130D JUMP JUMPDEST PUSH2 0x1349 DUP2 DUP6 PUSH2 0x1317 JUMP JUMPDEST SWAP4 POP PUSH2 0x1359 DUP2 DUP6 PUSH1 0x20 DUP7 ADD PUSH2 0x1327 JUMP JUMPDEST PUSH2 0x1362 DUP2 PUSH2 0x1151 JUMP JUMPDEST DUP5 ADD SWAP2 POP POP SWAP3 SWAP2 POP POP JUMP JUMPDEST PUSH0 PUSH1 0x20 DUP3 ADD SWAP1 POP DUP2 DUP2 SUB PUSH0 DUP4 ADD MSTORE PUSH2 0x1385 DUP2 DUP5 PUSH2 0x1335 JUMP JUMPDEST SWAP1 POP SWAP3 SWAP2 POP POP JUMP JUMPDEST PUSH0 DUP2 MLOAD SWAP1 POP SWAP2 SWAP1 POP JUMP JUMPDEST PUSH0 DUP3 DUP3 MSTORE PUSH1 0x20 DUP3 ADD SWAP1 POP SWAP3 SWAP2 POP POP JUMP JUMPDEST PUSH0 PUSH2 0x13B1 DUP3 PUSH2 0x138D JUMP JUMPDEST PUSH2 0x13BB DUP2 DUP6 PUSH2 0x1397 JUMP JUMPDEST SWAP4 POP PUSH2 0x13CB DUP2 DUP6 PUSH1 0x20 DUP7 ADD PUSH2 0x1327 JUMP JUMPDEST PUSH2 0x13D4 DUP2 PUSH2 0x1151 JUMP JUMPDEST DUP5 ADD SWAP2 POP POP SWAP3 SWAP2 POP POP JUMP JUMPDEST PUSH0 PUSH1 0x20 DUP3 ADD SWAP1 POP DUP2 DUP2 SUB PUSH0 DUP4 ADD MSTORE PUSH2 0x13F7 DUP2 DUP5 PUSH2 0x13A7 JUMP JUMPDEST SWAP1 POP SWAP3 SWAP2 POP POP JUMP JUMPDEST PUSH0 PUSH8 0xFFFFFFFFFFFFFFFF DUP3 AND SWAP1 POP SWAP2 SWAP1 POP JUMP JUMPDEST PUSH2 0x141B DUP2 PUSH2 0x13FF JUMP JUMPDEST DUP2 EQ PUSH2 0x1425 JUMPI PUSH0 PUSH0 REVERT JUMPDEST POP JUMP JUMPDEST PUSH0 DUP2 CALLDATALOAD SWAP1 POP PUSH2 0x1436 DUP2 PUSH2 0x1412 JUMP JUMPDEST SWAP3 SWAP2 POP POP JUMP JUMPDEST PUSH0 PUSH1 0x20 DUP3 DUP5 SUB SLT ISZERO PUSH2 0x1451 JUMPI PUSH2 0x1450 PUSH2 0x110E JUMP JUMPDEST JUMPDEST PUSH0 PUSH2 0x145E DUP5 DUP3 DUP6 ADD PUSH2 0x1428 JUMP JUMPDEST SWAP2 POP POP SWAP3 SWAP2 POP POP JUMP JUMPDEST PUSH2 0x1470 DUP2 PUSH2 0x1116 JUMP JUMPDEST DUP3 MSTORE POP POP JUMP JUMPDEST PUSH0 PUSH1 0x20 DUP3 ADD SWAP1 POP PUSH2 0x1489 PUSH0 DUP4 ADD DUP5 PUSH2 0x1467 JUMP JUMPDEST SWAP3 SWAP2 POP POP JUMP JUMPDEST PUSH32 0x4E487B7100000000000000000000000000000000000000000000000000000000 PUSH0 MSTORE PUSH1 0x22 PUSH1 0x4 MSTORE PUSH1 0x24 PUSH0 REVERT JUMPDEST PUSH0 PUSH1 0x2 DUP3 DIV SWAP1 POP PUSH1 0x1 DUP3 AND DUP1 PUSH2 0x14D3 JUMPI PUSH1 0x7F DUP3 AND SWAP2 POP JUMPDEST PUSH1 0x20 DUP3 LT DUP2 SUB PUSH2 0x14E6 JUMPI PUSH2 0x14E5 PUSH2 0x148F JUMP JUMPDEST JUMPDEST POP SWAP2 SWAP1 POP JUMP JUMPDEST PUSH0 DUP2 SWAP1 POP DUP2 PUSH0 MSTORE PUSH1 0x20 PUSH0 KECCAK256 SWAP1 POP SWAP2 SWAP1 POP JUMP JUMPDEST PUSH0 PUSH1 0x20 PUSH1 0x1F DUP4 ADD DIV SWAP1 POP SWAP2 SWAP1 POP JUMP JUMPDEST PUSH0 DUP3 DUP3 SHL SWAP1 POP SWAP3 SWAP2 POP POP JUMP JUMPDEST PUSH0 PUSH1 0x8 DUP4 MUL PUSH2 0x1548 PUSH32 0xFFFFFFFFFFFFFFFFFFFFFFFFFFFFFFFFFFFFFFFFFFFFFFFFFFFFFFFFFFFFFFFF DUP3 PUSH2 0x150D JUMP JUMPDEST PUSH2 0x1552 DUP7 DUP4 PUSH2 0x150D JUMP JUMPDEST SWAP6 POP DUP1 NOT DUP5 AND SWAP4 POP DUP1 DUP7 AND DUP5 OR SWAP3 POP POP POP SWAP4 SWAP3 POP POP POP JUMP JUMPDEST PUSH0 DUP2 SWAP1 POP SWAP2 SWAP1 POP JUMP JUMPDEST PUSH0 DUP2 SWAP1 POP SWAP2 SWAP1 POP JUMP JUMPDEST PUSH0 PUSH2 0x1596 PUSH2 0x1591 PUSH2 0x158C DUP5 PUSH2 0x156A JUMP JUMPDEST PUSH2 0x1573 JUMP JUMPDEST PUSH2 0x156A JUMP JUMPDEST SWAP1 POP SWAP2 SWAP1 POP JUMP JUMPDEST PUSH0 DUP2 SWAP1 POP SWAP2 SWAP1 POP JUMP JUMPDEST PUSH2 0x15AF DUP4 PUSH2 0x157C JUMP JUMPDEST PUSH2 0x15C3 PUSH2 0x15BB DUP3 PUSH2 0x159D JUMP JUMPDEST DUP5 DUP5 SLOAD PUSH2 0x1519 JUMP JUMPDEST DUP3 SSTORE POP POP POP POP JUMP JUMPDEST PUSH0 PUSH0 SWAP1 POP SWAP1 JUMP JUMPDEST PUSH2 0x15DA PUSH2 0x15CB JUMP JUMPDEST PUSH2 0x15E5 DUP2 DUP5 DUP5 PUSH2 0x15A6 JUMP JUMPDEST POP POP POP JUMP JUMPDEST JUMPDEST DUP2 DUP2 LT ISZERO PUSH2 0x1608 JUMPI PUSH2 0x15FD PUSH0 DUP3 PUSH2 0x15D2 JUMP JUMPDEST PUSH1 0x1 DUP2 ADD SWAP1 POP PUSH2 0x15EB JUMP JUMPDEST POP POP JUMP JUMPDEST PUSH1 0x1F DUP3 GT ISZERO PUSH2 0x164D JUMPI PUSH2 0x161E DUP2 PUSH2 0x14EC JUMP JUMPDEST PUSH2 0x1627 DUP5 PUSH2 0x14FE JUMP JUMPDEST DUP2 ADD PUSH1 0x20 DUP6 LT ISZERO PUSH2 0x1636 JUMPI DUP2 SWAP1 POP JUMPDEST PUSH2 0x164A PUSH2 0x1642 DUP6 PUSH2 0x14FE JUMP JUMPDEST DUP4 ADD DUP3 PUSH2 0x15EA JUMP JUMPDEST POP POP JUMPDEST POP POP POP JUMP JUMPDEST PUSH0 DUP3 DUP3 SHR SWAP1 POP SWAP3 SWAP2 POP POP JUMP JUMPDEST PUSH0 PUSH2 0x166D PUSH0 NOT DUP5 PUSH1 0x8 MUL PUSH2 0x1652 JUMP JUMPDEST NOT DUP1 DUP4 AND SWAP2 POP POP SWAP3 SWAP2 POP POP JUMP JUMPDEST PUSH0 PUSH2 0x1685 DUP4 DUP4 PUSH2 0x165E JUMP JUMPDEST SWAP2 POP DUP3 PUSH1 0x2 MUL DUP3 OR SWAP1 POP SWAP3 SWAP2 POP POP JUMP JUMPDEST PUSH2 0x169E DUP3 PUSH2 0x130D JUMP JUMPDEST PUSH8 0xFFFFFFFFFFFFFFFF DUP2 GT ISZERO PUSH2 0x16B7 JUMPI PUSH2 0x16B6 PUSH2 0x1161 JUMP JUMPDEST JUMPDEST PUSH2 0x16C1 DUP3 SLOAD PUSH2 0x14BC JUMP JUMPDEST PUSH2 0x16CC DUP3 DUP3 DUP6 PUSH2 0x160C JUMP JUMPDEST PUSH0 PUSH1 0x20 SWAP1 POP PUSH1 0x1F DUP4 GT PUSH1 0x1 DUP2 EQ PUSH2 0x16FD JUMPI PUSH0 DUP5 ISZERO PUSH2 0x16EB JUMPI DUP3 DUP8 ADD MLOAD SWAP1 POP JUMPDEST PUSH2 0x16F5 DUP6 DUP3 PUSH2 0x167A JUMP JUMPDEST DUP7 SSTORE POP PUSH2 0x175C JUMP JUMPDEST PUSH1 0x1F NOT DUP5 AND PUSH2 0x170B DUP7 PUSH2 0x14EC JUMP JUMPDEST PUSH0 JUMPDEST DUP3 DUP2 LT ISZERO PUSH2 0x1732 JUMPI DUP5 DUP10 ADD MLOAD DUP3 SSTORE PUSH1 0x1 DUP3 ADD SWAP2 POP PUSH1 0x20 DUP6 ADD SWAP5 POP PUSH1 0x20 DUP2 ADD SWAP1 POP PUSH2 0x170D JUMP JUMPDEST DUP7 DUP4 LT ISZERO PUSH2 0x174F JUMPI DUP5 DUP10 ADD MLOAD PUSH2 0x174B PUSH1 0x1F DUP10 AND DUP3 PUSH2 0x165E JUMP JUMPDEST DUP4 SSTORE POP JUMPDEST PUSH1 0x1 PUSH1 0x2 DUP9 MUL ADD DUP9 SSTORE POP POP POP JUMPDEST POP POP POP POP POP POP JUMP JUMPDEST PUSH0 DUP2 SWAP1 POP DUP2 PUSH0 MSTORE PUSH1 0x20 PUSH0 KECCAK256 SWAP1 POP SWAP2 SWAP1 POP JUMP JUMPDEST PUSH1 0x1F DUP3 GT ISZERO PUSH2 0x17B7 JUMPI PUSH2 0x1788 DUP2 PUSH2 0x1764 JUMP JUMPDEST PUSH2 0x1791 DUP5 PUSH2 0x14FE JUMP JUMPDEST DUP2 ADD PUSH1 0x20 DUP6 LT ISZERO PUSH2 0x17A0 JUMPI DUP2 SWAP1 POP JUMPDEST PUSH2 0x17B4 PUSH2 0x17AC DUP6 PUSH2 0x14FE JUMP JUMPDEST DUP4 ADD DUP3 PUSH2 0x15EA JUMP JUMPDEST POP POP JUMPDEST POP POP POP JUMP JUMPDEST PUSH2 0x17C5 DUP3 PUSH2 0x138D JUMP JUMPDEST PUSH8 0xFFFFFFFFFFFFFFFF DUP2 GT ISZERO PUSH2 0x17DE JUMPI PUSH2 0x17DD PUSH2 0x1161 JUMP JUMPDEST JUMPDEST PUSH2 0x17E8 DUP3 SLOAD PUSH2 0x14BC JUMP JUMPDEST PUSH2 0x17F3 DUP3 DUP3 DUP6 PUSH2 0x1776 JUMP JUMPDEST PUSH0 PUSH1 0x20 SWAP1 POP PUSH1 0x1F DUP4 GT PUSH1 0x1 DUP2 EQ PUSH2 0x1824 JUMPI PUSH0 DUP5 ISZERO PUSH2 0x1812 JUMPI DUP3 DUP8 ADD MLOAD SWAP1 POP JUMPDEST PUSH2 0x181C DUP6 DUP3 PUSH2 0x167A JUMP JUMPDEST DUP7 SSTORE POP PUSH2 0x1883 JUMP JUMPDEST PUSH1 0x1F NOT DUP5 AND PUSH2 0x1832 DUP7 PUSH2 0x1764 JUMP JUMPDEST PUSH0 JUMPDEST DUP3 DUP2 LT ISZERO PUSH2 0x1859 JUMPI DUP5 DUP10 ADD MLOAD DUP3 SSTORE PUSH1 0x1 DUP3 ADD SWAP2 POP PUSH1 0x20 DUP6 ADD SWAP5 POP PUSH1 0x20 DUP2 ADD SWAP1 POP PUSH2 0x1834 JUMP JUMPDEST DUP7 DUP4 LT ISZERO PUSH2 0x1876 JUMPI DUP5 DUP10 ADD MLOAD PUSH2 0x1872 PUSH1 0x1F DUP10 AND DUP3 PUSH2 0x165E JUMP JUMPDEST DUP4 SSTORE POP JUMPDEST PUSH1 0x1 PUSH1 0x2 DUP9 MUL ADD DUP9 SSTORE POP POP POP JUMPDEST POP POP POP POP POP POP JUMP JUMPDEST PUSH32 0x4E487B7100000000000000000000000000000000000000000000000000000000 PUSH0 MSTORE PUSH1 0x21 PUSH1 0x4 MSTORE PUSH1 0x24 PUSH0 REVERT JUMPDEST PUSH32 0x4E487B7100000000000000000000000000000000000000000000000000000000 PUSH0 MSTORE PUSH1 0x32 PUSH1 0x4 MSTORE PUSH1 0x24 PUSH0 REVERT JUMPDEST PUSH2 0x18EE DUP2 PUSH2 0x13FF JUMP JUMPDEST DUP3 MSTORE POP POP JUMP JUMPDEST PUSH0 PUSH2 0xFFFF DUP3 AND SWAP1 POP SWAP2 SWAP1 POP JUMP JUMPDEST PUSH2 0x190A DUP2 PUSH2 0x18F4 JUMP JUMPDEST DUP3 MSTORE POP POP JUMP JUMPDEST PUSH0 PUSH4 0xFFFFFFFF DUP3 AND SWAP1 POP SWAP2 SWAP1 POP JUMP JUMPDEST PUSH2 0x1928 DUP2 PUSH2 0x1910 JUMP JUMPDEST DUP3 MSTORE POP POP JUMP JUMPDEST PUSH0 PUSH1 0xA0 DUP3 ADD SWAP1 POP PUSH2 0x1941 PUSH0 DUP4 ADD DUP9 PUSH2 0x18E5 JUMP JUMPDEST DUP2 DUP2 SUB PUSH1 0x20 DUP4 ADD MSTORE PUSH2 0x1953 DUP2 DUP8 PUSH2 0x1335 JUMP JUMPDEST SWAP1 POP PUSH2 0x1962 PUSH1 0x40 DUP4 ADD DUP7 PUSH2 0x1901 JUMP JUMPDEST PUSH2 0x196F PUSH1 0x60 DUP4 ADD DUP6 PUSH2 0x191F JUMP JUMPDEST PUSH2 0x197C PUSH1 0x80 DUP4 ADD DUP5 PUSH2 0x1467 JUMP JUMPDEST SWAP7 SWAP6 POP POP POP POP POP POP JUMP JUMPDEST PUSH0 DUP2 MLOAD SWAP1 POP PUSH2 0x1994 DUP2 PUSH2 0x111F JUMP JUMPDEST SWAP3 SWAP2 POP POP JUMP JUMPDEST PUSH0 PUSH1 0x20 DUP3 DUP5 SUB SLT ISZERO PUSH2 0x19AF JUMPI PUSH2 0x19AE PUSH2 0x110E JUMP JUMPDEST JUMPDEST PUSH0 PUSH2 0x19BC DUP5 DUP3 DUP6 ADD PUSH2 0x1986 JUMP JUMPDEST SWAP2 POP POP SWAP3 SWAP2 POP POP JUMP JUMPDEST PUSH2 0x19CE DUP2 PUSH2 0x156A JUMP JUMPDEST DUP3 MSTORE POP POP JUMP JUMPDEST PUSH0 PUSH1 0x20 DUP3 ADD SWAP1 POP PUSH2 0x19E7 PUSH0 DUP4 ADD DUP5 PUSH2 0x19C5 JUMP JUMPDEST SWAP3 SWAP2 POP POP JUMP JUMPDEST PUSH32 0x4E487B7100000000000000000000000000000000000000000000000000000000 PUSH0 MSTORE PUSH1 0x11 PUSH1 0x4 MSTORE PUSH1 0x24 PUSH0 REVERT JUMPDEST PUSH0 PUSH2 0x1A24 DUP3 PUSH2 0x156A JUMP JUMPDEST SWAP2 POP PUSH2 0x1A2F DUP4 PUSH2 0x156A JUMP JUMPDEST SWAP3 POP DUP3 DUP3 ADD SWAP1 POP DUP1 DUP3 GT ISZERO PUSH2 0x1A47 JUMPI PUSH2 0x1A46 PUSH2 0x19ED JUMP JUMPDEST JUMPDEST SWAP3 SWAP2 POP POP JUMP JUMPDEST PUSH0 PUSH2 0x1A57 DUP3 PUSH2 0x156A JUMP JUMPDEST SWAP2 POP PUSH2 0x1A62 DUP4 PUSH2 0x156A JUMP JUMPDEST SWAP3 POP DUP3 DUP3 SUB SWAP1 POP DUP2 DUP2 GT ISZERO PUSH2 0x1A7A JUMPI PUSH2 0x1A79 PUSH2 0x19ED JUMP JUMPDEST JUMPDEST SWAP3 SWAP2 POP POP JUMP JUMPDEST PUSH32 0x4E487B7100000000000000000000000000000000000000000000000000000000 PUSH0 MSTORE PUSH1 0x12 PUSH1 0x4 MSTORE PUSH1 0x24 PUSH0 REVERT JUMPDEST PUSH0 PUSH2 0x1AB7 DUP3 PUSH2 0x156A JUMP JUMPDEST SWAP2 POP PUSH2 0x1AC2 DUP4 PUSH2 0x156A JUMP JUMPDEST SWAP3 POP DUP3 PUSH2 0x1AD2 JUMPI PUSH2 0x1AD1 PUSH2 0x1A80 JUMP JUMPDEST JUMPDEST DUP3 DUP3 MOD SWAP1 POP SWAP3 SWAP2 POP POP JUMP JUMPDEST PUSH0 PUSH2 0x1AE7 DUP3 PUSH2 0x156A JUMP JUMPDEST SWAP2 POP PUSH2 0x1AF2 DUP4 PUSH2 0x156A JUMP JUMPDEST SWAP3 POP DUP3 DUP3 MUL PUSH2 0x1B00 DUP2 PUSH2 0x156A JUMP JUMPDEST SWAP2 POP DUP3 DUP3 DIV DUP5 EQ DUP4 ISZERO OR PUSH2 0x1B17 JUMPI PUSH2 0x1B16 PUSH2 0x19ED JUMP JUMPDEST JUMPDEST POP SWAP3 SWAP2 POP POP JUMP JUMPDEST PUSH0 DUP2 PUSH1 0x1 SHR SWAP1 POP SWAP2 SWAP1 POP JUMP JUMPDEST PUSH0 PUSH0 DUP3 SWAP2 POP DUP4 SWAP1 POP JUMPDEST PUSH1 0x1 DUP6 GT ISZERO PUSH2 0x1B73 JUMPI DUP1 DUP7 DIV DUP2 GT ISZERO PUSH2 0x1B4F JUMPI PUSH2 0x1B4E PUSH2 0x19ED JUMP JUMPDEST JUMPDEST PUSH1 0x1 DUP6 AND ISZERO PUSH2 0x1B5E JUMPI DUP1 DUP3 MUL SWAP2 POP JUMPDEST DUP1 DUP2 MUL SWAP1 POP PUSH2 0x1B6C DUP6 PUSH2 0x1B1E JUMP JUMPDEST SWAP5 POP PUSH2 0x1B33 JUMP JUMPDEST SWAP5 POP SWAP5 SWAP3 POP POP POP JUMP JUMPDEST PUSH0 DUP3 PUSH2 0x1B8B JUMPI PUSH1 0x1 SWAP1 POP PUSH2 0x1C46 JUMP JUMPDEST DUP2 PUSH2 0x1B98 JUMPI PUSH0 SWAP1 POP PUSH2 0x1C46 JUMP JUMPDEST DUP2 PUSH1 0x1 DUP2 EQ PUSH2 0x1BAE JUMPI PUSH1 0x2 DUP2 EQ PUSH2 0x1BB8 JUMPI PUSH2 0x1BE7 JUMP JUMPDEST PUSH1 0x1 SWAP2 POP POP PUSH2 0x1C46 JUMP JUMPDEST PUSH1 0xFF DUP5 GT ISZERO PUSH2 0x1BCA JUMPI PUSH2 0x1BC9 PUSH2 0x19ED JUMP JUMPDEST JUMPDEST DUP4 PUSH1 0x2 EXP SWAP2 POP DUP5 DUP3 GT ISZERO PUSH2 0x1BE1 JUMPI PUSH2 0x1BE0 PUSH2 0x19ED JUMP JUMPDEST JUMPDEST POP PUSH2 0x1C46 JUMP JUMPDEST POP PUSH1 0x20 DUP4 LT PUSH2 0x133 DUP4 LT AND PUSH1 0x4E DUP5 LT PUSH1 0xB DUP5 LT AND OR ISZERO PUSH2 0x1C1C JUMPI DUP3 DUP3 EXP SWAP1 POP DUP4 DUP2 GT ISZERO PUSH2 0x1C17 JUMPI PUSH2 0x1C16 PUSH2 0x19ED JUMP JUMPDEST JUMPDEST PUSH2 0x1C46 JUMP JUMPDEST PUSH2 0x1C29 DUP5 DUP5 DUP5 PUSH1 0x1 PUSH2 0x1B2A JUMP JUMPDEST SWAP3 POP SWAP1 POP DUP2 DUP5 DIV DUP2 GT ISZERO PUSH2 0x1C40 JUMPI PUSH2 0x1C3F PUSH2 0x19ED JUMP JUMPDEST JUMPDEST DUP2 DUP2 MUL SWAP1 POP JUMPDEST SWAP4 SWAP3 POP POP POP JUMP JUMPDEST PUSH0 PUSH2 0x1C57 DUP3 PUSH2 0x156A JUMP JUMPDEST SWAP2 POP PUSH2 0x1C62 DUP4 PUSH2 0x156A JUMP JUMPDEST SWAP3 POP PUSH2 0x1C8F PUSH32 0xFFFFFFFFFFFFFFFFFFFFFFFFFFFFFFFFFFFFFFFFFFFFFFFFFFFFFFFFFFFFFFFF DUP5 DUP5 PUSH2 0x1B7C JUMP JUMPDEST SWAP1 POP SWAP3 SWAP2 POP POP JUMP INVALID LOG2 PUSH5 0x6970667358 0x22 SLT KECCAK256 0xBA PREVRANDAO GAS PUSH27 0xEFD70AC846C6389BD12C86F101C8388607BE5C5E8772D9BCDBAD16 GT PUSH5 0x736F6C6343 STOP ADDMOD 0x1F STOP CALLER PUSH4 0x6F6E7374 KECCAK256 PUSH2 0x7069 MSTORE PUSH6 0x73706F6E7365 KECCAK256 RETURNDATASIZE KECCAK256 PUSH2 0x7761 PUSH10 0x742046756E6374696F6E PUSH20 0x2E6D616B654874747052657175657374287B2020 PUSH22 0x726C3A202768747470733A2F2F6170692E73616D706C PUSH6 0x617069732E63 PUSH16 0x6D2F62656572732F616C65277D293B69 PUSH7 0x20286170695265 PUSH20 0x706F6E73652E6572726F7229207468726F772045 PUSH19 0x726F722827415049204572726F7227293B636F PUSH15 0x737420626565724E616D65203D2061 PUSH17 0x69526573706F6E73652E646174615B305D 0x2E PUSH15 0x616D653B72657475726E2046756E63 PUSH21 0x696F6E732E656E636F6465537472696E6728626565 PUSH19 0x4E616D65293B00000000000000000000000000 "
				},
				"gasEstimates": {
					"creation": {
						"codeDepositCost": "1474600",
						"executionCost": "infinite",
						"totalCost": "infinite"
					},
					"external": {
						"handleOracleFulfillment(bytes32,bytes,bytes)": "infinite",
						"lastBeerName()": "infinite",
						"lastError()": "infinite",
						"lastRequestId()": "2491",
						"lastResponse()": "infinite",
						"requestBeerData(uint64)": "infinite",
						"source()": "infinite"
					},
					"internal": {
						"fulfillRequest(bytes32,bytes memory,bytes memory)": "infinite"
					}
				},
				"methodIdentifiers": {
					"handleOracleFulfillment(bytes32,bytes,bytes)": "0ca76175",
					"lastBeerName()": "5e63aa46",
					"lastError()": "29f0de3f",
					"lastRequestId()": "fc2a88c3",
					"lastResponse()": "62747e42",
					"requestBeerData(uint64)": "b5401332",
					"source()": "67e828bf"
				}
			},
			"storageLayout": {
				"storage": [
					{
						"astId": 2082,
						"contract": "contracts/ChainlInkFunctions.sol:BeerConsumer",
						"label": "source",
						"offset": 0,
						"slot": "0",
						"type": "t_string_storage"
					},
					{
						"astId": 2084,
						"contract": "contracts/ChainlInkFunctions.sol:BeerConsumer",
						"label": "lastBeerName",
						"offset": 0,
						"slot": "1",
						"type": "t_string_storage"
					},
					{
						"astId": 2086,
						"contract": "contracts/ChainlInkFunctions.sol:BeerConsumer",
						"label": "lastRequestId",
						"offset": 0,
						"slot": "2",
						"type": "t_bytes32"
					},
					{
						"astId": 2088,
						"contract": "contracts/ChainlInkFunctions.sol:BeerConsumer",
						"label": "lastResponse",
						"offset": 0,
						"slot": "3",
						"type": "t_bytes_storage"
					},
					{
						"astId": 2090,
						"contract": "contracts/ChainlInkFunctions.sol:BeerConsumer",
						"label": "lastError",
						"offset": 0,
						"slot": "4",
						"type": "t_bytes_storage"
					},
					{
						"astId": 2093,
						"contract": "contracts/ChainlInkFunctions.sol:BeerConsumer",
						"label": "router",
						"offset": 0,
						"slot": "5",
						"type": "t_address"
					},
					{
						"astId": 2096,
						"contract": "contracts/ChainlInkFunctions.sol:BeerConsumer",
						"label": "donID",
						"offset": 0,
						"slot": "6",
						"type": "t_bytes32"
					}
				],
				"types": {
					"t_address": {
						"encoding": "inplace",
						"label": "address",
						"numberOfBytes": "20"
					},
					"t_bytes32": {
						"encoding": "inplace",
						"label": "bytes32",
						"numberOfBytes": "32"
					},
					"t_bytes_storage": {
						"encoding": "bytes",
						"label": "bytes",
						"numberOfBytes": "32"
					},
					"t_string_storage": {
						"encoding": "bytes",
						"label": "string",
						"numberOfBytes": "32"
					}
				}
			},
			"userdoc": {
				"kind": "user",
				"methods": {
					"handleOracleFulfillment(bytes32,bytes,bytes)": {
						"notice": "Chainlink Functions response handler called by the Functions Router during fullilment from the designated transmitter node in an OCR round."
					},
					"requestBeerData(uint64)": {
						"notice": "Отправляет запрос к API"
					}
				},
				"version": 1
			}
		}
	}
}