{
	"contracts/ChainLInkFunctions.sol": {
		"BeerConsumer": {
			"abi": [
				{
					"inputs": [
						{
							"internalType": "address",
							"name": "router",
							"type": "address"
						}
					],
					"stateMutability": "nonpayable",
					"type": "constructor"
				},
				{
					"inputs": [],
					"name": "EmptySource",
					"type": "error"
				},
				{
					"inputs": [],
					"name": "NoInlineSecrets",
					"type": "error"
				},
				{
					"inputs": [],
					"name": "OnlyRouterCanFulfill",
					"type": "error"
				},
				{
					"anonymous": false,
					"inputs": [
						{
							"indexed": true,
							"internalType": "bytes32",
							"name": "id",
							"type": "bytes32"
						}
					],
					"name": "RequestFulfilled",
					"type": "event"
				},
				{
					"anonymous": false,
					"inputs": [
						{
							"indexed": true,
							"internalType": "bytes32",
							"name": "id",
							"type": "bytes32"
						}
					],
					"name": "RequestSent",
					"type": "event"
				},
				{
					"inputs": [
						{
							"internalType": "bytes32",
							"name": "requestId",
							"type": "bytes32"
						},
						{
							"internalType": "bytes",
							"name": "response",
							"type": "bytes"
						},
						{
							"internalType": "bytes",
							"name": "err",
							"type": "bytes"
						}
					],
					"name": "handleOracleFulfillment",
					"outputs": [],
					"stateMutability": "nonpayable",
					"type": "function"
				},
				{
					"inputs": [],
					"name": "lastBeerName",
					"outputs": [
						{
							"internalType": "string",
							"name": "",
							"type": "string"
						}
					],
					"stateMutability": "view",
					"type": "function"
				},
				{
					"inputs": [],
					"name": "lastRequestId",
					"outputs": [
						{
							"internalType": "bytes32",
							"name": "",
							"type": "bytes32"
						}
					],
					"stateMutability": "view",
					"type": "function"
				},
				{
					"inputs": [
						{
							"internalType": "string",
							"name": "source",
							"type": "string"
						},
						{
							"internalType": "uint64",
							"name": "subscriptionId",
							"type": "uint64"
						},
						{
							"internalType": "uint32",
							"name": "gasLimit",
							"type": "uint32"
						},
						{
							"internalType": "bytes32",
							"name": "donID",
							"type": "bytes32"
						}
					],
					"name": "requestBeerData",
					"outputs": [
						{
							"internalType": "bytes32",
							"name": "",
							"type": "bytes32"
						}
					],
					"stateMutability": "nonpayable",
					"type": "function"
				}
			],
			"devdoc": {
				"kind": "dev",
				"methods": {
					"handleOracleFulfillment(bytes32,bytes,bytes)": {
						"details": "Either response or error parameter will be set, but never both.",
						"params": {
							"err": "Aggregated error either from the request's source code or from the execution pipeline.",
							"requestId": "The requestId returned by FunctionsClient.sendRequest().",
							"response": "Aggregated response from the request's source code."
						}
					}
				},
				"version": 1
			},
			"evm": {
				"assembly": "    /* \"contracts/ChainLInkFunctions.sol\":271:1698  contract BeerConsumer is FunctionsClient {... */\n  mstore(0x40, 0xa0)\n    /* \"contracts/ChainLInkFunctions.sol\":589:643  constructor(address router) FunctionsClient(router) {} */\n  callvalue\n  dup1\n  iszero\n  tag_1\n  jumpi\n  revert(0x00, 0x00)\ntag_1:\n  pop\n  mload(0x40)\n  sub(codesize, bytecodeSize)\n  dup1\n  bytecodeSize\n  dup4\n  codecopy\n  dup2\n  dup2\n  add\n  0x40\n  mstore\n  dup2\n  add\n  swap1\n  tag_2\n  swap2\n  swap1\n  tag_3\n  jump\t// in\ntag_2:\n    /* \"contracts/ChainLInkFunctions.sol\":633:639  router */\n  dup1\n    /* \"@chainlink/contracts/src/v0.8/functions/v1_0_0/FunctionsClient.sol\":772:778  router */\n  dup1\n    /* \"@chainlink/contracts/src/v0.8/functions/v1_0_0/FunctionsClient.sol\":744:779  i_router = IFunctionsRouter(router) */\n  0xffffffffffffffffffffffffffffffffffffffff\n  and\n  0x80\n  dup2\n  0xffffffffffffffffffffffffffffffffffffffff\n  and\n  dup2\n  mstore\n  pop\n  pop\n    /* \"@chainlink/contracts/src/v0.8/functions/v1_0_0/FunctionsClient.sol\":702:784  constructor(... */\n  pop\n    /* \"contracts/ChainLInkFunctions.sol\":589:643  constructor(address router) FunctionsClient(router) {} */\n  pop\n    /* \"contracts/ChainLInkFunctions.sol\":271:1698  contract BeerConsumer is FunctionsClient {... */\n  jump(tag_8)\n    /* \"#utility.yul\":88:205   */\ntag_10:\n    /* \"#utility.yul\":197:198   */\n  0x00\n    /* \"#utility.yul\":194:195   */\n  0x00\n    /* \"#utility.yul\":187:199   */\n  revert\n    /* \"#utility.yul\":334:460   */\ntag_12:\n    /* \"#utility.yul\":371:378   */\n  0x00\n    /* \"#utility.yul\":411:453   */\n  0xffffffffffffffffffffffffffffffffffffffff\n    /* \"#utility.yul\":404:409   */\n  dup3\n    /* \"#utility.yul\":400:454   */\n  and\n    /* \"#utility.yul\":389:454   */\n  swap1\n  pop\n    /* \"#utility.yul\":334:460   */\n  swap2\n  swap1\n  pop\n  jump\t// out\n    /* \"#utility.yul\":466:562   */\ntag_13:\n    /* \"#utility.yul\":503:510   */\n  0x00\n    /* \"#utility.yul\":532:556   */\n  tag_22\n    /* \"#utility.yul\":550:555   */\n  dup3\n    /* \"#utility.yul\":532:556   */\n  tag_12\n  jump\t// in\ntag_22:\n    /* \"#utility.yul\":521:556   */\n  swap1\n  pop\n    /* \"#utility.yul\":466:562   */\n  swap2\n  swap1\n  pop\n  jump\t// out\n    /* \"#utility.yul\":568:690   */\ntag_14:\n    /* \"#utility.yul\":641:665   */\n  tag_24\n    /* \"#utility.yul\":659:664   */\n  dup2\n    /* \"#utility.yul\":641:665   */\n  tag_13\n  jump\t// in\ntag_24:\n    /* \"#utility.yul\":634:639   */\n  dup2\n    /* \"#utility.yul\":631:666   */\n  eq\n    /* \"#utility.yul\":621:684   */\n  tag_25\n  jumpi\n    /* \"#utility.yul\":680:681   */\n  0x00\n    /* \"#utility.yul\":677:678   */\n  0x00\n    /* \"#utility.yul\":670:682   */\n  revert\n    /* \"#utility.yul\":621:684   */\ntag_25:\n    /* \"#utility.yul\":568:690   */\n  pop\n  jump\t// out\n    /* \"#utility.yul\":696:839   */\ntag_15:\n    /* \"#utility.yul\":753:758   */\n  0x00\n    /* \"#utility.yul\":784:790   */\n  dup2\n    /* \"#utility.yul\":778:791   */\n  mload\n    /* \"#utility.yul\":769:791   */\n  swap1\n  pop\n    /* \"#utility.yul\":800:833   */\n  tag_27\n    /* \"#utility.yul\":827:832   */\n  dup2\n    /* \"#utility.yul\":800:833   */\n  tag_14\n  jump\t// in\ntag_27:\n    /* \"#utility.yul\":696:839   */\n  swap3\n  swap2\n  pop\n  pop\n  jump\t// out\n    /* \"#utility.yul\":845:1196   */\ntag_3:\n    /* \"#utility.yul\":915:921   */\n  0x00\n    /* \"#utility.yul\":964:966   */\n  0x20\n    /* \"#utility.yul\":952:961   */\n  dup3\n    /* \"#utility.yul\":943:950   */\n  dup5\n    /* \"#utility.yul\":939:962   */\n  sub\n    /* \"#utility.yul\":935:967   */\n  slt\n    /* \"#utility.yul\":932:1051   */\n  iszero\n  tag_29\n  jumpi\n    /* \"#utility.yul\":970:1049   */\n  tag_30\n  tag_10\n  jump\t// in\ntag_30:\n    /* \"#utility.yul\":932:1051   */\ntag_29:\n    /* \"#utility.yul\":1090:1091   */\n  0x00\n    /* \"#utility.yul\":1115:1179   */\n  tag_31\n    /* \"#utility.yul\":1171:1178   */\n  dup5\n    /* \"#utility.yul\":1162:1168   */\n  dup3\n    /* \"#utility.yul\":1151:1160   */\n  dup6\n    /* \"#utility.yul\":1147:1169   */\n  add\n    /* \"#utility.yul\":1115:1179   */\n  tag_15\n  jump\t// in\ntag_31:\n    /* \"#utility.yul\":1105:1179   */\n  swap2\n  pop\n    /* \"#utility.yul\":1061:1189   */\n  pop\n    /* \"#utility.yul\":845:1196   */\n  swap3\n  swap2\n  pop\n  pop\n  jump\t// out\n    /* \"contracts/ChainLInkFunctions.sol\":271:1698  contract BeerConsumer is FunctionsClient {... */\ntag_8:\n  mload(0x80)\n  codecopy(0x00, dataOffset(sub_0), dataSize(sub_0))\n  0x00\n  assignImmutable(\"0x8e8fab5f003314da8d1873ea7720e8d9f47650136d916064d1edb8a11d682624\")\n  return(0x00, dataSize(sub_0))\nstop\n\nsub_0: assembly {\n        /* \"contracts/ChainLInkFunctions.sol\":271:1698  contract BeerConsumer is FunctionsClient {... */\n      mstore(0x40, 0x80)\n      callvalue\n      dup1\n      iszero\n      tag_1\n      jumpi\n      revert(0x00, 0x00)\n    tag_1:\n      pop\n      jumpi(tag_2, lt(calldatasize, 0x04))\n      shr(0xe0, calldataload(0x00))\n      dup1\n      0x0ca76175\n      eq\n      tag_3\n      jumpi\n      dup1\n      0x5e63aa46\n      eq\n      tag_4\n      jumpi\n      dup1\n      0xe8eda4c8\n      eq\n      tag_5\n      jumpi\n      dup1\n      0xfc2a88c3\n      eq\n      tag_6\n      jumpi\n    tag_2:\n      revert(0x00, 0x00)\n        /* \"@chainlink/contracts/src/v0.8/functions/v1_0_0/FunctionsClient.sol\":2056:2342  function handleOracleFulfillment(bytes32 requestId, bytes memory response, bytes memory err) external override {... */\n    tag_3:\n      tag_7\n      0x04\n      dup1\n      calldatasize\n      sub\n      dup2\n      add\n      swap1\n      tag_8\n      swap2\n      swap1\n      tag_9\n      jump\t// in\n    tag_8:\n      tag_10\n      jump\t// in\n    tag_7:\n      stop\n        /* \"contracts/ChainLInkFunctions.sol\":376:402  string public lastBeerName */\n    tag_4:\n      tag_11\n      tag_12\n      jump\t// in\n    tag_11:\n      mload(0x40)\n      tag_13\n      swap2\n      swap1\n      tag_14\n      jump\t// in\n    tag_13:\n      mload(0x40)\n      dup1\n      swap2\n      sub\n      swap1\n      return\n        /* \"contracts/ChainLInkFunctions.sol\":649:1191  function requestBeerData(... */\n    tag_5:\n      tag_15\n      0x04\n      dup1\n      calldatasize\n      sub\n      dup2\n      add\n      swap1\n      tag_16\n      swap2\n      swap1\n      tag_17\n      jump\t// in\n    tag_16:\n      tag_18\n      jump\t// in\n    tag_15:\n      mload(0x40)\n      tag_19\n      swap2\n      swap1\n      tag_20\n      jump\t// in\n    tag_19:\n      mload(0x40)\n      dup1\n      swap2\n      sub\n      swap1\n      return\n        /* \"contracts/ChainLInkFunctions.sol\":456:484  bytes32 public lastRequestId */\n    tag_6:\n      tag_21\n      tag_22\n      jump\t// in\n    tag_21:\n      mload(0x40)\n      tag_23\n      swap2\n      swap1\n      tag_20\n      jump\t// in\n    tag_23:\n      mload(0x40)\n      dup1\n      swap2\n      sub\n      swap1\n      return\n        /* \"@chainlink/contracts/src/v0.8/functions/v1_0_0/FunctionsClient.sol\":2056:2342  function handleOracleFulfillment(bytes32 requestId, bytes memory response, bytes memory err) external override {... */\n    tag_10:\n        /* \"@chainlink/contracts/src/v0.8/functions/v1_0_0/FunctionsClient.sol\":2199:2207  i_router */\n      immutable(\"0x8e8fab5f003314da8d1873ea7720e8d9f47650136d916064d1edb8a11d682624\")\n        /* \"@chainlink/contracts/src/v0.8/functions/v1_0_0/FunctionsClient.sol\":2177:2208  msg.sender != address(i_router) */\n      0xffffffffffffffffffffffffffffffffffffffff\n      and\n        /* \"@chainlink/contracts/src/v0.8/functions/v1_0_0/FunctionsClient.sol\":2177:2187  msg.sender */\n      caller\n        /* \"@chainlink/contracts/src/v0.8/functions/v1_0_0/FunctionsClient.sol\":2177:2208  msg.sender != address(i_router) */\n      0xffffffffffffffffffffffffffffffffffffffff\n      and\n      eq\n        /* \"@chainlink/contracts/src/v0.8/functions/v1_0_0/FunctionsClient.sol\":2173:2254  if (msg.sender != address(i_router)) {... */\n      tag_25\n      jumpi\n        /* \"@chainlink/contracts/src/v0.8/functions/v1_0_0/FunctionsClient.sol\":2225:2247  OnlyRouterCanFulfill() */\n      mload(0x40)\n      0xc6829f8300000000000000000000000000000000000000000000000000000000\n      dup2\n      mstore\n      0x04\n      add\n      mload(0x40)\n      dup1\n      swap2\n      sub\n      swap1\n      revert\n        /* \"@chainlink/contracts/src/v0.8/functions/v1_0_0/FunctionsClient.sol\":2173:2254  if (msg.sender != address(i_router)) {... */\n    tag_25:\n        /* \"@chainlink/contracts/src/v0.8/functions/v1_0_0/FunctionsClient.sol\":2259:2299  fulfillRequest(requestId, response, err) */\n      tag_26\n        /* \"@chainlink/contracts/src/v0.8/functions/v1_0_0/FunctionsClient.sol\":2274:2283  requestId */\n      dup4\n        /* \"@chainlink/contracts/src/v0.8/functions/v1_0_0/FunctionsClient.sol\":2285:2293  response */\n      dup4\n        /* \"@chainlink/contracts/src/v0.8/functions/v1_0_0/FunctionsClient.sol\":2295:2298  err */\n      dup4\n        /* \"@chainlink/contracts/src/v0.8/functions/v1_0_0/FunctionsClient.sol\":2259:2273  fulfillRequest */\n      tag_27\n        /* \"@chainlink/contracts/src/v0.8/functions/v1_0_0/FunctionsClient.sol\":2259:2299  fulfillRequest(requestId, response, err) */\n      jump\t// in\n    tag_26:\n        /* \"@chainlink/contracts/src/v0.8/functions/v1_0_0/FunctionsClient.sol\":2327:2336  requestId */\n      dup3\n        /* \"@chainlink/contracts/src/v0.8/functions/v1_0_0/FunctionsClient.sol\":2310:2337  RequestFulfilled(requestId) */\n      0x85e1543bf2f84fe80c6badbce3648c8539ad1df4d2b3d822938ca0538be727e6\n      mload(0x40)\n      mload(0x40)\n      dup1\n      swap2\n      sub\n      swap1\n      log2\n        /* \"@chainlink/contracts/src/v0.8/functions/v1_0_0/FunctionsClient.sol\":2056:2342  function handleOracleFulfillment(bytes32 requestId, bytes memory response, bytes memory err) external override {... */\n      pop\n      pop\n      pop\n      jump\t// out\n        /* \"contracts/ChainLInkFunctions.sol\":376:402  string public lastBeerName */\n    tag_12:\n      0x00\n      dup1\n      sload\n      tag_28\n      swap1\n      tag_29\n      jump\t// in\n    tag_28:\n      dup1\n      0x1f\n      add\n      0x20\n      dup1\n      swap2\n      div\n      mul\n      0x20\n      add\n      mload(0x40)\n      swap1\n      dup2\n      add\n      0x40\n      mstore\n      dup1\n      swap3\n      swap2\n      swap1\n      dup2\n      dup2\n      mstore\n      0x20\n      add\n      dup3\n      dup1\n      sload\n      tag_30\n      swap1\n      tag_29\n      jump\t// in\n    tag_30:\n      dup1\n      iszero\n      tag_31\n      jumpi\n      dup1\n      0x1f\n      lt\n      tag_32\n      jumpi\n      0x0100\n      dup1\n      dup4\n      sload\n      div\n      mul\n      dup4\n      mstore\n      swap2\n      0x20\n      add\n      swap2\n      jump(tag_31)\n    tag_32:\n      dup3\n      add\n      swap2\n      swap1\n      0x00\n      mstore\n      keccak256(0x00, 0x20)\n      swap1\n    tag_33:\n      dup2\n      sload\n      dup2\n      mstore\n      swap1\n      0x01\n      add\n      swap1\n      0x20\n      add\n      dup1\n      dup4\n      gt\n      tag_33\n      jumpi\n      dup3\n      swap1\n      sub\n      0x1f\n      and\n      dup3\n      add\n      swap2\n    tag_31:\n      pop\n      pop\n      pop\n      pop\n      pop\n      dup2\n      jump\t// out\n        /* \"contracts/ChainLInkFunctions.sol\":649:1191  function requestBeerData(... */\n    tag_18:\n        /* \"contracts/ChainLInkFunctions.sol\":894:901  bytes32 */\n      0x00\n        /* \"contracts/ChainLInkFunctions.sol\":913:948  FunctionsRequest.Request memory req */\n      tag_35\n      tag_36\n      jump\t// in\n    tag_35:\n        /* \"contracts/ChainLInkFunctions.sol\":958:1006  req.initializeRequestForInlineJavaScript(source) */\n      tag_37\n        /* \"contracts/ChainLInkFunctions.sol\":999:1005  source */\n      dup8\n      dup8\n        /* \"contracts/ChainLInkFunctions.sol\":958:1006  req.initializeRequestForInlineJavaScript(source) */\n      dup1\n      dup1\n      0x1f\n      add\n      0x20\n      dup1\n      swap2\n      div\n      mul\n      0x20\n      add\n      mload(0x40)\n      swap1\n      dup2\n      add\n      0x40\n      mstore\n      dup1\n      swap4\n      swap3\n      swap2\n      swap1\n      dup2\n      dup2\n      mstore\n      0x20\n      add\n      dup4\n      dup4\n      dup1\n      dup3\n      dup5\n      calldatacopy\n      0x00\n      dup2\n      dup5\n      add\n      mstore\n      not(0x1f)\n      0x1f\n      dup3\n      add\n      and\n      swap1\n      pop\n      dup1\n      dup4\n      add\n      swap3\n      pop\n      pop\n      pop\n      pop\n      pop\n      pop\n      pop\n        /* \"contracts/ChainLInkFunctions.sol\":958:961  req */\n      dup3\n        /* \"contracts/ChainLInkFunctions.sol\":958:998  req.initializeRequestForInlineJavaScript */\n      tag_38\n      swap1\n        /* \"contracts/ChainLInkFunctions.sol\":958:1006  req.initializeRequestForInlineJavaScript(source) */\n      swap2\n      swap1\n      0xffffffff\n      and\n      jump\t// in\n    tag_37:\n        /* \"contracts/ChainLInkFunctions.sol\":1033:1154  _sendRequest(... */\n      tag_39\n        /* \"contracts/ChainLInkFunctions.sol\":1059:1075  req.encodeCBOR() */\n      tag_40\n        /* \"contracts/ChainLInkFunctions.sol\":1059:1062  req */\n      dup3\n        /* \"contracts/ChainLInkFunctions.sol\":1059:1073  req.encodeCBOR */\n      tag_41\n        /* \"contracts/ChainLInkFunctions.sol\":1059:1075  req.encodeCBOR() */\n      jump\t// in\n    tag_40:\n        /* \"contracts/ChainLInkFunctions.sol\":1089:1103  subscriptionId */\n      dup7\n        /* \"contracts/ChainLInkFunctions.sol\":1117:1125  gasLimit */\n      dup7\n        /* \"contracts/ChainLInkFunctions.sol\":1139:1144  donID */\n      dup7\n        /* \"contracts/ChainLInkFunctions.sol\":1033:1045  _sendRequest */\n      tag_42\n        /* \"contracts/ChainLInkFunctions.sol\":1033:1154  _sendRequest(... */\n      jump\t// in\n    tag_39:\n        /* \"contracts/ChainLInkFunctions.sol\":1017:1030  lastRequestId */\n      0x01\n        /* \"contracts/ChainLInkFunctions.sol\":1017:1154  lastRequestId = _sendRequest(... */\n      dup2\n      swap1\n      sstore\n      pop\n        /* \"contracts/ChainLInkFunctions.sol\":1171:1184  lastRequestId */\n      sload(0x01)\n        /* \"contracts/ChainLInkFunctions.sol\":1164:1184  return lastRequestId */\n      swap2\n      pop\n      pop\n        /* \"contracts/ChainLInkFunctions.sol\":649:1191  function requestBeerData(... */\n      swap6\n      swap5\n      pop\n      pop\n      pop\n      pop\n      pop\n      jump\t// out\n        /* \"contracts/ChainLInkFunctions.sol\":456:484  bytes32 public lastRequestId */\n    tag_22:\n      sload(0x01)\n      dup2\n      jump\t// out\n        /* \"contracts/ChainLInkFunctions.sol\":1303:1696  function fulfillRequest(... */\n    tag_27:\n        /* \"contracts/ChainLInkFunctions.sol\":1533:1534  0 */\n      0x00\n        /* \"contracts/ChainLInkFunctions.sol\":1520:1523  err */\n      dup2\n        /* \"contracts/ChainLInkFunctions.sol\":1520:1530  err.length */\n      mload\n        /* \"contracts/ChainLInkFunctions.sol\":1520:1534  err.length > 0 */\n      gt\n        /* \"contracts/ChainLInkFunctions.sol\":1632:1639  return; */\n      tag_43\n        /* \"contracts/ChainLInkFunctions.sol\":1516:1649  if (err.length > 0) {... */\n      jumpi\n        /* \"contracts/ChainLInkFunctions.sol\":1680:1688  response */\n      dup2\n        /* \"contracts/ChainLInkFunctions.sol\":1658:1670  lastBeerName */\n      0x00\n        /* \"contracts/ChainLInkFunctions.sol\":1658:1689  lastBeerName = string(response) */\n      swap1\n      dup2\n      tag_45\n      swap2\n      swap1\n      tag_46\n      jump\t// in\n    tag_45:\n      pop\n        /* \"contracts/ChainLInkFunctions.sol\":1303:1696  function fulfillRequest(... */\n    tag_43:\n      pop\n      pop\n      pop\n      jump\t// out\n        /* \"@chainlink/contracts/src/v0.8/functions/v1_0_0/libraries/FunctionsRequest.sol\":4384:4591  function initializeRequestForInlineJavaScript(Request memory self, string memory javaScriptSource) internal pure {... */\n    tag_38:\n        /* \"@chainlink/contracts/src/v0.8/functions/v1_0_0/libraries/FunctionsRequest.sol\":4503:4586  initializeRequest(self, Location.Inline, CodeLanguage.JavaScript, javaScriptSource) */\n      tag_48\n        /* \"@chainlink/contracts/src/v0.8/functions/v1_0_0/libraries/FunctionsRequest.sol\":4521:4525  self */\n      dup3\n        /* \"@chainlink/contracts/src/v0.8/functions/v1_0_0/libraries/FunctionsRequest.sol\":4527:4542  Location.Inline */\n      0x00\n        /* \"@chainlink/contracts/src/v0.8/functions/v1_0_0/libraries/FunctionsRequest.sol\":4544:4567  CodeLanguage.JavaScript */\n      0x00\n        /* \"@chainlink/contracts/src/v0.8/functions/v1_0_0/libraries/FunctionsRequest.sol\":4569:4585  javaScriptSource */\n      dup5\n        /* \"@chainlink/contracts/src/v0.8/functions/v1_0_0/libraries/FunctionsRequest.sol\":4503:4520  initializeRequest */\n      tag_49\n        /* \"@chainlink/contracts/src/v0.8/functions/v1_0_0/libraries/FunctionsRequest.sol\":4503:4586  initializeRequest(self, Location.Inline, CodeLanguage.JavaScript, javaScriptSource) */\n      jump\t// in\n    tag_48:\n        /* \"@chainlink/contracts/src/v0.8/functions/v1_0_0/libraries/FunctionsRequest.sol\":4384:4591  function initializeRequestForInlineJavaScript(Request memory self, string memory javaScriptSource) internal pure {... */\n      pop\n      pop\n      jump\t// out\n        /* \"@chainlink/contracts/src/v0.8/functions/v1_0_0/libraries/FunctionsRequest.sol\":2211:3489  function encodeCBOR(... */\n    tag_41:\n        /* \"@chainlink/contracts/src/v0.8/functions/v1_0_0/libraries/FunctionsRequest.sol\":2283:2295  bytes memory */\n      0x60\n        /* \"@chainlink/contracts/src/v0.8/functions/v1_0_0/libraries/FunctionsRequest.sol\":2303:2332  CBOR.CBORBuffer memory buffer */\n      0x00\n        /* \"@chainlink/contracts/src/v0.8/functions/v1_0_0/libraries/FunctionsRequest.sol\":2335:2367  CBOR.create(DEFAULT_BUFFER_SIZE) */\n      tag_51\n        /* \"@chainlink/contracts/src/v0.8/functions/v1_0_0/libraries/FunctionsRequest.sol\":375:378  256 */\n      0x0100\n        /* \"@chainlink/contracts/src/v0.8/functions/v1_0_0/libraries/FunctionsRequest.sol\":2335:2346  CBOR.create */\n      tag_52\n        /* \"@chainlink/contracts/src/v0.8/functions/v1_0_0/libraries/FunctionsRequest.sol\":2335:2367  CBOR.create(DEFAULT_BUFFER_SIZE) */\n      jump\t// in\n    tag_51:\n        /* \"@chainlink/contracts/src/v0.8/functions/v1_0_0/libraries/FunctionsRequest.sol\":2303:2367  CBOR.CBORBuffer memory buffer = CBOR.create(DEFAULT_BUFFER_SIZE) */\n      swap1\n      pop\n        /* \"@chainlink/contracts/src/v0.8/functions/v1_0_0/libraries/FunctionsRequest.sol\":2374:2408  buffer.writeString(\"codeLocation\") */\n      tag_53\n      mload(0x40)\n      dup1\n      0x40\n      add\n      0x40\n      mstore\n      dup1\n      0x0c\n      dup2\n      mstore\n      0x20\n      add\n      0x636f64654c6f636174696f6e0000000000000000000000000000000000000000\n      dup2\n      mstore\n      pop\n        /* \"@chainlink/contracts/src/v0.8/functions/v1_0_0/libraries/FunctionsRequest.sol\":2374:2380  buffer */\n      dup3\n        /* \"@chainlink/contracts/src/v0.8/functions/v1_0_0/libraries/FunctionsRequest.sol\":2374:2392  buffer.writeString */\n      tag_54\n      swap1\n        /* \"@chainlink/contracts/src/v0.8/functions/v1_0_0/libraries/FunctionsRequest.sol\":2374:2408  buffer.writeString(\"codeLocation\") */\n      swap2\n      swap1\n      0xffffffff\n      and\n      jump\t// in\n    tag_53:\n        /* \"@chainlink/contracts/src/v0.8/functions/v1_0_0/libraries/FunctionsRequest.sol\":2414:2461  buffer.writeUInt256(uint256(self.codeLocation)) */\n      tag_55\n        /* \"@chainlink/contracts/src/v0.8/functions/v1_0_0/libraries/FunctionsRequest.sol\":2442:2446  self */\n      dup4\n        /* \"@chainlink/contracts/src/v0.8/functions/v1_0_0/libraries/FunctionsRequest.sol\":2442:2459  self.codeLocation */\n      0x00\n      add\n      mload\n        /* \"@chainlink/contracts/src/v0.8/functions/v1_0_0/libraries/FunctionsRequest.sol\":2434:2460  uint256(self.codeLocation) */\n      0x02\n      dup2\n      gt\n      iszero\n      tag_56\n      jumpi\n      tag_57\n      tag_58\n      jump\t// in\n    tag_57:\n    tag_56:\n        /* \"@chainlink/contracts/src/v0.8/functions/v1_0_0/libraries/FunctionsRequest.sol\":2414:2420  buffer */\n      dup3\n        /* \"@chainlink/contracts/src/v0.8/functions/v1_0_0/libraries/FunctionsRequest.sol\":2414:2433  buffer.writeUInt256 */\n      tag_59\n      swap1\n        /* \"@chainlink/contracts/src/v0.8/functions/v1_0_0/libraries/FunctionsRequest.sol\":2414:2461  buffer.writeUInt256(uint256(self.codeLocation)) */\n      swap2\n      swap1\n      0xffffffff\n      and\n      jump\t// in\n    tag_55:\n        /* \"@chainlink/contracts/src/v0.8/functions/v1_0_0/libraries/FunctionsRequest.sol\":2468:2498  buffer.writeString(\"language\") */\n      tag_60\n      mload(0x40)\n      dup1\n      0x40\n      add\n      0x40\n      mstore\n      dup1\n      0x08\n      dup2\n      mstore\n      0x20\n      add\n      0x6c616e6775616765000000000000000000000000000000000000000000000000\n      dup2\n      mstore\n      pop\n        /* \"@chainlink/contracts/src/v0.8/functions/v1_0_0/libraries/FunctionsRequest.sol\":2468:2474  buffer */\n      dup3\n        /* \"@chainlink/contracts/src/v0.8/functions/v1_0_0/libraries/FunctionsRequest.sol\":2468:2486  buffer.writeString */\n      tag_54\n      swap1\n        /* \"@chainlink/contracts/src/v0.8/functions/v1_0_0/libraries/FunctionsRequest.sol\":2468:2498  buffer.writeString(\"language\") */\n      swap2\n      swap1\n      0xffffffff\n      and\n      jump\t// in\n    tag_60:\n        /* \"@chainlink/contracts/src/v0.8/functions/v1_0_0/libraries/FunctionsRequest.sol\":2504:2547  buffer.writeUInt256(uint256(self.language)) */\n      tag_61\n        /* \"@chainlink/contracts/src/v0.8/functions/v1_0_0/libraries/FunctionsRequest.sol\":2532:2536  self */\n      dup4\n        /* \"@chainlink/contracts/src/v0.8/functions/v1_0_0/libraries/FunctionsRequest.sol\":2532:2545  self.language */\n      0x40\n      add\n      mload\n        /* \"@chainlink/contracts/src/v0.8/functions/v1_0_0/libraries/FunctionsRequest.sol\":2524:2546  uint256(self.language) */\n      0x00\n      dup2\n      gt\n      iszero\n      tag_62\n      jumpi\n      tag_63\n      tag_58\n      jump\t// in\n    tag_63:\n    tag_62:\n        /* \"@chainlink/contracts/src/v0.8/functions/v1_0_0/libraries/FunctionsRequest.sol\":2504:2510  buffer */\n      dup3\n        /* \"@chainlink/contracts/src/v0.8/functions/v1_0_0/libraries/FunctionsRequest.sol\":2504:2523  buffer.writeUInt256 */\n      tag_59\n      swap1\n        /* \"@chainlink/contracts/src/v0.8/functions/v1_0_0/libraries/FunctionsRequest.sol\":2504:2547  buffer.writeUInt256(uint256(self.language)) */\n      swap2\n      swap1\n      0xffffffff\n      and\n      jump\t// in\n    tag_61:\n        /* \"@chainlink/contracts/src/v0.8/functions/v1_0_0/libraries/FunctionsRequest.sol\":2554:2582  buffer.writeString(\"source\") */\n      tag_64\n      mload(0x40)\n      dup1\n      0x40\n      add\n      0x40\n      mstore\n      dup1\n      0x06\n      dup2\n      mstore\n      0x20\n      add\n      0x736f757263650000000000000000000000000000000000000000000000000000\n      dup2\n      mstore\n      pop\n        /* \"@chainlink/contracts/src/v0.8/functions/v1_0_0/libraries/FunctionsRequest.sol\":2554:2560  buffer */\n      dup3\n        /* \"@chainlink/contracts/src/v0.8/functions/v1_0_0/libraries/FunctionsRequest.sol\":2554:2572  buffer.writeString */\n      tag_54\n      swap1\n        /* \"@chainlink/contracts/src/v0.8/functions/v1_0_0/libraries/FunctionsRequest.sol\":2554:2582  buffer.writeString(\"source\") */\n      swap2\n      swap1\n      0xffffffff\n      and\n      jump\t// in\n    tag_64:\n        /* \"@chainlink/contracts/src/v0.8/functions/v1_0_0/libraries/FunctionsRequest.sol\":2588:2619  buffer.writeString(self.source) */\n      tag_65\n        /* \"@chainlink/contracts/src/v0.8/functions/v1_0_0/libraries/FunctionsRequest.sol\":2607:2611  self */\n      dup4\n        /* \"@chainlink/contracts/src/v0.8/functions/v1_0_0/libraries/FunctionsRequest.sol\":2607:2618  self.source */\n      0x60\n      add\n      mload\n        /* \"@chainlink/contracts/src/v0.8/functions/v1_0_0/libraries/FunctionsRequest.sol\":2588:2594  buffer */\n      dup3\n        /* \"@chainlink/contracts/src/v0.8/functions/v1_0_0/libraries/FunctionsRequest.sol\":2588:2606  buffer.writeString */\n      tag_54\n      swap1\n        /* \"@chainlink/contracts/src/v0.8/functions/v1_0_0/libraries/FunctionsRequest.sol\":2588:2619  buffer.writeString(self.source) */\n      swap2\n      swap1\n      0xffffffff\n      and\n      jump\t// in\n    tag_65:\n        /* \"@chainlink/contracts/src/v0.8/functions/v1_0_0/libraries/FunctionsRequest.sol\":2649:2650  0 */\n      0x00\n        /* \"@chainlink/contracts/src/v0.8/functions/v1_0_0/libraries/FunctionsRequest.sol\":2630:2634  self */\n      dup4\n        /* \"@chainlink/contracts/src/v0.8/functions/v1_0_0/libraries/FunctionsRequest.sol\":2630:2639  self.args */\n      0xa0\n      add\n      mload\n        /* \"@chainlink/contracts/src/v0.8/functions/v1_0_0/libraries/FunctionsRequest.sol\":2630:2646  self.args.length */\n      mload\n        /* \"@chainlink/contracts/src/v0.8/functions/v1_0_0/libraries/FunctionsRequest.sol\":2630:2650  self.args.length > 0 */\n      gt\n        /* \"@chainlink/contracts/src/v0.8/functions/v1_0_0/libraries/FunctionsRequest.sol\":2626:2853  if (self.args.length > 0) {... */\n      iszero\n      tag_66\n      jumpi\n        /* \"@chainlink/contracts/src/v0.8/functions/v1_0_0/libraries/FunctionsRequest.sol\":2660:2686  buffer.writeString(\"args\") */\n      tag_67\n      mload(0x40)\n      dup1\n      0x40\n      add\n      0x40\n      mstore\n      dup1\n      0x04\n      dup2\n      mstore\n      0x20\n      add\n      0x6172677300000000000000000000000000000000000000000000000000000000\n      dup2\n      mstore\n      pop\n        /* \"@chainlink/contracts/src/v0.8/functions/v1_0_0/libraries/FunctionsRequest.sol\":2660:2666  buffer */\n      dup3\n        /* \"@chainlink/contracts/src/v0.8/functions/v1_0_0/libraries/FunctionsRequest.sol\":2660:2678  buffer.writeString */\n      tag_54\n      swap1\n        /* \"@chainlink/contracts/src/v0.8/functions/v1_0_0/libraries/FunctionsRequest.sol\":2660:2686  buffer.writeString(\"args\") */\n      swap2\n      swap1\n      0xffffffff\n      and\n      jump\t// in\n    tag_67:\n        /* \"@chainlink/contracts/src/v0.8/functions/v1_0_0/libraries/FunctionsRequest.sol\":2694:2713  buffer.startArray() */\n      tag_68\n        /* \"@chainlink/contracts/src/v0.8/functions/v1_0_0/libraries/FunctionsRequest.sol\":2694:2700  buffer */\n      dup2\n        /* \"@chainlink/contracts/src/v0.8/functions/v1_0_0/libraries/FunctionsRequest.sol\":2694:2711  buffer.startArray */\n      tag_69\n        /* \"@chainlink/contracts/src/v0.8/functions/v1_0_0/libraries/FunctionsRequest.sol\":2694:2713  buffer.startArray() */\n      jump\t// in\n    tag_68:\n        /* \"@chainlink/contracts/src/v0.8/functions/v1_0_0/libraries/FunctionsRequest.sol\":2726:2735  uint256 i */\n      0x00\n        /* \"@chainlink/contracts/src/v0.8/functions/v1_0_0/libraries/FunctionsRequest.sol\":2738:2739  0 */\n      0x00\n        /* \"@chainlink/contracts/src/v0.8/functions/v1_0_0/libraries/FunctionsRequest.sol\":2726:2739  uint256 i = 0 */\n      swap1\n      pop\n        /* \"@chainlink/contracts/src/v0.8/functions/v1_0_0/libraries/FunctionsRequest.sol\":2721:2819  for (uint256 i = 0; i < self.args.length; ++i) {... */\n    tag_70:\n        /* \"@chainlink/contracts/src/v0.8/functions/v1_0_0/libraries/FunctionsRequest.sol\":2745:2749  self */\n      dup4\n        /* \"@chainlink/contracts/src/v0.8/functions/v1_0_0/libraries/FunctionsRequest.sol\":2745:2754  self.args */\n      0xa0\n      add\n      mload\n        /* \"@chainlink/contracts/src/v0.8/functions/v1_0_0/libraries/FunctionsRequest.sol\":2745:2761  self.args.length */\n      mload\n        /* \"@chainlink/contracts/src/v0.8/functions/v1_0_0/libraries/FunctionsRequest.sol\":2741:2742  i */\n      dup2\n        /* \"@chainlink/contracts/src/v0.8/functions/v1_0_0/libraries/FunctionsRequest.sol\":2741:2761  i < self.args.length */\n      lt\n        /* \"@chainlink/contracts/src/v0.8/functions/v1_0_0/libraries/FunctionsRequest.sol\":2721:2819  for (uint256 i = 0; i < self.args.length; ++i) {... */\n      iszero\n      tag_71\n      jumpi\n        /* \"@chainlink/contracts/src/v0.8/functions/v1_0_0/libraries/FunctionsRequest.sol\":2778:2810  buffer.writeString(self.args[i]) */\n      tag_73\n        /* \"@chainlink/contracts/src/v0.8/functions/v1_0_0/libraries/FunctionsRequest.sol\":2797:2801  self */\n      dup5\n        /* \"@chainlink/contracts/src/v0.8/functions/v1_0_0/libraries/FunctionsRequest.sol\":2797:2806  self.args */\n      0xa0\n      add\n      mload\n        /* \"@chainlink/contracts/src/v0.8/functions/v1_0_0/libraries/FunctionsRequest.sol\":2807:2808  i */\n      dup3\n        /* \"@chainlink/contracts/src/v0.8/functions/v1_0_0/libraries/FunctionsRequest.sol\":2797:2809  self.args[i] */\n      dup2\n      mload\n      dup2\n      lt\n      tag_74\n      jumpi\n      tag_75\n      tag_76\n      jump\t// in\n    tag_75:\n    tag_74:\n      0x20\n      mul\n      0x20\n      add\n      add\n      mload\n        /* \"@chainlink/contracts/src/v0.8/functions/v1_0_0/libraries/FunctionsRequest.sol\":2778:2784  buffer */\n      dup4\n        /* \"@chainlink/contracts/src/v0.8/functions/v1_0_0/libraries/FunctionsRequest.sol\":2778:2796  buffer.writeString */\n      tag_54\n      swap1\n        /* \"@chainlink/contracts/src/v0.8/functions/v1_0_0/libraries/FunctionsRequest.sol\":2778:2810  buffer.writeString(self.args[i]) */\n      swap2\n      swap1\n      0xffffffff\n      and\n      jump\t// in\n    tag_73:\n        /* \"@chainlink/contracts/src/v0.8/functions/v1_0_0/libraries/FunctionsRequest.sol\":2763:2766  ++i */\n      dup1\n      0x01\n      add\n      swap1\n      pop\n        /* \"@chainlink/contracts/src/v0.8/functions/v1_0_0/libraries/FunctionsRequest.sol\":2721:2819  for (uint256 i = 0; i < self.args.length; ++i) {... */\n      jump(tag_70)\n    tag_71:\n      pop\n        /* \"@chainlink/contracts/src/v0.8/functions/v1_0_0/libraries/FunctionsRequest.sol\":2826:2846  buffer.endSequence() */\n      tag_77\n        /* \"@chainlink/contracts/src/v0.8/functions/v1_0_0/libraries/FunctionsRequest.sol\":2826:2832  buffer */\n      dup2\n        /* \"@chainlink/contracts/src/v0.8/functions/v1_0_0/libraries/FunctionsRequest.sol\":2826:2844  buffer.endSequence */\n      tag_78\n        /* \"@chainlink/contracts/src/v0.8/functions/v1_0_0/libraries/FunctionsRequest.sol\":2826:2846  buffer.endSequence() */\n      jump\t// in\n    tag_77:\n        /* \"@chainlink/contracts/src/v0.8/functions/v1_0_0/libraries/FunctionsRequest.sol\":2626:2853  if (self.args.length > 0) {... */\n    tag_66:\n        /* \"@chainlink/contracts/src/v0.8/functions/v1_0_0/libraries/FunctionsRequest.sol\":2903:2904  0 */\n      0x00\n        /* \"@chainlink/contracts/src/v0.8/functions/v1_0_0/libraries/FunctionsRequest.sol\":2863:2867  self */\n      dup4\n        /* \"@chainlink/contracts/src/v0.8/functions/v1_0_0/libraries/FunctionsRequest.sol\":2863:2893  self.encryptedSecretsReference */\n      0x80\n      add\n      mload\n        /* \"@chainlink/contracts/src/v0.8/functions/v1_0_0/libraries/FunctionsRequest.sol\":2863:2900  self.encryptedSecretsReference.length */\n      mload\n        /* \"@chainlink/contracts/src/v0.8/functions/v1_0_0/libraries/FunctionsRequest.sol\":2863:2904  self.encryptedSecretsReference.length > 0 */\n      gt\n        /* \"@chainlink/contracts/src/v0.8/functions/v1_0_0/libraries/FunctionsRequest.sol\":2859:3205  if (self.encryptedSecretsReference.length > 0) {... */\n      iszero\n      tag_79\n      jumpi\n        /* \"@chainlink/contracts/src/v0.8/functions/v1_0_0/libraries/FunctionsRequest.sol\":2942:2957  Location.Inline */\n      0x00\n        /* \"@chainlink/contracts/src/v0.8/functions/v1_0_0/libraries/FunctionsRequest.sol\":2918:2957  self.secretsLocation == Location.Inline */\n      0x02\n      dup2\n      gt\n      iszero\n      tag_80\n      jumpi\n      tag_81\n      tag_58\n      jump\t// in\n    tag_81:\n    tag_80:\n        /* \"@chainlink/contracts/src/v0.8/functions/v1_0_0/libraries/FunctionsRequest.sol\":2918:2922  self */\n      dup4\n        /* \"@chainlink/contracts/src/v0.8/functions/v1_0_0/libraries/FunctionsRequest.sol\":2918:2938  self.secretsLocation */\n      0x20\n      add\n      mload\n        /* \"@chainlink/contracts/src/v0.8/functions/v1_0_0/libraries/FunctionsRequest.sol\":2918:2957  self.secretsLocation == Location.Inline */\n      0x02\n      dup2\n      gt\n      iszero\n      tag_82\n      jumpi\n      tag_83\n      tag_58\n      jump\t// in\n    tag_83:\n    tag_82:\n      sub\n        /* \"@chainlink/contracts/src/v0.8/functions/v1_0_0/libraries/FunctionsRequest.sol\":2914:3002  if (self.secretsLocation == Location.Inline) {... */\n      tag_84\n      jumpi\n        /* \"@chainlink/contracts/src/v0.8/functions/v1_0_0/libraries/FunctionsRequest.sol\":2976:2993  NoInlineSecrets() */\n      mload(0x40)\n      0xa80d31f700000000000000000000000000000000000000000000000000000000\n      dup2\n      mstore\n      0x04\n      add\n      mload(0x40)\n      dup1\n      swap2\n      sub\n      swap1\n      revert\n        /* \"@chainlink/contracts/src/v0.8/functions/v1_0_0/libraries/FunctionsRequest.sol\":2914:3002  if (self.secretsLocation == Location.Inline) {... */\n    tag_84:\n        /* \"@chainlink/contracts/src/v0.8/functions/v1_0_0/libraries/FunctionsRequest.sol\":3009:3046  buffer.writeString(\"secretsLocation\") */\n      tag_85\n      mload(0x40)\n      dup1\n      0x40\n      add\n      0x40\n      mstore\n      dup1\n      0x0f\n      dup2\n      mstore\n      0x20\n      add\n      0x736563726574734c6f636174696f6e0000000000000000000000000000000000\n      dup2\n      mstore\n      pop\n        /* \"@chainlink/contracts/src/v0.8/functions/v1_0_0/libraries/FunctionsRequest.sol\":3009:3015  buffer */\n      dup3\n        /* \"@chainlink/contracts/src/v0.8/functions/v1_0_0/libraries/FunctionsRequest.sol\":3009:3027  buffer.writeString */\n      tag_54\n      swap1\n        /* \"@chainlink/contracts/src/v0.8/functions/v1_0_0/libraries/FunctionsRequest.sol\":3009:3046  buffer.writeString(\"secretsLocation\") */\n      swap2\n      swap1\n      0xffffffff\n      and\n      jump\t// in\n    tag_85:\n        /* \"@chainlink/contracts/src/v0.8/functions/v1_0_0/libraries/FunctionsRequest.sol\":3054:3104  buffer.writeUInt256(uint256(self.secretsLocation)) */\n      tag_86\n        /* \"@chainlink/contracts/src/v0.8/functions/v1_0_0/libraries/FunctionsRequest.sol\":3082:3086  self */\n      dup4\n        /* \"@chainlink/contracts/src/v0.8/functions/v1_0_0/libraries/FunctionsRequest.sol\":3082:3102  self.secretsLocation */\n      0x20\n      add\n      mload\n        /* \"@chainlink/contracts/src/v0.8/functions/v1_0_0/libraries/FunctionsRequest.sol\":3074:3103  uint256(self.secretsLocation) */\n      0x02\n      dup2\n      gt\n      iszero\n      tag_87\n      jumpi\n      tag_88\n      tag_58\n      jump\t// in\n    tag_88:\n    tag_87:\n        /* \"@chainlink/contracts/src/v0.8/functions/v1_0_0/libraries/FunctionsRequest.sol\":3054:3060  buffer */\n      dup3\n        /* \"@chainlink/contracts/src/v0.8/functions/v1_0_0/libraries/FunctionsRequest.sol\":3054:3073  buffer.writeUInt256 */\n      tag_59\n      swap1\n        /* \"@chainlink/contracts/src/v0.8/functions/v1_0_0/libraries/FunctionsRequest.sol\":3054:3104  buffer.writeUInt256(uint256(self.secretsLocation)) */\n      swap2\n      swap1\n      0xffffffff\n      and\n      jump\t// in\n    tag_86:\n        /* \"@chainlink/contracts/src/v0.8/functions/v1_0_0/libraries/FunctionsRequest.sol\":3112:3141  buffer.writeString(\"secrets\") */\n      tag_89\n      mload(0x40)\n      dup1\n      0x40\n      add\n      0x40\n      mstore\n      dup1\n      0x07\n      dup2\n      mstore\n      0x20\n      add\n      0x7365637265747300000000000000000000000000000000000000000000000000\n      dup2\n      mstore\n      pop\n        /* \"@chainlink/contracts/src/v0.8/functions/v1_0_0/libraries/FunctionsRequest.sol\":3112:3118  buffer */\n      dup3\n        /* \"@chainlink/contracts/src/v0.8/functions/v1_0_0/libraries/FunctionsRequest.sol\":3112:3130  buffer.writeString */\n      tag_54\n      swap1\n        /* \"@chainlink/contracts/src/v0.8/functions/v1_0_0/libraries/FunctionsRequest.sol\":3112:3141  buffer.writeString(\"secrets\") */\n      swap2\n      swap1\n      0xffffffff\n      and\n      jump\t// in\n    tag_89:\n        /* \"@chainlink/contracts/src/v0.8/functions/v1_0_0/libraries/FunctionsRequest.sol\":3149:3198  buffer.writeBytes(self.encryptedSecretsReference) */\n      tag_90\n        /* \"@chainlink/contracts/src/v0.8/functions/v1_0_0/libraries/FunctionsRequest.sol\":3167:3171  self */\n      dup4\n        /* \"@chainlink/contracts/src/v0.8/functions/v1_0_0/libraries/FunctionsRequest.sol\":3167:3197  self.encryptedSecretsReference */\n      0x80\n      add\n      mload\n        /* \"@chainlink/contracts/src/v0.8/functions/v1_0_0/libraries/FunctionsRequest.sol\":3149:3155  buffer */\n      dup3\n        /* \"@chainlink/contracts/src/v0.8/functions/v1_0_0/libraries/FunctionsRequest.sol\":3149:3166  buffer.writeBytes */\n      tag_91\n      swap1\n        /* \"@chainlink/contracts/src/v0.8/functions/v1_0_0/libraries/FunctionsRequest.sol\":3149:3198  buffer.writeBytes(self.encryptedSecretsReference) */\n      swap2\n      swap1\n      0xffffffff\n      and\n      jump\t// in\n    tag_90:\n        /* \"@chainlink/contracts/src/v0.8/functions/v1_0_0/libraries/FunctionsRequest.sol\":2859:3205  if (self.encryptedSecretsReference.length > 0) {... */\n    tag_79:\n        /* \"@chainlink/contracts/src/v0.8/functions/v1_0_0/libraries/FunctionsRequest.sol\":3239:3240  0 */\n      0x00\n        /* \"@chainlink/contracts/src/v0.8/functions/v1_0_0/libraries/FunctionsRequest.sol\":3215:3219  self */\n      dup4\n        /* \"@chainlink/contracts/src/v0.8/functions/v1_0_0/libraries/FunctionsRequest.sol\":3215:3229  self.bytesArgs */\n      0xc0\n      add\n      mload\n        /* \"@chainlink/contracts/src/v0.8/functions/v1_0_0/libraries/FunctionsRequest.sol\":3215:3236  self.bytesArgs.length */\n      mload\n        /* \"@chainlink/contracts/src/v0.8/functions/v1_0_0/libraries/FunctionsRequest.sol\":3215:3240  self.bytesArgs.length > 0 */\n      gt\n        /* \"@chainlink/contracts/src/v0.8/functions/v1_0_0/libraries/FunctionsRequest.sol\":3211:3457  if (self.bytesArgs.length > 0) {... */\n      iszero\n      tag_92\n      jumpi\n        /* \"@chainlink/contracts/src/v0.8/functions/v1_0_0/libraries/FunctionsRequest.sol\":3250:3281  buffer.writeString(\"bytesArgs\") */\n      tag_93\n      mload(0x40)\n      dup1\n      0x40\n      add\n      0x40\n      mstore\n      dup1\n      0x09\n      dup2\n      mstore\n      0x20\n      add\n      0x6279746573417267730000000000000000000000000000000000000000000000\n      dup2\n      mstore\n      pop\n        /* \"@chainlink/contracts/src/v0.8/functions/v1_0_0/libraries/FunctionsRequest.sol\":3250:3256  buffer */\n      dup3\n        /* \"@chainlink/contracts/src/v0.8/functions/v1_0_0/libraries/FunctionsRequest.sol\":3250:3268  buffer.writeString */\n      tag_54\n      swap1\n        /* \"@chainlink/contracts/src/v0.8/functions/v1_0_0/libraries/FunctionsRequest.sol\":3250:3281  buffer.writeString(\"bytesArgs\") */\n      swap2\n      swap1\n      0xffffffff\n      and\n      jump\t// in\n    tag_93:\n        /* \"@chainlink/contracts/src/v0.8/functions/v1_0_0/libraries/FunctionsRequest.sol\":3289:3308  buffer.startArray() */\n      tag_94\n        /* \"@chainlink/contracts/src/v0.8/functions/v1_0_0/libraries/FunctionsRequest.sol\":3289:3295  buffer */\n      dup2\n        /* \"@chainlink/contracts/src/v0.8/functions/v1_0_0/libraries/FunctionsRequest.sol\":3289:3306  buffer.startArray */\n      tag_69\n        /* \"@chainlink/contracts/src/v0.8/functions/v1_0_0/libraries/FunctionsRequest.sol\":3289:3308  buffer.startArray() */\n      jump\t// in\n    tag_94:\n        /* \"@chainlink/contracts/src/v0.8/functions/v1_0_0/libraries/FunctionsRequest.sol\":3321:3330  uint256 i */\n      0x00\n        /* \"@chainlink/contracts/src/v0.8/functions/v1_0_0/libraries/FunctionsRequest.sol\":3333:3334  0 */\n      0x00\n        /* \"@chainlink/contracts/src/v0.8/functions/v1_0_0/libraries/FunctionsRequest.sol\":3321:3334  uint256 i = 0 */\n      swap1\n      pop\n        /* \"@chainlink/contracts/src/v0.8/functions/v1_0_0/libraries/FunctionsRequest.sol\":3316:3423  for (uint256 i = 0; i < self.bytesArgs.length; ++i) {... */\n    tag_95:\n        /* \"@chainlink/contracts/src/v0.8/functions/v1_0_0/libraries/FunctionsRequest.sol\":3340:3344  self */\n      dup4\n        /* \"@chainlink/contracts/src/v0.8/functions/v1_0_0/libraries/FunctionsRequest.sol\":3340:3354  self.bytesArgs */\n      0xc0\n      add\n      mload\n        /* \"@chainlink/contracts/src/v0.8/functions/v1_0_0/libraries/FunctionsRequest.sol\":3340:3361  self.bytesArgs.length */\n      mload\n        /* \"@chainlink/contracts/src/v0.8/functions/v1_0_0/libraries/FunctionsRequest.sol\":3336:3337  i */\n      dup2\n        /* \"@chainlink/contracts/src/v0.8/functions/v1_0_0/libraries/FunctionsRequest.sol\":3336:3361  i < self.bytesArgs.length */\n      lt\n        /* \"@chainlink/contracts/src/v0.8/functions/v1_0_0/libraries/FunctionsRequest.sol\":3316:3423  for (uint256 i = 0; i < self.bytesArgs.length; ++i) {... */\n      iszero\n      tag_96\n      jumpi\n        /* \"@chainlink/contracts/src/v0.8/functions/v1_0_0/libraries/FunctionsRequest.sol\":3378:3414  buffer.writeBytes(self.bytesArgs[i]) */\n      tag_98\n        /* \"@chainlink/contracts/src/v0.8/functions/v1_0_0/libraries/FunctionsRequest.sol\":3396:3400  self */\n      dup5\n        /* \"@chainlink/contracts/src/v0.8/functions/v1_0_0/libraries/FunctionsRequest.sol\":3396:3410  self.bytesArgs */\n      0xc0\n      add\n      mload\n        /* \"@chainlink/contracts/src/v0.8/functions/v1_0_0/libraries/FunctionsRequest.sol\":3411:3412  i */\n      dup3\n        /* \"@chainlink/contracts/src/v0.8/functions/v1_0_0/libraries/FunctionsRequest.sol\":3396:3413  self.bytesArgs[i] */\n      dup2\n      mload\n      dup2\n      lt\n      tag_99\n      jumpi\n      tag_100\n      tag_76\n      jump\t// in\n    tag_100:\n    tag_99:\n      0x20\n      mul\n      0x20\n      add\n      add\n      mload\n        /* \"@chainlink/contracts/src/v0.8/functions/v1_0_0/libraries/FunctionsRequest.sol\":3378:3384  buffer */\n      dup4\n        /* \"@chainlink/contracts/src/v0.8/functions/v1_0_0/libraries/FunctionsRequest.sol\":3378:3395  buffer.writeBytes */\n      tag_91\n      swap1\n        /* \"@chainlink/contracts/src/v0.8/functions/v1_0_0/libraries/FunctionsRequest.sol\":3378:3414  buffer.writeBytes(self.bytesArgs[i]) */\n      swap2\n      swap1\n      0xffffffff\n      and\n      jump\t// in\n    tag_98:\n        /* \"@chainlink/contracts/src/v0.8/functions/v1_0_0/libraries/FunctionsRequest.sol\":3363:3366  ++i */\n      dup1\n      0x01\n      add\n      swap1\n      pop\n        /* \"@chainlink/contracts/src/v0.8/functions/v1_0_0/libraries/FunctionsRequest.sol\":3316:3423  for (uint256 i = 0; i < self.bytesArgs.length; ++i) {... */\n      jump(tag_95)\n    tag_96:\n      pop\n        /* \"@chainlink/contracts/src/v0.8/functions/v1_0_0/libraries/FunctionsRequest.sol\":3430:3450  buffer.endSequence() */\n      tag_101\n        /* \"@chainlink/contracts/src/v0.8/functions/v1_0_0/libraries/FunctionsRequest.sol\":3430:3436  buffer */\n      dup2\n        /* \"@chainlink/contracts/src/v0.8/functions/v1_0_0/libraries/FunctionsRequest.sol\":3430:3448  buffer.endSequence */\n      tag_78\n        /* \"@chainlink/contracts/src/v0.8/functions/v1_0_0/libraries/FunctionsRequest.sol\":3430:3450  buffer.endSequence() */\n      jump\t// in\n    tag_101:\n        /* \"@chainlink/contracts/src/v0.8/functions/v1_0_0/libraries/FunctionsRequest.sol\":3211:3457  if (self.bytesArgs.length > 0) {... */\n    tag_92:\n        /* \"@chainlink/contracts/src/v0.8/functions/v1_0_0/libraries/FunctionsRequest.sol\":3470:3476  buffer */\n      dup1\n        /* \"@chainlink/contracts/src/v0.8/functions/v1_0_0/libraries/FunctionsRequest.sol\":3470:3480  buffer.buf */\n      0x00\n      add\n      mload\n        /* \"@chainlink/contracts/src/v0.8/functions/v1_0_0/libraries/FunctionsRequest.sol\":3470:3484  buffer.buf.buf */\n      0x00\n      add\n      mload\n        /* \"@chainlink/contracts/src/v0.8/functions/v1_0_0/libraries/FunctionsRequest.sol\":3463:3484  return buffer.buf.buf */\n      swap2\n      pop\n      pop\n        /* \"@chainlink/contracts/src/v0.8/functions/v1_0_0/libraries/FunctionsRequest.sol\":2211:3489  function encodeCBOR(... */\n      swap2\n      swap1\n      pop\n      jump\t// out\n        /* \"@chainlink/contracts/src/v0.8/functions/v1_0_0/FunctionsClient.sol\":1166:1515  function _sendRequest(... */\n    tag_42:\n        /* \"@chainlink/contracts/src/v0.8/functions/v1_0_0/FunctionsClient.sol\":1308:1315  bytes32 */\n      0x00\n        /* \"@chainlink/contracts/src/v0.8/functions/v1_0_0/FunctionsClient.sol\":1323:1340  bytes32 requestId */\n      0x00\n        /* \"@chainlink/contracts/src/v0.8/functions/v1_0_0/FunctionsClient.sol\":1349:1357  i_router */\n      immutable(\"0x8e8fab5f003314da8d1873ea7720e8d9f47650136d916064d1edb8a11d682624\")\n        /* \"@chainlink/contracts/src/v0.8/functions/v1_0_0/FunctionsClient.sol\":1349:1369  i_router.sendRequest */\n      0xffffffffffffffffffffffffffffffffffffffff\n      and\n      0x461d2762\n        /* \"@chainlink/contracts/src/v0.8/functions/v1_0_0/FunctionsClient.sol\":1370:1384  subscriptionId */\n      dup7\n        /* \"@chainlink/contracts/src/v0.8/functions/v1_0_0/FunctionsClient.sol\":1386:1390  data */\n      dup9\n        /* \"@chainlink/contracts/src/v0.8/functions/v1_0_0/libraries/FunctionsRequest.sol\":322:323  1 */\n      0x01\n        /* \"@chainlink/contracts/src/v0.8/functions/v1_0_0/FunctionsClient.sol\":1431:1447  callbackGasLimit */\n      dup9\n        /* \"@chainlink/contracts/src/v0.8/functions/v1_0_0/FunctionsClient.sol\":1449:1454  donId */\n      dup9\n        /* \"@chainlink/contracts/src/v0.8/functions/v1_0_0/FunctionsClient.sol\":1349:1455  i_router.sendRequest(subscriptionId, data, FunctionsRequest.REQUEST_DATA_VERSION, callbackGasLimit, donId) */\n      mload(0x40)\n      dup7\n      0xffffffff\n      and\n      0xe0\n      shl\n      dup2\n      mstore\n      0x04\n      add\n      tag_103\n      swap6\n      swap5\n      swap4\n      swap3\n      swap2\n      swap1\n      tag_104\n      jump\t// in\n    tag_103:\n      0x20\n      mload(0x40)\n      dup1\n      dup4\n      sub\n      dup2\n      0x00\n      dup8\n      gas\n      call\n      iszero\n      dup1\n      iszero\n      tag_106\n      jumpi\n      returndatacopy(0x00, 0x00, returndatasize)\n      revert(0x00, returndatasize)\n    tag_106:\n      pop\n      pop\n      pop\n      pop\n      mload(0x40)\n      returndatasize\n      not(0x1f)\n      0x1f\n      dup3\n      add\n      and\n      dup3\n      add\n      dup1\n      0x40\n      mstore\n      pop\n      dup2\n      add\n      swap1\n      tag_107\n      swap2\n      swap1\n      tag_108\n      jump\t// in\n    tag_107:\n        /* \"@chainlink/contracts/src/v0.8/functions/v1_0_0/FunctionsClient.sol\":1323:1455  bytes32 requestId =... */\n      swap1\n      pop\n        /* \"@chainlink/contracts/src/v0.8/functions/v1_0_0/FunctionsClient.sol\":1478:1487  requestId */\n      dup1\n        /* \"@chainlink/contracts/src/v0.8/functions/v1_0_0/FunctionsClient.sol\":1466:1488  RequestSent(requestId) */\n      0x1131472297a800fee664d1d89cfa8f7676ff07189ecc53f80bbb5f4969099db8\n      mload(0x40)\n      mload(0x40)\n      dup1\n      swap2\n      sub\n      swap1\n      log2\n        /* \"@chainlink/contracts/src/v0.8/functions/v1_0_0/FunctionsClient.sol\":1501:1510  requestId */\n      dup1\n        /* \"@chainlink/contracts/src/v0.8/functions/v1_0_0/FunctionsClient.sol\":1494:1510  return requestId */\n      swap2\n      pop\n      pop\n        /* \"@chainlink/contracts/src/v0.8/functions/v1_0_0/FunctionsClient.sol\":1166:1515  function _sendRequest(... */\n      swap5\n      swap4\n      pop\n      pop\n      pop\n      pop\n      jump\t// out\n        /* \"@chainlink/contracts/src/v0.8/functions/v1_0_0/libraries/FunctionsRequest.sol\":3838:4145  function initializeRequest(... */\n    tag_49:\n        /* \"@chainlink/contracts/src/v0.8/functions/v1_0_0/libraries/FunctionsRequest.sol\":4022:4023  0 */\n      0x00\n        /* \"@chainlink/contracts/src/v0.8/functions/v1_0_0/libraries/FunctionsRequest.sol\":4004:4010  source */\n      dup2\n        /* \"@chainlink/contracts/src/v0.8/functions/v1_0_0/libraries/FunctionsRequest.sol\":3998:4018  bytes(source).length */\n      mload\n        /* \"@chainlink/contracts/src/v0.8/functions/v1_0_0/libraries/FunctionsRequest.sol\":3998:4023  bytes(source).length == 0 */\n      sub\n        /* \"@chainlink/contracts/src/v0.8/functions/v1_0_0/libraries/FunctionsRequest.sol\":3994:4045  if (bytes(source).length == 0) revert EmptySource() */\n      tag_110\n      jumpi\n        /* \"@chainlink/contracts/src/v0.8/functions/v1_0_0/libraries/FunctionsRequest.sol\":4032:4045  EmptySource() */\n      mload(0x40)\n      0x22ce3edd00000000000000000000000000000000000000000000000000000000\n      dup2\n      mstore\n      0x04\n      add\n      mload(0x40)\n      dup1\n      swap2\n      sub\n      swap1\n      revert\n        /* \"@chainlink/contracts/src/v0.8/functions/v1_0_0/libraries/FunctionsRequest.sol\":3994:4045  if (bytes(source).length == 0) revert EmptySource() */\n    tag_110:\n        /* \"@chainlink/contracts/src/v0.8/functions/v1_0_0/libraries/FunctionsRequest.sol\":4072:4084  codeLocation */\n      dup3\n        /* \"@chainlink/contracts/src/v0.8/functions/v1_0_0/libraries/FunctionsRequest.sol\":4052:4056  self */\n      dup5\n        /* \"@chainlink/contracts/src/v0.8/functions/v1_0_0/libraries/FunctionsRequest.sol\":4052:4069  self.codeLocation */\n      0x00\n      add\n        /* \"@chainlink/contracts/src/v0.8/functions/v1_0_0/libraries/FunctionsRequest.sol\":4052:4084  self.codeLocation = codeLocation */\n      swap1\n      0x02\n      dup2\n      gt\n      iszero\n      tag_111\n      jumpi\n      tag_112\n      tag_58\n      jump\t// in\n    tag_112:\n    tag_111:\n      swap1\n      dup2\n      0x02\n      dup2\n      gt\n      iszero\n      tag_113\n      jumpi\n      tag_114\n      tag_58\n      jump\t// in\n    tag_114:\n    tag_113:\n      dup2\n      mstore\n      pop\n      pop\n        /* \"@chainlink/contracts/src/v0.8/functions/v1_0_0/libraries/FunctionsRequest.sol\":4106:4114  language */\n      dup2\n        /* \"@chainlink/contracts/src/v0.8/functions/v1_0_0/libraries/FunctionsRequest.sol\":4090:4094  self */\n      dup5\n        /* \"@chainlink/contracts/src/v0.8/functions/v1_0_0/libraries/FunctionsRequest.sol\":4090:4103  self.language */\n      0x40\n      add\n        /* \"@chainlink/contracts/src/v0.8/functions/v1_0_0/libraries/FunctionsRequest.sol\":4090:4114  self.language = language */\n      swap1\n      0x00\n      dup2\n      gt\n      iszero\n      tag_115\n      jumpi\n      tag_116\n      tag_58\n      jump\t// in\n    tag_116:\n    tag_115:\n      swap1\n      dup2\n      0x00\n      dup2\n      gt\n      iszero\n      tag_117\n      jumpi\n      tag_118\n      tag_58\n      jump\t// in\n    tag_118:\n    tag_117:\n      dup2\n      mstore\n      pop\n      pop\n        /* \"@chainlink/contracts/src/v0.8/functions/v1_0_0/libraries/FunctionsRequest.sol\":4134:4140  source */\n      dup1\n        /* \"@chainlink/contracts/src/v0.8/functions/v1_0_0/libraries/FunctionsRequest.sol\":4120:4124  self */\n      dup5\n        /* \"@chainlink/contracts/src/v0.8/functions/v1_0_0/libraries/FunctionsRequest.sol\":4120:4131  self.source */\n      0x60\n      add\n        /* \"@chainlink/contracts/src/v0.8/functions/v1_0_0/libraries/FunctionsRequest.sol\":4120:4140  self.source = source */\n      dup2\n      swap1\n      mstore\n      pop\n        /* \"@chainlink/contracts/src/v0.8/functions/v1_0_0/libraries/FunctionsRequest.sol\":3838:4145  function initializeRequest(... */\n      pop\n      pop\n      pop\n      pop\n      jump\t// out\n        /* \"@chainlink/contracts/src/v0.8/vendor/solidity-cborutils/v2.0.0/CBOR.sol\":1490:1663  function create(uint256 capacity) internal pure returns(CBORBuffer memory cbor) {... */\n    tag_52:\n        /* \"@chainlink/contracts/src/v0.8/vendor/solidity-cborutils/v2.0.0/CBOR.sol\":1546:1568  CBORBuffer memory cbor */\n      tag_119\n      tag_120\n      jump\t// in\n    tag_119:\n        /* \"@chainlink/contracts/src/v0.8/vendor/solidity-cborutils/v2.0.0/CBOR.sol\":1580:1611  Buffer.init(cbor.buf, capacity) */\n      tag_122\n        /* \"@chainlink/contracts/src/v0.8/vendor/solidity-cborutils/v2.0.0/CBOR.sol\":1592:1596  cbor */\n      dup2\n        /* \"@chainlink/contracts/src/v0.8/vendor/solidity-cborutils/v2.0.0/CBOR.sol\":1592:1600  cbor.buf */\n      0x00\n      add\n      mload\n        /* \"@chainlink/contracts/src/v0.8/vendor/solidity-cborutils/v2.0.0/CBOR.sol\":1602:1610  capacity */\n      dup4\n        /* \"@chainlink/contracts/src/v0.8/vendor/solidity-cborutils/v2.0.0/CBOR.sol\":1580:1591  Buffer.init */\n      tag_123\n        /* \"@chainlink/contracts/src/v0.8/vendor/solidity-cborutils/v2.0.0/CBOR.sol\":1580:1611  Buffer.init(cbor.buf, capacity) */\n      jump\t// in\n    tag_122:\n      pop\n        /* \"@chainlink/contracts/src/v0.8/vendor/solidity-cborutils/v2.0.0/CBOR.sol\":1634:1635  0 */\n      0x00\n        /* \"@chainlink/contracts/src/v0.8/vendor/solidity-cborutils/v2.0.0/CBOR.sol\":1621:1625  cbor */\n      dup2\n        /* \"@chainlink/contracts/src/v0.8/vendor/solidity-cborutils/v2.0.0/CBOR.sol\":1621:1631  cbor.depth */\n      0x20\n      add\n        /* \"@chainlink/contracts/src/v0.8/vendor/solidity-cborutils/v2.0.0/CBOR.sol\":1621:1635  cbor.depth = 0 */\n      dup2\n      dup2\n      mstore\n      pop\n      pop\n        /* \"@chainlink/contracts/src/v0.8/vendor/solidity-cborutils/v2.0.0/CBOR.sol\":1490:1663  function create(uint256 capacity) internal pure returns(CBORBuffer memory cbor) {... */\n      swap2\n      swap1\n      pop\n      jump\t// out\n        /* \"@chainlink/contracts/src/v0.8/vendor/solidity-cborutils/v2.0.0/CBOR.sol\":3021:3225  function writeString(CBORBuffer memory buf, string memory value) internal pure {... */\n    tag_54:\n        /* \"@chainlink/contracts/src/v0.8/vendor/solidity-cborutils/v2.0.0/CBOR.sol\":3110:3180  writeFixedNumeric(buf, MAJOR_TYPE_STRING, uint64(bytes(value).length)) */\n      tag_125\n        /* \"@chainlink/contracts/src/v0.8/vendor/solidity-cborutils/v2.0.0/CBOR.sol\":3128:3131  buf */\n      dup3\n        /* \"@chainlink/contracts/src/v0.8/vendor/solidity-cborutils/v2.0.0/CBOR.sol\":998:999  3 */\n      0x03\n        /* \"@chainlink/contracts/src/v0.8/vendor/solidity-cborutils/v2.0.0/CBOR.sol\":3165:3170  value */\n      dup4\n        /* \"@chainlink/contracts/src/v0.8/vendor/solidity-cborutils/v2.0.0/CBOR.sol\":3159:3178  bytes(value).length */\n      mload\n        /* \"@chainlink/contracts/src/v0.8/vendor/solidity-cborutils/v2.0.0/CBOR.sol\":3110:3127  writeFixedNumeric */\n      tag_126\n        /* \"@chainlink/contracts/src/v0.8/vendor/solidity-cborutils/v2.0.0/CBOR.sol\":3110:3180  writeFixedNumeric(buf, MAJOR_TYPE_STRING, uint64(bytes(value).length)) */\n      jump\t// in\n    tag_125:\n        /* \"@chainlink/contracts/src/v0.8/vendor/solidity-cborutils/v2.0.0/CBOR.sol\":3190:3218  buf.buf.append(bytes(value)) */\n      tag_127\n        /* \"@chainlink/contracts/src/v0.8/vendor/solidity-cborutils/v2.0.0/CBOR.sol\":3211:3216  value */\n      dup2\n        /* \"@chainlink/contracts/src/v0.8/vendor/solidity-cborutils/v2.0.0/CBOR.sol\":3190:3193  buf */\n      dup4\n        /* \"@chainlink/contracts/src/v0.8/vendor/solidity-cborutils/v2.0.0/CBOR.sol\":3190:3197  buf.buf */\n      0x00\n      add\n      mload\n        /* \"@chainlink/contracts/src/v0.8/vendor/solidity-cborutils/v2.0.0/CBOR.sol\":3190:3204  buf.buf.append */\n      tag_128\n      swap1\n        /* \"@chainlink/contracts/src/v0.8/vendor/solidity-cborutils/v2.0.0/CBOR.sol\":3190:3218  buf.buf.append(bytes(value)) */\n      swap2\n      swap1\n      0xffffffff\n      and\n      jump\t// in\n    tag_127:\n      pop\n        /* \"@chainlink/contracts/src/v0.8/vendor/solidity-cborutils/v2.0.0/CBOR.sol\":3021:3225  function writeString(CBORBuffer memory buf, string memory value) internal pure {... */\n      pop\n      pop\n      jump\t// out\n        /* \"@chainlink/contracts/src/v0.8/vendor/solidity-cborutils/v2.0.0/CBOR.sol\":1832:2034  function writeUInt256(CBORBuffer memory buf, uint256 value) internal pure {... */\n    tag_59:\n        /* \"@chainlink/contracts/src/v0.8/vendor/solidity-cborutils/v2.0.0/CBOR.sol\":1916:1983  buf.buf.appendUint8(uint8((MAJOR_TYPE_TAG << 5) | TAG_TYPE_BIGNUM)) */\n      tag_130\n        /* \"@chainlink/contracts/src/v0.8/vendor/solidity-cborutils/v2.0.0/CBOR.sol\":1246:1247  2 */\n      0x02\n        /* \"@chainlink/contracts/src/v0.8/vendor/solidity-cborutils/v2.0.0/CBOR.sol\":1961:1962  5 */\n      0x05\n        /* \"@chainlink/contracts/src/v0.8/vendor/solidity-cborutils/v2.0.0/CBOR.sol\":1141:1142  6 */\n      0x06\n        /* \"@chainlink/contracts/src/v0.8/vendor/solidity-cborutils/v2.0.0/CBOR.sol\":1943:1962  MAJOR_TYPE_TAG << 5 */\n      0xff\n      and\n      swap1\n      shl\n        /* \"@chainlink/contracts/src/v0.8/vendor/solidity-cborutils/v2.0.0/CBOR.sol\":1942:1981  (MAJOR_TYPE_TAG << 5) | TAG_TYPE_BIGNUM */\n      or\n        /* \"@chainlink/contracts/src/v0.8/vendor/solidity-cborutils/v2.0.0/CBOR.sol\":1916:1919  buf */\n      dup4\n        /* \"@chainlink/contracts/src/v0.8/vendor/solidity-cborutils/v2.0.0/CBOR.sol\":1916:1923  buf.buf */\n      0x00\n      add\n      mload\n        /* \"@chainlink/contracts/src/v0.8/vendor/solidity-cborutils/v2.0.0/CBOR.sol\":1916:1935  buf.buf.appendUint8 */\n      tag_131\n      swap1\n        /* \"@chainlink/contracts/src/v0.8/vendor/solidity-cborutils/v2.0.0/CBOR.sol\":1916:1983  buf.buf.appendUint8(uint8((MAJOR_TYPE_TAG << 5) | TAG_TYPE_BIGNUM)) */\n      swap2\n      swap1\n      0xffffffff\n      and\n      jump\t// in\n    tag_130:\n      pop\n        /* \"@chainlink/contracts/src/v0.8/vendor/solidity-cborutils/v2.0.0/CBOR.sol\":1993:2027  writeBytes(buf, abi.encode(value)) */\n      tag_132\n        /* \"@chainlink/contracts/src/v0.8/vendor/solidity-cborutils/v2.0.0/CBOR.sol\":2004:2007  buf */\n      dup3\n        /* \"@chainlink/contracts/src/v0.8/vendor/solidity-cborutils/v2.0.0/CBOR.sol\":2020:2025  value */\n      dup3\n        /* \"@chainlink/contracts/src/v0.8/vendor/solidity-cborutils/v2.0.0/CBOR.sol\":2009:2026  abi.encode(value) */\n      add(0x20, mload(0x40))\n      tag_133\n      swap2\n      swap1\n      tag_134\n      jump\t// in\n    tag_133:\n      mload(0x40)\n      0x20\n      dup2\n      dup4\n      sub\n      sub\n      dup2\n      mstore\n      swap1\n      0x40\n      mstore\n        /* \"@chainlink/contracts/src/v0.8/vendor/solidity-cborutils/v2.0.0/CBOR.sol\":1993:2003  writeBytes */\n      tag_91\n        /* \"@chainlink/contracts/src/v0.8/vendor/solidity-cborutils/v2.0.0/CBOR.sol\":1993:2027  writeBytes(buf, abi.encode(value)) */\n      jump\t// in\n    tag_132:\n        /* \"@chainlink/contracts/src/v0.8/vendor/solidity-cborutils/v2.0.0/CBOR.sol\":1832:2034  function writeUInt256(CBORBuffer memory buf, uint256 value) internal pure {... */\n      pop\n      pop\n      jump\t// out\n        /* \"@chainlink/contracts/src/v0.8/vendor/solidity-cborutils/v2.0.0/CBOR.sol\":3607:3753  function startArray(CBORBuffer memory buf) internal pure {... */\n    tag_69:\n        /* \"@chainlink/contracts/src/v0.8/vendor/solidity-cborutils/v2.0.0/CBOR.sol\":3674:3722  writeIndefiniteLengthType(buf, MAJOR_TYPE_ARRAY) */\n      tag_136\n        /* \"@chainlink/contracts/src/v0.8/vendor/solidity-cborutils/v2.0.0/CBOR.sol\":3700:3703  buf */\n      dup2\n        /* \"@chainlink/contracts/src/v0.8/vendor/solidity-cborutils/v2.0.0/CBOR.sol\":1047:1048  4 */\n      0x04\n        /* \"@chainlink/contracts/src/v0.8/vendor/solidity-cborutils/v2.0.0/CBOR.sol\":3674:3699  writeIndefiniteLengthType */\n      tag_137\n        /* \"@chainlink/contracts/src/v0.8/vendor/solidity-cborutils/v2.0.0/CBOR.sol\":3674:3722  writeIndefiniteLengthType(buf, MAJOR_TYPE_ARRAY) */\n      jump\t// in\n    tag_136:\n        /* \"@chainlink/contracts/src/v0.8/vendor/solidity-cborutils/v2.0.0/CBOR.sol\":3745:3746  1 */\n      0x01\n        /* \"@chainlink/contracts/src/v0.8/vendor/solidity-cborutils/v2.0.0/CBOR.sol\":3732:3735  buf */\n      dup2\n        /* \"@chainlink/contracts/src/v0.8/vendor/solidity-cborutils/v2.0.0/CBOR.sol\":3732:3741  buf.depth */\n      0x20\n      add\n        /* \"@chainlink/contracts/src/v0.8/vendor/solidity-cborutils/v2.0.0/CBOR.sol\":3732:3746  buf.depth += 1 */\n      dup2\n      dup2\n      mload\n      tag_138\n      swap2\n      swap1\n      tag_139\n      jump\t// in\n    tag_138:\n      swap2\n      pop\n      dup2\n      dup2\n      mstore\n      pop\n      pop\n        /* \"@chainlink/contracts/src/v0.8/vendor/solidity-cborutils/v2.0.0/CBOR.sol\":3607:3753  function startArray(CBORBuffer memory buf) internal pure {... */\n      pop\n      jump\t// out\n        /* \"@chainlink/contracts/src/v0.8/vendor/solidity-cborutils/v2.0.0/CBOR.sol\":4211:4365  function endSequence(CBORBuffer memory buf) internal pure {... */\n    tag_78:\n        /* \"@chainlink/contracts/src/v0.8/vendor/solidity-cborutils/v2.0.0/CBOR.sol\":4279:4334  writeIndefiniteLengthType(buf, MAJOR_TYPE_CONTENT_FREE) */\n      tag_141\n        /* \"@chainlink/contracts/src/v0.8/vendor/solidity-cborutils/v2.0.0/CBOR.sol\":4305:4308  buf */\n      dup2\n        /* \"@chainlink/contracts/src/v0.8/vendor/solidity-cborutils/v2.0.0/CBOR.sol\":1197:1198  7 */\n      0x07\n        /* \"@chainlink/contracts/src/v0.8/vendor/solidity-cborutils/v2.0.0/CBOR.sol\":4279:4304  writeIndefiniteLengthType */\n      tag_137\n        /* \"@chainlink/contracts/src/v0.8/vendor/solidity-cborutils/v2.0.0/CBOR.sol\":4279:4334  writeIndefiniteLengthType(buf, MAJOR_TYPE_CONTENT_FREE) */\n      jump\t// in\n    tag_141:\n        /* \"@chainlink/contracts/src/v0.8/vendor/solidity-cborutils/v2.0.0/CBOR.sol\":4357:4358  1 */\n      0x01\n        /* \"@chainlink/contracts/src/v0.8/vendor/solidity-cborutils/v2.0.0/CBOR.sol\":4344:4347  buf */\n      dup2\n        /* \"@chainlink/contracts/src/v0.8/vendor/solidity-cborutils/v2.0.0/CBOR.sol\":4344:4353  buf.depth */\n      0x20\n      add\n        /* \"@chainlink/contracts/src/v0.8/vendor/solidity-cborutils/v2.0.0/CBOR.sol\":4344:4358  buf.depth -= 1 */\n      dup2\n      dup2\n      mload\n      tag_142\n      swap2\n      swap1\n      tag_143\n      jump\t// in\n    tag_142:\n      swap2\n      pop\n      dup2\n      dup2\n      mstore\n      pop\n      pop\n        /* \"@chainlink/contracts/src/v0.8/vendor/solidity-cborutils/v2.0.0/CBOR.sol\":4211:4365  function endSequence(CBORBuffer memory buf) internal pure {... */\n      pop\n      jump\t// out\n        /* \"@chainlink/contracts/src/v0.8/vendor/solidity-cborutils/v2.0.0/CBOR.sol\":2828:3015  function writeBytes(CBORBuffer memory buf, bytes memory value) internal pure {... */\n    tag_91:\n        /* \"@chainlink/contracts/src/v0.8/vendor/solidity-cborutils/v2.0.0/CBOR.sol\":2915:2977  writeFixedNumeric(buf, MAJOR_TYPE_BYTES, uint64(value.length)) */\n      tag_145\n        /* \"@chainlink/contracts/src/v0.8/vendor/solidity-cborutils/v2.0.0/CBOR.sol\":2933:2936  buf */\n      dup3\n        /* \"@chainlink/contracts/src/v0.8/vendor/solidity-cborutils/v2.0.0/CBOR.sol\":948:949  2 */\n      0x02\n        /* \"@chainlink/contracts/src/v0.8/vendor/solidity-cborutils/v2.0.0/CBOR.sol\":2963:2968  value */\n      dup4\n        /* \"@chainlink/contracts/src/v0.8/vendor/solidity-cborutils/v2.0.0/CBOR.sol\":2963:2975  value.length */\n      mload\n        /* \"@chainlink/contracts/src/v0.8/vendor/solidity-cborutils/v2.0.0/CBOR.sol\":2915:2932  writeFixedNumeric */\n      tag_126\n        /* \"@chainlink/contracts/src/v0.8/vendor/solidity-cborutils/v2.0.0/CBOR.sol\":2915:2977  writeFixedNumeric(buf, MAJOR_TYPE_BYTES, uint64(value.length)) */\n      jump\t// in\n    tag_145:\n        /* \"@chainlink/contracts/src/v0.8/vendor/solidity-cborutils/v2.0.0/CBOR.sol\":2987:3008  buf.buf.append(value) */\n      tag_146\n        /* \"@chainlink/contracts/src/v0.8/vendor/solidity-cborutils/v2.0.0/CBOR.sol\":3002:3007  value */\n      dup2\n        /* \"@chainlink/contracts/src/v0.8/vendor/solidity-cborutils/v2.0.0/CBOR.sol\":2987:2990  buf */\n      dup4\n        /* \"@chainlink/contracts/src/v0.8/vendor/solidity-cborutils/v2.0.0/CBOR.sol\":2987:2994  buf.buf */\n      0x00\n      add\n      mload\n        /* \"@chainlink/contracts/src/v0.8/vendor/solidity-cborutils/v2.0.0/CBOR.sol\":2987:3001  buf.buf.append */\n      tag_128\n      swap1\n        /* \"@chainlink/contracts/src/v0.8/vendor/solidity-cborutils/v2.0.0/CBOR.sol\":2987:3008  buf.buf.append(value) */\n      swap2\n      swap1\n      0xffffffff\n      and\n      jump\t// in\n    tag_146:\n      pop\n        /* \"@chainlink/contracts/src/v0.8/vendor/solidity-cborutils/v2.0.0/CBOR.sol\":2828:3015  function writeBytes(CBORBuffer memory buf, bytes memory value) internal pure {... */\n      pop\n      pop\n      jump\t// out\n        /* \"@chainlink/contracts/src/v0.8/vendor/@ensdomains/buffer/v0.1.0/Buffer.sol\":1020:1575  function init(buffer memory buf, uint capacity) internal pure returns(buffer memory) {... */\n    tag_123:\n        /* \"@chainlink/contracts/src/v0.8/vendor/@ensdomains/buffer/v0.1.0/Buffer.sol\":1090:1103  buffer memory */\n      tag_147\n      tag_148\n      jump\t// in\n    tag_147:\n        /* \"@chainlink/contracts/src/v0.8/vendor/@ensdomains/buffer/v0.1.0/Buffer.sol\":1136:1137  0 */\n      0x00\n        /* \"@chainlink/contracts/src/v0.8/vendor/@ensdomains/buffer/v0.1.0/Buffer.sol\":1130:1132  32 */\n      0x20\n        /* \"@chainlink/contracts/src/v0.8/vendor/@ensdomains/buffer/v0.1.0/Buffer.sol\":1119:1127  capacity */\n      dup4\n        /* \"@chainlink/contracts/src/v0.8/vendor/@ensdomains/buffer/v0.1.0/Buffer.sol\":1119:1132  capacity % 32 */\n      tag_150\n      swap2\n      swap1\n      tag_151\n      jump\t// in\n    tag_150:\n        /* \"@chainlink/contracts/src/v0.8/vendor/@ensdomains/buffer/v0.1.0/Buffer.sol\":1119:1137  capacity % 32 != 0 */\n      eq\n        /* \"@chainlink/contracts/src/v0.8/vendor/@ensdomains/buffer/v0.1.0/Buffer.sol\":1115:1196  if (capacity % 32 != 0) {... */\n      tag_152\n      jumpi\n        /* \"@chainlink/contracts/src/v0.8/vendor/@ensdomains/buffer/v0.1.0/Buffer.sol\":1182:1184  32 */\n      0x20\n        /* \"@chainlink/contracts/src/v0.8/vendor/@ensdomains/buffer/v0.1.0/Buffer.sol\":1171:1179  capacity */\n      dup3\n        /* \"@chainlink/contracts/src/v0.8/vendor/@ensdomains/buffer/v0.1.0/Buffer.sol\":1171:1184  capacity % 32 */\n      tag_153\n      swap2\n      swap1\n      tag_151\n      jump\t// in\n    tag_153:\n        /* \"@chainlink/contracts/src/v0.8/vendor/@ensdomains/buffer/v0.1.0/Buffer.sol\":1165:1167  32 */\n      0x20\n        /* \"@chainlink/contracts/src/v0.8/vendor/@ensdomains/buffer/v0.1.0/Buffer.sol\":1165:1185  32 - (capacity % 32) */\n      tag_154\n      swap2\n      swap1\n      tag_143\n      jump\t// in\n    tag_154:\n        /* \"@chainlink/contracts/src/v0.8/vendor/@ensdomains/buffer/v0.1.0/Buffer.sol\":1153:1185  capacity += 32 - (capacity % 32) */\n      dup3\n      tag_155\n      swap2\n      swap1\n      tag_139\n      jump\t// in\n    tag_155:\n      swap2\n      pop\n        /* \"@chainlink/contracts/src/v0.8/vendor/@ensdomains/buffer/v0.1.0/Buffer.sol\":1115:1196  if (capacity % 32 != 0) {... */\n    tag_152:\n        /* \"@chainlink/contracts/src/v0.8/vendor/@ensdomains/buffer/v0.1.0/Buffer.sol\":1266:1274  capacity */\n      dup2\n        /* \"@chainlink/contracts/src/v0.8/vendor/@ensdomains/buffer/v0.1.0/Buffer.sol\":1251:1254  buf */\n      dup4\n        /* \"@chainlink/contracts/src/v0.8/vendor/@ensdomains/buffer/v0.1.0/Buffer.sol\":1251:1263  buf.capacity */\n      0x20\n      add\n        /* \"@chainlink/contracts/src/v0.8/vendor/@ensdomains/buffer/v0.1.0/Buffer.sol\":1251:1274  buf.capacity = capacity */\n      dup2\n      dup2\n      mstore\n      pop\n      pop\n        /* \"@chainlink/contracts/src/v0.8/vendor/@ensdomains/buffer/v0.1.0/Buffer.sol\":1324:1328  0x40 */\n      0x40\n        /* \"@chainlink/contracts/src/v0.8/vendor/@ensdomains/buffer/v0.1.0/Buffer.sol\":1318:1329  mload(0x40) */\n      mload\n        /* \"@chainlink/contracts/src/v0.8/vendor/@ensdomains/buffer/v0.1.0/Buffer.sol\":1354:1357  ptr */\n      dup1\n        /* \"@chainlink/contracts/src/v0.8/vendor/@ensdomains/buffer/v0.1.0/Buffer.sol\":1349:1352  buf */\n      dup5\n        /* \"@chainlink/contracts/src/v0.8/vendor/@ensdomains/buffer/v0.1.0/Buffer.sol\":1342:1358  mstore(buf, ptr) */\n      mstore\n        /* \"@chainlink/contracts/src/v0.8/vendor/@ensdomains/buffer/v0.1.0/Buffer.sol\":1383:1384  0 */\n      0x00\n        /* \"@chainlink/contracts/src/v0.8/vendor/@ensdomains/buffer/v0.1.0/Buffer.sol\":1378:1381  ptr */\n      dup2\n        /* \"@chainlink/contracts/src/v0.8/vendor/@ensdomains/buffer/v0.1.0/Buffer.sol\":1371:1385  mstore(ptr, 0) */\n      mstore\n        /* \"@chainlink/contracts/src/v0.8/vendor/@ensdomains/buffer/v0.1.0/Buffer.sol\":1426:1434  capacity */\n      dup3\n        /* \"@chainlink/contracts/src/v0.8/vendor/@ensdomains/buffer/v0.1.0/Buffer.sol\":1421:1424  ptr */\n      dup2\n        /* \"@chainlink/contracts/src/v0.8/vendor/@ensdomains/buffer/v0.1.0/Buffer.sol\":1417:1435  add(ptr, capacity) */\n      add\n        /* \"@chainlink/contracts/src/v0.8/vendor/@ensdomains/buffer/v0.1.0/Buffer.sol\":1413:1415  32 */\n      0x20\n        /* \"@chainlink/contracts/src/v0.8/vendor/@ensdomains/buffer/v0.1.0/Buffer.sol\":1409:1436  add(32, add(ptr, capacity)) */\n      add\n        /* \"@chainlink/contracts/src/v0.8/vendor/@ensdomains/buffer/v0.1.0/Buffer.sol\":1460:1463  ptr */\n      dup2\n        /* \"@chainlink/contracts/src/v0.8/vendor/@ensdomains/buffer/v0.1.0/Buffer.sol\":1455:1458  fpm */\n      dup2\n        /* \"@chainlink/contracts/src/v0.8/vendor/@ensdomains/buffer/v0.1.0/Buffer.sol\":1452:1464  lt(fpm, ptr) */\n      lt\n        /* \"@chainlink/contracts/src/v0.8/vendor/@ensdomains/buffer/v0.1.0/Buffer.sol\":1449:1509  if lt(fpm, ptr) {... */\n      iszero\n      tag_156\n      jumpi\n        /* \"@chainlink/contracts/src/v0.8/vendor/@ensdomains/buffer/v0.1.0/Buffer.sol\":1493:1494  0 */\n      0x00\n        /* \"@chainlink/contracts/src/v0.8/vendor/@ensdomains/buffer/v0.1.0/Buffer.sol\":1490:1491  0 */\n      0x00\n        /* \"@chainlink/contracts/src/v0.8/vendor/@ensdomains/buffer/v0.1.0/Buffer.sol\":1483:1495  revert(0, 0) */\n      revert\n        /* \"@chainlink/contracts/src/v0.8/vendor/@ensdomains/buffer/v0.1.0/Buffer.sol\":1449:1509  if lt(fpm, ptr) {... */\n    tag_156:\n        /* \"@chainlink/contracts/src/v0.8/vendor/@ensdomains/buffer/v0.1.0/Buffer.sol\":1535:1538  fpm */\n      dup1\n        /* \"@chainlink/contracts/src/v0.8/vendor/@ensdomains/buffer/v0.1.0/Buffer.sol\":1529:1533  0x40 */\n      0x40\n        /* \"@chainlink/contracts/src/v0.8/vendor/@ensdomains/buffer/v0.1.0/Buffer.sol\":1522:1539  mstore(0x40, fpm) */\n      mstore\n        /* \"@chainlink/contracts/src/v0.8/vendor/@ensdomains/buffer/v0.1.0/Buffer.sol\":1293:1549  {... */\n      pop\n      pop\n        /* \"@chainlink/contracts/src/v0.8/vendor/@ensdomains/buffer/v0.1.0/Buffer.sol\":1565:1568  buf */\n      dup3\n        /* \"@chainlink/contracts/src/v0.8/vendor/@ensdomains/buffer/v0.1.0/Buffer.sol\":1558:1568  return buf */\n      swap1\n      pop\n        /* \"@chainlink/contracts/src/v0.8/vendor/@ensdomains/buffer/v0.1.0/Buffer.sol\":1020:1575  function init(buffer memory buf, uint capacity) internal pure returns(buffer memory) {... */\n      swap3\n      swap2\n      pop\n      pop\n      jump\t// out\n        /* \"@chainlink/contracts/src/v0.8/vendor/solidity-cborutils/v2.0.0/CBOR.sol\":6156:6915  function writeFixedNumeric(... */\n    tag_126:\n        /* \"@chainlink/contracts/src/v0.8/vendor/solidity-cborutils/v2.0.0/CBOR.sol\":6299:6301  23 */\n      0x17\n        /* \"@chainlink/contracts/src/v0.8/vendor/solidity-cborutils/v2.0.0/CBOR.sol\":6290:6295  value */\n      dup2\n        /* \"@chainlink/contracts/src/v0.8/vendor/solidity-cborutils/v2.0.0/CBOR.sol\":6290:6301  value <= 23 */\n      0xffffffffffffffff\n      and\n      gt\n        /* \"@chainlink/contracts/src/v0.8/vendor/solidity-cborutils/v2.0.0/CBOR.sol\":6286:6909  if (value <= 23) {... */\n      tag_158\n      jumpi\n        /* \"@chainlink/contracts/src/v0.8/vendor/solidity-cborutils/v2.0.0/CBOR.sol\":6317:6365  buf.buf.appendUint8(uint8((major << 5) | value)) */\n      tag_159\n        /* \"@chainlink/contracts/src/v0.8/vendor/solidity-cborutils/v2.0.0/CBOR.sol\":6358:6363  value */\n      dup2\n        /* \"@chainlink/contracts/src/v0.8/vendor/solidity-cborutils/v2.0.0/CBOR.sol\":6353:6354  5 */\n      0x05\n        /* \"@chainlink/contracts/src/v0.8/vendor/solidity-cborutils/v2.0.0/CBOR.sol\":6344:6349  major */\n      dup5\n        /* \"@chainlink/contracts/src/v0.8/vendor/solidity-cborutils/v2.0.0/CBOR.sol\":6344:6354  major << 5 */\n      0xff\n      and\n      swap1\n      shl\n        /* \"@chainlink/contracts/src/v0.8/vendor/solidity-cborutils/v2.0.0/CBOR.sol\":6343:6363  (major << 5) | value */\n      0xff\n      and\n      or\n        /* \"@chainlink/contracts/src/v0.8/vendor/solidity-cborutils/v2.0.0/CBOR.sol\":6317:6320  buf */\n      dup5\n        /* \"@chainlink/contracts/src/v0.8/vendor/solidity-cborutils/v2.0.0/CBOR.sol\":6317:6324  buf.buf */\n      0x00\n      add\n      mload\n        /* \"@chainlink/contracts/src/v0.8/vendor/solidity-cborutils/v2.0.0/CBOR.sol\":6317:6336  buf.buf.appendUint8 */\n      tag_131\n      swap1\n        /* \"@chainlink/contracts/src/v0.8/vendor/solidity-cborutils/v2.0.0/CBOR.sol\":6317:6365  buf.buf.appendUint8(uint8((major << 5) | value)) */\n      swap2\n      swap1\n      0xffffffff\n      and\n      jump\t// in\n    tag_159:\n      pop\n        /* \"@chainlink/contracts/src/v0.8/vendor/solidity-cborutils/v2.0.0/CBOR.sol\":6286:6909  if (value <= 23) {... */\n      jump(tag_160)\n    tag_158:\n        /* \"@chainlink/contracts/src/v0.8/vendor/solidity-cborutils/v2.0.0/CBOR.sol\":6395:6399  0xFF */\n      0xff\n        /* \"@chainlink/contracts/src/v0.8/vendor/solidity-cborutils/v2.0.0/CBOR.sol\":6386:6391  value */\n      dup2\n        /* \"@chainlink/contracts/src/v0.8/vendor/solidity-cborutils/v2.0.0/CBOR.sol\":6386:6399  value <= 0xFF */\n      0xffffffffffffffff\n      and\n      gt\n        /* \"@chainlink/contracts/src/v0.8/vendor/solidity-cborutils/v2.0.0/CBOR.sol\":6382:6909  if (value <= 0xFF) {... */\n      tag_161\n      jumpi\n        /* \"@chainlink/contracts/src/v0.8/vendor/solidity-cborutils/v2.0.0/CBOR.sol\":6415:6460  buf.buf.appendUint8(uint8((major << 5) | 24)) */\n      tag_162\n        /* \"@chainlink/contracts/src/v0.8/vendor/solidity-cborutils/v2.0.0/CBOR.sol\":6456:6458  24 */\n      0x18\n        /* \"@chainlink/contracts/src/v0.8/vendor/solidity-cborutils/v2.0.0/CBOR.sol\":6451:6452  5 */\n      0x05\n        /* \"@chainlink/contracts/src/v0.8/vendor/solidity-cborutils/v2.0.0/CBOR.sol\":6442:6447  major */\n      dup5\n        /* \"@chainlink/contracts/src/v0.8/vendor/solidity-cborutils/v2.0.0/CBOR.sol\":6442:6452  major << 5 */\n      0xff\n      and\n      swap1\n      shl\n        /* \"@chainlink/contracts/src/v0.8/vendor/solidity-cborutils/v2.0.0/CBOR.sol\":6441:6458  (major << 5) | 24 */\n      or\n        /* \"@chainlink/contracts/src/v0.8/vendor/solidity-cborutils/v2.0.0/CBOR.sol\":6415:6418  buf */\n      dup5\n        /* \"@chainlink/contracts/src/v0.8/vendor/solidity-cborutils/v2.0.0/CBOR.sol\":6415:6422  buf.buf */\n      0x00\n      add\n      mload\n        /* \"@chainlink/contracts/src/v0.8/vendor/solidity-cborutils/v2.0.0/CBOR.sol\":6415:6434  buf.buf.appendUint8 */\n      tag_131\n      swap1\n        /* \"@chainlink/contracts/src/v0.8/vendor/solidity-cborutils/v2.0.0/CBOR.sol\":6415:6460  buf.buf.appendUint8(uint8((major << 5) | 24)) */\n      swap2\n      swap1\n      0xffffffff\n      and\n      jump\t// in\n    tag_162:\n      pop\n        /* \"@chainlink/contracts/src/v0.8/vendor/solidity-cborutils/v2.0.0/CBOR.sol\":6474:6501  buf.buf.appendInt(value, 1) */\n      tag_163\n        /* \"@chainlink/contracts/src/v0.8/vendor/solidity-cborutils/v2.0.0/CBOR.sol\":6492:6497  value */\n      dup2\n        /* \"@chainlink/contracts/src/v0.8/vendor/solidity-cborutils/v2.0.0/CBOR.sol\":6474:6501  buf.buf.appendInt(value, 1) */\n      0xffffffffffffffff\n      and\n        /* \"@chainlink/contracts/src/v0.8/vendor/solidity-cborutils/v2.0.0/CBOR.sol\":6499:6500  1 */\n      0x01\n        /* \"@chainlink/contracts/src/v0.8/vendor/solidity-cborutils/v2.0.0/CBOR.sol\":6474:6477  buf */\n      dup6\n        /* \"@chainlink/contracts/src/v0.8/vendor/solidity-cborutils/v2.0.0/CBOR.sol\":6474:6481  buf.buf */\n      0x00\n      add\n      mload\n        /* \"@chainlink/contracts/src/v0.8/vendor/solidity-cborutils/v2.0.0/CBOR.sol\":6474:6491  buf.buf.appendInt */\n      tag_164\n      swap1\n        /* \"@chainlink/contracts/src/v0.8/vendor/solidity-cborutils/v2.0.0/CBOR.sol\":6474:6501  buf.buf.appendInt(value, 1) */\n      swap3\n      swap2\n      swap1\n      0xffffffff\n      and\n      jump\t// in\n    tag_163:\n      pop\n        /* \"@chainlink/contracts/src/v0.8/vendor/solidity-cborutils/v2.0.0/CBOR.sol\":6382:6909  if (value <= 0xFF) {... */\n      jump(tag_165)\n    tag_161:\n        /* \"@chainlink/contracts/src/v0.8/vendor/solidity-cborutils/v2.0.0/CBOR.sol\":6531:6537  0xFFFF */\n      0xffff\n        /* \"@chainlink/contracts/src/v0.8/vendor/solidity-cborutils/v2.0.0/CBOR.sol\":6522:6527  value */\n      dup2\n        /* \"@chainlink/contracts/src/v0.8/vendor/solidity-cborutils/v2.0.0/CBOR.sol\":6522:6537  value <= 0xFFFF */\n      0xffffffffffffffff\n      and\n      gt\n        /* \"@chainlink/contracts/src/v0.8/vendor/solidity-cborutils/v2.0.0/CBOR.sol\":6518:6909  if (value <= 0xFFFF) {... */\n      tag_166\n      jumpi\n        /* \"@chainlink/contracts/src/v0.8/vendor/solidity-cborutils/v2.0.0/CBOR.sol\":6553:6598  buf.buf.appendUint8(uint8((major << 5) | 25)) */\n      tag_167\n        /* \"@chainlink/contracts/src/v0.8/vendor/solidity-cborutils/v2.0.0/CBOR.sol\":6594:6596  25 */\n      0x19\n        /* \"@chainlink/contracts/src/v0.8/vendor/solidity-cborutils/v2.0.0/CBOR.sol\":6589:6590  5 */\n      0x05\n        /* \"@chainlink/contracts/src/v0.8/vendor/solidity-cborutils/v2.0.0/CBOR.sol\":6580:6585  major */\n      dup5\n        /* \"@chainlink/contracts/src/v0.8/vendor/solidity-cborutils/v2.0.0/CBOR.sol\":6580:6590  major << 5 */\n      0xff\n      and\n      swap1\n      shl\n        /* \"@chainlink/contracts/src/v0.8/vendor/solidity-cborutils/v2.0.0/CBOR.sol\":6579:6596  (major << 5) | 25 */\n      or\n        /* \"@chainlink/contracts/src/v0.8/vendor/solidity-cborutils/v2.0.0/CBOR.sol\":6553:6556  buf */\n      dup5\n        /* \"@chainlink/contracts/src/v0.8/vendor/solidity-cborutils/v2.0.0/CBOR.sol\":6553:6560  buf.buf */\n      0x00\n      add\n      mload\n        /* \"@chainlink/contracts/src/v0.8/vendor/solidity-cborutils/v2.0.0/CBOR.sol\":6553:6572  buf.buf.appendUint8 */\n      tag_131\n      swap1\n        /* \"@chainlink/contracts/src/v0.8/vendor/solidity-cborutils/v2.0.0/CBOR.sol\":6553:6598  buf.buf.appendUint8(uint8((major << 5) | 25)) */\n      swap2\n      swap1\n      0xffffffff\n      and\n      jump\t// in\n    tag_167:\n      pop\n        /* \"@chainlink/contracts/src/v0.8/vendor/solidity-cborutils/v2.0.0/CBOR.sol\":6612:6639  buf.buf.appendInt(value, 2) */\n      tag_168\n        /* \"@chainlink/contracts/src/v0.8/vendor/solidity-cborutils/v2.0.0/CBOR.sol\":6630:6635  value */\n      dup2\n        /* \"@chainlink/contracts/src/v0.8/vendor/solidity-cborutils/v2.0.0/CBOR.sol\":6612:6639  buf.buf.appendInt(value, 2) */\n      0xffffffffffffffff\n      and\n        /* \"@chainlink/contracts/src/v0.8/vendor/solidity-cborutils/v2.0.0/CBOR.sol\":6637:6638  2 */\n      0x02\n        /* \"@chainlink/contracts/src/v0.8/vendor/solidity-cborutils/v2.0.0/CBOR.sol\":6612:6615  buf */\n      dup6\n        /* \"@chainlink/contracts/src/v0.8/vendor/solidity-cborutils/v2.0.0/CBOR.sol\":6612:6619  buf.buf */\n      0x00\n      add\n      mload\n        /* \"@chainlink/contracts/src/v0.8/vendor/solidity-cborutils/v2.0.0/CBOR.sol\":6612:6629  buf.buf.appendInt */\n      tag_164\n      swap1\n        /* \"@chainlink/contracts/src/v0.8/vendor/solidity-cborutils/v2.0.0/CBOR.sol\":6612:6639  buf.buf.appendInt(value, 2) */\n      swap3\n      swap2\n      swap1\n      0xffffffff\n      and\n      jump\t// in\n    tag_168:\n      pop\n        /* \"@chainlink/contracts/src/v0.8/vendor/solidity-cborutils/v2.0.0/CBOR.sol\":6518:6909  if (value <= 0xFFFF) {... */\n      jump(tag_169)\n    tag_166:\n        /* \"@chainlink/contracts/src/v0.8/vendor/solidity-cborutils/v2.0.0/CBOR.sol\":6669:6679  0xFFFFFFFF */\n      0xffffffff\n        /* \"@chainlink/contracts/src/v0.8/vendor/solidity-cborutils/v2.0.0/CBOR.sol\":6660:6665  value */\n      dup2\n        /* \"@chainlink/contracts/src/v0.8/vendor/solidity-cborutils/v2.0.0/CBOR.sol\":6660:6679  value <= 0xFFFFFFFF */\n      0xffffffffffffffff\n      and\n      gt\n        /* \"@chainlink/contracts/src/v0.8/vendor/solidity-cborutils/v2.0.0/CBOR.sol\":6656:6909  if (value <= 0xFFFFFFFF) {... */\n      tag_170\n      jumpi\n        /* \"@chainlink/contracts/src/v0.8/vendor/solidity-cborutils/v2.0.0/CBOR.sol\":6695:6740  buf.buf.appendUint8(uint8((major << 5) | 26)) */\n      tag_171\n        /* \"@chainlink/contracts/src/v0.8/vendor/solidity-cborutils/v2.0.0/CBOR.sol\":6736:6738  26 */\n      0x1a\n        /* \"@chainlink/contracts/src/v0.8/vendor/solidity-cborutils/v2.0.0/CBOR.sol\":6731:6732  5 */\n      0x05\n        /* \"@chainlink/contracts/src/v0.8/vendor/solidity-cborutils/v2.0.0/CBOR.sol\":6722:6727  major */\n      dup5\n        /* \"@chainlink/contracts/src/v0.8/vendor/solidity-cborutils/v2.0.0/CBOR.sol\":6722:6732  major << 5 */\n      0xff\n      and\n      swap1\n      shl\n        /* \"@chainlink/contracts/src/v0.8/vendor/solidity-cborutils/v2.0.0/CBOR.sol\":6721:6738  (major << 5) | 26 */\n      or\n        /* \"@chainlink/contracts/src/v0.8/vendor/solidity-cborutils/v2.0.0/CBOR.sol\":6695:6698  buf */\n      dup5\n        /* \"@chainlink/contracts/src/v0.8/vendor/solidity-cborutils/v2.0.0/CBOR.sol\":6695:6702  buf.buf */\n      0x00\n      add\n      mload\n        /* \"@chainlink/contracts/src/v0.8/vendor/solidity-cborutils/v2.0.0/CBOR.sol\":6695:6714  buf.buf.appendUint8 */\n      tag_131\n      swap1\n        /* \"@chainlink/contracts/src/v0.8/vendor/solidity-cborutils/v2.0.0/CBOR.sol\":6695:6740  buf.buf.appendUint8(uint8((major << 5) | 26)) */\n      swap2\n      swap1\n      0xffffffff\n      and\n      jump\t// in\n    tag_171:\n      pop\n        /* \"@chainlink/contracts/src/v0.8/vendor/solidity-cborutils/v2.0.0/CBOR.sol\":6754:6781  buf.buf.appendInt(value, 4) */\n      tag_172\n        /* \"@chainlink/contracts/src/v0.8/vendor/solidity-cborutils/v2.0.0/CBOR.sol\":6772:6777  value */\n      dup2\n        /* \"@chainlink/contracts/src/v0.8/vendor/solidity-cborutils/v2.0.0/CBOR.sol\":6754:6781  buf.buf.appendInt(value, 4) */\n      0xffffffffffffffff\n      and\n        /* \"@chainlink/contracts/src/v0.8/vendor/solidity-cborutils/v2.0.0/CBOR.sol\":6779:6780  4 */\n      0x04\n        /* \"@chainlink/contracts/src/v0.8/vendor/solidity-cborutils/v2.0.0/CBOR.sol\":6754:6757  buf */\n      dup6\n        /* \"@chainlink/contracts/src/v0.8/vendor/solidity-cborutils/v2.0.0/CBOR.sol\":6754:6761  buf.buf */\n      0x00\n      add\n      mload\n        /* \"@chainlink/contracts/src/v0.8/vendor/solidity-cborutils/v2.0.0/CBOR.sol\":6754:6771  buf.buf.appendInt */\n      tag_164\n      swap1\n        /* \"@chainlink/contracts/src/v0.8/vendor/solidity-cborutils/v2.0.0/CBOR.sol\":6754:6781  buf.buf.appendInt(value, 4) */\n      swap3\n      swap2\n      swap1\n      0xffffffff\n      and\n      jump\t// in\n    tag_172:\n      pop\n        /* \"@chainlink/contracts/src/v0.8/vendor/solidity-cborutils/v2.0.0/CBOR.sol\":6656:6909  if (value <= 0xFFFFFFFF) {... */\n      jump(tag_173)\n    tag_170:\n        /* \"@chainlink/contracts/src/v0.8/vendor/solidity-cborutils/v2.0.0/CBOR.sol\":6812:6857  buf.buf.appendUint8(uint8((major << 5) | 27)) */\n      tag_174\n        /* \"@chainlink/contracts/src/v0.8/vendor/solidity-cborutils/v2.0.0/CBOR.sol\":6853:6855  27 */\n      0x1b\n        /* \"@chainlink/contracts/src/v0.8/vendor/solidity-cborutils/v2.0.0/CBOR.sol\":6848:6849  5 */\n      0x05\n        /* \"@chainlink/contracts/src/v0.8/vendor/solidity-cborutils/v2.0.0/CBOR.sol\":6839:6844  major */\n      dup5\n        /* \"@chainlink/contracts/src/v0.8/vendor/solidity-cborutils/v2.0.0/CBOR.sol\":6839:6849  major << 5 */\n      0xff\n      and\n      swap1\n      shl\n        /* \"@chainlink/contracts/src/v0.8/vendor/solidity-cborutils/v2.0.0/CBOR.sol\":6838:6855  (major << 5) | 27 */\n      or\n        /* \"@chainlink/contracts/src/v0.8/vendor/solidity-cborutils/v2.0.0/CBOR.sol\":6812:6815  buf */\n      dup5\n        /* \"@chainlink/contracts/src/v0.8/vendor/solidity-cborutils/v2.0.0/CBOR.sol\":6812:6819  buf.buf */\n      0x00\n      add\n      mload\n        /* \"@chainlink/contracts/src/v0.8/vendor/solidity-cborutils/v2.0.0/CBOR.sol\":6812:6831  buf.buf.appendUint8 */\n      tag_131\n      swap1\n        /* \"@chainlink/contracts/src/v0.8/vendor/solidity-cborutils/v2.0.0/CBOR.sol\":6812:6857  buf.buf.appendUint8(uint8((major << 5) | 27)) */\n      swap2\n      swap1\n      0xffffffff\n      and\n      jump\t// in\n    tag_174:\n      pop\n        /* \"@chainlink/contracts/src/v0.8/vendor/solidity-cborutils/v2.0.0/CBOR.sol\":6871:6898  buf.buf.appendInt(value, 8) */\n      tag_175\n        /* \"@chainlink/contracts/src/v0.8/vendor/solidity-cborutils/v2.0.0/CBOR.sol\":6889:6894  value */\n      dup2\n        /* \"@chainlink/contracts/src/v0.8/vendor/solidity-cborutils/v2.0.0/CBOR.sol\":6871:6898  buf.buf.appendInt(value, 8) */\n      0xffffffffffffffff\n      and\n        /* \"@chainlink/contracts/src/v0.8/vendor/solidity-cborutils/v2.0.0/CBOR.sol\":6896:6897  8 */\n      0x08\n        /* \"@chainlink/contracts/src/v0.8/vendor/solidity-cborutils/v2.0.0/CBOR.sol\":6871:6874  buf */\n      dup6\n        /* \"@chainlink/contracts/src/v0.8/vendor/solidity-cborutils/v2.0.0/CBOR.sol\":6871:6878  buf.buf */\n      0x00\n      add\n      mload\n        /* \"@chainlink/contracts/src/v0.8/vendor/solidity-cborutils/v2.0.0/CBOR.sol\":6871:6888  buf.buf.appendInt */\n      tag_164\n      swap1\n        /* \"@chainlink/contracts/src/v0.8/vendor/solidity-cborutils/v2.0.0/CBOR.sol\":6871:6898  buf.buf.appendInt(value, 8) */\n      swap3\n      swap2\n      swap1\n      0xffffffff\n      and\n      jump\t// in\n    tag_175:\n      pop\n        /* \"@chainlink/contracts/src/v0.8/vendor/solidity-cborutils/v2.0.0/CBOR.sol\":6656:6909  if (value <= 0xFFFFFFFF) {... */\n    tag_173:\n        /* \"@chainlink/contracts/src/v0.8/vendor/solidity-cborutils/v2.0.0/CBOR.sol\":6518:6909  if (value <= 0xFFFF) {... */\n    tag_169:\n        /* \"@chainlink/contracts/src/v0.8/vendor/solidity-cborutils/v2.0.0/CBOR.sol\":6382:6909  if (value <= 0xFF) {... */\n    tag_165:\n        /* \"@chainlink/contracts/src/v0.8/vendor/solidity-cborutils/v2.0.0/CBOR.sol\":6286:6909  if (value <= 23) {... */\n    tag_160:\n        /* \"@chainlink/contracts/src/v0.8/vendor/solidity-cborutils/v2.0.0/CBOR.sol\":6156:6915  function writeFixedNumeric(... */\n      pop\n      pop\n      pop\n      jump\t// out\n        /* \"@chainlink/contracts/src/v0.8/vendor/@ensdomains/buffer/v0.1.0/Buffer.sol\":4539:4685  function append(buffer memory buf, bytes memory data) internal pure returns (buffer memory) {... */\n    tag_128:\n        /* \"@chainlink/contracts/src/v0.8/vendor/@ensdomains/buffer/v0.1.0/Buffer.sol\":4616:4629  buffer memory */\n      tag_176\n      tag_148\n      jump\t// in\n    tag_176:\n        /* \"@chainlink/contracts/src/v0.8/vendor/@ensdomains/buffer/v0.1.0/Buffer.sol\":4648:4678  append(buf, data, data.length) */\n      tag_178\n        /* \"@chainlink/contracts/src/v0.8/vendor/@ensdomains/buffer/v0.1.0/Buffer.sol\":4655:4658  buf */\n      dup4\n        /* \"@chainlink/contracts/src/v0.8/vendor/@ensdomains/buffer/v0.1.0/Buffer.sol\":4660:4664  data */\n      dup4\n        /* \"@chainlink/contracts/src/v0.8/vendor/@ensdomains/buffer/v0.1.0/Buffer.sol\":4666:4670  data */\n      dup5\n        /* \"@chainlink/contracts/src/v0.8/vendor/@ensdomains/buffer/v0.1.0/Buffer.sol\":4666:4677  data.length */\n      mload\n        /* \"@chainlink/contracts/src/v0.8/vendor/@ensdomains/buffer/v0.1.0/Buffer.sol\":4648:4654  append */\n      tag_179\n        /* \"@chainlink/contracts/src/v0.8/vendor/@ensdomains/buffer/v0.1.0/Buffer.sol\":4648:4678  append(buf, data, data.length) */\n      jump\t// in\n    tag_178:\n        /* \"@chainlink/contracts/src/v0.8/vendor/@ensdomains/buffer/v0.1.0/Buffer.sol\":4641:4678  return append(buf, data, data.length) */\n      swap1\n      pop\n        /* \"@chainlink/contracts/src/v0.8/vendor/@ensdomains/buffer/v0.1.0/Buffer.sol\":4539:4685  function append(buffer memory buf, bytes memory data) internal pure returns (buffer memory) {... */\n      swap3\n      swap2\n      pop\n      pop\n      jump\t// out\n        /* \"@chainlink/contracts/src/v0.8/vendor/@ensdomains/buffer/v0.1.0/Buffer.sol\":4948:5647  function appendUint8(buffer memory buf, uint8 data) internal pure returns(buffer memory) {... */\n    tag_131:\n        /* \"@chainlink/contracts/src/v0.8/vendor/@ensdomains/buffer/v0.1.0/Buffer.sol\":5022:5035  buffer memory */\n      tag_180\n      tag_148\n      jump\t// in\n    tag_180:\n        /* \"@chainlink/contracts/src/v0.8/vendor/@ensdomains/buffer/v0.1.0/Buffer.sol\":5047:5055  uint off */\n      0x00\n        /* \"@chainlink/contracts/src/v0.8/vendor/@ensdomains/buffer/v0.1.0/Buffer.sol\":5058:5061  buf */\n      dup4\n        /* \"@chainlink/contracts/src/v0.8/vendor/@ensdomains/buffer/v0.1.0/Buffer.sol\":5058:5065  buf.buf */\n      0x00\n      add\n      mload\n        /* \"@chainlink/contracts/src/v0.8/vendor/@ensdomains/buffer/v0.1.0/Buffer.sol\":5058:5072  buf.buf.length */\n      mload\n        /* \"@chainlink/contracts/src/v0.8/vendor/@ensdomains/buffer/v0.1.0/Buffer.sol\":5047:5072  uint off = buf.buf.length */\n      swap1\n      pop\n        /* \"@chainlink/contracts/src/v0.8/vendor/@ensdomains/buffer/v0.1.0/Buffer.sol\":5082:5097  uint offPlusOne */\n      0x00\n        /* \"@chainlink/contracts/src/v0.8/vendor/@ensdomains/buffer/v0.1.0/Buffer.sol\":5106:5107  1 */\n      0x01\n        /* \"@chainlink/contracts/src/v0.8/vendor/@ensdomains/buffer/v0.1.0/Buffer.sol\":5100:5103  off */\n      dup3\n        /* \"@chainlink/contracts/src/v0.8/vendor/@ensdomains/buffer/v0.1.0/Buffer.sol\":5100:5107  off + 1 */\n      tag_182\n      swap2\n      swap1\n      tag_139\n      jump\t// in\n    tag_182:\n        /* \"@chainlink/contracts/src/v0.8/vendor/@ensdomains/buffer/v0.1.0/Buffer.sol\":5082:5107  uint offPlusOne = off + 1 */\n      swap1\n      pop\n        /* \"@chainlink/contracts/src/v0.8/vendor/@ensdomains/buffer/v0.1.0/Buffer.sol\":5128:5131  buf */\n      dup5\n        /* \"@chainlink/contracts/src/v0.8/vendor/@ensdomains/buffer/v0.1.0/Buffer.sol\":5128:5140  buf.capacity */\n      0x20\n      add\n      mload\n        /* \"@chainlink/contracts/src/v0.8/vendor/@ensdomains/buffer/v0.1.0/Buffer.sol\":5121:5124  off */\n      dup3\n        /* \"@chainlink/contracts/src/v0.8/vendor/@ensdomains/buffer/v0.1.0/Buffer.sol\":5121:5140  off >= buf.capacity */\n      lt\n        /* \"@chainlink/contracts/src/v0.8/vendor/@ensdomains/buffer/v0.1.0/Buffer.sol\":5117:5194  if (off >= buf.capacity) {... */\n      tag_183\n      jumpi\n        /* \"@chainlink/contracts/src/v0.8/vendor/@ensdomains/buffer/v0.1.0/Buffer.sol\":5156:5183  resize(buf, offPlusOne * 2) */\n      tag_184\n        /* \"@chainlink/contracts/src/v0.8/vendor/@ensdomains/buffer/v0.1.0/Buffer.sol\":5163:5166  buf */\n      dup6\n        /* \"@chainlink/contracts/src/v0.8/vendor/@ensdomains/buffer/v0.1.0/Buffer.sol\":5181:5182  2 */\n      0x02\n        /* \"@chainlink/contracts/src/v0.8/vendor/@ensdomains/buffer/v0.1.0/Buffer.sol\":5168:5178  offPlusOne */\n      dup4\n        /* \"@chainlink/contracts/src/v0.8/vendor/@ensdomains/buffer/v0.1.0/Buffer.sol\":5168:5182  offPlusOne * 2 */\n      tag_185\n      swap2\n      swap1\n      tag_186\n      jump\t// in\n    tag_185:\n        /* \"@chainlink/contracts/src/v0.8/vendor/@ensdomains/buffer/v0.1.0/Buffer.sol\":5156:5162  resize */\n      tag_187\n        /* \"@chainlink/contracts/src/v0.8/vendor/@ensdomains/buffer/v0.1.0/Buffer.sol\":5156:5183  resize(buf, offPlusOne * 2) */\n      jump\t// in\n    tag_184:\n        /* \"@chainlink/contracts/src/v0.8/vendor/@ensdomains/buffer/v0.1.0/Buffer.sol\":5117:5194  if (off >= buf.capacity) {... */\n    tag_183:\n        /* \"@chainlink/contracts/src/v0.8/vendor/@ensdomains/buffer/v0.1.0/Buffer.sol\":5296:5299  buf */\n      dup5\n        /* \"@chainlink/contracts/src/v0.8/vendor/@ensdomains/buffer/v0.1.0/Buffer.sol\":5290:5300  mload(buf) */\n      mload\n        /* \"@chainlink/contracts/src/v0.8/vendor/@ensdomains/buffer/v0.1.0/Buffer.sol\":5417:5419  32 */\n      0x20\n        /* \"@chainlink/contracts/src/v0.8/vendor/@ensdomains/buffer/v0.1.0/Buffer.sol\":5411:5414  off */\n      dup4\n        /* \"@chainlink/contracts/src/v0.8/vendor/@ensdomains/buffer/v0.1.0/Buffer.sol\":5403:5409  bufptr */\n      dup3\n        /* \"@chainlink/contracts/src/v0.8/vendor/@ensdomains/buffer/v0.1.0/Buffer.sol\":5399:5415  add(bufptr, off) */\n      add\n        /* \"@chainlink/contracts/src/v0.8/vendor/@ensdomains/buffer/v0.1.0/Buffer.sol\":5395:5420  add(add(bufptr, off), 32) */\n      add\n        /* \"@chainlink/contracts/src/v0.8/vendor/@ensdomains/buffer/v0.1.0/Buffer.sol\":5447:5451  data */\n      dup6\n        /* \"@chainlink/contracts/src/v0.8/vendor/@ensdomains/buffer/v0.1.0/Buffer.sol\":5441:5445  dest */\n      dup2\n        /* \"@chainlink/contracts/src/v0.8/vendor/@ensdomains/buffer/v0.1.0/Buffer.sol\":5433:5452  mstore8(dest, data) */\n      mstore8\n        /* \"@chainlink/contracts/src/v0.8/vendor/@ensdomains/buffer/v0.1.0/Buffer.sol\":5543:5549  bufptr */\n      dup2\n        /* \"@chainlink/contracts/src/v0.8/vendor/@ensdomains/buffer/v0.1.0/Buffer.sol\":5537:5550  mload(bufptr) */\n      mload\n        /* \"@chainlink/contracts/src/v0.8/vendor/@ensdomains/buffer/v0.1.0/Buffer.sol\":5525:5535  offPlusOne */\n      dup4\n        /* \"@chainlink/contracts/src/v0.8/vendor/@ensdomains/buffer/v0.1.0/Buffer.sol\":5522:5551  gt(offPlusOne, mload(bufptr)) */\n      gt\n        /* \"@chainlink/contracts/src/v0.8/vendor/@ensdomains/buffer/v0.1.0/Buffer.sol\":5519:5610  if gt(offPlusOne, mload(bufptr)) {... */\n      iszero\n      tag_188\n      jumpi\n        /* \"@chainlink/contracts/src/v0.8/vendor/@ensdomains/buffer/v0.1.0/Buffer.sol\":5585:5595  offPlusOne */\n      dup3\n        /* \"@chainlink/contracts/src/v0.8/vendor/@ensdomains/buffer/v0.1.0/Buffer.sol\":5577:5583  bufptr */\n      dup3\n        /* \"@chainlink/contracts/src/v0.8/vendor/@ensdomains/buffer/v0.1.0/Buffer.sol\":5570:5596  mstore(bufptr, offPlusOne) */\n      mstore\n        /* \"@chainlink/contracts/src/v0.8/vendor/@ensdomains/buffer/v0.1.0/Buffer.sol\":5519:5610  if gt(offPlusOne, mload(bufptr)) {... */\n    tag_188:\n        /* \"@chainlink/contracts/src/v0.8/vendor/@ensdomains/buffer/v0.1.0/Buffer.sol\":5213:5620  {... */\n      pop\n      pop\n        /* \"@chainlink/contracts/src/v0.8/vendor/@ensdomains/buffer/v0.1.0/Buffer.sol\":5637:5640  buf */\n      dup5\n        /* \"@chainlink/contracts/src/v0.8/vendor/@ensdomains/buffer/v0.1.0/Buffer.sol\":5630:5640  return buf */\n      swap3\n      pop\n      pop\n      pop\n        /* \"@chainlink/contracts/src/v0.8/vendor/@ensdomains/buffer/v0.1.0/Buffer.sol\":4948:5647  function appendUint8(buffer memory buf, uint8 data) internal pure returns(buffer memory) {... */\n      swap3\n      swap2\n      pop\n      pop\n      jump\t// out\n        /* \"@chainlink/contracts/src/v0.8/vendor/solidity-cborutils/v2.0.0/CBOR.sol\":6921:7087  function writeIndefiniteLengthType(CBORBuffer memory buf, uint8 major)... */\n    tag_137:\n        /* \"@chainlink/contracts/src/v0.8/vendor/solidity-cborutils/v2.0.0/CBOR.sol\":7035:7080  buf.buf.appendUint8(uint8((major << 5) | 31)) */\n      tag_190\n        /* \"@chainlink/contracts/src/v0.8/vendor/solidity-cborutils/v2.0.0/CBOR.sol\":7076:7078  31 */\n      0x1f\n        /* \"@chainlink/contracts/src/v0.8/vendor/solidity-cborutils/v2.0.0/CBOR.sol\":7071:7072  5 */\n      0x05\n        /* \"@chainlink/contracts/src/v0.8/vendor/solidity-cborutils/v2.0.0/CBOR.sol\":7062:7067  major */\n      dup4\n        /* \"@chainlink/contracts/src/v0.8/vendor/solidity-cborutils/v2.0.0/CBOR.sol\":7062:7072  major << 5 */\n      0xff\n      and\n      swap1\n      shl\n        /* \"@chainlink/contracts/src/v0.8/vendor/solidity-cborutils/v2.0.0/CBOR.sol\":7061:7078  (major << 5) | 31 */\n      or\n        /* \"@chainlink/contracts/src/v0.8/vendor/solidity-cborutils/v2.0.0/CBOR.sol\":7035:7038  buf */\n      dup4\n        /* \"@chainlink/contracts/src/v0.8/vendor/solidity-cborutils/v2.0.0/CBOR.sol\":7035:7042  buf.buf */\n      0x00\n      add\n      mload\n        /* \"@chainlink/contracts/src/v0.8/vendor/solidity-cborutils/v2.0.0/CBOR.sol\":7035:7054  buf.buf.appendUint8 */\n      tag_131\n      swap1\n        /* \"@chainlink/contracts/src/v0.8/vendor/solidity-cborutils/v2.0.0/CBOR.sol\":7035:7080  buf.buf.appendUint8(uint8((major << 5) | 31)) */\n      swap2\n      swap1\n      0xffffffff\n      and\n      jump\t// in\n    tag_190:\n      pop\n        /* \"@chainlink/contracts/src/v0.8/vendor/solidity-cborutils/v2.0.0/CBOR.sol\":6921:7087  function writeIndefiniteLengthType(CBORBuffer memory buf, uint8 major)... */\n      pop\n      pop\n      jump\t// out\n        /* \"@chainlink/contracts/src/v0.8/vendor/@ensdomains/buffer/v0.1.0/Buffer.sol\":8083:8878  function appendInt(buffer memory buf, uint data, uint len) internal pure returns(buffer memory) {... */\n    tag_164:\n        /* \"@chainlink/contracts/src/v0.8/vendor/@ensdomains/buffer/v0.1.0/Buffer.sol\":8164:8177  buffer memory */\n      tag_191\n      tag_148\n      jump\t// in\n    tag_191:\n        /* \"@chainlink/contracts/src/v0.8/vendor/@ensdomains/buffer/v0.1.0/Buffer.sol\":8189:8197  uint off */\n      0x00\n        /* \"@chainlink/contracts/src/v0.8/vendor/@ensdomains/buffer/v0.1.0/Buffer.sol\":8200:8203  buf */\n      dup5\n        /* \"@chainlink/contracts/src/v0.8/vendor/@ensdomains/buffer/v0.1.0/Buffer.sol\":8200:8207  buf.buf */\n      0x00\n      add\n      mload\n        /* \"@chainlink/contracts/src/v0.8/vendor/@ensdomains/buffer/v0.1.0/Buffer.sol\":8200:8214  buf.buf.length */\n      mload\n        /* \"@chainlink/contracts/src/v0.8/vendor/@ensdomains/buffer/v0.1.0/Buffer.sol\":8189:8214  uint off = buf.buf.length */\n      swap1\n      pop\n        /* \"@chainlink/contracts/src/v0.8/vendor/@ensdomains/buffer/v0.1.0/Buffer.sol\":8224:8240  uint newCapacity */\n      0x00\n        /* \"@chainlink/contracts/src/v0.8/vendor/@ensdomains/buffer/v0.1.0/Buffer.sol\":8249:8252  off */\n      dup2\n        /* \"@chainlink/contracts/src/v0.8/vendor/@ensdomains/buffer/v0.1.0/Buffer.sol\":8243:8246  len */\n      dup5\n        /* \"@chainlink/contracts/src/v0.8/vendor/@ensdomains/buffer/v0.1.0/Buffer.sol\":8243:8252  len + off */\n      tag_193\n      swap2\n      swap1\n      tag_139\n      jump\t// in\n    tag_193:\n        /* \"@chainlink/contracts/src/v0.8/vendor/@ensdomains/buffer/v0.1.0/Buffer.sol\":8224:8252  uint newCapacity = len + off */\n      swap1\n      pop\n        /* \"@chainlink/contracts/src/v0.8/vendor/@ensdomains/buffer/v0.1.0/Buffer.sol\":8280:8283  buf */\n      dup6\n        /* \"@chainlink/contracts/src/v0.8/vendor/@ensdomains/buffer/v0.1.0/Buffer.sol\":8280:8292  buf.capacity */\n      0x20\n      add\n      mload\n        /* \"@chainlink/contracts/src/v0.8/vendor/@ensdomains/buffer/v0.1.0/Buffer.sol\":8266:8277  newCapacity */\n      dup2\n        /* \"@chainlink/contracts/src/v0.8/vendor/@ensdomains/buffer/v0.1.0/Buffer.sol\":8266:8292  newCapacity > buf.capacity */\n      gt\n        /* \"@chainlink/contracts/src/v0.8/vendor/@ensdomains/buffer/v0.1.0/Buffer.sol\":8262:8347  if (newCapacity > buf.capacity) {... */\n      iszero\n      tag_194\n      jumpi\n        /* \"@chainlink/contracts/src/v0.8/vendor/@ensdomains/buffer/v0.1.0/Buffer.sol\":8308:8336  resize(buf, newCapacity * 2) */\n      tag_195\n        /* \"@chainlink/contracts/src/v0.8/vendor/@ensdomains/buffer/v0.1.0/Buffer.sol\":8315:8318  buf */\n      dup7\n        /* \"@chainlink/contracts/src/v0.8/vendor/@ensdomains/buffer/v0.1.0/Buffer.sol\":8334:8335  2 */\n      0x02\n        /* \"@chainlink/contracts/src/v0.8/vendor/@ensdomains/buffer/v0.1.0/Buffer.sol\":8320:8331  newCapacity */\n      dup4\n        /* \"@chainlink/contracts/src/v0.8/vendor/@ensdomains/buffer/v0.1.0/Buffer.sol\":8320:8335  newCapacity * 2 */\n      tag_196\n      swap2\n      swap1\n      tag_186\n      jump\t// in\n    tag_196:\n        /* \"@chainlink/contracts/src/v0.8/vendor/@ensdomains/buffer/v0.1.0/Buffer.sol\":8308:8314  resize */\n      tag_187\n        /* \"@chainlink/contracts/src/v0.8/vendor/@ensdomains/buffer/v0.1.0/Buffer.sol\":8308:8336  resize(buf, newCapacity * 2) */\n      jump\t// in\n    tag_195:\n        /* \"@chainlink/contracts/src/v0.8/vendor/@ensdomains/buffer/v0.1.0/Buffer.sol\":8262:8347  if (newCapacity > buf.capacity) {... */\n    tag_194:\n        /* \"@chainlink/contracts/src/v0.8/vendor/@ensdomains/buffer/v0.1.0/Buffer.sol\":8357:8366  uint mask */\n      0x00\n        /* \"@chainlink/contracts/src/v0.8/vendor/@ensdomains/buffer/v0.1.0/Buffer.sol\":8384:8385  1 */\n      0x01\n        /* \"@chainlink/contracts/src/v0.8/vendor/@ensdomains/buffer/v0.1.0/Buffer.sol\":8377:8380  len */\n      dup6\n        /* \"@chainlink/contracts/src/v0.8/vendor/@ensdomains/buffer/v0.1.0/Buffer.sol\":8370:8373  256 */\n      0x0100\n        /* \"@chainlink/contracts/src/v0.8/vendor/@ensdomains/buffer/v0.1.0/Buffer.sol\":8370:8380  256 ** len */\n      tag_197\n      swap2\n      swap1\n      tag_198\n      jump\t// in\n    tag_197:\n        /* \"@chainlink/contracts/src/v0.8/vendor/@ensdomains/buffer/v0.1.0/Buffer.sol\":8369:8385  (256 ** len) - 1 */\n      tag_199\n      swap2\n      swap1\n      tag_143\n      jump\t// in\n    tag_199:\n        /* \"@chainlink/contracts/src/v0.8/vendor/@ensdomains/buffer/v0.1.0/Buffer.sol\":8357:8385  uint mask = (256 ** len) - 1 */\n      swap1\n      pop\n        /* \"@chainlink/contracts/src/v0.8/vendor/@ensdomains/buffer/v0.1.0/Buffer.sol\":8487:8490  buf */\n      dup7\n        /* \"@chainlink/contracts/src/v0.8/vendor/@ensdomains/buffer/v0.1.0/Buffer.sol\":8481:8491  mload(buf) */\n      mload\n        /* \"@chainlink/contracts/src/v0.8/vendor/@ensdomains/buffer/v0.1.0/Buffer.sol\":8606:8617  newCapacity */\n      dup3\n        /* \"@chainlink/contracts/src/v0.8/vendor/@ensdomains/buffer/v0.1.0/Buffer.sol\":8598:8604  bufptr */\n      dup2\n        /* \"@chainlink/contracts/src/v0.8/vendor/@ensdomains/buffer/v0.1.0/Buffer.sol\":8594:8618  add(bufptr, newCapacity) */\n      add\n        /* \"@chainlink/contracts/src/v0.8/vendor/@ensdomains/buffer/v0.1.0/Buffer.sol\":8676:8680  data */\n      dup8\n        /* \"@chainlink/contracts/src/v0.8/vendor/@ensdomains/buffer/v0.1.0/Buffer.sol\":8668:8672  mask */\n      dup4\n        /* \"@chainlink/contracts/src/v0.8/vendor/@ensdomains/buffer/v0.1.0/Buffer.sol\":8664:8673  not(mask) */\n      not\n        /* \"@chainlink/contracts/src/v0.8/vendor/@ensdomains/buffer/v0.1.0/Buffer.sol\":8657:8661  dest */\n      dup3\n        /* \"@chainlink/contracts/src/v0.8/vendor/@ensdomains/buffer/v0.1.0/Buffer.sol\":8651:8662  mload(dest) */\n      mload\n        /* \"@chainlink/contracts/src/v0.8/vendor/@ensdomains/buffer/v0.1.0/Buffer.sol\":8647:8674  and(mload(dest), not(mask)) */\n      and\n        /* \"@chainlink/contracts/src/v0.8/vendor/@ensdomains/buffer/v0.1.0/Buffer.sol\":8644:8681  or(and(mload(dest), not(mask)), data) */\n      or\n        /* \"@chainlink/contracts/src/v0.8/vendor/@ensdomains/buffer/v0.1.0/Buffer.sol\":8638:8642  dest */\n      dup2\n        /* \"@chainlink/contracts/src/v0.8/vendor/@ensdomains/buffer/v0.1.0/Buffer.sol\":8631:8682  mstore(dest, or(and(mload(dest), not(mask)), data)) */\n      mstore\n        /* \"@chainlink/contracts/src/v0.8/vendor/@ensdomains/buffer/v0.1.0/Buffer.sol\":8774:8780  bufptr */\n      dup2\n        /* \"@chainlink/contracts/src/v0.8/vendor/@ensdomains/buffer/v0.1.0/Buffer.sol\":8768:8781  mload(bufptr) */\n      mload\n        /* \"@chainlink/contracts/src/v0.8/vendor/@ensdomains/buffer/v0.1.0/Buffer.sol\":8755:8766  newCapacity */\n      dup5\n        /* \"@chainlink/contracts/src/v0.8/vendor/@ensdomains/buffer/v0.1.0/Buffer.sol\":8752:8782  gt(newCapacity, mload(bufptr)) */\n      gt\n        /* \"@chainlink/contracts/src/v0.8/vendor/@ensdomains/buffer/v0.1.0/Buffer.sol\":8749:8842  if gt(newCapacity, mload(bufptr)) {... */\n      iszero\n      tag_200\n      jumpi\n        /* \"@chainlink/contracts/src/v0.8/vendor/@ensdomains/buffer/v0.1.0/Buffer.sol\":8816:8827  newCapacity */\n      dup4\n        /* \"@chainlink/contracts/src/v0.8/vendor/@ensdomains/buffer/v0.1.0/Buffer.sol\":8808:8814  bufptr */\n      dup3\n        /* \"@chainlink/contracts/src/v0.8/vendor/@ensdomains/buffer/v0.1.0/Buffer.sol\":8801:8828  mstore(bufptr, newCapacity) */\n      mstore\n        /* \"@chainlink/contracts/src/v0.8/vendor/@ensdomains/buffer/v0.1.0/Buffer.sol\":8749:8842  if gt(newCapacity, mload(bufptr)) {... */\n    tag_200:\n        /* \"@chainlink/contracts/src/v0.8/vendor/@ensdomains/buffer/v0.1.0/Buffer.sol\":8404:8852  {... */\n      pop\n      pop\n        /* \"@chainlink/contracts/src/v0.8/vendor/@ensdomains/buffer/v0.1.0/Buffer.sol\":8868:8871  buf */\n      dup7\n        /* \"@chainlink/contracts/src/v0.8/vendor/@ensdomains/buffer/v0.1.0/Buffer.sol\":8861:8871  return buf */\n      swap4\n      pop\n      pop\n      pop\n      pop\n        /* \"@chainlink/contracts/src/v0.8/vendor/@ensdomains/buffer/v0.1.0/Buffer.sol\":8083:8878  function appendInt(buffer memory buf, uint data, uint len) internal pure returns(buffer memory) {... */\n      swap4\n      swap3\n      pop\n      pop\n      pop\n      jump\t// out\n        /* \"@chainlink/contracts/src/v0.8/vendor/@ensdomains/buffer/v0.1.0/Buffer.sol\":2844:4271  function append(buffer memory buf, bytes memory data, uint len) internal pure returns(buffer memory) {... */\n    tag_179:\n        /* \"@chainlink/contracts/src/v0.8/vendor/@ensdomains/buffer/v0.1.0/Buffer.sol\":2930:2943  buffer memory */\n      tag_201\n      tag_148\n      jump\t// in\n    tag_201:\n        /* \"@chainlink/contracts/src/v0.8/vendor/@ensdomains/buffer/v0.1.0/Buffer.sol\":2970:2974  data */\n      dup3\n        /* \"@chainlink/contracts/src/v0.8/vendor/@ensdomains/buffer/v0.1.0/Buffer.sol\":2970:2981  data.length */\n      mload\n        /* \"@chainlink/contracts/src/v0.8/vendor/@ensdomains/buffer/v0.1.0/Buffer.sol\":2963:2966  len */\n      dup3\n        /* \"@chainlink/contracts/src/v0.8/vendor/@ensdomains/buffer/v0.1.0/Buffer.sol\":2963:2981  len <= data.length */\n      gt\n      iszero\n        /* \"@chainlink/contracts/src/v0.8/vendor/@ensdomains/buffer/v0.1.0/Buffer.sol\":2955:2982  require(len <= data.length) */\n      tag_203\n      jumpi\n      revert(0x00, 0x00)\n    tag_203:\n        /* \"@chainlink/contracts/src/v0.8/vendor/@ensdomains/buffer/v0.1.0/Buffer.sol\":2993:3001  uint off */\n      0x00\n        /* \"@chainlink/contracts/src/v0.8/vendor/@ensdomains/buffer/v0.1.0/Buffer.sol\":3004:3007  buf */\n      dup5\n        /* \"@chainlink/contracts/src/v0.8/vendor/@ensdomains/buffer/v0.1.0/Buffer.sol\":3004:3011  buf.buf */\n      0x00\n      add\n      mload\n        /* \"@chainlink/contracts/src/v0.8/vendor/@ensdomains/buffer/v0.1.0/Buffer.sol\":3004:3018  buf.buf.length */\n      mload\n        /* \"@chainlink/contracts/src/v0.8/vendor/@ensdomains/buffer/v0.1.0/Buffer.sol\":2993:3018  uint off = buf.buf.length */\n      swap1\n      pop\n        /* \"@chainlink/contracts/src/v0.8/vendor/@ensdomains/buffer/v0.1.0/Buffer.sol\":3028:3044  uint newCapacity */\n      0x00\n        /* \"@chainlink/contracts/src/v0.8/vendor/@ensdomains/buffer/v0.1.0/Buffer.sol\":3053:3056  len */\n      dup4\n        /* \"@chainlink/contracts/src/v0.8/vendor/@ensdomains/buffer/v0.1.0/Buffer.sol\":3047:3050  off */\n      dup3\n        /* \"@chainlink/contracts/src/v0.8/vendor/@ensdomains/buffer/v0.1.0/Buffer.sol\":3047:3056  off + len */\n      tag_204\n      swap2\n      swap1\n      tag_139\n      jump\t// in\n    tag_204:\n        /* \"@chainlink/contracts/src/v0.8/vendor/@ensdomains/buffer/v0.1.0/Buffer.sol\":3028:3056  uint newCapacity = off + len */\n      swap1\n      pop\n        /* \"@chainlink/contracts/src/v0.8/vendor/@ensdomains/buffer/v0.1.0/Buffer.sol\":3084:3087  buf */\n      dup6\n        /* \"@chainlink/contracts/src/v0.8/vendor/@ensdomains/buffer/v0.1.0/Buffer.sol\":3084:3096  buf.capacity */\n      0x20\n      add\n      mload\n        /* \"@chainlink/contracts/src/v0.8/vendor/@ensdomains/buffer/v0.1.0/Buffer.sol\":3070:3081  newCapacity */\n      dup2\n        /* \"@chainlink/contracts/src/v0.8/vendor/@ensdomains/buffer/v0.1.0/Buffer.sol\":3070:3096  newCapacity > buf.capacity */\n      gt\n        /* \"@chainlink/contracts/src/v0.8/vendor/@ensdomains/buffer/v0.1.0/Buffer.sol\":3066:3151  if (newCapacity > buf.capacity) {... */\n      iszero\n      tag_205\n      jumpi\n        /* \"@chainlink/contracts/src/v0.8/vendor/@ensdomains/buffer/v0.1.0/Buffer.sol\":3112:3140  resize(buf, newCapacity * 2) */\n      tag_206\n        /* \"@chainlink/contracts/src/v0.8/vendor/@ensdomains/buffer/v0.1.0/Buffer.sol\":3119:3122  buf */\n      dup7\n        /* \"@chainlink/contracts/src/v0.8/vendor/@ensdomains/buffer/v0.1.0/Buffer.sol\":3138:3139  2 */\n      0x02\n        /* \"@chainlink/contracts/src/v0.8/vendor/@ensdomains/buffer/v0.1.0/Buffer.sol\":3124:3135  newCapacity */\n      dup4\n        /* \"@chainlink/contracts/src/v0.8/vendor/@ensdomains/buffer/v0.1.0/Buffer.sol\":3124:3139  newCapacity * 2 */\n      tag_207\n      swap2\n      swap1\n      tag_186\n      jump\t// in\n    tag_207:\n        /* \"@chainlink/contracts/src/v0.8/vendor/@ensdomains/buffer/v0.1.0/Buffer.sol\":3112:3118  resize */\n      tag_187\n        /* \"@chainlink/contracts/src/v0.8/vendor/@ensdomains/buffer/v0.1.0/Buffer.sol\":3112:3140  resize(buf, newCapacity * 2) */\n      jump\t// in\n    tag_206:\n        /* \"@chainlink/contracts/src/v0.8/vendor/@ensdomains/buffer/v0.1.0/Buffer.sol\":3066:3151  if (newCapacity > buf.capacity) {... */\n    tag_205:\n        /* \"@chainlink/contracts/src/v0.8/vendor/@ensdomains/buffer/v0.1.0/Buffer.sol\":3161:3170  uint dest */\n      0x00\n        /* \"@chainlink/contracts/src/v0.8/vendor/@ensdomains/buffer/v0.1.0/Buffer.sol\":3180:3188  uint src */\n      0x00\n        /* \"@chainlink/contracts/src/v0.8/vendor/@ensdomains/buffer/v0.1.0/Buffer.sol\":3290:3293  buf */\n      dup8\n        /* \"@chainlink/contracts/src/v0.8/vendor/@ensdomains/buffer/v0.1.0/Buffer.sol\":3284:3294  mload(buf) */\n      mload\n        /* \"@chainlink/contracts/src/v0.8/vendor/@ensdomains/buffer/v0.1.0/Buffer.sol\":3373:3379  bufptr */\n      dup1\n        /* \"@chainlink/contracts/src/v0.8/vendor/@ensdomains/buffer/v0.1.0/Buffer.sol\":3367:3380  mload(bufptr) */\n      mload\n        /* \"@chainlink/contracts/src/v0.8/vendor/@ensdomains/buffer/v0.1.0/Buffer.sol\":3501:3504  off */\n      dup6\n        /* \"@chainlink/contracts/src/v0.8/vendor/@ensdomains/buffer/v0.1.0/Buffer.sol\":3496:3498  32 */\n      0x20\n        /* \"@chainlink/contracts/src/v0.8/vendor/@ensdomains/buffer/v0.1.0/Buffer.sol\":3488:3494  bufptr */\n      dup4\n        /* \"@chainlink/contracts/src/v0.8/vendor/@ensdomains/buffer/v0.1.0/Buffer.sol\":3484:3499  add(bufptr, 32) */\n      add\n        /* \"@chainlink/contracts/src/v0.8/vendor/@ensdomains/buffer/v0.1.0/Buffer.sol\":3480:3505  add(add(bufptr, 32), off) */\n      add\n        /* \"@chainlink/contracts/src/v0.8/vendor/@ensdomains/buffer/v0.1.0/Buffer.sol\":3472:3505  dest := add(add(bufptr, 32), off) */\n      swap4\n      pop\n        /* \"@chainlink/contracts/src/v0.8/vendor/@ensdomains/buffer/v0.1.0/Buffer.sol\":3595:3601  buflen */\n      dup1\n        /* \"@chainlink/contracts/src/v0.8/vendor/@ensdomains/buffer/v0.1.0/Buffer.sol\":3582:3593  newCapacity */\n      dup6\n        /* \"@chainlink/contracts/src/v0.8/vendor/@ensdomains/buffer/v0.1.0/Buffer.sol\":3579:3602  gt(newCapacity, buflen) */\n      gt\n        /* \"@chainlink/contracts/src/v0.8/vendor/@ensdomains/buffer/v0.1.0/Buffer.sol\":3576:3662  if gt(newCapacity, buflen) {... */\n      iszero\n      tag_208\n      jumpi\n        /* \"@chainlink/contracts/src/v0.8/vendor/@ensdomains/buffer/v0.1.0/Buffer.sol\":3636:3647  newCapacity */\n      dup5\n        /* \"@chainlink/contracts/src/v0.8/vendor/@ensdomains/buffer/v0.1.0/Buffer.sol\":3628:3634  bufptr */\n      dup3\n        /* \"@chainlink/contracts/src/v0.8/vendor/@ensdomains/buffer/v0.1.0/Buffer.sol\":3621:3648  mstore(bufptr, newCapacity) */\n      mstore\n        /* \"@chainlink/contracts/src/v0.8/vendor/@ensdomains/buffer/v0.1.0/Buffer.sol\":3576:3662  if gt(newCapacity, buflen) {... */\n    tag_208:\n        /* \"@chainlink/contracts/src/v0.8/vendor/@ensdomains/buffer/v0.1.0/Buffer.sol\":3692:3694  32 */\n      0x20\n        /* \"@chainlink/contracts/src/v0.8/vendor/@ensdomains/buffer/v0.1.0/Buffer.sol\":3686:3690  data */\n      dup10\n        /* \"@chainlink/contracts/src/v0.8/vendor/@ensdomains/buffer/v0.1.0/Buffer.sol\":3682:3695  add(data, 32) */\n      add\n        /* \"@chainlink/contracts/src/v0.8/vendor/@ensdomains/buffer/v0.1.0/Buffer.sol\":3675:3695  src := add(data, 32) */\n      swap3\n      pop\n        /* \"@chainlink/contracts/src/v0.8/vendor/@ensdomains/buffer/v0.1.0/Buffer.sol\":3207:3705  {... */\n      pop\n      pop\n        /* \"@chainlink/contracts/src/v0.8/vendor/@ensdomains/buffer/v0.1.0/Buffer.sol\":3765:3930  for (; len >= 32; len -= 32) {... */\n    tag_209:\n        /* \"@chainlink/contracts/src/v0.8/vendor/@ensdomains/buffer/v0.1.0/Buffer.sol\":3779:3781  32 */\n      0x20\n        /* \"@chainlink/contracts/src/v0.8/vendor/@ensdomains/buffer/v0.1.0/Buffer.sol\":3772:3775  len */\n      dup7\n        /* \"@chainlink/contracts/src/v0.8/vendor/@ensdomains/buffer/v0.1.0/Buffer.sol\":3772:3781  len >= 32 */\n      lt\n        /* \"@chainlink/contracts/src/v0.8/vendor/@ensdomains/buffer/v0.1.0/Buffer.sol\":3765:3930  for (; len >= 32; len -= 32) {... */\n      tag_210\n      jumpi\n        /* \"@chainlink/contracts/src/v0.8/vendor/@ensdomains/buffer/v0.1.0/Buffer.sol\":3854:3857  src */\n      dup1\n        /* \"@chainlink/contracts/src/v0.8/vendor/@ensdomains/buffer/v0.1.0/Buffer.sol\":3848:3858  mload(src) */\n      mload\n        /* \"@chainlink/contracts/src/v0.8/vendor/@ensdomains/buffer/v0.1.0/Buffer.sol\":3842:3846  dest */\n      dup3\n        /* \"@chainlink/contracts/src/v0.8/vendor/@ensdomains/buffer/v0.1.0/Buffer.sol\":3835:3859  mstore(dest, mload(src)) */\n      mstore\n        /* \"@chainlink/contracts/src/v0.8/vendor/@ensdomains/buffer/v0.1.0/Buffer.sol\":3894:3896  32 */\n      0x20\n        /* \"@chainlink/contracts/src/v0.8/vendor/@ensdomains/buffer/v0.1.0/Buffer.sol\":3886:3896  dest += 32 */\n      dup3\n      tag_212\n      swap2\n      swap1\n      tag_139\n      jump\t// in\n    tag_212:\n      swap2\n      pop\n        /* \"@chainlink/contracts/src/v0.8/vendor/@ensdomains/buffer/v0.1.0/Buffer.sol\":3917:3919  32 */\n      0x20\n        /* \"@chainlink/contracts/src/v0.8/vendor/@ensdomains/buffer/v0.1.0/Buffer.sol\":3910:3919  src += 32 */\n      dup2\n      tag_213\n      swap2\n      swap1\n      tag_139\n      jump\t// in\n    tag_213:\n      swap1\n      pop\n        /* \"@chainlink/contracts/src/v0.8/vendor/@ensdomains/buffer/v0.1.0/Buffer.sol\":3790:3792  32 */\n      0x20\n        /* \"@chainlink/contracts/src/v0.8/vendor/@ensdomains/buffer/v0.1.0/Buffer.sol\":3783:3792  len -= 32 */\n      dup7\n      tag_214\n      swap2\n      swap1\n      tag_143\n      jump\t// in\n    tag_214:\n      swap6\n      pop\n        /* \"@chainlink/contracts/src/v0.8/vendor/@ensdomains/buffer/v0.1.0/Buffer.sol\":3765:3930  for (; len >= 32; len -= 32) {... */\n      jump(tag_209)\n    tag_210:\n        /* \"@chainlink/contracts/src/v0.8/vendor/@ensdomains/buffer/v0.1.0/Buffer.sol\":3996:4005  uint mask */\n      0x00\n        /* \"@chainlink/contracts/src/v0.8/vendor/@ensdomains/buffer/v0.1.0/Buffer.sol\":4030:4031  1 */\n      0x01\n        /* \"@chainlink/contracts/src/v0.8/vendor/@ensdomains/buffer/v0.1.0/Buffer.sol\":4022:4025  len */\n      dup8\n        /* \"@chainlink/contracts/src/v0.8/vendor/@ensdomains/buffer/v0.1.0/Buffer.sol\":4017:4019  32 */\n      0x20\n        /* \"@chainlink/contracts/src/v0.8/vendor/@ensdomains/buffer/v0.1.0/Buffer.sol\":4017:4025  32 - len */\n      sub\n        /* \"@chainlink/contracts/src/v0.8/vendor/@ensdomains/buffer/v0.1.0/Buffer.sol\":4009:4012  256 */\n      0x0100\n        /* \"@chainlink/contracts/src/v0.8/vendor/@ensdomains/buffer/v0.1.0/Buffer.sol\":4009:4026  256 ** (32 - len) */\n      exp\n        /* \"@chainlink/contracts/src/v0.8/vendor/@ensdomains/buffer/v0.1.0/Buffer.sol\":4008:4031  (256 ** (32 - len)) - 1 */\n      sub\n        /* \"@chainlink/contracts/src/v0.8/vendor/@ensdomains/buffer/v0.1.0/Buffer.sol\":3996:4031  uint mask = (256 ** (32 - len)) - 1 */\n      swap1\n      pop\n        /* \"@chainlink/contracts/src/v0.8/vendor/@ensdomains/buffer/v0.1.0/Buffer.sol\":4107:4111  mask */\n      dup1\n        /* \"@chainlink/contracts/src/v0.8/vendor/@ensdomains/buffer/v0.1.0/Buffer.sol\":4103:4112  not(mask) */\n      not\n        /* \"@chainlink/contracts/src/v0.8/vendor/@ensdomains/buffer/v0.1.0/Buffer.sol\":4097:4100  src */\n      dup3\n        /* \"@chainlink/contracts/src/v0.8/vendor/@ensdomains/buffer/v0.1.0/Buffer.sol\":4091:4101  mload(src) */\n      mload\n        /* \"@chainlink/contracts/src/v0.8/vendor/@ensdomains/buffer/v0.1.0/Buffer.sol\":4087:4113  and(mload(src), not(mask)) */\n      and\n        /* \"@chainlink/contracts/src/v0.8/vendor/@ensdomains/buffer/v0.1.0/Buffer.sol\":4163:4167  mask */\n      dup2\n        /* \"@chainlink/contracts/src/v0.8/vendor/@ensdomains/buffer/v0.1.0/Buffer.sol\":4156:4160  dest */\n      dup5\n        /* \"@chainlink/contracts/src/v0.8/vendor/@ensdomains/buffer/v0.1.0/Buffer.sol\":4150:4161  mload(dest) */\n      mload\n        /* \"@chainlink/contracts/src/v0.8/vendor/@ensdomains/buffer/v0.1.0/Buffer.sol\":4146:4168  and(mload(dest), mask) */\n      and\n        /* \"@chainlink/contracts/src/v0.8/vendor/@ensdomains/buffer/v0.1.0/Buffer.sol\":4211:4218  srcpart */\n      dup2\n        /* \"@chainlink/contracts/src/v0.8/vendor/@ensdomains/buffer/v0.1.0/Buffer.sol\":4201:4209  destpart */\n      dup2\n        /* \"@chainlink/contracts/src/v0.8/vendor/@ensdomains/buffer/v0.1.0/Buffer.sol\":4198:4219  or(destpart, srcpart) */\n      or\n        /* \"@chainlink/contracts/src/v0.8/vendor/@ensdomains/buffer/v0.1.0/Buffer.sol\":4192:4196  dest */\n      dup6\n        /* \"@chainlink/contracts/src/v0.8/vendor/@ensdomains/buffer/v0.1.0/Buffer.sol\":4185:4220  mstore(dest, or(destpart, srcpart)) */\n      mstore\n        /* \"@chainlink/contracts/src/v0.8/vendor/@ensdomains/buffer/v0.1.0/Buffer.sol\":4054:4234  {... */\n      pop\n      pop\n      pop\n        /* \"@chainlink/contracts/src/v0.8/vendor/@ensdomains/buffer/v0.1.0/Buffer.sol\":4261:4264  buf */\n      dup8\n        /* \"@chainlink/contracts/src/v0.8/vendor/@ensdomains/buffer/v0.1.0/Buffer.sol\":4254:4264  return buf */\n      swap5\n      pop\n      pop\n      pop\n      pop\n      pop\n        /* \"@chainlink/contracts/src/v0.8/vendor/@ensdomains/buffer/v0.1.0/Buffer.sol\":2844:4271  function append(buffer memory buf, bytes memory data, uint len) internal pure returns(buffer memory) {... */\n      swap4\n      swap3\n      pop\n      pop\n      pop\n      jump\t// out\n        /* \"@chainlink/contracts/src/v0.8/vendor/@ensdomains/buffer/v0.1.0/Buffer.sol\":2004:2171  function resize(buffer memory buf, uint capacity) private pure {... */\n    tag_187:\n        /* \"@chainlink/contracts/src/v0.8/vendor/@ensdomains/buffer/v0.1.0/Buffer.sol\":2077:2096  bytes memory oldbuf */\n      0x00\n        /* \"@chainlink/contracts/src/v0.8/vendor/@ensdomains/buffer/v0.1.0/Buffer.sol\":2099:2102  buf */\n      dup3\n        /* \"@chainlink/contracts/src/v0.8/vendor/@ensdomains/buffer/v0.1.0/Buffer.sol\":2099:2106  buf.buf */\n      0x00\n      add\n      mload\n        /* \"@chainlink/contracts/src/v0.8/vendor/@ensdomains/buffer/v0.1.0/Buffer.sol\":2077:2106  bytes memory oldbuf = buf.buf */\n      swap1\n      pop\n        /* \"@chainlink/contracts/src/v0.8/vendor/@ensdomains/buffer/v0.1.0/Buffer.sol\":2116:2135  init(buf, capacity) */\n      tag_216\n        /* \"@chainlink/contracts/src/v0.8/vendor/@ensdomains/buffer/v0.1.0/Buffer.sol\":2121:2124  buf */\n      dup4\n        /* \"@chainlink/contracts/src/v0.8/vendor/@ensdomains/buffer/v0.1.0/Buffer.sol\":2126:2134  capacity */\n      dup4\n        /* \"@chainlink/contracts/src/v0.8/vendor/@ensdomains/buffer/v0.1.0/Buffer.sol\":2116:2120  init */\n      tag_123\n        /* \"@chainlink/contracts/src/v0.8/vendor/@ensdomains/buffer/v0.1.0/Buffer.sol\":2116:2135  init(buf, capacity) */\n      jump\t// in\n    tag_216:\n      pop\n        /* \"@chainlink/contracts/src/v0.8/vendor/@ensdomains/buffer/v0.1.0/Buffer.sol\":2145:2164  append(buf, oldbuf) */\n      tag_217\n        /* \"@chainlink/contracts/src/v0.8/vendor/@ensdomains/buffer/v0.1.0/Buffer.sol\":2152:2155  buf */\n      dup4\n        /* \"@chainlink/contracts/src/v0.8/vendor/@ensdomains/buffer/v0.1.0/Buffer.sol\":2157:2163  oldbuf */\n      dup3\n        /* \"@chainlink/contracts/src/v0.8/vendor/@ensdomains/buffer/v0.1.0/Buffer.sol\":2145:2151  append */\n      tag_128\n        /* \"@chainlink/contracts/src/v0.8/vendor/@ensdomains/buffer/v0.1.0/Buffer.sol\":2145:2164  append(buf, oldbuf) */\n      jump\t// in\n    tag_217:\n      pop\n        /* \"@chainlink/contracts/src/v0.8/vendor/@ensdomains/buffer/v0.1.0/Buffer.sol\":2067:2171  {... */\n      pop\n        /* \"@chainlink/contracts/src/v0.8/vendor/@ensdomains/buffer/v0.1.0/Buffer.sol\":2004:2171  function resize(buffer memory buf, uint capacity) private pure {... */\n      pop\n      pop\n      jump\t// out\n    tag_36:\n      mload(0x40)\n      dup1\n      0xe0\n      add\n      0x40\n      mstore\n      dup1\n      0x00\n      0x02\n      dup2\n      gt\n      iszero\n      tag_218\n      jumpi\n      tag_219\n      tag_58\n      jump\t// in\n    tag_219:\n    tag_218:\n      dup2\n      mstore\n      0x20\n      add\n      0x00\n      0x02\n      dup2\n      gt\n      iszero\n      tag_220\n      jumpi\n      tag_221\n      tag_58\n      jump\t// in\n    tag_221:\n    tag_220:\n      dup2\n      mstore\n      0x20\n      add\n      0x00\n      0x00\n      dup2\n      gt\n      iszero\n      tag_222\n      jumpi\n      tag_223\n      tag_58\n      jump\t// in\n    tag_223:\n    tag_222:\n      dup2\n      mstore\n      0x20\n      add\n      0x60\n      dup2\n      mstore\n      0x20\n      add\n      0x60\n      dup2\n      mstore\n      0x20\n      add\n      0x60\n      dup2\n      mstore\n      0x20\n      add\n      0x60\n      dup2\n      mstore\n      pop\n      swap1\n      jump\t// out\n    tag_120:\n      mload(0x40)\n      dup1\n      0x40\n      add\n      0x40\n      mstore\n      dup1\n      tag_224\n      tag_148\n      jump\t// in\n    tag_224:\n      dup2\n      mstore\n      0x20\n      add\n      0x00\n      dup2\n      mstore\n      pop\n      swap1\n      jump\t// out\n    tag_148:\n      mload(0x40)\n      dup1\n      0x40\n      add\n      0x40\n      mstore\n      dup1\n      0x60\n      dup2\n      mstore\n      0x20\n      add\n      0x00\n      dup2\n      mstore\n      pop\n      swap1\n      jump\t// out\n        /* \"#utility.yul\":7:82   */\n    tag_225:\n        /* \"#utility.yul\":40:46   */\n      0x00\n        /* \"#utility.yul\":73:75   */\n      0x40\n        /* \"#utility.yul\":67:76   */\n      mload\n        /* \"#utility.yul\":57:76   */\n      swap1\n      pop\n        /* \"#utility.yul\":7:82   */\n      swap1\n      jump\t// out\n        /* \"#utility.yul\":88:205   */\n    tag_226:\n        /* \"#utility.yul\":197:198   */\n      0x00\n        /* \"#utility.yul\":194:195   */\n      0x00\n        /* \"#utility.yul\":187:199   */\n      revert\n        /* \"#utility.yul\":211:328   */\n    tag_227:\n        /* \"#utility.yul\":320:321   */\n      0x00\n        /* \"#utility.yul\":317:318   */\n      0x00\n        /* \"#utility.yul\":310:322   */\n      revert\n        /* \"#utility.yul\":334:411   */\n    tag_228:\n        /* \"#utility.yul\":371:378   */\n      0x00\n        /* \"#utility.yul\":400:405   */\n      dup2\n        /* \"#utility.yul\":389:405   */\n      swap1\n      pop\n        /* \"#utility.yul\":334:411   */\n      swap2\n      swap1\n      pop\n      jump\t// out\n        /* \"#utility.yul\":417:539   */\n    tag_229:\n        /* \"#utility.yul\":490:514   */\n      tag_292\n        /* \"#utility.yul\":508:513   */\n      dup2\n        /* \"#utility.yul\":490:514   */\n      tag_228\n      jump\t// in\n    tag_292:\n        /* \"#utility.yul\":483:488   */\n      dup2\n        /* \"#utility.yul\":480:515   */\n      eq\n        /* \"#utility.yul\":470:533   */\n      tag_293\n      jumpi\n        /* \"#utility.yul\":529:530   */\n      0x00\n        /* \"#utility.yul\":526:527   */\n      0x00\n        /* \"#utility.yul\":519:531   */\n      revert\n        /* \"#utility.yul\":470:533   */\n    tag_293:\n        /* \"#utility.yul\":417:539   */\n      pop\n      jump\t// out\n        /* \"#utility.yul\":545:684   */\n    tag_230:\n        /* \"#utility.yul\":591:596   */\n      0x00\n        /* \"#utility.yul\":629:635   */\n      dup2\n        /* \"#utility.yul\":616:636   */\n      calldataload\n        /* \"#utility.yul\":607:636   */\n      swap1\n      pop\n        /* \"#utility.yul\":645:678   */\n      tag_295\n        /* \"#utility.yul\":672:677   */\n      dup2\n        /* \"#utility.yul\":645:678   */\n      tag_229\n      jump\t// in\n    tag_295:\n        /* \"#utility.yul\":545:684   */\n      swap3\n      swap2\n      pop\n      pop\n      jump\t// out\n        /* \"#utility.yul\":690:807   */\n    tag_231:\n        /* \"#utility.yul\":799:800   */\n      0x00\n        /* \"#utility.yul\":796:797   */\n      0x00\n        /* \"#utility.yul\":789:801   */\n      revert\n        /* \"#utility.yul\":813:930   */\n    tag_232:\n        /* \"#utility.yul\":922:923   */\n      0x00\n        /* \"#utility.yul\":919:920   */\n      0x00\n        /* \"#utility.yul\":912:924   */\n      revert\n        /* \"#utility.yul\":936:1038   */\n    tag_233:\n        /* \"#utility.yul\":977:983   */\n      0x00\n        /* \"#utility.yul\":1028:1030   */\n      0x1f\n        /* \"#utility.yul\":1024:1031   */\n      not\n        /* \"#utility.yul\":1019:1021   */\n      0x1f\n        /* \"#utility.yul\":1012:1017   */\n      dup4\n        /* \"#utility.yul\":1008:1022   */\n      add\n        /* \"#utility.yul\":1004:1032   */\n      and\n        /* \"#utility.yul\":994:1032   */\n      swap1\n      pop\n        /* \"#utility.yul\":936:1038   */\n      swap2\n      swap1\n      pop\n      jump\t// out\n        /* \"#utility.yul\":1044:1224   */\n    tag_234:\n        /* \"#utility.yul\":1092:1169   */\n      0x4e487b7100000000000000000000000000000000000000000000000000000000\n        /* \"#utility.yul\":1089:1090   */\n      0x00\n        /* \"#utility.yul\":1082:1170   */\n      mstore\n        /* \"#utility.yul\":1189:1193   */\n      0x41\n        /* \"#utility.yul\":1186:1187   */\n      0x04\n        /* \"#utility.yul\":1179:1194   */\n      mstore\n        /* \"#utility.yul\":1213:1217   */\n      0x24\n        /* \"#utility.yul\":1210:1211   */\n      0x00\n        /* \"#utility.yul\":1203:1218   */\n      revert\n        /* \"#utility.yul\":1230:1511   */\n    tag_235:\n        /* \"#utility.yul\":1313:1340   */\n      tag_301\n        /* \"#utility.yul\":1335:1339   */\n      dup3\n        /* \"#utility.yul\":1313:1340   */\n      tag_233\n      jump\t// in\n    tag_301:\n        /* \"#utility.yul\":1305:1311   */\n      dup2\n        /* \"#utility.yul\":1301:1341   */\n      add\n        /* \"#utility.yul\":1443:1449   */\n      dup2\n        /* \"#utility.yul\":1431:1441   */\n      dup2\n        /* \"#utility.yul\":1428:1450   */\n      lt\n        /* \"#utility.yul\":1407:1425   */\n      0xffffffffffffffff\n        /* \"#utility.yul\":1395:1405   */\n      dup3\n        /* \"#utility.yul\":1392:1426   */\n      gt\n        /* \"#utility.yul\":1389:1451   */\n      or\n        /* \"#utility.yul\":1386:1474   */\n      iszero\n      tag_302\n      jumpi\n        /* \"#utility.yul\":1454:1472   */\n      tag_303\n      tag_234\n      jump\t// in\n    tag_303:\n        /* \"#utility.yul\":1386:1474   */\n    tag_302:\n        /* \"#utility.yul\":1494:1504   */\n      dup1\n        /* \"#utility.yul\":1490:1492   */\n      0x40\n        /* \"#utility.yul\":1483:1505   */\n      mstore\n        /* \"#utility.yul\":1273:1511   */\n      pop\n        /* \"#utility.yul\":1230:1511   */\n      pop\n      pop\n      jump\t// out\n        /* \"#utility.yul\":1517:1646   */\n    tag_236:\n        /* \"#utility.yul\":1551:1557   */\n      0x00\n        /* \"#utility.yul\":1578:1598   */\n      tag_305\n      tag_225\n      jump\t// in\n    tag_305:\n        /* \"#utility.yul\":1568:1598   */\n      swap1\n      pop\n        /* \"#utility.yul\":1607:1640   */\n      tag_306\n        /* \"#utility.yul\":1635:1639   */\n      dup3\n        /* \"#utility.yul\":1627:1633   */\n      dup3\n        /* \"#utility.yul\":1607:1640   */\n      tag_235\n      jump\t// in\n    tag_306:\n        /* \"#utility.yul\":1517:1646   */\n      swap2\n      swap1\n      pop\n      jump\t// out\n        /* \"#utility.yul\":1652:1959   */\n    tag_237:\n        /* \"#utility.yul\":1713:1717   */\n      0x00\n        /* \"#utility.yul\":1803:1821   */\n      0xffffffffffffffff\n        /* \"#utility.yul\":1795:1801   */\n      dup3\n        /* \"#utility.yul\":1792:1822   */\n      gt\n        /* \"#utility.yul\":1789:1845   */\n      iszero\n      tag_308\n      jumpi\n        /* \"#utility.yul\":1825:1843   */\n      tag_309\n      tag_234\n      jump\t// in\n    tag_309:\n        /* \"#utility.yul\":1789:1845   */\n    tag_308:\n        /* \"#utility.yul\":1863:1892   */\n      tag_310\n        /* \"#utility.yul\":1885:1891   */\n      dup3\n        /* \"#utility.yul\":1863:1892   */\n      tag_233\n      jump\t// in\n    tag_310:\n        /* \"#utility.yul\":1855:1892   */\n      swap1\n      pop\n        /* \"#utility.yul\":1947:1951   */\n      0x20\n        /* \"#utility.yul\":1941:1945   */\n      dup2\n        /* \"#utility.yul\":1937:1952   */\n      add\n        /* \"#utility.yul\":1929:1952   */\n      swap1\n      pop\n        /* \"#utility.yul\":1652:1959   */\n      swap2\n      swap1\n      pop\n      jump\t// out\n        /* \"#utility.yul\":1965:2113   */\n    tag_238:\n        /* \"#utility.yul\":2063:2069   */\n      dup3\n        /* \"#utility.yul\":2058:2061   */\n      dup2\n        /* \"#utility.yul\":2053:2056   */\n      dup4\n        /* \"#utility.yul\":2040:2070   */\n      calldatacopy\n        /* \"#utility.yul\":2104:2105   */\n      0x00\n        /* \"#utility.yul\":2095:2101   */\n      dup4\n        /* \"#utility.yul\":2090:2093   */\n      dup4\n        /* \"#utility.yul\":2086:2102   */\n      add\n        /* \"#utility.yul\":2079:2106   */\n      mstore\n        /* \"#utility.yul\":1965:2113   */\n      pop\n      pop\n      pop\n      jump\t// out\n        /* \"#utility.yul\":2119:2542   */\n    tag_239:\n        /* \"#utility.yul\":2196:2201   */\n      0x00\n        /* \"#utility.yul\":2221:2286   */\n      tag_313\n        /* \"#utility.yul\":2237:2285   */\n      tag_314\n        /* \"#utility.yul\":2278:2284   */\n      dup5\n        /* \"#utility.yul\":2237:2285   */\n      tag_237\n      jump\t// in\n    tag_314:\n        /* \"#utility.yul\":2221:2286   */\n      tag_236\n      jump\t// in\n    tag_313:\n        /* \"#utility.yul\":2212:2286   */\n      swap1\n      pop\n        /* \"#utility.yul\":2309:2315   */\n      dup3\n        /* \"#utility.yul\":2302:2307   */\n      dup2\n        /* \"#utility.yul\":2295:2316   */\n      mstore\n        /* \"#utility.yul\":2347:2351   */\n      0x20\n        /* \"#utility.yul\":2340:2345   */\n      dup2\n        /* \"#utility.yul\":2336:2352   */\n      add\n        /* \"#utility.yul\":2385:2388   */\n      dup5\n        /* \"#utility.yul\":2376:2382   */\n      dup5\n        /* \"#utility.yul\":2371:2374   */\n      dup5\n        /* \"#utility.yul\":2367:2383   */\n      add\n        /* \"#utility.yul\":2364:2389   */\n      gt\n        /* \"#utility.yul\":2361:2473   */\n      iszero\n      tag_315\n      jumpi\n        /* \"#utility.yul\":2392:2471   */\n      tag_316\n      tag_232\n      jump\t// in\n    tag_316:\n        /* \"#utility.yul\":2361:2473   */\n    tag_315:\n        /* \"#utility.yul\":2482:2536   */\n      tag_317\n        /* \"#utility.yul\":2529:2535   */\n      dup5\n        /* \"#utility.yul\":2524:2527   */\n      dup3\n        /* \"#utility.yul\":2519:2522   */\n      dup6\n        /* \"#utility.yul\":2482:2536   */\n      tag_238\n      jump\t// in\n    tag_317:\n        /* \"#utility.yul\":2202:2542   */\n      pop\n        /* \"#utility.yul\":2119:2542   */\n      swap4\n      swap3\n      pop\n      pop\n      pop\n      jump\t// out\n        /* \"#utility.yul\":2561:2899   */\n    tag_240:\n        /* \"#utility.yul\":2616:2621   */\n      0x00\n        /* \"#utility.yul\":2665:2668   */\n      dup3\n        /* \"#utility.yul\":2658:2662   */\n      0x1f\n        /* \"#utility.yul\":2650:2656   */\n      dup4\n        /* \"#utility.yul\":2646:2663   */\n      add\n        /* \"#utility.yul\":2642:2669   */\n      slt\n        /* \"#utility.yul\":2632:2754   */\n      tag_319\n      jumpi\n        /* \"#utility.yul\":2673:2752   */\n      tag_320\n      tag_231\n      jump\t// in\n    tag_320:\n        /* \"#utility.yul\":2632:2754   */\n    tag_319:\n        /* \"#utility.yul\":2790:2796   */\n      dup2\n        /* \"#utility.yul\":2777:2797   */\n      calldataload\n        /* \"#utility.yul\":2815:2893   */\n      tag_321\n        /* \"#utility.yul\":2889:2892   */\n      dup5\n        /* \"#utility.yul\":2881:2887   */\n      dup3\n        /* \"#utility.yul\":2874:2878   */\n      0x20\n        /* \"#utility.yul\":2866:2872   */\n      dup7\n        /* \"#utility.yul\":2862:2879   */\n      add\n        /* \"#utility.yul\":2815:2893   */\n      tag_239\n      jump\t// in\n    tag_321:\n        /* \"#utility.yul\":2806:2893   */\n      swap2\n      pop\n        /* \"#utility.yul\":2622:2899   */\n      pop\n        /* \"#utility.yul\":2561:2899   */\n      swap3\n      swap2\n      pop\n      pop\n      jump\t// out\n        /* \"#utility.yul\":2905:3880   */\n    tag_9:\n        /* \"#utility.yul\":3000:3006   */\n      0x00\n        /* \"#utility.yul\":3008:3014   */\n      0x00\n        /* \"#utility.yul\":3016:3022   */\n      0x00\n        /* \"#utility.yul\":3065:3067   */\n      0x60\n        /* \"#utility.yul\":3053:3062   */\n      dup5\n        /* \"#utility.yul\":3044:3051   */\n      dup7\n        /* \"#utility.yul\":3040:3063   */\n      sub\n        /* \"#utility.yul\":3036:3068   */\n      slt\n        /* \"#utility.yul\":3033:3152   */\n      iszero\n      tag_323\n      jumpi\n        /* \"#utility.yul\":3071:3150   */\n      tag_324\n      tag_226\n      jump\t// in\n    tag_324:\n        /* \"#utility.yul\":3033:3152   */\n    tag_323:\n        /* \"#utility.yul\":3191:3192   */\n      0x00\n        /* \"#utility.yul\":3216:3269   */\n      tag_325\n        /* \"#utility.yul\":3261:3268   */\n      dup7\n        /* \"#utility.yul\":3252:3258   */\n      dup3\n        /* \"#utility.yul\":3241:3250   */\n      dup8\n        /* \"#utility.yul\":3237:3259   */\n      add\n        /* \"#utility.yul\":3216:3269   */\n      tag_230\n      jump\t// in\n    tag_325:\n        /* \"#utility.yul\":3206:3269   */\n      swap4\n      pop\n        /* \"#utility.yul\":3162:3279   */\n      pop\n        /* \"#utility.yul\":3346:3348   */\n      0x20\n        /* \"#utility.yul\":3335:3344   */\n      dup5\n        /* \"#utility.yul\":3331:3349   */\n      add\n        /* \"#utility.yul\":3318:3350   */\n      calldataload\n        /* \"#utility.yul\":3377:3395   */\n      0xffffffffffffffff\n        /* \"#utility.yul\":3369:3375   */\n      dup2\n        /* \"#utility.yul\":3366:3396   */\n      gt\n        /* \"#utility.yul\":3363:3480   */\n      iszero\n      tag_326\n      jumpi\n        /* \"#utility.yul\":3399:3478   */\n      tag_327\n      tag_227\n      jump\t// in\n    tag_327:\n        /* \"#utility.yul\":3363:3480   */\n    tag_326:\n        /* \"#utility.yul\":3504:3566   */\n      tag_328\n        /* \"#utility.yul\":3558:3565   */\n      dup7\n        /* \"#utility.yul\":3549:3555   */\n      dup3\n        /* \"#utility.yul\":3538:3547   */\n      dup8\n        /* \"#utility.yul\":3534:3556   */\n      add\n        /* \"#utility.yul\":3504:3566   */\n      tag_240\n      jump\t// in\n    tag_328:\n        /* \"#utility.yul\":3494:3566   */\n      swap3\n      pop\n        /* \"#utility.yul\":3289:3576   */\n      pop\n        /* \"#utility.yul\":3643:3645   */\n      0x40\n        /* \"#utility.yul\":3632:3641   */\n      dup5\n        /* \"#utility.yul\":3628:3646   */\n      add\n        /* \"#utility.yul\":3615:3647   */\n      calldataload\n        /* \"#utility.yul\":3674:3692   */\n      0xffffffffffffffff\n        /* \"#utility.yul\":3666:3672   */\n      dup2\n        /* \"#utility.yul\":3663:3693   */\n      gt\n        /* \"#utility.yul\":3660:3777   */\n      iszero\n      tag_329\n      jumpi\n        /* \"#utility.yul\":3696:3775   */\n      tag_330\n      tag_227\n      jump\t// in\n    tag_330:\n        /* \"#utility.yul\":3660:3777   */\n    tag_329:\n        /* \"#utility.yul\":3801:3863   */\n      tag_331\n        /* \"#utility.yul\":3855:3862   */\n      dup7\n        /* \"#utility.yul\":3846:3852   */\n      dup3\n        /* \"#utility.yul\":3835:3844   */\n      dup8\n        /* \"#utility.yul\":3831:3853   */\n      add\n        /* \"#utility.yul\":3801:3863   */\n      tag_240\n      jump\t// in\n    tag_331:\n        /* \"#utility.yul\":3791:3863   */\n      swap2\n      pop\n        /* \"#utility.yul\":3586:3873   */\n      pop\n        /* \"#utility.yul\":2905:3880   */\n      swap3\n      pop\n      swap3\n      pop\n      swap3\n      jump\t// out\n        /* \"#utility.yul\":3886:3985   */\n    tag_241:\n        /* \"#utility.yul\":3938:3944   */\n      0x00\n        /* \"#utility.yul\":3972:3977   */\n      dup2\n        /* \"#utility.yul\":3966:3978   */\n      mload\n        /* \"#utility.yul\":3956:3978   */\n      swap1\n      pop\n        /* \"#utility.yul\":3886:3985   */\n      swap2\n      swap1\n      pop\n      jump\t// out\n        /* \"#utility.yul\":3991:4160   */\n    tag_242:\n        /* \"#utility.yul\":4075:4086   */\n      0x00\n        /* \"#utility.yul\":4109:4115   */\n      dup3\n        /* \"#utility.yul\":4104:4107   */\n      dup3\n        /* \"#utility.yul\":4097:4116   */\n      mstore\n        /* \"#utility.yul\":4149:4153   */\n      0x20\n        /* \"#utility.yul\":4144:4147   */\n      dup3\n        /* \"#utility.yul\":4140:4154   */\n      add\n        /* \"#utility.yul\":4125:4154   */\n      swap1\n      pop\n        /* \"#utility.yul\":3991:4160   */\n      swap3\n      swap2\n      pop\n      pop\n      jump\t// out\n        /* \"#utility.yul\":4166:4305   */\n    tag_243:\n        /* \"#utility.yul\":4255:4261   */\n      dup3\n        /* \"#utility.yul\":4250:4253   */\n      dup2\n        /* \"#utility.yul\":4245:4248   */\n      dup4\n        /* \"#utility.yul\":4239:4262   */\n      mcopy\n        /* \"#utility.yul\":4296:4297   */\n      0x00\n        /* \"#utility.yul\":4287:4293   */\n      dup4\n        /* \"#utility.yul\":4282:4285   */\n      dup4\n        /* \"#utility.yul\":4278:4294   */\n      add\n        /* \"#utility.yul\":4271:4298   */\n      mstore\n        /* \"#utility.yul\":4166:4305   */\n      pop\n      pop\n      pop\n      jump\t// out\n        /* \"#utility.yul\":4311:4688   */\n    tag_244:\n        /* \"#utility.yul\":4399:4402   */\n      0x00\n        /* \"#utility.yul\":4427:4466   */\n      tag_336\n        /* \"#utility.yul\":4460:4465   */\n      dup3\n        /* \"#utility.yul\":4427:4466   */\n      tag_241\n      jump\t// in\n    tag_336:\n        /* \"#utility.yul\":4482:4553   */\n      tag_337\n        /* \"#utility.yul\":4546:4552   */\n      dup2\n        /* \"#utility.yul\":4541:4544   */\n      dup6\n        /* \"#utility.yul\":4482:4553   */\n      tag_242\n      jump\t// in\n    tag_337:\n        /* \"#utility.yul\":4475:4553   */\n      swap4\n      pop\n        /* \"#utility.yul\":4562:4627   */\n      tag_338\n        /* \"#utility.yul\":4620:4626   */\n      dup2\n        /* \"#utility.yul\":4615:4618   */\n      dup6\n        /* \"#utility.yul\":4608:4612   */\n      0x20\n        /* \"#utility.yul\":4601:4606   */\n      dup7\n        /* \"#utility.yul\":4597:4613   */\n      add\n        /* \"#utility.yul\":4562:4627   */\n      tag_243\n      jump\t// in\n    tag_338:\n        /* \"#utility.yul\":4652:4681   */\n      tag_339\n        /* \"#utility.yul\":4674:4680   */\n      dup2\n        /* \"#utility.yul\":4652:4681   */\n      tag_233\n      jump\t// in\n    tag_339:\n        /* \"#utility.yul\":4647:4650   */\n      dup5\n        /* \"#utility.yul\":4643:4682   */\n      add\n        /* \"#utility.yul\":4636:4682   */\n      swap2\n      pop\n        /* \"#utility.yul\":4403:4688   */\n      pop\n        /* \"#utility.yul\":4311:4688   */\n      swap3\n      swap2\n      pop\n      pop\n      jump\t// out\n        /* \"#utility.yul\":4694:5007   */\n    tag_14:\n        /* \"#utility.yul\":4807:4811   */\n      0x00\n        /* \"#utility.yul\":4845:4847   */\n      0x20\n        /* \"#utility.yul\":4834:4843   */\n      dup3\n        /* \"#utility.yul\":4830:4848   */\n      add\n        /* \"#utility.yul\":4822:4848   */\n      swap1\n      pop\n        /* \"#utility.yul\":4894:4903   */\n      dup2\n        /* \"#utility.yul\":4888:4892   */\n      dup2\n        /* \"#utility.yul\":4884:4904   */\n      sub\n        /* \"#utility.yul\":4880:4881   */\n      0x00\n        /* \"#utility.yul\":4869:4878   */\n      dup4\n        /* \"#utility.yul\":4865:4882   */\n      add\n        /* \"#utility.yul\":4858:4905   */\n      mstore\n        /* \"#utility.yul\":4922:5000   */\n      tag_341\n        /* \"#utility.yul\":4995:4999   */\n      dup2\n        /* \"#utility.yul\":4986:4992   */\n      dup5\n        /* \"#utility.yul\":4922:5000   */\n      tag_244\n      jump\t// in\n    tag_341:\n        /* \"#utility.yul\":4914:5000   */\n      swap1\n      pop\n        /* \"#utility.yul\":4694:5007   */\n      swap3\n      swap2\n      pop\n      pop\n      jump\t// out\n        /* \"#utility.yul\":5013:5130   */\n    tag_245:\n        /* \"#utility.yul\":5122:5123   */\n      0x00\n        /* \"#utility.yul\":5119:5120   */\n      0x00\n        /* \"#utility.yul\":5112:5124   */\n      revert\n        /* \"#utility.yul\":5136:5253   */\n    tag_246:\n        /* \"#utility.yul\":5245:5246   */\n      0x00\n        /* \"#utility.yul\":5242:5243   */\n      0x00\n        /* \"#utility.yul\":5235:5247   */\n      revert\n        /* \"#utility.yul\":5273:5826   */\n    tag_247:\n        /* \"#utility.yul\":5331:5339   */\n      0x00\n        /* \"#utility.yul\":5341:5347   */\n      0x00\n        /* \"#utility.yul\":5391:5394   */\n      dup4\n        /* \"#utility.yul\":5384:5388   */\n      0x1f\n        /* \"#utility.yul\":5376:5382   */\n      dup5\n        /* \"#utility.yul\":5372:5389   */\n      add\n        /* \"#utility.yul\":5368:5395   */\n      slt\n        /* \"#utility.yul\":5358:5480   */\n      tag_345\n      jumpi\n        /* \"#utility.yul\":5399:5478   */\n      tag_346\n      tag_231\n      jump\t// in\n    tag_346:\n        /* \"#utility.yul\":5358:5480   */\n    tag_345:\n        /* \"#utility.yul\":5512:5518   */\n      dup3\n        /* \"#utility.yul\":5499:5519   */\n      calldataload\n        /* \"#utility.yul\":5489:5519   */\n      swap1\n      pop\n        /* \"#utility.yul\":5542:5560   */\n      0xffffffffffffffff\n        /* \"#utility.yul\":5534:5540   */\n      dup2\n        /* \"#utility.yul\":5531:5561   */\n      gt\n        /* \"#utility.yul\":5528:5645   */\n      iszero\n      tag_347\n      jumpi\n        /* \"#utility.yul\":5564:5643   */\n      tag_348\n      tag_245\n      jump\t// in\n    tag_348:\n        /* \"#utility.yul\":5528:5645   */\n    tag_347:\n        /* \"#utility.yul\":5678:5682   */\n      0x20\n        /* \"#utility.yul\":5670:5676   */\n      dup4\n        /* \"#utility.yul\":5666:5683   */\n      add\n        /* \"#utility.yul\":5654:5683   */\n      swap2\n      pop\n        /* \"#utility.yul\":5732:5735   */\n      dup4\n        /* \"#utility.yul\":5724:5728   */\n      0x01\n        /* \"#utility.yul\":5716:5722   */\n      dup3\n        /* \"#utility.yul\":5712:5729   */\n      mul\n        /* \"#utility.yul\":5702:5710   */\n      dup4\n        /* \"#utility.yul\":5698:5730   */\n      add\n        /* \"#utility.yul\":5695:5736   */\n      gt\n        /* \"#utility.yul\":5692:5820   */\n      iszero\n      tag_349\n      jumpi\n        /* \"#utility.yul\":5739:5818   */\n      tag_350\n      tag_246\n      jump\t// in\n    tag_350:\n        /* \"#utility.yul\":5692:5820   */\n    tag_349:\n        /* \"#utility.yul\":5273:5826   */\n      swap3\n      pop\n      swap3\n      swap1\n      pop\n      jump\t// out\n        /* \"#utility.yul\":5832:5933   */\n    tag_248:\n        /* \"#utility.yul\":5868:5875   */\n      0x00\n        /* \"#utility.yul\":5908:5926   */\n      0xffffffffffffffff\n        /* \"#utility.yul\":5901:5906   */\n      dup3\n        /* \"#utility.yul\":5897:5927   */\n      and\n        /* \"#utility.yul\":5886:5927   */\n      swap1\n      pop\n        /* \"#utility.yul\":5832:5933   */\n      swap2\n      swap1\n      pop\n      jump\t// out\n        /* \"#utility.yul\":5939:6059   */\n    tag_249:\n        /* \"#utility.yul\":6011:6034   */\n      tag_353\n        /* \"#utility.yul\":6028:6033   */\n      dup2\n        /* \"#utility.yul\":6011:6034   */\n      tag_248\n      jump\t// in\n    tag_353:\n        /* \"#utility.yul\":6004:6009   */\n      dup2\n        /* \"#utility.yul\":6001:6035   */\n      eq\n        /* \"#utility.yul\":5991:6053   */\n      tag_354\n      jumpi\n        /* \"#utility.yul\":6049:6050   */\n      0x00\n        /* \"#utility.yul\":6046:6047   */\n      0x00\n        /* \"#utility.yul\":6039:6051   */\n      revert\n        /* \"#utility.yul\":5991:6053   */\n    tag_354:\n        /* \"#utility.yul\":5939:6059   */\n      pop\n      jump\t// out\n        /* \"#utility.yul\":6065:6202   */\n    tag_250:\n        /* \"#utility.yul\":6110:6115   */\n      0x00\n        /* \"#utility.yul\":6148:6154   */\n      dup2\n        /* \"#utility.yul\":6135:6155   */\n      calldataload\n        /* \"#utility.yul\":6126:6155   */\n      swap1\n      pop\n        /* \"#utility.yul\":6164:6196   */\n      tag_356\n        /* \"#utility.yul\":6190:6195   */\n      dup2\n        /* \"#utility.yul\":6164:6196   */\n      tag_249\n      jump\t// in\n    tag_356:\n        /* \"#utility.yul\":6065:6202   */\n      swap3\n      swap2\n      pop\n      pop\n      jump\t// out\n        /* \"#utility.yul\":6208:6301   */\n    tag_251:\n        /* \"#utility.yul\":6244:6251   */\n      0x00\n        /* \"#utility.yul\":6284:6294   */\n      0xffffffff\n        /* \"#utility.yul\":6277:6282   */\n      dup3\n        /* \"#utility.yul\":6273:6295   */\n      and\n        /* \"#utility.yul\":6262:6295   */\n      swap1\n      pop\n        /* \"#utility.yul\":6208:6301   */\n      swap2\n      swap1\n      pop\n      jump\t// out\n        /* \"#utility.yul\":6307:6427   */\n    tag_252:\n        /* \"#utility.yul\":6379:6402   */\n      tag_359\n        /* \"#utility.yul\":6396:6401   */\n      dup2\n        /* \"#utility.yul\":6379:6402   */\n      tag_251\n      jump\t// in\n    tag_359:\n        /* \"#utility.yul\":6372:6377   */\n      dup2\n        /* \"#utility.yul\":6369:6403   */\n      eq\n        /* \"#utility.yul\":6359:6421   */\n      tag_360\n      jumpi\n        /* \"#utility.yul\":6417:6418   */\n      0x00\n        /* \"#utility.yul\":6414:6415   */\n      0x00\n        /* \"#utility.yul\":6407:6419   */\n      revert\n        /* \"#utility.yul\":6359:6421   */\n    tag_360:\n        /* \"#utility.yul\":6307:6427   */\n      pop\n      jump\t// out\n        /* \"#utility.yul\":6433:6570   */\n    tag_253:\n        /* \"#utility.yul\":6478:6483   */\n      0x00\n        /* \"#utility.yul\":6516:6522   */\n      dup2\n        /* \"#utility.yul\":6503:6523   */\n      calldataload\n        /* \"#utility.yul\":6494:6523   */\n      swap1\n      pop\n        /* \"#utility.yul\":6532:6564   */\n      tag_362\n        /* \"#utility.yul\":6558:6563   */\n      dup2\n        /* \"#utility.yul\":6532:6564   */\n      tag_252\n      jump\t// in\n    tag_362:\n        /* \"#utility.yul\":6433:6570   */\n      swap3\n      swap2\n      pop\n      pop\n      jump\t// out\n        /* \"#utility.yul\":6576:7537   */\n    tag_17:\n        /* \"#utility.yul\":6672:6678   */\n      0x00\n        /* \"#utility.yul\":6680:6686   */\n      0x00\n        /* \"#utility.yul\":6688:6694   */\n      0x00\n        /* \"#utility.yul\":6696:6702   */\n      0x00\n        /* \"#utility.yul\":6704:6710   */\n      0x00\n        /* \"#utility.yul\":6753:6756   */\n      0x80\n        /* \"#utility.yul\":6741:6750   */\n      dup7\n        /* \"#utility.yul\":6732:6739   */\n      dup9\n        /* \"#utility.yul\":6728:6751   */\n      sub\n        /* \"#utility.yul\":6724:6757   */\n      slt\n        /* \"#utility.yul\":6721:6841   */\n      iszero\n      tag_364\n      jumpi\n        /* \"#utility.yul\":6760:6839   */\n      tag_365\n      tag_226\n      jump\t// in\n    tag_365:\n        /* \"#utility.yul\":6721:6841   */\n    tag_364:\n        /* \"#utility.yul\":6908:6909   */\n      0x00\n        /* \"#utility.yul\":6897:6906   */\n      dup7\n        /* \"#utility.yul\":6893:6910   */\n      add\n        /* \"#utility.yul\":6880:6911   */\n      calldataload\n        /* \"#utility.yul\":6938:6956   */\n      0xffffffffffffffff\n        /* \"#utility.yul\":6930:6936   */\n      dup2\n        /* \"#utility.yul\":6927:6957   */\n      gt\n        /* \"#utility.yul\":6924:7041   */\n      iszero\n      tag_366\n      jumpi\n        /* \"#utility.yul\":6960:7039   */\n      tag_367\n      tag_227\n      jump\t// in\n    tag_367:\n        /* \"#utility.yul\":6924:7041   */\n    tag_366:\n        /* \"#utility.yul\":7073:7138   */\n      tag_368\n        /* \"#utility.yul\":7130:7137   */\n      dup9\n        /* \"#utility.yul\":7121:7127   */\n      dup3\n        /* \"#utility.yul\":7110:7119   */\n      dup10\n        /* \"#utility.yul\":7106:7128   */\n      add\n        /* \"#utility.yul\":7073:7138   */\n      tag_247\n      jump\t// in\n    tag_368:\n        /* \"#utility.yul\":7055:7138   */\n      swap6\n      pop\n      swap6\n      pop\n        /* \"#utility.yul\":6851:7148   */\n      pop\n        /* \"#utility.yul\":7187:7189   */\n      0x20\n        /* \"#utility.yul\":7213:7265   */\n      tag_369\n        /* \"#utility.yul\":7257:7264   */\n      dup9\n        /* \"#utility.yul\":7248:7254   */\n      dup3\n        /* \"#utility.yul\":7237:7246   */\n      dup10\n        /* \"#utility.yul\":7233:7255   */\n      add\n        /* \"#utility.yul\":7213:7265   */\n      tag_250\n      jump\t// in\n    tag_369:\n        /* \"#utility.yul\":7203:7265   */\n      swap4\n      pop\n        /* \"#utility.yul\":7158:7275   */\n      pop\n        /* \"#utility.yul\":7314:7316   */\n      0x40\n        /* \"#utility.yul\":7340:7392   */\n      tag_370\n        /* \"#utility.yul\":7384:7391   */\n      dup9\n        /* \"#utility.yul\":7375:7381   */\n      dup3\n        /* \"#utility.yul\":7364:7373   */\n      dup10\n        /* \"#utility.yul\":7360:7382   */\n      add\n        /* \"#utility.yul\":7340:7392   */\n      tag_253\n      jump\t// in\n    tag_370:\n        /* \"#utility.yul\":7330:7392   */\n      swap3\n      pop\n        /* \"#utility.yul\":7285:7402   */\n      pop\n        /* \"#utility.yul\":7441:7443   */\n      0x60\n        /* \"#utility.yul\":7467:7520   */\n      tag_371\n        /* \"#utility.yul\":7512:7519   */\n      dup9\n        /* \"#utility.yul\":7503:7509   */\n      dup3\n        /* \"#utility.yul\":7492:7501   */\n      dup10\n        /* \"#utility.yul\":7488:7510   */\n      add\n        /* \"#utility.yul\":7467:7520   */\n      tag_230\n      jump\t// in\n    tag_371:\n        /* \"#utility.yul\":7457:7520   */\n      swap2\n      pop\n        /* \"#utility.yul\":7412:7530   */\n      pop\n        /* \"#utility.yul\":6576:7537   */\n      swap3\n      swap6\n      pop\n      swap3\n      swap6\n      swap1\n      swap4\n      pop\n      jump\t// out\n        /* \"#utility.yul\":7543:7661   */\n    tag_254:\n        /* \"#utility.yul\":7630:7654   */\n      tag_373\n        /* \"#utility.yul\":7648:7653   */\n      dup2\n        /* \"#utility.yul\":7630:7654   */\n      tag_228\n      jump\t// in\n    tag_373:\n        /* \"#utility.yul\":7625:7628   */\n      dup3\n        /* \"#utility.yul\":7618:7655   */\n      mstore\n        /* \"#utility.yul\":7543:7661   */\n      pop\n      pop\n      jump\t// out\n        /* \"#utility.yul\":7667:7889   */\n    tag_20:\n        /* \"#utility.yul\":7760:7764   */\n      0x00\n        /* \"#utility.yul\":7798:7800   */\n      0x20\n        /* \"#utility.yul\":7787:7796   */\n      dup3\n        /* \"#utility.yul\":7783:7801   */\n      add\n        /* \"#utility.yul\":7775:7801   */\n      swap1\n      pop\n        /* \"#utility.yul\":7811:7882   */\n      tag_375\n        /* \"#utility.yul\":7879:7880   */\n      0x00\n        /* \"#utility.yul\":7868:7877   */\n      dup4\n        /* \"#utility.yul\":7864:7881   */\n      add\n        /* \"#utility.yul\":7855:7861   */\n      dup5\n        /* \"#utility.yul\":7811:7882   */\n      tag_254\n      jump\t// in\n    tag_375:\n        /* \"#utility.yul\":7667:7889   */\n      swap3\n      swap2\n      pop\n      pop\n      jump\t// out\n        /* \"#utility.yul\":7895:8075   */\n    tag_255:\n        /* \"#utility.yul\":7943:8020   */\n      0x4e487b7100000000000000000000000000000000000000000000000000000000\n        /* \"#utility.yul\":7940:7941   */\n      0x00\n        /* \"#utility.yul\":7933:8021   */\n      mstore\n        /* \"#utility.yul\":8040:8044   */\n      0x22\n        /* \"#utility.yul\":8037:8038   */\n      0x04\n        /* \"#utility.yul\":8030:8045   */\n      mstore\n        /* \"#utility.yul\":8064:8068   */\n      0x24\n        /* \"#utility.yul\":8061:8062   */\n      0x00\n        /* \"#utility.yul\":8054:8069   */\n      revert\n        /* \"#utility.yul\":8081:8401   */\n    tag_29:\n        /* \"#utility.yul\":8125:8131   */\n      0x00\n        /* \"#utility.yul\":8162:8163   */\n      0x02\n        /* \"#utility.yul\":8156:8160   */\n      dup3\n        /* \"#utility.yul\":8152:8164   */\n      div\n        /* \"#utility.yul\":8142:8164   */\n      swap1\n      pop\n        /* \"#utility.yul\":8209:8210   */\n      0x01\n        /* \"#utility.yul\":8203:8207   */\n      dup3\n        /* \"#utility.yul\":8199:8211   */\n      and\n        /* \"#utility.yul\":8230:8248   */\n      dup1\n        /* \"#utility.yul\":8220:8301   */\n      tag_378\n      jumpi\n        /* \"#utility.yul\":8286:8290   */\n      0x7f\n        /* \"#utility.yul\":8278:8284   */\n      dup3\n        /* \"#utility.yul\":8274:8291   */\n      and\n        /* \"#utility.yul\":8264:8291   */\n      swap2\n      pop\n        /* \"#utility.yul\":8220:8301   */\n    tag_378:\n        /* \"#utility.yul\":8348:8350   */\n      0x20\n        /* \"#utility.yul\":8340:8346   */\n      dup3\n        /* \"#utility.yul\":8337:8351   */\n      lt\n        /* \"#utility.yul\":8317:8335   */\n      dup2\n        /* \"#utility.yul\":8314:8352   */\n      sub\n        /* \"#utility.yul\":8311:8395   */\n      tag_379\n      jumpi\n        /* \"#utility.yul\":8367:8385   */\n      tag_380\n      tag_255\n      jump\t// in\n    tag_380:\n        /* \"#utility.yul\":8311:8395   */\n    tag_379:\n        /* \"#utility.yul\":8132:8401   */\n      pop\n        /* \"#utility.yul\":8081:8401   */\n      swap2\n      swap1\n      pop\n      jump\t// out\n        /* \"#utility.yul\":8407:8548   */\n    tag_256:\n        /* \"#utility.yul\":8456:8460   */\n      0x00\n        /* \"#utility.yul\":8479:8482   */\n      dup2\n        /* \"#utility.yul\":8471:8482   */\n      swap1\n      pop\n        /* \"#utility.yul\":8502:8505   */\n      dup2\n        /* \"#utility.yul\":8499:8500   */\n      0x00\n        /* \"#utility.yul\":8492:8506   */\n      mstore\n        /* \"#utility.yul\":8536:8540   */\n      0x20\n        /* \"#utility.yul\":8533:8534   */\n      0x00\n        /* \"#utility.yul\":8523:8541   */\n      keccak256\n        /* \"#utility.yul\":8515:8541   */\n      swap1\n      pop\n        /* \"#utility.yul\":8407:8548   */\n      swap2\n      swap1\n      pop\n      jump\t// out\n        /* \"#utility.yul\":8554:8647   */\n    tag_257:\n        /* \"#utility.yul\":8591:8597   */\n      0x00\n        /* \"#utility.yul\":8638:8640   */\n      0x20\n        /* \"#utility.yul\":8633:8635   */\n      0x1f\n        /* \"#utility.yul\":8626:8631   */\n      dup4\n        /* \"#utility.yul\":8622:8636   */\n      add\n        /* \"#utility.yul\":8618:8641   */\n      div\n        /* \"#utility.yul\":8608:8641   */\n      swap1\n      pop\n        /* \"#utility.yul\":8554:8647   */\n      swap2\n      swap1\n      pop\n      jump\t// out\n        /* \"#utility.yul\":8653:8760   */\n    tag_258:\n        /* \"#utility.yul\":8697:8705   */\n      0x00\n        /* \"#utility.yul\":8747:8752   */\n      dup3\n        /* \"#utility.yul\":8741:8745   */\n      dup3\n        /* \"#utility.yul\":8737:8753   */\n      shl\n        /* \"#utility.yul\":8716:8753   */\n      swap1\n      pop\n        /* \"#utility.yul\":8653:8760   */\n      swap3\n      swap2\n      pop\n      pop\n      jump\t// out\n        /* \"#utility.yul\":8766:9159   */\n    tag_259:\n        /* \"#utility.yul\":8835:8841   */\n      0x00\n        /* \"#utility.yul\":8885:8886   */\n      0x08\n        /* \"#utility.yul\":8873:8883   */\n      dup4\n        /* \"#utility.yul\":8869:8887   */\n      mul\n        /* \"#utility.yul\":8908:9005   */\n      tag_385\n        /* \"#utility.yul\":8938:9004   */\n      0xffffffffffffffffffffffffffffffffffffffffffffffffffffffffffffffff\n        /* \"#utility.yul\":8927:8936   */\n      dup3\n        /* \"#utility.yul\":8908:9005   */\n      tag_258\n      jump\t// in\n    tag_385:\n        /* \"#utility.yul\":9026:9065   */\n      tag_386\n        /* \"#utility.yul\":9056:9064   */\n      dup7\n        /* \"#utility.yul\":9045:9054   */\n      dup4\n        /* \"#utility.yul\":9026:9065   */\n      tag_258\n      jump\t// in\n    tag_386:\n        /* \"#utility.yul\":9014:9065   */\n      swap6\n      pop\n        /* \"#utility.yul\":9098:9102   */\n      dup1\n        /* \"#utility.yul\":9094:9103   */\n      not\n        /* \"#utility.yul\":9087:9092   */\n      dup5\n        /* \"#utility.yul\":9083:9104   */\n      and\n        /* \"#utility.yul\":9074:9104   */\n      swap4\n      pop\n        /* \"#utility.yul\":9147:9151   */\n      dup1\n        /* \"#utility.yul\":9137:9145   */\n      dup7\n        /* \"#utility.yul\":9133:9152   */\n      and\n        /* \"#utility.yul\":9126:9131   */\n      dup5\n        /* \"#utility.yul\":9123:9153   */\n      or\n        /* \"#utility.yul\":9113:9153   */\n      swap3\n      pop\n        /* \"#utility.yul\":8842:9159   */\n      pop\n      pop\n        /* \"#utility.yul\":8766:9159   */\n      swap4\n      swap3\n      pop\n      pop\n      pop\n      jump\t// out\n        /* \"#utility.yul\":9165:9242   */\n    tag_260:\n        /* \"#utility.yul\":9202:9209   */\n      0x00\n        /* \"#utility.yul\":9231:9236   */\n      dup2\n        /* \"#utility.yul\":9220:9236   */\n      swap1\n      pop\n        /* \"#utility.yul\":9165:9242   */\n      swap2\n      swap1\n      pop\n      jump\t// out\n        /* \"#utility.yul\":9248:9308   */\n    tag_261:\n        /* \"#utility.yul\":9276:9279   */\n      0x00\n        /* \"#utility.yul\":9297:9302   */\n      dup2\n        /* \"#utility.yul\":9290:9302   */\n      swap1\n      pop\n        /* \"#utility.yul\":9248:9308   */\n      swap2\n      swap1\n      pop\n      jump\t// out\n        /* \"#utility.yul\":9314:9456   */\n    tag_262:\n        /* \"#utility.yul\":9364:9373   */\n      0x00\n        /* \"#utility.yul\":9397:9450   */\n      tag_390\n        /* \"#utility.yul\":9415:9449   */\n      tag_391\n        /* \"#utility.yul\":9424:9448   */\n      tag_392\n        /* \"#utility.yul\":9442:9447   */\n      dup5\n        /* \"#utility.yul\":9424:9448   */\n      tag_260\n      jump\t// in\n    tag_392:\n        /* \"#utility.yul\":9415:9449   */\n      tag_261\n      jump\t// in\n    tag_391:\n        /* \"#utility.yul\":9397:9450   */\n      tag_260\n      jump\t// in\n    tag_390:\n        /* \"#utility.yul\":9384:9450   */\n      swap1\n      pop\n        /* \"#utility.yul\":9314:9456   */\n      swap2\n      swap1\n      pop\n      jump\t// out\n        /* \"#utility.yul\":9462:9537   */\n    tag_263:\n        /* \"#utility.yul\":9505:9508   */\n      0x00\n        /* \"#utility.yul\":9526:9531   */\n      dup2\n        /* \"#utility.yul\":9519:9531   */\n      swap1\n      pop\n        /* \"#utility.yul\":9462:9537   */\n      swap2\n      swap1\n      pop\n      jump\t// out\n        /* \"#utility.yul\":9543:9812   */\n    tag_264:\n        /* \"#utility.yul\":9653:9692   */\n      tag_395\n        /* \"#utility.yul\":9684:9691   */\n      dup4\n        /* \"#utility.yul\":9653:9692   */\n      tag_262\n      jump\t// in\n    tag_395:\n        /* \"#utility.yul\":9714:9805   */\n      tag_396\n        /* \"#utility.yul\":9763:9804   */\n      tag_397\n        /* \"#utility.yul\":9787:9803   */\n      dup3\n        /* \"#utility.yul\":9763:9804   */\n      tag_263\n      jump\t// in\n    tag_397:\n        /* \"#utility.yul\":9755:9761   */\n      dup5\n        /* \"#utility.yul\":9748:9752   */\n      dup5\n        /* \"#utility.yul\":9742:9753   */\n      sload\n        /* \"#utility.yul\":9714:9805   */\n      tag_259\n      jump\t// in\n    tag_396:\n        /* \"#utility.yul\":9708:9712   */\n      dup3\n        /* \"#utility.yul\":9701:9806   */\n      sstore\n        /* \"#utility.yul\":9619:9812   */\n      pop\n        /* \"#utility.yul\":9543:9812   */\n      pop\n      pop\n      pop\n      jump\t// out\n        /* \"#utility.yul\":9818:9891   */\n    tag_265:\n        /* \"#utility.yul\":9863:9866   */\n      0x00\n        /* \"#utility.yul\":9884:9885   */\n      0x00\n        /* \"#utility.yul\":9877:9885   */\n      swap1\n      pop\n        /* \"#utility.yul\":9818:9891   */\n      swap1\n      jump\t// out\n        /* \"#utility.yul\":9897:10086   */\n    tag_266:\n        /* \"#utility.yul\":9974:10006   */\n      tag_400\n      tag_265\n      jump\t// in\n    tag_400:\n        /* \"#utility.yul\":10015:10080   */\n      tag_401\n        /* \"#utility.yul\":10073:10079   */\n      dup2\n        /* \"#utility.yul\":10065:10071   */\n      dup5\n        /* \"#utility.yul\":10059:10063   */\n      dup5\n        /* \"#utility.yul\":10015:10080   */\n      tag_264\n      jump\t// in\n    tag_401:\n        /* \"#utility.yul\":9950:10086   */\n      pop\n        /* \"#utility.yul\":9897:10086   */\n      pop\n      pop\n      jump\t// out\n        /* \"#utility.yul\":10092:10278   */\n    tag_267:\n        /* \"#utility.yul\":10152:10272   */\n    tag_403:\n        /* \"#utility.yul\":10169:10172   */\n      dup2\n        /* \"#utility.yul\":10162:10167   */\n      dup2\n        /* \"#utility.yul\":10159:10173   */\n      lt\n        /* \"#utility.yul\":10152:10272   */\n      iszero\n      tag_405\n      jumpi\n        /* \"#utility.yul\":10223:10262   */\n      tag_406\n        /* \"#utility.yul\":10260:10261   */\n      0x00\n        /* \"#utility.yul\":10253:10258   */\n      dup3\n        /* \"#utility.yul\":10223:10262   */\n      tag_266\n      jump\t// in\n    tag_406:\n        /* \"#utility.yul\":10196:10197   */\n      0x01\n        /* \"#utility.yul\":10189:10194   */\n      dup2\n        /* \"#utility.yul\":10185:10198   */\n      add\n        /* \"#utility.yul\":10176:10198   */\n      swap1\n      pop\n        /* \"#utility.yul\":10152:10272   */\n      jump(tag_403)\n    tag_405:\n        /* \"#utility.yul\":10092:10278   */\n      pop\n      pop\n      jump\t// out\n        /* \"#utility.yul\":10284:10827   */\n    tag_268:\n        /* \"#utility.yul\":10385:10387   */\n      0x1f\n        /* \"#utility.yul\":10380:10383   */\n      dup3\n        /* \"#utility.yul\":10377:10388   */\n      gt\n        /* \"#utility.yul\":10374:10820   */\n      iszero\n      tag_408\n      jumpi\n        /* \"#utility.yul\":10419:10457   */\n      tag_409\n        /* \"#utility.yul\":10451:10456   */\n      dup2\n        /* \"#utility.yul\":10419:10457   */\n      tag_256\n      jump\t// in\n    tag_409:\n        /* \"#utility.yul\":10503:10532   */\n      tag_410\n        /* \"#utility.yul\":10521:10531   */\n      dup5\n        /* \"#utility.yul\":10503:10532   */\n      tag_257\n      jump\t// in\n    tag_410:\n        /* \"#utility.yul\":10493:10501   */\n      dup2\n        /* \"#utility.yul\":10489:10533   */\n      add\n        /* \"#utility.yul\":10686:10688   */\n      0x20\n        /* \"#utility.yul\":10674:10684   */\n      dup6\n        /* \"#utility.yul\":10671:10689   */\n      lt\n        /* \"#utility.yul\":10668:10717   */\n      iszero\n      tag_411\n      jumpi\n        /* \"#utility.yul\":10707:10715   */\n      dup2\n        /* \"#utility.yul\":10692:10715   */\n      swap1\n      pop\n        /* \"#utility.yul\":10668:10717   */\n    tag_411:\n        /* \"#utility.yul\":10730:10810   */\n      tag_412\n        /* \"#utility.yul\":10786:10808   */\n      tag_413\n        /* \"#utility.yul\":10804:10807   */\n      dup6\n        /* \"#utility.yul\":10786:10808   */\n      tag_257\n      jump\t// in\n    tag_413:\n        /* \"#utility.yul\":10776:10784   */\n      dup4\n        /* \"#utility.yul\":10772:10809   */\n      add\n        /* \"#utility.yul\":10759:10770   */\n      dup3\n        /* \"#utility.yul\":10730:10810   */\n      tag_267\n      jump\t// in\n    tag_412:\n        /* \"#utility.yul\":10389:10820   */\n      pop\n      pop\n        /* \"#utility.yul\":10374:10820   */\n    tag_408:\n        /* \"#utility.yul\":10284:10827   */\n      pop\n      pop\n      pop\n      jump\t// out\n        /* \"#utility.yul\":10833:10950   */\n    tag_269:\n        /* \"#utility.yul\":10887:10895   */\n      0x00\n        /* \"#utility.yul\":10937:10942   */\n      dup3\n        /* \"#utility.yul\":10931:10935   */\n      dup3\n        /* \"#utility.yul\":10927:10943   */\n      shr\n        /* \"#utility.yul\":10906:10943   */\n      swap1\n      pop\n        /* \"#utility.yul\":10833:10950   */\n      swap3\n      swap2\n      pop\n      pop\n      jump\t// out\n        /* \"#utility.yul\":10956:11125   */\n    tag_270:\n        /* \"#utility.yul\":11000:11006   */\n      0x00\n        /* \"#utility.yul\":11033:11084   */\n      tag_416\n        /* \"#utility.yul\":11081:11082   */\n      0x00\n        /* \"#utility.yul\":11077:11083   */\n      not\n        /* \"#utility.yul\":11069:11074   */\n      dup5\n        /* \"#utility.yul\":11066:11067   */\n      0x08\n        /* \"#utility.yul\":11062:11075   */\n      mul\n        /* \"#utility.yul\":11033:11084   */\n      tag_269\n      jump\t// in\n    tag_416:\n        /* \"#utility.yul\":11029:11085   */\n      not\n        /* \"#utility.yul\":11114:11118   */\n      dup1\n        /* \"#utility.yul\":11108:11112   */\n      dup4\n        /* \"#utility.yul\":11104:11119   */\n      and\n        /* \"#utility.yul\":11094:11119   */\n      swap2\n      pop\n        /* \"#utility.yul\":11007:11125   */\n      pop\n        /* \"#utility.yul\":10956:11125   */\n      swap3\n      swap2\n      pop\n      pop\n      jump\t// out\n        /* \"#utility.yul\":11130:11425   */\n    tag_271:\n        /* \"#utility.yul\":11206:11210   */\n      0x00\n        /* \"#utility.yul\":11352:11381   */\n      tag_418\n        /* \"#utility.yul\":11377:11380   */\n      dup4\n        /* \"#utility.yul\":11371:11375   */\n      dup4\n        /* \"#utility.yul\":11352:11381   */\n      tag_270\n      jump\t// in\n    tag_418:\n        /* \"#utility.yul\":11344:11381   */\n      swap2\n      pop\n        /* \"#utility.yul\":11414:11417   */\n      dup3\n        /* \"#utility.yul\":11411:11412   */\n      0x02\n        /* \"#utility.yul\":11407:11418   */\n      mul\n        /* \"#utility.yul\":11401:11405   */\n      dup3\n        /* \"#utility.yul\":11398:11419   */\n      or\n        /* \"#utility.yul\":11390:11419   */\n      swap1\n      pop\n        /* \"#utility.yul\":11130:11425   */\n      swap3\n      swap2\n      pop\n      pop\n      jump\t// out\n        /* \"#utility.yul\":11430:12825   */\n    tag_46:\n        /* \"#utility.yul\":11547:11584   */\n      tag_420\n        /* \"#utility.yul\":11580:11583   */\n      dup3\n        /* \"#utility.yul\":11547:11584   */\n      tag_241\n      jump\t// in\n    tag_420:\n        /* \"#utility.yul\":11649:11667   */\n      0xffffffffffffffff\n        /* \"#utility.yul\":11641:11647   */\n      dup2\n        /* \"#utility.yul\":11638:11668   */\n      gt\n        /* \"#utility.yul\":11635:11691   */\n      iszero\n      tag_421\n      jumpi\n        /* \"#utility.yul\":11671:11689   */\n      tag_422\n      tag_234\n      jump\t// in\n    tag_422:\n        /* \"#utility.yul\":11635:11691   */\n    tag_421:\n        /* \"#utility.yul\":11715:11753   */\n      tag_423\n        /* \"#utility.yul\":11747:11751   */\n      dup3\n        /* \"#utility.yul\":11741:11752   */\n      sload\n        /* \"#utility.yul\":11715:11753   */\n      tag_29\n      jump\t// in\n    tag_423:\n        /* \"#utility.yul\":11800:11867   */\n      tag_424\n        /* \"#utility.yul\":11860:11866   */\n      dup3\n        /* \"#utility.yul\":11852:11858   */\n      dup3\n        /* \"#utility.yul\":11846:11850   */\n      dup6\n        /* \"#utility.yul\":11800:11867   */\n      tag_268\n      jump\t// in\n    tag_424:\n        /* \"#utility.yul\":11894:11895   */\n      0x00\n        /* \"#utility.yul\":11918:11922   */\n      0x20\n        /* \"#utility.yul\":11905:11922   */\n      swap1\n      pop\n        /* \"#utility.yul\":11950:11952   */\n      0x1f\n        /* \"#utility.yul\":11942:11948   */\n      dup4\n        /* \"#utility.yul\":11939:11953   */\n      gt\n        /* \"#utility.yul\":11967:11968   */\n      0x01\n        /* \"#utility.yul\":11962:12580   */\n      dup2\n      eq\n      tag_426\n      jumpi\n        /* \"#utility.yul\":12624:12625   */\n      0x00\n        /* \"#utility.yul\":12641:12647   */\n      dup5\n        /* \"#utility.yul\":12638:12715   */\n      iszero\n      tag_427\n      jumpi\n        /* \"#utility.yul\":12690:12699   */\n      dup3\n        /* \"#utility.yul\":12685:12688   */\n      dup8\n        /* \"#utility.yul\":12681:12700   */\n      add\n        /* \"#utility.yul\":12675:12701   */\n      mload\n        /* \"#utility.yul\":12666:12701   */\n      swap1\n      pop\n        /* \"#utility.yul\":12638:12715   */\n    tag_427:\n        /* \"#utility.yul\":12741:12808   */\n      tag_428\n        /* \"#utility.yul\":12801:12807   */\n      dup6\n        /* \"#utility.yul\":12794:12799   */\n      dup3\n        /* \"#utility.yul\":12741:12808   */\n      tag_271\n      jump\t// in\n    tag_428:\n        /* \"#utility.yul\":12735:12739   */\n      dup7\n        /* \"#utility.yul\":12728:12809   */\n      sstore\n        /* \"#utility.yul\":12597:12819   */\n      pop\n        /* \"#utility.yul\":11932:12819   */\n      jump(tag_425)\n        /* \"#utility.yul\":11962:12580   */\n    tag_426:\n        /* \"#utility.yul\":12014:12018   */\n      0x1f\n        /* \"#utility.yul\":12010:12019   */\n      not\n        /* \"#utility.yul\":12002:12008   */\n      dup5\n        /* \"#utility.yul\":11998:12020   */\n      and\n        /* \"#utility.yul\":12048:12085   */\n      tag_429\n        /* \"#utility.yul\":12080:12084   */\n      dup7\n        /* \"#utility.yul\":12048:12085   */\n      tag_256\n      jump\t// in\n    tag_429:\n        /* \"#utility.yul\":12107:12108   */\n      0x00\n        /* \"#utility.yul\":12121:12329   */\n    tag_430:\n        /* \"#utility.yul\":12135:12142   */\n      dup3\n        /* \"#utility.yul\":12132:12133   */\n      dup2\n        /* \"#utility.yul\":12129:12143   */\n      lt\n        /* \"#utility.yul\":12121:12329   */\n      iszero\n      tag_432\n      jumpi\n        /* \"#utility.yul\":12214:12223   */\n      dup5\n        /* \"#utility.yul\":12209:12212   */\n      dup10\n        /* \"#utility.yul\":12205:12224   */\n      add\n        /* \"#utility.yul\":12199:12225   */\n      mload\n        /* \"#utility.yul\":12191:12197   */\n      dup3\n        /* \"#utility.yul\":12184:12226   */\n      sstore\n        /* \"#utility.yul\":12265:12266   */\n      0x01\n        /* \"#utility.yul\":12257:12263   */\n      dup3\n        /* \"#utility.yul\":12253:12267   */\n      add\n        /* \"#utility.yul\":12243:12267   */\n      swap2\n      pop\n        /* \"#utility.yul\":12312:12314   */\n      0x20\n        /* \"#utility.yul\":12301:12310   */\n      dup6\n        /* \"#utility.yul\":12297:12315   */\n      add\n        /* \"#utility.yul\":12284:12315   */\n      swap5\n      pop\n        /* \"#utility.yul\":12158:12162   */\n      0x20\n        /* \"#utility.yul\":12155:12156   */\n      dup2\n        /* \"#utility.yul\":12151:12163   */\n      add\n        /* \"#utility.yul\":12146:12163   */\n      swap1\n      pop\n        /* \"#utility.yul\":12121:12329   */\n      jump(tag_430)\n    tag_432:\n        /* \"#utility.yul\":12357:12363   */\n      dup7\n        /* \"#utility.yul\":12348:12355   */\n      dup4\n        /* \"#utility.yul\":12345:12364   */\n      lt\n        /* \"#utility.yul\":12342:12521   */\n      iszero\n      tag_433\n      jumpi\n        /* \"#utility.yul\":12415:12424   */\n      dup5\n        /* \"#utility.yul\":12410:12413   */\n      dup10\n        /* \"#utility.yul\":12406:12425   */\n      add\n        /* \"#utility.yul\":12400:12426   */\n      mload\n        /* \"#utility.yul\":12458:12506   */\n      tag_434\n        /* \"#utility.yul\":12500:12504   */\n      0x1f\n        /* \"#utility.yul\":12492:12498   */\n      dup10\n        /* \"#utility.yul\":12488:12505   */\n      and\n        /* \"#utility.yul\":12477:12486   */\n      dup3\n        /* \"#utility.yul\":12458:12506   */\n      tag_270\n      jump\t// in\n    tag_434:\n        /* \"#utility.yul\":12450:12456   */\n      dup4\n        /* \"#utility.yul\":12443:12507   */\n      sstore\n        /* \"#utility.yul\":12365:12521   */\n      pop\n        /* \"#utility.yul\":12342:12521   */\n    tag_433:\n        /* \"#utility.yul\":12567:12568   */\n      0x01\n        /* \"#utility.yul\":12563:12564   */\n      0x02\n        /* \"#utility.yul\":12555:12561   */\n      dup9\n        /* \"#utility.yul\":12551:12565   */\n      mul\n        /* \"#utility.yul\":12547:12569   */\n      add\n        /* \"#utility.yul\":12541:12545   */\n      dup9\n        /* \"#utility.yul\":12534:12570   */\n      sstore\n        /* \"#utility.yul\":11969:12580   */\n      pop\n      pop\n      pop\n        /* \"#utility.yul\":11932:12819   */\n    tag_425:\n      pop\n        /* \"#utility.yul\":11522:12825   */\n      pop\n      pop\n      pop\n        /* \"#utility.yul\":11430:12825   */\n      pop\n      pop\n      jump\t// out\n        /* \"#utility.yul\":12831:13011   */\n    tag_58:\n        /* \"#utility.yul\":12879:12956   */\n      0x4e487b7100000000000000000000000000000000000000000000000000000000\n        /* \"#utility.yul\":12876:12877   */\n      0x00\n        /* \"#utility.yul\":12869:12957   */\n      mstore\n        /* \"#utility.yul\":12976:12980   */\n      0x21\n        /* \"#utility.yul\":12973:12974   */\n      0x04\n        /* \"#utility.yul\":12966:12981   */\n      mstore\n        /* \"#utility.yul\":13000:13004   */\n      0x24\n        /* \"#utility.yul\":12997:12998   */\n      0x00\n        /* \"#utility.yul\":12990:13005   */\n      revert\n        /* \"#utility.yul\":13017:13197   */\n    tag_76:\n        /* \"#utility.yul\":13065:13142   */\n      0x4e487b7100000000000000000000000000000000000000000000000000000000\n        /* \"#utility.yul\":13062:13063   */\n      0x00\n        /* \"#utility.yul\":13055:13143   */\n      mstore\n        /* \"#utility.yul\":13162:13166   */\n      0x32\n        /* \"#utility.yul\":13159:13160   */\n      0x04\n        /* \"#utility.yul\":13152:13167   */\n      mstore\n        /* \"#utility.yul\":13186:13190   */\n      0x24\n        /* \"#utility.yul\":13183:13184   */\n      0x00\n        /* \"#utility.yul\":13176:13191   */\n      revert\n        /* \"#utility.yul\":13203:13318   */\n    tag_272:\n        /* \"#utility.yul\":13288:13311   */\n      tag_438\n        /* \"#utility.yul\":13305:13310   */\n      dup2\n        /* \"#utility.yul\":13288:13311   */\n      tag_248\n      jump\t// in\n    tag_438:\n        /* \"#utility.yul\":13283:13286   */\n      dup3\n        /* \"#utility.yul\":13276:13312   */\n      mstore\n        /* \"#utility.yul\":13203:13318   */\n      pop\n      pop\n      jump\t// out\n        /* \"#utility.yul\":13324:13422   */\n    tag_273:\n        /* \"#utility.yul\":13375:13381   */\n      0x00\n        /* \"#utility.yul\":13409:13414   */\n      dup2\n        /* \"#utility.yul\":13403:13415   */\n      mload\n        /* \"#utility.yul\":13393:13415   */\n      swap1\n      pop\n        /* \"#utility.yul\":13324:13422   */\n      swap2\n      swap1\n      pop\n      jump\t// out\n        /* \"#utility.yul\":13428:13596   */\n    tag_274:\n        /* \"#utility.yul\":13511:13522   */\n      0x00\n        /* \"#utility.yul\":13545:13551   */\n      dup3\n        /* \"#utility.yul\":13540:13543   */\n      dup3\n        /* \"#utility.yul\":13533:13552   */\n      mstore\n        /* \"#utility.yul\":13585:13589   */\n      0x20\n        /* \"#utility.yul\":13580:13583   */\n      dup3\n        /* \"#utility.yul\":13576:13590   */\n      add\n        /* \"#utility.yul\":13561:13590   */\n      swap1\n      pop\n        /* \"#utility.yul\":13428:13596   */\n      swap3\n      swap2\n      pop\n      pop\n      jump\t// out\n        /* \"#utility.yul\":13602:13975   */\n    tag_275:\n        /* \"#utility.yul\":13688:13691   */\n      0x00\n        /* \"#utility.yul\":13716:13754   */\n      tag_442\n        /* \"#utility.yul\":13748:13753   */\n      dup3\n        /* \"#utility.yul\":13716:13754   */\n      tag_273\n      jump\t// in\n    tag_442:\n        /* \"#utility.yul\":13770:13840   */\n      tag_443\n        /* \"#utility.yul\":13833:13839   */\n      dup2\n        /* \"#utility.yul\":13828:13831   */\n      dup6\n        /* \"#utility.yul\":13770:13840   */\n      tag_274\n      jump\t// in\n    tag_443:\n        /* \"#utility.yul\":13763:13840   */\n      swap4\n      pop\n        /* \"#utility.yul\":13849:13914   */\n      tag_444\n        /* \"#utility.yul\":13907:13913   */\n      dup2\n        /* \"#utility.yul\":13902:13905   */\n      dup6\n        /* \"#utility.yul\":13895:13899   */\n      0x20\n        /* \"#utility.yul\":13888:13893   */\n      dup7\n        /* \"#utility.yul\":13884:13900   */\n      add\n        /* \"#utility.yul\":13849:13914   */\n      tag_243\n      jump\t// in\n    tag_444:\n        /* \"#utility.yul\":13939:13968   */\n      tag_445\n        /* \"#utility.yul\":13961:13967   */\n      dup2\n        /* \"#utility.yul\":13939:13968   */\n      tag_233\n      jump\t// in\n    tag_445:\n        /* \"#utility.yul\":13934:13937   */\n      dup5\n        /* \"#utility.yul\":13930:13969   */\n      add\n        /* \"#utility.yul\":13923:13969   */\n      swap2\n      pop\n        /* \"#utility.yul\":13692:13975   */\n      pop\n        /* \"#utility.yul\":13602:13975   */\n      swap3\n      swap2\n      pop\n      pop\n      jump\t// out\n        /* \"#utility.yul\":13981:14070   */\n    tag_276:\n        /* \"#utility.yul\":14017:14024   */\n      0x00\n        /* \"#utility.yul\":14057:14063   */\n      0xffff\n        /* \"#utility.yul\":14050:14055   */\n      dup3\n        /* \"#utility.yul\":14046:14064   */\n      and\n        /* \"#utility.yul\":14035:14064   */\n      swap1\n      pop\n        /* \"#utility.yul\":13981:14070   */\n      swap2\n      swap1\n      pop\n      jump\t// out\n        /* \"#utility.yul\":14076:14191   */\n    tag_277:\n        /* \"#utility.yul\":14161:14184   */\n      tag_448\n        /* \"#utility.yul\":14178:14183   */\n      dup2\n        /* \"#utility.yul\":14161:14184   */\n      tag_276\n      jump\t// in\n    tag_448:\n        /* \"#utility.yul\":14156:14159   */\n      dup3\n        /* \"#utility.yul\":14149:14185   */\n      mstore\n        /* \"#utility.yul\":14076:14191   */\n      pop\n      pop\n      jump\t// out\n        /* \"#utility.yul\":14197:14312   */\n    tag_278:\n        /* \"#utility.yul\":14282:14305   */\n      tag_450\n        /* \"#utility.yul\":14299:14304   */\n      dup2\n        /* \"#utility.yul\":14282:14305   */\n      tag_251\n      jump\t// in\n    tag_450:\n        /* \"#utility.yul\":14277:14280   */\n      dup3\n        /* \"#utility.yul\":14270:14306   */\n      mstore\n        /* \"#utility.yul\":14197:14312   */\n      pop\n      pop\n      jump\t// out\n        /* \"#utility.yul\":14318:15057   */\n    tag_104:\n        /* \"#utility.yul\":14535:14539   */\n      0x00\n        /* \"#utility.yul\":14573:14576   */\n      0xa0\n        /* \"#utility.yul\":14562:14571   */\n      dup3\n        /* \"#utility.yul\":14558:14577   */\n      add\n        /* \"#utility.yul\":14550:14577   */\n      swap1\n      pop\n        /* \"#utility.yul\":14587:14656   */\n      tag_452\n        /* \"#utility.yul\":14653:14654   */\n      0x00\n        /* \"#utility.yul\":14642:14651   */\n      dup4\n        /* \"#utility.yul\":14638:14655   */\n      add\n        /* \"#utility.yul\":14629:14635   */\n      dup9\n        /* \"#utility.yul\":14587:14656   */\n      tag_272\n      jump\t// in\n    tag_452:\n        /* \"#utility.yul\":14703:14712   */\n      dup2\n        /* \"#utility.yul\":14697:14701   */\n      dup2\n        /* \"#utility.yul\":14693:14713   */\n      sub\n        /* \"#utility.yul\":14688:14690   */\n      0x20\n        /* \"#utility.yul\":14677:14686   */\n      dup4\n        /* \"#utility.yul\":14673:14691   */\n      add\n        /* \"#utility.yul\":14666:14714   */\n      mstore\n        /* \"#utility.yul\":14731:14807   */\n      tag_453\n        /* \"#utility.yul\":14802:14806   */\n      dup2\n        /* \"#utility.yul\":14793:14799   */\n      dup8\n        /* \"#utility.yul\":14731:14807   */\n      tag_275\n      jump\t// in\n    tag_453:\n        /* \"#utility.yul\":14723:14807   */\n      swap1\n      pop\n        /* \"#utility.yul\":14817:14887   */\n      tag_454\n        /* \"#utility.yul\":14883:14885   */\n      0x40\n        /* \"#utility.yul\":14872:14881   */\n      dup4\n        /* \"#utility.yul\":14868:14886   */\n      add\n        /* \"#utility.yul\":14859:14865   */\n      dup7\n        /* \"#utility.yul\":14817:14887   */\n      tag_277\n      jump\t// in\n    tag_454:\n        /* \"#utility.yul\":14897:14967   */\n      tag_455\n        /* \"#utility.yul\":14963:14965   */\n      0x60\n        /* \"#utility.yul\":14952:14961   */\n      dup4\n        /* \"#utility.yul\":14948:14966   */\n      add\n        /* \"#utility.yul\":14939:14945   */\n      dup6\n        /* \"#utility.yul\":14897:14967   */\n      tag_278\n      jump\t// in\n    tag_455:\n        /* \"#utility.yul\":14977:15050   */\n      tag_456\n        /* \"#utility.yul\":15045:15048   */\n      0x80\n        /* \"#utility.yul\":15034:15043   */\n      dup4\n        /* \"#utility.yul\":15030:15049   */\n      add\n        /* \"#utility.yul\":15021:15027   */\n      dup5\n        /* \"#utility.yul\":14977:15050   */\n      tag_254\n      jump\t// in\n    tag_456:\n        /* \"#utility.yul\":14318:15057   */\n      swap7\n      swap6\n      pop\n      pop\n      pop\n      pop\n      pop\n      pop\n      jump\t// out\n        /* \"#utility.yul\":15063:15206   */\n    tag_279:\n        /* \"#utility.yul\":15120:15125   */\n      0x00\n        /* \"#utility.yul\":15151:15157   */\n      dup2\n        /* \"#utility.yul\":15145:15158   */\n      mload\n        /* \"#utility.yul\":15136:15158   */\n      swap1\n      pop\n        /* \"#utility.yul\":15167:15200   */\n      tag_458\n        /* \"#utility.yul\":15194:15199   */\n      dup2\n        /* \"#utility.yul\":15167:15200   */\n      tag_229\n      jump\t// in\n    tag_458:\n        /* \"#utility.yul\":15063:15206   */\n      swap3\n      swap2\n      pop\n      pop\n      jump\t// out\n        /* \"#utility.yul\":15212:15563   */\n    tag_108:\n        /* \"#utility.yul\":15282:15288   */\n      0x00\n        /* \"#utility.yul\":15331:15333   */\n      0x20\n        /* \"#utility.yul\":15319:15328   */\n      dup3\n        /* \"#utility.yul\":15310:15317   */\n      dup5\n        /* \"#utility.yul\":15306:15329   */\n      sub\n        /* \"#utility.yul\":15302:15334   */\n      slt\n        /* \"#utility.yul\":15299:15418   */\n      iszero\n      tag_460\n      jumpi\n        /* \"#utility.yul\":15337:15416   */\n      tag_461\n      tag_226\n      jump\t// in\n    tag_461:\n        /* \"#utility.yul\":15299:15418   */\n    tag_460:\n        /* \"#utility.yul\":15457:15458   */\n      0x00\n        /* \"#utility.yul\":15482:15546   */\n      tag_462\n        /* \"#utility.yul\":15538:15545   */\n      dup5\n        /* \"#utility.yul\":15529:15535   */\n      dup3\n        /* \"#utility.yul\":15518:15527   */\n      dup6\n        /* \"#utility.yul\":15514:15536   */\n      add\n        /* \"#utility.yul\":15482:15546   */\n      tag_279\n      jump\t// in\n    tag_462:\n        /* \"#utility.yul\":15472:15546   */\n      swap2\n      pop\n        /* \"#utility.yul\":15428:15556   */\n      pop\n        /* \"#utility.yul\":15212:15563   */\n      swap3\n      swap2\n      pop\n      pop\n      jump\t// out\n        /* \"#utility.yul\":15569:15687   */\n    tag_280:\n        /* \"#utility.yul\":15656:15680   */\n      tag_464\n        /* \"#utility.yul\":15674:15679   */\n      dup2\n        /* \"#utility.yul\":15656:15680   */\n      tag_260\n      jump\t// in\n    tag_464:\n        /* \"#utility.yul\":15651:15654   */\n      dup3\n        /* \"#utility.yul\":15644:15681   */\n      mstore\n        /* \"#utility.yul\":15569:15687   */\n      pop\n      pop\n      jump\t// out\n        /* \"#utility.yul\":15693:15915   */\n    tag_134:\n        /* \"#utility.yul\":15786:15790   */\n      0x00\n        /* \"#utility.yul\":15824:15826   */\n      0x20\n        /* \"#utility.yul\":15813:15822   */\n      dup3\n        /* \"#utility.yul\":15809:15827   */\n      add\n        /* \"#utility.yul\":15801:15827   */\n      swap1\n      pop\n        /* \"#utility.yul\":15837:15908   */\n      tag_466\n        /* \"#utility.yul\":15905:15906   */\n      0x00\n        /* \"#utility.yul\":15894:15903   */\n      dup4\n        /* \"#utility.yul\":15890:15907   */\n      add\n        /* \"#utility.yul\":15881:15887   */\n      dup5\n        /* \"#utility.yul\":15837:15908   */\n      tag_280\n      jump\t// in\n    tag_466:\n        /* \"#utility.yul\":15693:15915   */\n      swap3\n      swap2\n      pop\n      pop\n      jump\t// out\n        /* \"#utility.yul\":15921:16101   */\n    tag_281:\n        /* \"#utility.yul\":15969:16046   */\n      0x4e487b7100000000000000000000000000000000000000000000000000000000\n        /* \"#utility.yul\":15966:15967   */\n      0x00\n        /* \"#utility.yul\":15959:16047   */\n      mstore\n        /* \"#utility.yul\":16066:16070   */\n      0x11\n        /* \"#utility.yul\":16063:16064   */\n      0x04\n        /* \"#utility.yul\":16056:16071   */\n      mstore\n        /* \"#utility.yul\":16090:16094   */\n      0x24\n        /* \"#utility.yul\":16087:16088   */\n      0x00\n        /* \"#utility.yul\":16080:16095   */\n      revert\n        /* \"#utility.yul\":16107:16298   */\n    tag_139:\n        /* \"#utility.yul\":16147:16150   */\n      0x00\n        /* \"#utility.yul\":16166:16186   */\n      tag_469\n        /* \"#utility.yul\":16184:16185   */\n      dup3\n        /* \"#utility.yul\":16166:16186   */\n      tag_260\n      jump\t// in\n    tag_469:\n        /* \"#utility.yul\":16161:16186   */\n      swap2\n      pop\n        /* \"#utility.yul\":16200:16220   */\n      tag_470\n        /* \"#utility.yul\":16218:16219   */\n      dup4\n        /* \"#utility.yul\":16200:16220   */\n      tag_260\n      jump\t// in\n    tag_470:\n        /* \"#utility.yul\":16195:16220   */\n      swap3\n      pop\n        /* \"#utility.yul\":16243:16244   */\n      dup3\n        /* \"#utility.yul\":16240:16241   */\n      dup3\n        /* \"#utility.yul\":16236:16245   */\n      add\n        /* \"#utility.yul\":16229:16245   */\n      swap1\n      pop\n        /* \"#utility.yul\":16264:16267   */\n      dup1\n        /* \"#utility.yul\":16261:16262   */\n      dup3\n        /* \"#utility.yul\":16258:16268   */\n      gt\n        /* \"#utility.yul\":16255:16291   */\n      iszero\n      tag_471\n      jumpi\n        /* \"#utility.yul\":16271:16289   */\n      tag_472\n      tag_281\n      jump\t// in\n    tag_472:\n        /* \"#utility.yul\":16255:16291   */\n    tag_471:\n        /* \"#utility.yul\":16107:16298   */\n      swap3\n      swap2\n      pop\n      pop\n      jump\t// out\n        /* \"#utility.yul\":16304:16498   */\n    tag_143:\n        /* \"#utility.yul\":16344:16348   */\n      0x00\n        /* \"#utility.yul\":16364:16384   */\n      tag_474\n        /* \"#utility.yul\":16382:16383   */\n      dup3\n        /* \"#utility.yul\":16364:16384   */\n      tag_260\n      jump\t// in\n    tag_474:\n        /* \"#utility.yul\":16359:16384   */\n      swap2\n      pop\n        /* \"#utility.yul\":16398:16418   */\n      tag_475\n        /* \"#utility.yul\":16416:16417   */\n      dup4\n        /* \"#utility.yul\":16398:16418   */\n      tag_260\n      jump\t// in\n    tag_475:\n        /* \"#utility.yul\":16393:16418   */\n      swap3\n      pop\n        /* \"#utility.yul\":16442:16443   */\n      dup3\n        /* \"#utility.yul\":16439:16440   */\n      dup3\n        /* \"#utility.yul\":16435:16444   */\n      sub\n        /* \"#utility.yul\":16427:16444   */\n      swap1\n      pop\n        /* \"#utility.yul\":16466:16467   */\n      dup2\n        /* \"#utility.yul\":16460:16464   */\n      dup2\n        /* \"#utility.yul\":16457:16468   */\n      gt\n        /* \"#utility.yul\":16454:16491   */\n      iszero\n      tag_476\n      jumpi\n        /* \"#utility.yul\":16471:16489   */\n      tag_477\n      tag_281\n      jump\t// in\n    tag_477:\n        /* \"#utility.yul\":16454:16491   */\n    tag_476:\n        /* \"#utility.yul\":16304:16498   */\n      swap3\n      swap2\n      pop\n      pop\n      jump\t// out\n        /* \"#utility.yul\":16504:16684   */\n    tag_282:\n        /* \"#utility.yul\":16552:16629   */\n      0x4e487b7100000000000000000000000000000000000000000000000000000000\n        /* \"#utility.yul\":16549:16550   */\n      0x00\n        /* \"#utility.yul\":16542:16630   */\n      mstore\n        /* \"#utility.yul\":16649:16653   */\n      0x12\n        /* \"#utility.yul\":16646:16647   */\n      0x04\n        /* \"#utility.yul\":16639:16654   */\n      mstore\n        /* \"#utility.yul\":16673:16677   */\n      0x24\n        /* \"#utility.yul\":16670:16671   */\n      0x00\n        /* \"#utility.yul\":16663:16678   */\n      revert\n        /* \"#utility.yul\":16690:16866   */\n    tag_151:\n        /* \"#utility.yul\":16722:16723   */\n      0x00\n        /* \"#utility.yul\":16739:16759   */\n      tag_480\n        /* \"#utility.yul\":16757:16758   */\n      dup3\n        /* \"#utility.yul\":16739:16759   */\n      tag_260\n      jump\t// in\n    tag_480:\n        /* \"#utility.yul\":16734:16759   */\n      swap2\n      pop\n        /* \"#utility.yul\":16773:16793   */\n      tag_481\n        /* \"#utility.yul\":16791:16792   */\n      dup4\n        /* \"#utility.yul\":16773:16793   */\n      tag_260\n      jump\t// in\n    tag_481:\n        /* \"#utility.yul\":16768:16793   */\n      swap3\n      pop\n        /* \"#utility.yul\":16812:16813   */\n      dup3\n        /* \"#utility.yul\":16802:16837   */\n      tag_482\n      jumpi\n        /* \"#utility.yul\":16817:16835   */\n      tag_483\n      tag_282\n      jump\t// in\n    tag_483:\n        /* \"#utility.yul\":16802:16837   */\n    tag_482:\n        /* \"#utility.yul\":16858:16859   */\n      dup3\n        /* \"#utility.yul\":16855:16856   */\n      dup3\n        /* \"#utility.yul\":16851:16860   */\n      mod\n        /* \"#utility.yul\":16846:16860   */\n      swap1\n      pop\n        /* \"#utility.yul\":16690:16866   */\n      swap3\n      swap2\n      pop\n      pop\n      jump\t// out\n        /* \"#utility.yul\":16872:17282   */\n    tag_186:\n        /* \"#utility.yul\":16912:16919   */\n      0x00\n        /* \"#utility.yul\":16935:16955   */\n      tag_485\n        /* \"#utility.yul\":16953:16954   */\n      dup3\n        /* \"#utility.yul\":16935:16955   */\n      tag_260\n      jump\t// in\n    tag_485:\n        /* \"#utility.yul\":16930:16955   */\n      swap2\n      pop\n        /* \"#utility.yul\":16969:16989   */\n      tag_486\n        /* \"#utility.yul\":16987:16988   */\n      dup4\n        /* \"#utility.yul\":16969:16989   */\n      tag_260\n      jump\t// in\n    tag_486:\n        /* \"#utility.yul\":16964:16989   */\n      swap3\n      pop\n        /* \"#utility.yul\":17024:17025   */\n      dup3\n        /* \"#utility.yul\":17021:17022   */\n      dup3\n        /* \"#utility.yul\":17017:17026   */\n      mul\n        /* \"#utility.yul\":17046:17076   */\n      tag_487\n        /* \"#utility.yul\":17064:17075   */\n      dup2\n        /* \"#utility.yul\":17046:17076   */\n      tag_260\n      jump\t// in\n    tag_487:\n        /* \"#utility.yul\":17035:17076   */\n      swap2\n      pop\n        /* \"#utility.yul\":17225:17226   */\n      dup3\n        /* \"#utility.yul\":17216:17223   */\n      dup3\n        /* \"#utility.yul\":17212:17227   */\n      div\n        /* \"#utility.yul\":17209:17210   */\n      dup5\n        /* \"#utility.yul\":17206:17228   */\n      eq\n        /* \"#utility.yul\":17186:17187   */\n      dup4\n        /* \"#utility.yul\":17179:17188   */\n      iszero\n        /* \"#utility.yul\":17159:17242   */\n      or\n        /* \"#utility.yul\":17136:17275   */\n      tag_488\n      jumpi\n        /* \"#utility.yul\":17255:17273   */\n      tag_489\n      tag_281\n      jump\t// in\n    tag_489:\n        /* \"#utility.yul\":17136:17275   */\n    tag_488:\n        /* \"#utility.yul\":16920:17282   */\n      pop\n        /* \"#utility.yul\":16872:17282   */\n      swap3\n      swap2\n      pop\n      pop\n      jump\t// out\n        /* \"#utility.yul\":17288:17390   */\n    tag_283:\n        /* \"#utility.yul\":17330:17338   */\n      0x00\n        /* \"#utility.yul\":17377:17382   */\n      dup2\n        /* \"#utility.yul\":17374:17375   */\n      0x01\n        /* \"#utility.yul\":17370:17383   */\n      shr\n        /* \"#utility.yul\":17349:17383   */\n      swap1\n      pop\n        /* \"#utility.yul\":17288:17390   */\n      swap2\n      swap1\n      pop\n      jump\t// out\n        /* \"#utility.yul\":17396:18244   */\n    tag_284:\n        /* \"#utility.yul\":17457:17462   */\n      0x00\n        /* \"#utility.yul\":17464:17468   */\n      0x00\n        /* \"#utility.yul\":17488:17494   */\n      dup3\n        /* \"#utility.yul\":17479:17494   */\n      swap2\n      pop\n        /* \"#utility.yul\":17512:17517   */\n      dup4\n        /* \"#utility.yul\":17503:17517   */\n      swap1\n      pop\n        /* \"#utility.yul\":17526:18238   */\n    tag_492:\n        /* \"#utility.yul\":17547:17548   */\n      0x01\n        /* \"#utility.yul\":17537:17545   */\n      dup6\n        /* \"#utility.yul\":17534:17549   */\n      gt\n        /* \"#utility.yul\":17526:18238   */\n      iszero\n      tag_494\n      jumpi\n        /* \"#utility.yul\":17642:17646   */\n      dup1\n        /* \"#utility.yul\":17637:17640   */\n      dup7\n        /* \"#utility.yul\":17633:17647   */\n      div\n        /* \"#utility.yul\":17627:17631   */\n      dup2\n        /* \"#utility.yul\":17624:17648   */\n      gt\n        /* \"#utility.yul\":17621:17671   */\n      iszero\n      tag_495\n      jumpi\n        /* \"#utility.yul\":17651:17669   */\n      tag_496\n      tag_281\n      jump\t// in\n    tag_496:\n        /* \"#utility.yul\":17621:17671   */\n    tag_495:\n        /* \"#utility.yul\":17701:17702   */\n      0x01\n        /* \"#utility.yul\":17691:17699   */\n      dup6\n        /* \"#utility.yul\":17687:17703   */\n      and\n        /* \"#utility.yul\":17684:18135   */\n      iszero\n      tag_497\n      jumpi\n        /* \"#utility.yul\":18116:18120   */\n      dup1\n        /* \"#utility.yul\":18109:18114   */\n      dup3\n        /* \"#utility.yul\":18105:18121   */\n      mul\n        /* \"#utility.yul\":18096:18121   */\n      swap2\n      pop\n        /* \"#utility.yul\":17684:18135   */\n    tag_497:\n        /* \"#utility.yul\":18166:18170   */\n      dup1\n        /* \"#utility.yul\":18160:18164   */\n      dup2\n        /* \"#utility.yul\":18156:18171   */\n      mul\n        /* \"#utility.yul\":18148:18171   */\n      swap1\n      pop\n        /* \"#utility.yul\":18196:18228   */\n      tag_498\n        /* \"#utility.yul\":18219:18227   */\n      dup6\n        /* \"#utility.yul\":18196:18228   */\n      tag_283\n      jump\t// in\n    tag_498:\n        /* \"#utility.yul\":18184:18228   */\n      swap5\n      pop\n        /* \"#utility.yul\":17526:18238   */\n      jump(tag_492)\n    tag_494:\n        /* \"#utility.yul\":17396:18244   */\n      swap5\n      pop\n      swap5\n      swap3\n      pop\n      pop\n      pop\n      jump\t// out\n        /* \"#utility.yul\":18250:19323   */\n    tag_285:\n        /* \"#utility.yul\":18304:18309   */\n      0x00\n        /* \"#utility.yul\":18495:18503   */\n      dup3\n        /* \"#utility.yul\":18485:18525   */\n      tag_500\n      jumpi\n        /* \"#utility.yul\":18516:18517   */\n      0x01\n        /* \"#utility.yul\":18507:18517   */\n      swap1\n      pop\n        /* \"#utility.yul\":18518:18523   */\n      jump(tag_499)\n        /* \"#utility.yul\":18485:18525   */\n    tag_500:\n        /* \"#utility.yul\":18544:18548   */\n      dup2\n        /* \"#utility.yul\":18534:18570   */\n      tag_501\n      jumpi\n        /* \"#utility.yul\":18561:18562   */\n      0x00\n        /* \"#utility.yul\":18552:18562   */\n      swap1\n      pop\n        /* \"#utility.yul\":18563:18568   */\n      jump(tag_499)\n        /* \"#utility.yul\":18534:18570   */\n    tag_501:\n        /* \"#utility.yul\":18630:18634   */\n      dup2\n        /* \"#utility.yul\":18678:18679   */\n      0x01\n        /* \"#utility.yul\":18673:18700   */\n      dup2\n      eq\n      tag_503\n      jumpi\n        /* \"#utility.yul\":18714:18715   */\n      0x02\n        /* \"#utility.yul\":18709:18900   */\n      dup2\n      eq\n      tag_504\n      jumpi\n        /* \"#utility.yul\":18623:18900   */\n      jump(tag_502)\n        /* \"#utility.yul\":18673:18700   */\n    tag_503:\n        /* \"#utility.yul\":18691:18692   */\n      0x01\n        /* \"#utility.yul\":18682:18692   */\n      swap2\n      pop\n        /* \"#utility.yul\":18693:18698   */\n      pop\n      jump(tag_499)\n        /* \"#utility.yul\":18709:18900   */\n    tag_504:\n        /* \"#utility.yul\":18754:18757   */\n      0xff\n        /* \"#utility.yul\":18744:18752   */\n      dup5\n        /* \"#utility.yul\":18741:18758   */\n      gt\n        /* \"#utility.yul\":18738:18781   */\n      iszero\n      tag_505\n      jumpi\n        /* \"#utility.yul\":18761:18779   */\n      tag_506\n      tag_281\n      jump\t// in\n    tag_506:\n        /* \"#utility.yul\":18738:18781   */\n    tag_505:\n        /* \"#utility.yul\":18810:18818   */\n      dup4\n        /* \"#utility.yul\":18807:18808   */\n      0x02\n        /* \"#utility.yul\":18803:18819   */\n      exp\n        /* \"#utility.yul\":18794:18819   */\n      swap2\n      pop\n        /* \"#utility.yul\":18845:18848   */\n      dup5\n        /* \"#utility.yul\":18838:18843   */\n      dup3\n        /* \"#utility.yul\":18835:18849   */\n      gt\n        /* \"#utility.yul\":18832:18872   */\n      iszero\n      tag_507\n      jumpi\n        /* \"#utility.yul\":18852:18870   */\n      tag_508\n      tag_281\n      jump\t// in\n    tag_508:\n        /* \"#utility.yul\":18832:18872   */\n    tag_507:\n        /* \"#utility.yul\":18885:18890   */\n      pop\n      jump(tag_499)\n        /* \"#utility.yul\":18623:18900   */\n    tag_502:\n      pop\n        /* \"#utility.yul\":19009:19011   */\n      0x20\n        /* \"#utility.yul\":18999:19007   */\n      dup4\n        /* \"#utility.yul\":18996:19012   */\n      lt\n        /* \"#utility.yul\":18990:18993   */\n      0x0133\n        /* \"#utility.yul\":18984:18988   */\n      dup4\n        /* \"#utility.yul\":18981:18994   */\n      lt\n        /* \"#utility.yul\":18977:19013   */\n      and\n        /* \"#utility.yul\":18959:18961   */\n      0x4e\n        /* \"#utility.yul\":18949:18957   */\n      dup5\n        /* \"#utility.yul\":18946:18962   */\n      lt\n        /* \"#utility.yul\":18941:18943   */\n      0x0b\n        /* \"#utility.yul\":18935:18939   */\n      dup5\n        /* \"#utility.yul\":18932:18944   */\n      lt\n        /* \"#utility.yul\":18928:18963   */\n      and\n        /* \"#utility.yul\":18912:19023   */\n      or\n        /* \"#utility.yul\":18909:19155   */\n      iszero\n      tag_509\n      jumpi\n        /* \"#utility.yul\":19065:19073   */\n      dup3\n        /* \"#utility.yul\":19059:19063   */\n      dup3\n        /* \"#utility.yul\":19055:19074   */\n      exp\n        /* \"#utility.yul\":19046:19074   */\n      swap1\n      pop\n        /* \"#utility.yul\":19100:19103   */\n      dup4\n        /* \"#utility.yul\":19093:19098   */\n      dup2\n        /* \"#utility.yul\":19090:19104   */\n      gt\n        /* \"#utility.yul\":19087:19127   */\n      iszero\n      tag_510\n      jumpi\n        /* \"#utility.yul\":19107:19125   */\n      tag_511\n      tag_281\n      jump\t// in\n    tag_511:\n        /* \"#utility.yul\":19087:19127   */\n    tag_510:\n        /* \"#utility.yul\":19140:19145   */\n      jump(tag_499)\n        /* \"#utility.yul\":18909:19155   */\n    tag_509:\n        /* \"#utility.yul\":19180:19222   */\n      tag_512\n        /* \"#utility.yul\":19218:19221   */\n      dup5\n        /* \"#utility.yul\":19208:19216   */\n      dup5\n        /* \"#utility.yul\":19202:19206   */\n      dup5\n        /* \"#utility.yul\":19199:19200   */\n      0x01\n        /* \"#utility.yul\":19180:19222   */\n      tag_284\n      jump\t// in\n    tag_512:\n        /* \"#utility.yul\":19165:19222   */\n      swap3\n      pop\n      swap1\n      pop\n        /* \"#utility.yul\":19254:19258   */\n      dup2\n        /* \"#utility.yul\":19249:19252   */\n      dup5\n        /* \"#utility.yul\":19245:19259   */\n      div\n        /* \"#utility.yul\":19238:19243   */\n      dup2\n        /* \"#utility.yul\":19235:19260   */\n      gt\n        /* \"#utility.yul\":19232:19283   */\n      iszero\n      tag_513\n      jumpi\n        /* \"#utility.yul\":19263:19281   */\n      tag_514\n      tag_281\n      jump\t// in\n    tag_514:\n        /* \"#utility.yul\":19232:19283   */\n    tag_513:\n        /* \"#utility.yul\":19312:19316   */\n      dup2\n        /* \"#utility.yul\":19305:19310   */\n      dup2\n        /* \"#utility.yul\":19301:19317   */\n      mul\n        /* \"#utility.yul\":19292:19317   */\n      swap1\n      pop\n        /* \"#utility.yul\":18250:19323   */\n    tag_499:\n      swap4\n      swap3\n      pop\n      pop\n      pop\n      jump\t// out\n        /* \"#utility.yul\":19329:19614   */\n    tag_198:\n        /* \"#utility.yul\":19389:19394   */\n      0x00\n        /* \"#utility.yul\":19413:19436   */\n      tag_516\n        /* \"#utility.yul\":19431:19435   */\n      dup3\n        /* \"#utility.yul\":19413:19436   */\n      tag_260\n      jump\t// in\n    tag_516:\n        /* \"#utility.yul\":19405:19436   */\n      swap2\n      pop\n        /* \"#utility.yul\":19457:19484   */\n      tag_517\n        /* \"#utility.yul\":19475:19483   */\n      dup4\n        /* \"#utility.yul\":19457:19484   */\n      tag_260\n      jump\t// in\n    tag_517:\n        /* \"#utility.yul\":19445:19484   */\n      swap3\n      pop\n        /* \"#utility.yul\":19503:19607   */\n      tag_518\n        /* \"#utility.yul\":19540:19606   */\n      0xffffffffffffffffffffffffffffffffffffffffffffffffffffffffffffffff\n        /* \"#utility.yul\":19530:19538   */\n      dup5\n        /* \"#utility.yul\":19524:19528   */\n      dup5\n        /* \"#utility.yul\":19503:19607   */\n      tag_285\n      jump\t// in\n    tag_518:\n        /* \"#utility.yul\":19494:19607   */\n      swap1\n      pop\n        /* \"#utility.yul\":19329:19614   */\n      swap3\n      swap2\n      pop\n      pop\n      jump\t// out\n\n    auxdata: 0xa26469706673582212205b43d3529f3b1a50734bceea8a0ce32794c4ad9af6e4606ab2ff33c5b4d4d1c464736f6c634300081f0033\n}\n",
				"bytecode": {
					"linkReferences": {},
					"object": "60a060405234801561000f575f5ffd5b50604051611ae4380380611ae4833981810160405281019061003191906100cb565b808073ffffffffffffffffffffffffffffffffffffffff1660808173ffffffffffffffffffffffffffffffffffffffff168152505050506100f6565b5f5ffd5b5f73ffffffffffffffffffffffffffffffffffffffff82169050919050565b5f61009a82610071565b9050919050565b6100aa81610090565b81146100b4575f5ffd5b50565b5f815190506100c5816100a1565b92915050565b5f602082840312156100e0576100df61006d565b5b5f6100ed848285016100b7565b91505092915050565b6080516119d06101145f395f818160d801526106ed01526119d05ff3fe608060405234801561000f575f5ffd5b506004361061004a575f3560e01c80630ca761751461004e5780635e63aa461461006a578063e8eda4c814610088578063fc2a88c3146100b8575b5f5ffd5b61006860048036038101906100639190610fef565b6100d6565b005b610072610198565b60405161007f91906110d7565b60405180910390f35b6100a2600480360381019061009d91906111ca565b610223565b6040516100af919061125d565b60405180910390f35b6100c06102ab565b6040516100cd919061125d565b60405180910390f35b7f000000000000000000000000000000000000000000000000000000000000000073ffffffffffffffffffffffffffffffffffffffff163373ffffffffffffffffffffffffffffffffffffffff161461015b576040517fc6829f8300000000000000000000000000000000000000000000000000000000815260040160405180910390fd5b6101668383836102b1565b827f85e1543bf2f84fe80c6badbce3648c8539ad1df4d2b3d822938ca0538be727e660405160405180910390a2505050565b5f80546101a4906112a3565b80601f01602080910402602001604051908101604052809291908181526020018280546101d0906112a3565b801561021b5780601f106101f25761010080835404028352916020019161021b565b820191905f5260205f20905b8154815290600101906020018083116101fe57829003601f168201915b505050505081565b5f61022c610dc8565b61028287878080601f0160208091040260200160405190810160405280939291908181526020018383808284375f81840152601f19601f82011690508083019250505050505050826102ce90919063ffffffff16565b61029661028e826102de565b8686866106e9565b60018190555060015491505095945050505050565b60015481565b5f8151116102c957815f90816102c7919061147c565b505b505050565b6102da825f5f846107c8565b5050565b60605f6102ec61010061086e565b90506103366040518060400160405280600c81526020017f636f64654c6f636174696f6e00000000000000000000000000000000000000008152508261089390919063ffffffff16565b61035e835f0151600281111561034f5761034e61154b565b5b826108bb90919063ffffffff16565b6103a66040518060400160405280600881526020017f6c616e67756167650000000000000000000000000000000000000000000000008152508261089390919063ffffffff16565b6103ce83604001515f8111156103bf576103be61154b565b5b826108bb90919063ffffffff16565b6104166040518060400160405280600681526020017f736f7572636500000000000000000000000000000000000000000000000000008152508261089390919063ffffffff16565b61042d83606001518261089390919063ffffffff16565b5f8360a001515111156104e4576104826040518060400160405280600481526020017f61726773000000000000000000000000000000000000000000000000000000008152508261089390919063ffffffff16565b61048b8161090a565b5f5f90505b8360a00151518110156104d9576104ce8460a0015182815181106104b7576104b6611578565b5b60200260200101518361089390919063ffffffff16565b806001019050610490565b506104e381610932565b5b5f8360800151511115610623575f60028111156105045761050361154b565b5b8360200151600281111561051b5761051a61154b565b5b03610552576040517fa80d31f700000000000000000000000000000000000000000000000000000000815260040160405180910390fd5b61059a6040518060400160405280600f81526020017f736563726574734c6f636174696f6e00000000000000000000000000000000008152508261089390919063ffffffff16565b6105c3836020015160028111156105b4576105b361154b565b5b826108bb90919063ffffffff16565b61060b6040518060400160405280600781526020017f73656372657473000000000000000000000000000000000000000000000000008152508261089390919063ffffffff16565b61062283608001518261095a90919063ffffffff16565b5b5f8360c001515111156106da576106786040518060400160405280600981526020017f62797465734172677300000000000000000000000000000000000000000000008152508261089390919063ffffffff16565b6106818161090a565b5f5f90505b8360c00151518110156106cf576106c48460c0015182815181106106ad576106ac611578565b5b60200260200101518361095a90919063ffffffff16565b806001019050610686565b506106d981610932565b5b805f01515f0151915050919050565b5f5f7f000000000000000000000000000000000000000000000000000000000000000073ffffffffffffffffffffffffffffffffffffffff1663461d27628688600188886040518663ffffffff1660e01b815260040161074d959493929190611631565b6020604051808303815f875af1158015610769573d5f5f3e3d5ffd5b505050506040513d601f19601f8201168201806040525081019061078d919061169d565b9050807f1131472297a800fee664d1d89cfa8f7676ff07189ecc53f80bbb5f4969099db860405160405180910390a280915050949350505050565b5f815103610802576040517f22ce3edd00000000000000000000000000000000000000000000000000000000815260040160405180910390fd5b82845f019060028111156108195761081861154b565b5b9081600281111561082d5761082c61154b565b5b815250508184604001905f8111156108485761084761154b565b5b90815f81111561085b5761085a61154b565b5b8152505080846060018190525050505050565b610876610e37565b610883815f015183610982565b505f816020018181525050919050565b6108a082600383516109f8565b6108b681835f0151610b9890919063ffffffff16565b505050565b6108dc60026005600660ff16901b17835f0151610bb490919063ffffffff16565b5061090682826040516020016108f291906116d7565b60405160208183030381529060405261095a565b5050565b610915816004610c1b565b600181602001818151610928919061171d565b9150818152505050565b61093d816007610c1b565b6001816020018181516109509190611750565b9150818152505050565b61096782600283516109f8565b61097d81835f0151610b9890919063ffffffff16565b505050565b61098a610e56565b5f60208361099891906117b0565b146109c4576020826109aa91906117b0565b60206109b69190611750565b826109c1919061171d565b91505b818360200181815250506040518084525f8152828101602001818110156109e9575f5ffd5b80604052505082905092915050565b60178167ffffffffffffffff1611610a3257610a2c8160058460ff16901b60ff1617845f0151610bb490919063ffffffff16565b50610b93565b60ff8167ffffffffffffffff1611610a8e57610a64601860058460ff16901b17845f0151610bb490919063ffffffff16565b50610a888167ffffffffffffffff166001855f0151610c409092919063ffffffff16565b50610b92565b61ffff8167ffffffffffffffff1611610aeb57610ac1601960058460ff16901b17845f0151610bb490919063ffffffff16565b50610ae58167ffffffffffffffff166002855f0151610c409092919063ffffffff16565b50610b91565b63ffffffff8167ffffffffffffffff1611610b4a57610b20601a60058460ff16901b17845f0151610bb490919063ffffffff16565b50610b448167ffffffffffffffff166004855f0151610c409092919063ffffffff16565b50610b90565b610b6a601b60058460ff16901b17845f0151610bb490919063ffffffff16565b50610b8e8167ffffffffffffffff166008855f0151610c409092919063ffffffff16565b505b5b5b5b505050565b610ba0610e56565b610bac83838451610cc9565b905092915050565b610bbc610e56565b5f835f01515190505f600182610bd2919061171d565b905084602001518210610bf657610bf585600283610bf091906117e0565b610da6565b5b84516020838201018581538151831115610c0e578282525b5050849250505092915050565b610c3b601f60058360ff16901b17835f0151610bb490919063ffffffff16565b505050565b610c48610e56565b5f845f01515190505f8184610c5d919061171d565b90508560200151811115610c8257610c8186600283610c7c91906117e0565b610da6565b5b5f600185610100610c939190611950565b610c9d9190611750565b905086518281018783198251161781528151841115610cba578382525b50508693505050509392505050565b610cd1610e56565b8251821115610cde575f5ffd5b5f845f01515190505f8382610cf3919061171d565b90508560200151811115610d1857610d1786600283610d1291906117e0565b610da6565b5b5f5f87518051856020830101935080851115610d32578482525b60208901925050505b60208610610d795780518252602082610d54919061171d565b9150602081610d63919061171d565b9050602086610d729190611750565b9550610d3b565b5f6001876020036101000a0390508019825116818451168181178552505050879450505050509392505050565b5f825f01519050610db78383610982565b50610dc28382610b98565b50505050565b6040518060e001604052805f6002811115610de657610de561154b565b5b81526020015f6002811115610dfe57610dfd61154b565b5b81526020015f5f811115610e1557610e1461154b565b5b8152602001606081526020016060815260200160608152602001606081525090565b6040518060400160405280610e4a610e56565b81526020015f81525090565b6040518060400160405280606081526020015f81525090565b5f604051905090565b5f5ffd5b5f5ffd5b5f819050919050565b610e9281610e80565b8114610e9c575f5ffd5b50565b5f81359050610ead81610e89565b92915050565b5f5ffd5b5f5ffd5b5f601f19601f8301169050919050565b7f4e487b71000000000000000000000000000000000000000000000000000000005f52604160045260245ffd5b610f0182610ebb565b810181811067ffffffffffffffff82111715610f2057610f1f610ecb565b5b80604052505050565b5f610f32610e6f565b9050610f3e8282610ef8565b919050565b5f67ffffffffffffffff821115610f5d57610f5c610ecb565b5b610f6682610ebb565b9050602081019050919050565b828183375f83830152505050565b5f610f93610f8e84610f43565b610f29565b905082815260208101848484011115610faf57610fae610eb7565b5b610fba848285610f73565b509392505050565b5f82601f830112610fd657610fd5610eb3565b5b8135610fe6848260208601610f81565b91505092915050565b5f5f5f6060848603121561100657611005610e78565b5b5f61101386828701610e9f565b935050602084013567ffffffffffffffff81111561103457611033610e7c565b5b61104086828701610fc2565b925050604084013567ffffffffffffffff81111561106157611060610e7c565b5b61106d86828701610fc2565b9150509250925092565b5f81519050919050565b5f82825260208201905092915050565b8281835e5f83830152505050565b5f6110a982611077565b6110b38185611081565b93506110c3818560208601611091565b6110cc81610ebb565b840191505092915050565b5f6020820190508181035f8301526110ef818461109f565b905092915050565b5f5ffd5b5f5ffd5b5f5f83601f84011261111457611113610eb3565b5b8235905067ffffffffffffffff811115611131576111306110f7565b5b60208301915083600182028301111561114d5761114c6110fb565b5b9250929050565b5f67ffffffffffffffff82169050919050565b61117081611154565b811461117a575f5ffd5b50565b5f8135905061118b81611167565b92915050565b5f63ffffffff82169050919050565b6111a981611191565b81146111b3575f5ffd5b50565b5f813590506111c4816111a0565b92915050565b5f5f5f5f5f608086880312156111e3576111e2610e78565b5b5f86013567ffffffffffffffff811115611200576111ff610e7c565b5b61120c888289016110ff565b9550955050602061121f8882890161117d565b9350506040611230888289016111b6565b925050606061124188828901610e9f565b9150509295509295909350565b61125781610e80565b82525050565b5f6020820190506112705f83018461124e565b92915050565b7f4e487b71000000000000000000000000000000000000000000000000000000005f52602260045260245ffd5b5f60028204905060018216806112ba57607f821691505b6020821081036112cd576112cc611276565b5b50919050565b5f819050815f5260205f209050919050565b5f6020601f8301049050919050565b5f82821b905092915050565b5f6008830261132f7fffffffffffffffffffffffffffffffffffffffffffffffffffffffffffffffff826112f4565b61133986836112f4565b95508019841693508086168417925050509392505050565b5f819050919050565b5f819050919050565b5f61137d61137861137384611351565b61135a565b611351565b9050919050565b5f819050919050565b61139683611363565b6113aa6113a282611384565b848454611300565b825550505050565b5f5f905090565b6113c16113b2565b6113cc81848461138d565b505050565b5b818110156113ef576113e45f826113b9565b6001810190506113d2565b5050565b601f82111561143457611405816112d3565b61140e846112e5565b8101602085101561141d578190505b611431611429856112e5565b8301826113d1565b50505b505050565b5f82821c905092915050565b5f6114545f1984600802611439565b1980831691505092915050565b5f61146c8383611445565b9150826002028217905092915050565b61148582611077565b67ffffffffffffffff81111561149e5761149d610ecb565b5b6114a882546112a3565b6114b38282856113f3565b5f60209050601f8311600181146114e4575f84156114d2578287015190505b6114dc8582611461565b865550611543565b601f1984166114f2866112d3565b5f5b82811015611519578489015182556001820191506020850194506020810190506114f4565b868310156115365784890151611532601f891682611445565b8355505b6001600288020188555050505b505050505050565b7f4e487b71000000000000000000000000000000000000000000000000000000005f52602160045260245ffd5b7f4e487b71000000000000000000000000000000000000000000000000000000005f52603260045260245ffd5b6115ae81611154565b82525050565b5f81519050919050565b5f82825260208201905092915050565b5f6115d8826115b4565b6115e281856115be565b93506115f2818560208601611091565b6115fb81610ebb565b840191505092915050565b5f61ffff82169050919050565b61161c81611606565b82525050565b61162b81611191565b82525050565b5f60a0820190506116445f8301886115a5565b818103602083015261165681876115ce565b90506116656040830186611613565b6116726060830185611622565b61167f608083018461124e565b9695505050505050565b5f8151905061169781610e89565b92915050565b5f602082840312156116b2576116b1610e78565b5b5f6116bf84828501611689565b91505092915050565b6116d181611351565b82525050565b5f6020820190506116ea5f8301846116c8565b92915050565b7f4e487b71000000000000000000000000000000000000000000000000000000005f52601160045260245ffd5b5f61172782611351565b915061173283611351565b925082820190508082111561174a576117496116f0565b5b92915050565b5f61175a82611351565b915061176583611351565b925082820390508181111561177d5761177c6116f0565b5b92915050565b7f4e487b71000000000000000000000000000000000000000000000000000000005f52601260045260245ffd5b5f6117ba82611351565b91506117c583611351565b9250826117d5576117d4611783565b5b828206905092915050565b5f6117ea82611351565b91506117f583611351565b925082820261180381611351565b9150828204841483151761181a576118196116f0565b5b5092915050565b5f8160011c9050919050565b5f5f8291508390505b600185111561187657808604811115611852576118516116f0565b5b60018516156118615780820291505b808102905061186f85611821565b9450611836565b94509492505050565b5f8261188e5760019050611949565b8161189b575f9050611949565b81600181146118b157600281146118bb576118ea565b6001915050611949565b60ff8411156118cd576118cc6116f0565b5b8360020a9150848211156118e4576118e36116f0565b5b50611949565b5060208310610133831016604e8410600b841016171561191f5782820a90508381111561191a576119196116f0565b5b611949565b61192c848484600161182d565b92509050818404811115611943576119426116f0565b5b81810290505b9392505050565b5f61195a82611351565b915061196583611351565b92506119927fffffffffffffffffffffffffffffffffffffffffffffffffffffffffffffffff848461187f565b90509291505056fea26469706673582212205b43d3529f3b1a50734bceea8a0ce32794c4ad9af6e4606ab2ff33c5b4d4d1c464736f6c634300081f0033",
					"opcodes": "PUSH1 0xA0 PUSH1 0x40 MSTORE CALLVALUE DUP1 ISZERO PUSH2 0xF JUMPI PUSH0 PUSH0 REVERT JUMPDEST POP PUSH1 0x40 MLOAD PUSH2 0x1AE4 CODESIZE SUB DUP1 PUSH2 0x1AE4 DUP4 CODECOPY DUP2 DUP2 ADD PUSH1 0x40 MSTORE DUP2 ADD SWAP1 PUSH2 0x31 SWAP2 SWAP1 PUSH2 0xCB JUMP JUMPDEST DUP1 DUP1 PUSH20 0xFFFFFFFFFFFFFFFFFFFFFFFFFFFFFFFFFFFFFFFF AND PUSH1 0x80 DUP2 PUSH20 0xFFFFFFFFFFFFFFFFFFFFFFFFFFFFFFFFFFFFFFFF AND DUP2 MSTORE POP POP POP POP PUSH2 0xF6 JUMP JUMPDEST PUSH0 PUSH0 REVERT JUMPDEST PUSH0 PUSH20 0xFFFFFFFFFFFFFFFFFFFFFFFFFFFFFFFFFFFFFFFF DUP3 AND SWAP1 POP SWAP2 SWAP1 POP JUMP JUMPDEST PUSH0 PUSH2 0x9A DUP3 PUSH2 0x71 JUMP JUMPDEST SWAP1 POP SWAP2 SWAP1 POP JUMP JUMPDEST PUSH2 0xAA DUP2 PUSH2 0x90 JUMP JUMPDEST DUP2 EQ PUSH2 0xB4 JUMPI PUSH0 PUSH0 REVERT JUMPDEST POP JUMP JUMPDEST PUSH0 DUP2 MLOAD SWAP1 POP PUSH2 0xC5 DUP2 PUSH2 0xA1 JUMP JUMPDEST SWAP3 SWAP2 POP POP JUMP JUMPDEST PUSH0 PUSH1 0x20 DUP3 DUP5 SUB SLT ISZERO PUSH2 0xE0 JUMPI PUSH2 0xDF PUSH2 0x6D JUMP JUMPDEST JUMPDEST PUSH0 PUSH2 0xED DUP5 DUP3 DUP6 ADD PUSH2 0xB7 JUMP JUMPDEST SWAP2 POP POP SWAP3 SWAP2 POP POP JUMP JUMPDEST PUSH1 0x80 MLOAD PUSH2 0x19D0 PUSH2 0x114 PUSH0 CODECOPY PUSH0 DUP2 DUP2 PUSH1 0xD8 ADD MSTORE PUSH2 0x6ED ADD MSTORE PUSH2 0x19D0 PUSH0 RETURN INVALID PUSH1 0x80 PUSH1 0x40 MSTORE CALLVALUE DUP1 ISZERO PUSH2 0xF JUMPI PUSH0 PUSH0 REVERT JUMPDEST POP PUSH1 0x4 CALLDATASIZE LT PUSH2 0x4A JUMPI PUSH0 CALLDATALOAD PUSH1 0xE0 SHR DUP1 PUSH4 0xCA76175 EQ PUSH2 0x4E JUMPI DUP1 PUSH4 0x5E63AA46 EQ PUSH2 0x6A JUMPI DUP1 PUSH4 0xE8EDA4C8 EQ PUSH2 0x88 JUMPI DUP1 PUSH4 0xFC2A88C3 EQ PUSH2 0xB8 JUMPI JUMPDEST PUSH0 PUSH0 REVERT JUMPDEST PUSH2 0x68 PUSH1 0x4 DUP1 CALLDATASIZE SUB DUP2 ADD SWAP1 PUSH2 0x63 SWAP2 SWAP1 PUSH2 0xFEF JUMP JUMPDEST PUSH2 0xD6 JUMP JUMPDEST STOP JUMPDEST PUSH2 0x72 PUSH2 0x198 JUMP JUMPDEST PUSH1 0x40 MLOAD PUSH2 0x7F SWAP2 SWAP1 PUSH2 0x10D7 JUMP JUMPDEST PUSH1 0x40 MLOAD DUP1 SWAP2 SUB SWAP1 RETURN JUMPDEST PUSH2 0xA2 PUSH1 0x4 DUP1 CALLDATASIZE SUB DUP2 ADD SWAP1 PUSH2 0x9D SWAP2 SWAP1 PUSH2 0x11CA JUMP JUMPDEST PUSH2 0x223 JUMP JUMPDEST PUSH1 0x40 MLOAD PUSH2 0xAF SWAP2 SWAP1 PUSH2 0x125D JUMP JUMPDEST PUSH1 0x40 MLOAD DUP1 SWAP2 SUB SWAP1 RETURN JUMPDEST PUSH2 0xC0 PUSH2 0x2AB JUMP JUMPDEST PUSH1 0x40 MLOAD PUSH2 0xCD SWAP2 SWAP1 PUSH2 0x125D JUMP JUMPDEST PUSH1 0x40 MLOAD DUP1 SWAP2 SUB SWAP1 RETURN JUMPDEST PUSH32 0x0 PUSH20 0xFFFFFFFFFFFFFFFFFFFFFFFFFFFFFFFFFFFFFFFF AND CALLER PUSH20 0xFFFFFFFFFFFFFFFFFFFFFFFFFFFFFFFFFFFFFFFF AND EQ PUSH2 0x15B JUMPI PUSH1 0x40 MLOAD PUSH32 0xC6829F8300000000000000000000000000000000000000000000000000000000 DUP2 MSTORE PUSH1 0x4 ADD PUSH1 0x40 MLOAD DUP1 SWAP2 SUB SWAP1 REVERT JUMPDEST PUSH2 0x166 DUP4 DUP4 DUP4 PUSH2 0x2B1 JUMP JUMPDEST DUP3 PUSH32 0x85E1543BF2F84FE80C6BADBCE3648C8539AD1DF4D2B3D822938CA0538BE727E6 PUSH1 0x40 MLOAD PUSH1 0x40 MLOAD DUP1 SWAP2 SUB SWAP1 LOG2 POP POP POP JUMP JUMPDEST PUSH0 DUP1 SLOAD PUSH2 0x1A4 SWAP1 PUSH2 0x12A3 JUMP JUMPDEST DUP1 PUSH1 0x1F ADD PUSH1 0x20 DUP1 SWAP2 DIV MUL PUSH1 0x20 ADD PUSH1 0x40 MLOAD SWAP1 DUP2 ADD PUSH1 0x40 MSTORE DUP1 SWAP3 SWAP2 SWAP1 DUP2 DUP2 MSTORE PUSH1 0x20 ADD DUP3 DUP1 SLOAD PUSH2 0x1D0 SWAP1 PUSH2 0x12A3 JUMP JUMPDEST DUP1 ISZERO PUSH2 0x21B JUMPI DUP1 PUSH1 0x1F LT PUSH2 0x1F2 JUMPI PUSH2 0x100 DUP1 DUP4 SLOAD DIV MUL DUP4 MSTORE SWAP2 PUSH1 0x20 ADD SWAP2 PUSH2 0x21B JUMP JUMPDEST DUP3 ADD SWAP2 SWAP1 PUSH0 MSTORE PUSH1 0x20 PUSH0 KECCAK256 SWAP1 JUMPDEST DUP2 SLOAD DUP2 MSTORE SWAP1 PUSH1 0x1 ADD SWAP1 PUSH1 0x20 ADD DUP1 DUP4 GT PUSH2 0x1FE JUMPI DUP3 SWAP1 SUB PUSH1 0x1F AND DUP3 ADD SWAP2 JUMPDEST POP POP POP POP POP DUP2 JUMP JUMPDEST PUSH0 PUSH2 0x22C PUSH2 0xDC8 JUMP JUMPDEST PUSH2 0x282 DUP8 DUP8 DUP1 DUP1 PUSH1 0x1F ADD PUSH1 0x20 DUP1 SWAP2 DIV MUL PUSH1 0x20 ADD PUSH1 0x40 MLOAD SWAP1 DUP2 ADD PUSH1 0x40 MSTORE DUP1 SWAP4 SWAP3 SWAP2 SWAP1 DUP2 DUP2 MSTORE PUSH1 0x20 ADD DUP4 DUP4 DUP1 DUP3 DUP5 CALLDATACOPY PUSH0 DUP2 DUP5 ADD MSTORE PUSH1 0x1F NOT PUSH1 0x1F DUP3 ADD AND SWAP1 POP DUP1 DUP4 ADD SWAP3 POP POP POP POP POP POP POP DUP3 PUSH2 0x2CE SWAP1 SWAP2 SWAP1 PUSH4 0xFFFFFFFF AND JUMP JUMPDEST PUSH2 0x296 PUSH2 0x28E DUP3 PUSH2 0x2DE JUMP JUMPDEST DUP7 DUP7 DUP7 PUSH2 0x6E9 JUMP JUMPDEST PUSH1 0x1 DUP2 SWAP1 SSTORE POP PUSH1 0x1 SLOAD SWAP2 POP POP SWAP6 SWAP5 POP POP POP POP POP JUMP JUMPDEST PUSH1 0x1 SLOAD DUP2 JUMP JUMPDEST PUSH0 DUP2 MLOAD GT PUSH2 0x2C9 JUMPI DUP2 PUSH0 SWAP1 DUP2 PUSH2 0x2C7 SWAP2 SWAP1 PUSH2 0x147C JUMP JUMPDEST POP JUMPDEST POP POP POP JUMP JUMPDEST PUSH2 0x2DA DUP3 PUSH0 PUSH0 DUP5 PUSH2 0x7C8 JUMP JUMPDEST POP POP JUMP JUMPDEST PUSH1 0x60 PUSH0 PUSH2 0x2EC PUSH2 0x100 PUSH2 0x86E JUMP JUMPDEST SWAP1 POP PUSH2 0x336 PUSH1 0x40 MLOAD DUP1 PUSH1 0x40 ADD PUSH1 0x40 MSTORE DUP1 PUSH1 0xC DUP2 MSTORE PUSH1 0x20 ADD PUSH32 0x636F64654C6F636174696F6E0000000000000000000000000000000000000000 DUP2 MSTORE POP DUP3 PUSH2 0x893 SWAP1 SWAP2 SWAP1 PUSH4 0xFFFFFFFF AND JUMP JUMPDEST PUSH2 0x35E DUP4 PUSH0 ADD MLOAD PUSH1 0x2 DUP2 GT ISZERO PUSH2 0x34F JUMPI PUSH2 0x34E PUSH2 0x154B JUMP JUMPDEST JUMPDEST DUP3 PUSH2 0x8BB SWAP1 SWAP2 SWAP1 PUSH4 0xFFFFFFFF AND JUMP JUMPDEST PUSH2 0x3A6 PUSH1 0x40 MLOAD DUP1 PUSH1 0x40 ADD PUSH1 0x40 MSTORE DUP1 PUSH1 0x8 DUP2 MSTORE PUSH1 0x20 ADD PUSH32 0x6C616E6775616765000000000000000000000000000000000000000000000000 DUP2 MSTORE POP DUP3 PUSH2 0x893 SWAP1 SWAP2 SWAP1 PUSH4 0xFFFFFFFF AND JUMP JUMPDEST PUSH2 0x3CE DUP4 PUSH1 0x40 ADD MLOAD PUSH0 DUP2 GT ISZERO PUSH2 0x3BF JUMPI PUSH2 0x3BE PUSH2 0x154B JUMP JUMPDEST JUMPDEST DUP3 PUSH2 0x8BB SWAP1 SWAP2 SWAP1 PUSH4 0xFFFFFFFF AND JUMP JUMPDEST PUSH2 0x416 PUSH1 0x40 MLOAD DUP1 PUSH1 0x40 ADD PUSH1 0x40 MSTORE DUP1 PUSH1 0x6 DUP2 MSTORE PUSH1 0x20 ADD PUSH32 0x736F757263650000000000000000000000000000000000000000000000000000 DUP2 MSTORE POP DUP3 PUSH2 0x893 SWAP1 SWAP2 SWAP1 PUSH4 0xFFFFFFFF AND JUMP JUMPDEST PUSH2 0x42D DUP4 PUSH1 0x60 ADD MLOAD DUP3 PUSH2 0x893 SWAP1 SWAP2 SWAP1 PUSH4 0xFFFFFFFF AND JUMP JUMPDEST PUSH0 DUP4 PUSH1 0xA0 ADD MLOAD MLOAD GT ISZERO PUSH2 0x4E4 JUMPI PUSH2 0x482 PUSH1 0x40 MLOAD DUP1 PUSH1 0x40 ADD PUSH1 0x40 MSTORE DUP1 PUSH1 0x4 DUP2 MSTORE PUSH1 0x20 ADD PUSH32 0x6172677300000000000000000000000000000000000000000000000000000000 DUP2 MSTORE POP DUP3 PUSH2 0x893 SWAP1 SWAP2 SWAP1 PUSH4 0xFFFFFFFF AND JUMP JUMPDEST PUSH2 0x48B DUP2 PUSH2 0x90A JUMP JUMPDEST PUSH0 PUSH0 SWAP1 POP JUMPDEST DUP4 PUSH1 0xA0 ADD MLOAD MLOAD DUP2 LT ISZERO PUSH2 0x4D9 JUMPI PUSH2 0x4CE DUP5 PUSH1 0xA0 ADD MLOAD DUP3 DUP2 MLOAD DUP2 LT PUSH2 0x4B7 JUMPI PUSH2 0x4B6 PUSH2 0x1578 JUMP JUMPDEST JUMPDEST PUSH1 0x20 MUL PUSH1 0x20 ADD ADD MLOAD DUP4 PUSH2 0x893 SWAP1 SWAP2 SWAP1 PUSH4 0xFFFFFFFF AND JUMP JUMPDEST DUP1 PUSH1 0x1 ADD SWAP1 POP PUSH2 0x490 JUMP JUMPDEST POP PUSH2 0x4E3 DUP2 PUSH2 0x932 JUMP JUMPDEST JUMPDEST PUSH0 DUP4 PUSH1 0x80 ADD MLOAD MLOAD GT ISZERO PUSH2 0x623 JUMPI PUSH0 PUSH1 0x2 DUP2 GT ISZERO PUSH2 0x504 JUMPI PUSH2 0x503 PUSH2 0x154B JUMP JUMPDEST JUMPDEST DUP4 PUSH1 0x20 ADD MLOAD PUSH1 0x2 DUP2 GT ISZERO PUSH2 0x51B JUMPI PUSH2 0x51A PUSH2 0x154B JUMP JUMPDEST JUMPDEST SUB PUSH2 0x552 JUMPI PUSH1 0x40 MLOAD PUSH32 0xA80D31F700000000000000000000000000000000000000000000000000000000 DUP2 MSTORE PUSH1 0x4 ADD PUSH1 0x40 MLOAD DUP1 SWAP2 SUB SWAP1 REVERT JUMPDEST PUSH2 0x59A PUSH1 0x40 MLOAD DUP1 PUSH1 0x40 ADD PUSH1 0x40 MSTORE DUP1 PUSH1 0xF DUP2 MSTORE PUSH1 0x20 ADD PUSH32 0x736563726574734C6F636174696F6E0000000000000000000000000000000000 DUP2 MSTORE POP DUP3 PUSH2 0x893 SWAP1 SWAP2 SWAP1 PUSH4 0xFFFFFFFF AND JUMP JUMPDEST PUSH2 0x5C3 DUP4 PUSH1 0x20 ADD MLOAD PUSH1 0x2 DUP2 GT ISZERO PUSH2 0x5B4 JUMPI PUSH2 0x5B3 PUSH2 0x154B JUMP JUMPDEST JUMPDEST DUP3 PUSH2 0x8BB SWAP1 SWAP2 SWAP1 PUSH4 0xFFFFFFFF AND JUMP JUMPDEST PUSH2 0x60B PUSH1 0x40 MLOAD DUP1 PUSH1 0x40 ADD PUSH1 0x40 MSTORE DUP1 PUSH1 0x7 DUP2 MSTORE PUSH1 0x20 ADD PUSH32 0x7365637265747300000000000000000000000000000000000000000000000000 DUP2 MSTORE POP DUP3 PUSH2 0x893 SWAP1 SWAP2 SWAP1 PUSH4 0xFFFFFFFF AND JUMP JUMPDEST PUSH2 0x622 DUP4 PUSH1 0x80 ADD MLOAD DUP3 PUSH2 0x95A SWAP1 SWAP2 SWAP1 PUSH4 0xFFFFFFFF AND JUMP JUMPDEST JUMPDEST PUSH0 DUP4 PUSH1 0xC0 ADD MLOAD MLOAD GT ISZERO PUSH2 0x6DA JUMPI PUSH2 0x678 PUSH1 0x40 MLOAD DUP1 PUSH1 0x40 ADD PUSH1 0x40 MSTORE DUP1 PUSH1 0x9 DUP2 MSTORE PUSH1 0x20 ADD PUSH32 0x6279746573417267730000000000000000000000000000000000000000000000 DUP2 MSTORE POP DUP3 PUSH2 0x893 SWAP1 SWAP2 SWAP1 PUSH4 0xFFFFFFFF AND JUMP JUMPDEST PUSH2 0x681 DUP2 PUSH2 0x90A JUMP JUMPDEST PUSH0 PUSH0 SWAP1 POP JUMPDEST DUP4 PUSH1 0xC0 ADD MLOAD MLOAD DUP2 LT ISZERO PUSH2 0x6CF JUMPI PUSH2 0x6C4 DUP5 PUSH1 0xC0 ADD MLOAD DUP3 DUP2 MLOAD DUP2 LT PUSH2 0x6AD JUMPI PUSH2 0x6AC PUSH2 0x1578 JUMP JUMPDEST JUMPDEST PUSH1 0x20 MUL PUSH1 0x20 ADD ADD MLOAD DUP4 PUSH2 0x95A SWAP1 SWAP2 SWAP1 PUSH4 0xFFFFFFFF AND JUMP JUMPDEST DUP1 PUSH1 0x1 ADD SWAP1 POP PUSH2 0x686 JUMP JUMPDEST POP PUSH2 0x6D9 DUP2 PUSH2 0x932 JUMP JUMPDEST JUMPDEST DUP1 PUSH0 ADD MLOAD PUSH0 ADD MLOAD SWAP2 POP POP SWAP2 SWAP1 POP JUMP JUMPDEST PUSH0 PUSH0 PUSH32 0x0 PUSH20 0xFFFFFFFFFFFFFFFFFFFFFFFFFFFFFFFFFFFFFFFF AND PUSH4 0x461D2762 DUP7 DUP9 PUSH1 0x1 DUP9 DUP9 PUSH1 0x40 MLOAD DUP7 PUSH4 0xFFFFFFFF AND PUSH1 0xE0 SHL DUP2 MSTORE PUSH1 0x4 ADD PUSH2 0x74D SWAP6 SWAP5 SWAP4 SWAP3 SWAP2 SWAP1 PUSH2 0x1631 JUMP JUMPDEST PUSH1 0x20 PUSH1 0x40 MLOAD DUP1 DUP4 SUB DUP2 PUSH0 DUP8 GAS CALL ISZERO DUP1 ISZERO PUSH2 0x769 JUMPI RETURNDATASIZE PUSH0 PUSH0 RETURNDATACOPY RETURNDATASIZE PUSH0 REVERT JUMPDEST POP POP POP POP PUSH1 0x40 MLOAD RETURNDATASIZE PUSH1 0x1F NOT PUSH1 0x1F DUP3 ADD AND DUP3 ADD DUP1 PUSH1 0x40 MSTORE POP DUP2 ADD SWAP1 PUSH2 0x78D SWAP2 SWAP1 PUSH2 0x169D JUMP JUMPDEST SWAP1 POP DUP1 PUSH32 0x1131472297A800FEE664D1D89CFA8F7676FF07189ECC53F80BBB5F4969099DB8 PUSH1 0x40 MLOAD PUSH1 0x40 MLOAD DUP1 SWAP2 SUB SWAP1 LOG2 DUP1 SWAP2 POP POP SWAP5 SWAP4 POP POP POP POP JUMP JUMPDEST PUSH0 DUP2 MLOAD SUB PUSH2 0x802 JUMPI PUSH1 0x40 MLOAD PUSH32 0x22CE3EDD00000000000000000000000000000000000000000000000000000000 DUP2 MSTORE PUSH1 0x4 ADD PUSH1 0x40 MLOAD DUP1 SWAP2 SUB SWAP1 REVERT JUMPDEST DUP3 DUP5 PUSH0 ADD SWAP1 PUSH1 0x2 DUP2 GT ISZERO PUSH2 0x819 JUMPI PUSH2 0x818 PUSH2 0x154B JUMP JUMPDEST JUMPDEST SWAP1 DUP2 PUSH1 0x2 DUP2 GT ISZERO PUSH2 0x82D JUMPI PUSH2 0x82C PUSH2 0x154B JUMP JUMPDEST JUMPDEST DUP2 MSTORE POP POP DUP2 DUP5 PUSH1 0x40 ADD SWAP1 PUSH0 DUP2 GT ISZERO PUSH2 0x848 JUMPI PUSH2 0x847 PUSH2 0x154B JUMP JUMPDEST JUMPDEST SWAP1 DUP2 PUSH0 DUP2 GT ISZERO PUSH2 0x85B JUMPI PUSH2 0x85A PUSH2 0x154B JUMP JUMPDEST JUMPDEST DUP2 MSTORE POP POP DUP1 DUP5 PUSH1 0x60 ADD DUP2 SWAP1 MSTORE POP POP POP POP POP JUMP JUMPDEST PUSH2 0x876 PUSH2 0xE37 JUMP JUMPDEST PUSH2 0x883 DUP2 PUSH0 ADD MLOAD DUP4 PUSH2 0x982 JUMP JUMPDEST POP PUSH0 DUP2 PUSH1 0x20 ADD DUP2 DUP2 MSTORE POP POP SWAP2 SWAP1 POP JUMP JUMPDEST PUSH2 0x8A0 DUP3 PUSH1 0x3 DUP4 MLOAD PUSH2 0x9F8 JUMP JUMPDEST PUSH2 0x8B6 DUP2 DUP4 PUSH0 ADD MLOAD PUSH2 0xB98 SWAP1 SWAP2 SWAP1 PUSH4 0xFFFFFFFF AND JUMP JUMPDEST POP POP POP JUMP JUMPDEST PUSH2 0x8DC PUSH1 0x2 PUSH1 0x5 PUSH1 0x6 PUSH1 0xFF AND SWAP1 SHL OR DUP4 PUSH0 ADD MLOAD PUSH2 0xBB4 SWAP1 SWAP2 SWAP1 PUSH4 0xFFFFFFFF AND JUMP JUMPDEST POP PUSH2 0x906 DUP3 DUP3 PUSH1 0x40 MLOAD PUSH1 0x20 ADD PUSH2 0x8F2 SWAP2 SWAP1 PUSH2 0x16D7 JUMP JUMPDEST PUSH1 0x40 MLOAD PUSH1 0x20 DUP2 DUP4 SUB SUB DUP2 MSTORE SWAP1 PUSH1 0x40 MSTORE PUSH2 0x95A JUMP JUMPDEST POP POP JUMP JUMPDEST PUSH2 0x915 DUP2 PUSH1 0x4 PUSH2 0xC1B JUMP JUMPDEST PUSH1 0x1 DUP2 PUSH1 0x20 ADD DUP2 DUP2 MLOAD PUSH2 0x928 SWAP2 SWAP1 PUSH2 0x171D JUMP JUMPDEST SWAP2 POP DUP2 DUP2 MSTORE POP POP POP JUMP JUMPDEST PUSH2 0x93D DUP2 PUSH1 0x7 PUSH2 0xC1B JUMP JUMPDEST PUSH1 0x1 DUP2 PUSH1 0x20 ADD DUP2 DUP2 MLOAD PUSH2 0x950 SWAP2 SWAP1 PUSH2 0x1750 JUMP JUMPDEST SWAP2 POP DUP2 DUP2 MSTORE POP POP POP JUMP JUMPDEST PUSH2 0x967 DUP3 PUSH1 0x2 DUP4 MLOAD PUSH2 0x9F8 JUMP JUMPDEST PUSH2 0x97D DUP2 DUP4 PUSH0 ADD MLOAD PUSH2 0xB98 SWAP1 SWAP2 SWAP1 PUSH4 0xFFFFFFFF AND JUMP JUMPDEST POP POP POP JUMP JUMPDEST PUSH2 0x98A PUSH2 0xE56 JUMP JUMPDEST PUSH0 PUSH1 0x20 DUP4 PUSH2 0x998 SWAP2 SWAP1 PUSH2 0x17B0 JUMP JUMPDEST EQ PUSH2 0x9C4 JUMPI PUSH1 0x20 DUP3 PUSH2 0x9AA SWAP2 SWAP1 PUSH2 0x17B0 JUMP JUMPDEST PUSH1 0x20 PUSH2 0x9B6 SWAP2 SWAP1 PUSH2 0x1750 JUMP JUMPDEST DUP3 PUSH2 0x9C1 SWAP2 SWAP1 PUSH2 0x171D JUMP JUMPDEST SWAP2 POP JUMPDEST DUP2 DUP4 PUSH1 0x20 ADD DUP2 DUP2 MSTORE POP POP PUSH1 0x40 MLOAD DUP1 DUP5 MSTORE PUSH0 DUP2 MSTORE DUP3 DUP2 ADD PUSH1 0x20 ADD DUP2 DUP2 LT ISZERO PUSH2 0x9E9 JUMPI PUSH0 PUSH0 REVERT JUMPDEST DUP1 PUSH1 0x40 MSTORE POP POP DUP3 SWAP1 POP SWAP3 SWAP2 POP POP JUMP JUMPDEST PUSH1 0x17 DUP2 PUSH8 0xFFFFFFFFFFFFFFFF AND GT PUSH2 0xA32 JUMPI PUSH2 0xA2C DUP2 PUSH1 0x5 DUP5 PUSH1 0xFF AND SWAP1 SHL PUSH1 0xFF AND OR DUP5 PUSH0 ADD MLOAD PUSH2 0xBB4 SWAP1 SWAP2 SWAP1 PUSH4 0xFFFFFFFF AND JUMP JUMPDEST POP PUSH2 0xB93 JUMP JUMPDEST PUSH1 0xFF DUP2 PUSH8 0xFFFFFFFFFFFFFFFF AND GT PUSH2 0xA8E JUMPI PUSH2 0xA64 PUSH1 0x18 PUSH1 0x5 DUP5 PUSH1 0xFF AND SWAP1 SHL OR DUP5 PUSH0 ADD MLOAD PUSH2 0xBB4 SWAP1 SWAP2 SWAP1 PUSH4 0xFFFFFFFF AND JUMP JUMPDEST POP PUSH2 0xA88 DUP2 PUSH8 0xFFFFFFFFFFFFFFFF AND PUSH1 0x1 DUP6 PUSH0 ADD MLOAD PUSH2 0xC40 SWAP1 SWAP3 SWAP2 SWAP1 PUSH4 0xFFFFFFFF AND JUMP JUMPDEST POP PUSH2 0xB92 JUMP JUMPDEST PUSH2 0xFFFF DUP2 PUSH8 0xFFFFFFFFFFFFFFFF AND GT PUSH2 0xAEB JUMPI PUSH2 0xAC1 PUSH1 0x19 PUSH1 0x5 DUP5 PUSH1 0xFF AND SWAP1 SHL OR DUP5 PUSH0 ADD MLOAD PUSH2 0xBB4 SWAP1 SWAP2 SWAP1 PUSH4 0xFFFFFFFF AND JUMP JUMPDEST POP PUSH2 0xAE5 DUP2 PUSH8 0xFFFFFFFFFFFFFFFF AND PUSH1 0x2 DUP6 PUSH0 ADD MLOAD PUSH2 0xC40 SWAP1 SWAP3 SWAP2 SWAP1 PUSH4 0xFFFFFFFF AND JUMP JUMPDEST POP PUSH2 0xB91 JUMP JUMPDEST PUSH4 0xFFFFFFFF DUP2 PUSH8 0xFFFFFFFFFFFFFFFF AND GT PUSH2 0xB4A JUMPI PUSH2 0xB20 PUSH1 0x1A PUSH1 0x5 DUP5 PUSH1 0xFF AND SWAP1 SHL OR DUP5 PUSH0 ADD MLOAD PUSH2 0xBB4 SWAP1 SWAP2 SWAP1 PUSH4 0xFFFFFFFF AND JUMP JUMPDEST POP PUSH2 0xB44 DUP2 PUSH8 0xFFFFFFFFFFFFFFFF AND PUSH1 0x4 DUP6 PUSH0 ADD MLOAD PUSH2 0xC40 SWAP1 SWAP3 SWAP2 SWAP1 PUSH4 0xFFFFFFFF AND JUMP JUMPDEST POP PUSH2 0xB90 JUMP JUMPDEST PUSH2 0xB6A PUSH1 0x1B PUSH1 0x5 DUP5 PUSH1 0xFF AND SWAP1 SHL OR DUP5 PUSH0 ADD MLOAD PUSH2 0xBB4 SWAP1 SWAP2 SWAP1 PUSH4 0xFFFFFFFF AND JUMP JUMPDEST POP PUSH2 0xB8E DUP2 PUSH8 0xFFFFFFFFFFFFFFFF AND PUSH1 0x8 DUP6 PUSH0 ADD MLOAD PUSH2 0xC40 SWAP1 SWAP3 SWAP2 SWAP1 PUSH4 0xFFFFFFFF AND JUMP JUMPDEST POP JUMPDEST JUMPDEST JUMPDEST JUMPDEST POP POP POP JUMP JUMPDEST PUSH2 0xBA0 PUSH2 0xE56 JUMP JUMPDEST PUSH2 0xBAC DUP4 DUP4 DUP5 MLOAD PUSH2 0xCC9 JUMP JUMPDEST SWAP1 POP SWAP3 SWAP2 POP POP JUMP JUMPDEST PUSH2 0xBBC PUSH2 0xE56 JUMP JUMPDEST PUSH0 DUP4 PUSH0 ADD MLOAD MLOAD SWAP1 POP PUSH0 PUSH1 0x1 DUP3 PUSH2 0xBD2 SWAP2 SWAP1 PUSH2 0x171D JUMP JUMPDEST SWAP1 POP DUP5 PUSH1 0x20 ADD MLOAD DUP3 LT PUSH2 0xBF6 JUMPI PUSH2 0xBF5 DUP6 PUSH1 0x2 DUP4 PUSH2 0xBF0 SWAP2 SWAP1 PUSH2 0x17E0 JUMP JUMPDEST PUSH2 0xDA6 JUMP JUMPDEST JUMPDEST DUP5 MLOAD PUSH1 0x20 DUP4 DUP3 ADD ADD DUP6 DUP2 MSTORE8 DUP2 MLOAD DUP4 GT ISZERO PUSH2 0xC0E JUMPI DUP3 DUP3 MSTORE JUMPDEST POP POP DUP5 SWAP3 POP POP POP SWAP3 SWAP2 POP POP JUMP JUMPDEST PUSH2 0xC3B PUSH1 0x1F PUSH1 0x5 DUP4 PUSH1 0xFF AND SWAP1 SHL OR DUP4 PUSH0 ADD MLOAD PUSH2 0xBB4 SWAP1 SWAP2 SWAP1 PUSH4 0xFFFFFFFF AND JUMP JUMPDEST POP POP POP JUMP JUMPDEST PUSH2 0xC48 PUSH2 0xE56 JUMP JUMPDEST PUSH0 DUP5 PUSH0 ADD MLOAD MLOAD SWAP1 POP PUSH0 DUP2 DUP5 PUSH2 0xC5D SWAP2 SWAP1 PUSH2 0x171D JUMP JUMPDEST SWAP1 POP DUP6 PUSH1 0x20 ADD MLOAD DUP2 GT ISZERO PUSH2 0xC82 JUMPI PUSH2 0xC81 DUP7 PUSH1 0x2 DUP4 PUSH2 0xC7C SWAP2 SWAP1 PUSH2 0x17E0 JUMP JUMPDEST PUSH2 0xDA6 JUMP JUMPDEST JUMPDEST PUSH0 PUSH1 0x1 DUP6 PUSH2 0x100 PUSH2 0xC93 SWAP2 SWAP1 PUSH2 0x1950 JUMP JUMPDEST PUSH2 0xC9D SWAP2 SWAP1 PUSH2 0x1750 JUMP JUMPDEST SWAP1 POP DUP7 MLOAD DUP3 DUP2 ADD DUP8 DUP4 NOT DUP3 MLOAD AND OR DUP2 MSTORE DUP2 MLOAD DUP5 GT ISZERO PUSH2 0xCBA JUMPI DUP4 DUP3 MSTORE JUMPDEST POP POP DUP7 SWAP4 POP POP POP POP SWAP4 SWAP3 POP POP POP JUMP JUMPDEST PUSH2 0xCD1 PUSH2 0xE56 JUMP JUMPDEST DUP3 MLOAD DUP3 GT ISZERO PUSH2 0xCDE JUMPI PUSH0 PUSH0 REVERT JUMPDEST PUSH0 DUP5 PUSH0 ADD MLOAD MLOAD SWAP1 POP PUSH0 DUP4 DUP3 PUSH2 0xCF3 SWAP2 SWAP1 PUSH2 0x171D JUMP JUMPDEST SWAP1 POP DUP6 PUSH1 0x20 ADD MLOAD DUP2 GT ISZERO PUSH2 0xD18 JUMPI PUSH2 0xD17 DUP7 PUSH1 0x2 DUP4 PUSH2 0xD12 SWAP2 SWAP1 PUSH2 0x17E0 JUMP JUMPDEST PUSH2 0xDA6 JUMP JUMPDEST JUMPDEST PUSH0 PUSH0 DUP8 MLOAD DUP1 MLOAD DUP6 PUSH1 0x20 DUP4 ADD ADD SWAP4 POP DUP1 DUP6 GT ISZERO PUSH2 0xD32 JUMPI DUP5 DUP3 MSTORE JUMPDEST PUSH1 0x20 DUP10 ADD SWAP3 POP POP POP JUMPDEST PUSH1 0x20 DUP7 LT PUSH2 0xD79 JUMPI DUP1 MLOAD DUP3 MSTORE PUSH1 0x20 DUP3 PUSH2 0xD54 SWAP2 SWAP1 PUSH2 0x171D JUMP JUMPDEST SWAP2 POP PUSH1 0x20 DUP2 PUSH2 0xD63 SWAP2 SWAP1 PUSH2 0x171D JUMP JUMPDEST SWAP1 POP PUSH1 0x20 DUP7 PUSH2 0xD72 SWAP2 SWAP1 PUSH2 0x1750 JUMP JUMPDEST SWAP6 POP PUSH2 0xD3B JUMP JUMPDEST PUSH0 PUSH1 0x1 DUP8 PUSH1 0x20 SUB PUSH2 0x100 EXP SUB SWAP1 POP DUP1 NOT DUP3 MLOAD AND DUP2 DUP5 MLOAD AND DUP2 DUP2 OR DUP6 MSTORE POP POP POP DUP8 SWAP5 POP POP POP POP POP SWAP4 SWAP3 POP POP POP JUMP JUMPDEST PUSH0 DUP3 PUSH0 ADD MLOAD SWAP1 POP PUSH2 0xDB7 DUP4 DUP4 PUSH2 0x982 JUMP JUMPDEST POP PUSH2 0xDC2 DUP4 DUP3 PUSH2 0xB98 JUMP JUMPDEST POP POP POP POP JUMP JUMPDEST PUSH1 0x40 MLOAD DUP1 PUSH1 0xE0 ADD PUSH1 0x40 MSTORE DUP1 PUSH0 PUSH1 0x2 DUP2 GT ISZERO PUSH2 0xDE6 JUMPI PUSH2 0xDE5 PUSH2 0x154B JUMP JUMPDEST JUMPDEST DUP2 MSTORE PUSH1 0x20 ADD PUSH0 PUSH1 0x2 DUP2 GT ISZERO PUSH2 0xDFE JUMPI PUSH2 0xDFD PUSH2 0x154B JUMP JUMPDEST JUMPDEST DUP2 MSTORE PUSH1 0x20 ADD PUSH0 PUSH0 DUP2 GT ISZERO PUSH2 0xE15 JUMPI PUSH2 0xE14 PUSH2 0x154B JUMP JUMPDEST JUMPDEST DUP2 MSTORE PUSH1 0x20 ADD PUSH1 0x60 DUP2 MSTORE PUSH1 0x20 ADD PUSH1 0x60 DUP2 MSTORE PUSH1 0x20 ADD PUSH1 0x60 DUP2 MSTORE PUSH1 0x20 ADD PUSH1 0x60 DUP2 MSTORE POP SWAP1 JUMP JUMPDEST PUSH1 0x40 MLOAD DUP1 PUSH1 0x40 ADD PUSH1 0x40 MSTORE DUP1 PUSH2 0xE4A PUSH2 0xE56 JUMP JUMPDEST DUP2 MSTORE PUSH1 0x20 ADD PUSH0 DUP2 MSTORE POP SWAP1 JUMP JUMPDEST PUSH1 0x40 MLOAD DUP1 PUSH1 0x40 ADD PUSH1 0x40 MSTORE DUP1 PUSH1 0x60 DUP2 MSTORE PUSH1 0x20 ADD PUSH0 DUP2 MSTORE POP SWAP1 JUMP JUMPDEST PUSH0 PUSH1 0x40 MLOAD SWAP1 POP SWAP1 JUMP JUMPDEST PUSH0 PUSH0 REVERT JUMPDEST PUSH0 PUSH0 REVERT JUMPDEST PUSH0 DUP2 SWAP1 POP SWAP2 SWAP1 POP JUMP JUMPDEST PUSH2 0xE92 DUP2 PUSH2 0xE80 JUMP JUMPDEST DUP2 EQ PUSH2 0xE9C JUMPI PUSH0 PUSH0 REVERT JUMPDEST POP JUMP JUMPDEST PUSH0 DUP2 CALLDATALOAD SWAP1 POP PUSH2 0xEAD DUP2 PUSH2 0xE89 JUMP JUMPDEST SWAP3 SWAP2 POP POP JUMP JUMPDEST PUSH0 PUSH0 REVERT JUMPDEST PUSH0 PUSH0 REVERT JUMPDEST PUSH0 PUSH1 0x1F NOT PUSH1 0x1F DUP4 ADD AND SWAP1 POP SWAP2 SWAP1 POP JUMP JUMPDEST PUSH32 0x4E487B7100000000000000000000000000000000000000000000000000000000 PUSH0 MSTORE PUSH1 0x41 PUSH1 0x4 MSTORE PUSH1 0x24 PUSH0 REVERT JUMPDEST PUSH2 0xF01 DUP3 PUSH2 0xEBB JUMP JUMPDEST DUP2 ADD DUP2 DUP2 LT PUSH8 0xFFFFFFFFFFFFFFFF DUP3 GT OR ISZERO PUSH2 0xF20 JUMPI PUSH2 0xF1F PUSH2 0xECB JUMP JUMPDEST JUMPDEST DUP1 PUSH1 0x40 MSTORE POP POP POP JUMP JUMPDEST PUSH0 PUSH2 0xF32 PUSH2 0xE6F JUMP JUMPDEST SWAP1 POP PUSH2 0xF3E DUP3 DUP3 PUSH2 0xEF8 JUMP JUMPDEST SWAP2 SWAP1 POP JUMP JUMPDEST PUSH0 PUSH8 0xFFFFFFFFFFFFFFFF DUP3 GT ISZERO PUSH2 0xF5D JUMPI PUSH2 0xF5C PUSH2 0xECB JUMP JUMPDEST JUMPDEST PUSH2 0xF66 DUP3 PUSH2 0xEBB JUMP JUMPDEST SWAP1 POP PUSH1 0x20 DUP2 ADD SWAP1 POP SWAP2 SWAP1 POP JUMP JUMPDEST DUP3 DUP2 DUP4 CALLDATACOPY PUSH0 DUP4 DUP4 ADD MSTORE POP POP POP JUMP JUMPDEST PUSH0 PUSH2 0xF93 PUSH2 0xF8E DUP5 PUSH2 0xF43 JUMP JUMPDEST PUSH2 0xF29 JUMP JUMPDEST SWAP1 POP DUP3 DUP2 MSTORE PUSH1 0x20 DUP2 ADD DUP5 DUP5 DUP5 ADD GT ISZERO PUSH2 0xFAF JUMPI PUSH2 0xFAE PUSH2 0xEB7 JUMP JUMPDEST JUMPDEST PUSH2 0xFBA DUP5 DUP3 DUP6 PUSH2 0xF73 JUMP JUMPDEST POP SWAP4 SWAP3 POP POP POP JUMP JUMPDEST PUSH0 DUP3 PUSH1 0x1F DUP4 ADD SLT PUSH2 0xFD6 JUMPI PUSH2 0xFD5 PUSH2 0xEB3 JUMP JUMPDEST JUMPDEST DUP2 CALLDATALOAD PUSH2 0xFE6 DUP5 DUP3 PUSH1 0x20 DUP7 ADD PUSH2 0xF81 JUMP JUMPDEST SWAP2 POP POP SWAP3 SWAP2 POP POP JUMP JUMPDEST PUSH0 PUSH0 PUSH0 PUSH1 0x60 DUP5 DUP7 SUB SLT ISZERO PUSH2 0x1006 JUMPI PUSH2 0x1005 PUSH2 0xE78 JUMP JUMPDEST JUMPDEST PUSH0 PUSH2 0x1013 DUP7 DUP3 DUP8 ADD PUSH2 0xE9F JUMP JUMPDEST SWAP4 POP POP PUSH1 0x20 DUP5 ADD CALLDATALOAD PUSH8 0xFFFFFFFFFFFFFFFF DUP2 GT ISZERO PUSH2 0x1034 JUMPI PUSH2 0x1033 PUSH2 0xE7C JUMP JUMPDEST JUMPDEST PUSH2 0x1040 DUP7 DUP3 DUP8 ADD PUSH2 0xFC2 JUMP JUMPDEST SWAP3 POP POP PUSH1 0x40 DUP5 ADD CALLDATALOAD PUSH8 0xFFFFFFFFFFFFFFFF DUP2 GT ISZERO PUSH2 0x1061 JUMPI PUSH2 0x1060 PUSH2 0xE7C JUMP JUMPDEST JUMPDEST PUSH2 0x106D DUP7 DUP3 DUP8 ADD PUSH2 0xFC2 JUMP JUMPDEST SWAP2 POP POP SWAP3 POP SWAP3 POP SWAP3 JUMP JUMPDEST PUSH0 DUP2 MLOAD SWAP1 POP SWAP2 SWAP1 POP JUMP JUMPDEST PUSH0 DUP3 DUP3 MSTORE PUSH1 0x20 DUP3 ADD SWAP1 POP SWAP3 SWAP2 POP POP JUMP JUMPDEST DUP3 DUP2 DUP4 MCOPY PUSH0 DUP4 DUP4 ADD MSTORE POP POP POP JUMP JUMPDEST PUSH0 PUSH2 0x10A9 DUP3 PUSH2 0x1077 JUMP JUMPDEST PUSH2 0x10B3 DUP2 DUP6 PUSH2 0x1081 JUMP JUMPDEST SWAP4 POP PUSH2 0x10C3 DUP2 DUP6 PUSH1 0x20 DUP7 ADD PUSH2 0x1091 JUMP JUMPDEST PUSH2 0x10CC DUP2 PUSH2 0xEBB JUMP JUMPDEST DUP5 ADD SWAP2 POP POP SWAP3 SWAP2 POP POP JUMP JUMPDEST PUSH0 PUSH1 0x20 DUP3 ADD SWAP1 POP DUP2 DUP2 SUB PUSH0 DUP4 ADD MSTORE PUSH2 0x10EF DUP2 DUP5 PUSH2 0x109F JUMP JUMPDEST SWAP1 POP SWAP3 SWAP2 POP POP JUMP JUMPDEST PUSH0 PUSH0 REVERT JUMPDEST PUSH0 PUSH0 REVERT JUMPDEST PUSH0 PUSH0 DUP4 PUSH1 0x1F DUP5 ADD SLT PUSH2 0x1114 JUMPI PUSH2 0x1113 PUSH2 0xEB3 JUMP JUMPDEST JUMPDEST DUP3 CALLDATALOAD SWAP1 POP PUSH8 0xFFFFFFFFFFFFFFFF DUP2 GT ISZERO PUSH2 0x1131 JUMPI PUSH2 0x1130 PUSH2 0x10F7 JUMP JUMPDEST JUMPDEST PUSH1 0x20 DUP4 ADD SWAP2 POP DUP4 PUSH1 0x1 DUP3 MUL DUP4 ADD GT ISZERO PUSH2 0x114D JUMPI PUSH2 0x114C PUSH2 0x10FB JUMP JUMPDEST JUMPDEST SWAP3 POP SWAP3 SWAP1 POP JUMP JUMPDEST PUSH0 PUSH8 0xFFFFFFFFFFFFFFFF DUP3 AND SWAP1 POP SWAP2 SWAP1 POP JUMP JUMPDEST PUSH2 0x1170 DUP2 PUSH2 0x1154 JUMP JUMPDEST DUP2 EQ PUSH2 0x117A JUMPI PUSH0 PUSH0 REVERT JUMPDEST POP JUMP JUMPDEST PUSH0 DUP2 CALLDATALOAD SWAP1 POP PUSH2 0x118B DUP2 PUSH2 0x1167 JUMP JUMPDEST SWAP3 SWAP2 POP POP JUMP JUMPDEST PUSH0 PUSH4 0xFFFFFFFF DUP3 AND SWAP1 POP SWAP2 SWAP1 POP JUMP JUMPDEST PUSH2 0x11A9 DUP2 PUSH2 0x1191 JUMP JUMPDEST DUP2 EQ PUSH2 0x11B3 JUMPI PUSH0 PUSH0 REVERT JUMPDEST POP JUMP JUMPDEST PUSH0 DUP2 CALLDATALOAD SWAP1 POP PUSH2 0x11C4 DUP2 PUSH2 0x11A0 JUMP JUMPDEST SWAP3 SWAP2 POP POP JUMP JUMPDEST PUSH0 PUSH0 PUSH0 PUSH0 PUSH0 PUSH1 0x80 DUP7 DUP9 SUB SLT ISZERO PUSH2 0x11E3 JUMPI PUSH2 0x11E2 PUSH2 0xE78 JUMP JUMPDEST JUMPDEST PUSH0 DUP7 ADD CALLDATALOAD PUSH8 0xFFFFFFFFFFFFFFFF DUP2 GT ISZERO PUSH2 0x1200 JUMPI PUSH2 0x11FF PUSH2 0xE7C JUMP JUMPDEST JUMPDEST PUSH2 0x120C DUP9 DUP3 DUP10 ADD PUSH2 0x10FF JUMP JUMPDEST SWAP6 POP SWAP6 POP POP PUSH1 0x20 PUSH2 0x121F DUP9 DUP3 DUP10 ADD PUSH2 0x117D JUMP JUMPDEST SWAP4 POP POP PUSH1 0x40 PUSH2 0x1230 DUP9 DUP3 DUP10 ADD PUSH2 0x11B6 JUMP JUMPDEST SWAP3 POP POP PUSH1 0x60 PUSH2 0x1241 DUP9 DUP3 DUP10 ADD PUSH2 0xE9F JUMP JUMPDEST SWAP2 POP POP SWAP3 SWAP6 POP SWAP3 SWAP6 SWAP1 SWAP4 POP JUMP JUMPDEST PUSH2 0x1257 DUP2 PUSH2 0xE80 JUMP JUMPDEST DUP3 MSTORE POP POP JUMP JUMPDEST PUSH0 PUSH1 0x20 DUP3 ADD SWAP1 POP PUSH2 0x1270 PUSH0 DUP4 ADD DUP5 PUSH2 0x124E JUMP JUMPDEST SWAP3 SWAP2 POP POP JUMP JUMPDEST PUSH32 0x4E487B7100000000000000000000000000000000000000000000000000000000 PUSH0 MSTORE PUSH1 0x22 PUSH1 0x4 MSTORE PUSH1 0x24 PUSH0 REVERT JUMPDEST PUSH0 PUSH1 0x2 DUP3 DIV SWAP1 POP PUSH1 0x1 DUP3 AND DUP1 PUSH2 0x12BA JUMPI PUSH1 0x7F DUP3 AND SWAP2 POP JUMPDEST PUSH1 0x20 DUP3 LT DUP2 SUB PUSH2 0x12CD JUMPI PUSH2 0x12CC PUSH2 0x1276 JUMP JUMPDEST JUMPDEST POP SWAP2 SWAP1 POP JUMP JUMPDEST PUSH0 DUP2 SWAP1 POP DUP2 PUSH0 MSTORE PUSH1 0x20 PUSH0 KECCAK256 SWAP1 POP SWAP2 SWAP1 POP JUMP JUMPDEST PUSH0 PUSH1 0x20 PUSH1 0x1F DUP4 ADD DIV SWAP1 POP SWAP2 SWAP1 POP JUMP JUMPDEST PUSH0 DUP3 DUP3 SHL SWAP1 POP SWAP3 SWAP2 POP POP JUMP JUMPDEST PUSH0 PUSH1 0x8 DUP4 MUL PUSH2 0x132F PUSH32 0xFFFFFFFFFFFFFFFFFFFFFFFFFFFFFFFFFFFFFFFFFFFFFFFFFFFFFFFFFFFFFFFF DUP3 PUSH2 0x12F4 JUMP JUMPDEST PUSH2 0x1339 DUP7 DUP4 PUSH2 0x12F4 JUMP JUMPDEST SWAP6 POP DUP1 NOT DUP5 AND SWAP4 POP DUP1 DUP7 AND DUP5 OR SWAP3 POP POP POP SWAP4 SWAP3 POP POP POP JUMP JUMPDEST PUSH0 DUP2 SWAP1 POP SWAP2 SWAP1 POP JUMP JUMPDEST PUSH0 DUP2 SWAP1 POP SWAP2 SWAP1 POP JUMP JUMPDEST PUSH0 PUSH2 0x137D PUSH2 0x1378 PUSH2 0x1373 DUP5 PUSH2 0x1351 JUMP JUMPDEST PUSH2 0x135A JUMP JUMPDEST PUSH2 0x1351 JUMP JUMPDEST SWAP1 POP SWAP2 SWAP1 POP JUMP JUMPDEST PUSH0 DUP2 SWAP1 POP SWAP2 SWAP1 POP JUMP JUMPDEST PUSH2 0x1396 DUP4 PUSH2 0x1363 JUMP JUMPDEST PUSH2 0x13AA PUSH2 0x13A2 DUP3 PUSH2 0x1384 JUMP JUMPDEST DUP5 DUP5 SLOAD PUSH2 0x1300 JUMP JUMPDEST DUP3 SSTORE POP POP POP POP JUMP JUMPDEST PUSH0 PUSH0 SWAP1 POP SWAP1 JUMP JUMPDEST PUSH2 0x13C1 PUSH2 0x13B2 JUMP JUMPDEST PUSH2 0x13CC DUP2 DUP5 DUP5 PUSH2 0x138D JUMP JUMPDEST POP POP POP JUMP JUMPDEST JUMPDEST DUP2 DUP2 LT ISZERO PUSH2 0x13EF JUMPI PUSH2 0x13E4 PUSH0 DUP3 PUSH2 0x13B9 JUMP JUMPDEST PUSH1 0x1 DUP2 ADD SWAP1 POP PUSH2 0x13D2 JUMP JUMPDEST POP POP JUMP JUMPDEST PUSH1 0x1F DUP3 GT ISZERO PUSH2 0x1434 JUMPI PUSH2 0x1405 DUP2 PUSH2 0x12D3 JUMP JUMPDEST PUSH2 0x140E DUP5 PUSH2 0x12E5 JUMP JUMPDEST DUP2 ADD PUSH1 0x20 DUP6 LT ISZERO PUSH2 0x141D JUMPI DUP2 SWAP1 POP JUMPDEST PUSH2 0x1431 PUSH2 0x1429 DUP6 PUSH2 0x12E5 JUMP JUMPDEST DUP4 ADD DUP3 PUSH2 0x13D1 JUMP JUMPDEST POP POP JUMPDEST POP POP POP JUMP JUMPDEST PUSH0 DUP3 DUP3 SHR SWAP1 POP SWAP3 SWAP2 POP POP JUMP JUMPDEST PUSH0 PUSH2 0x1454 PUSH0 NOT DUP5 PUSH1 0x8 MUL PUSH2 0x1439 JUMP JUMPDEST NOT DUP1 DUP4 AND SWAP2 POP POP SWAP3 SWAP2 POP POP JUMP JUMPDEST PUSH0 PUSH2 0x146C DUP4 DUP4 PUSH2 0x1445 JUMP JUMPDEST SWAP2 POP DUP3 PUSH1 0x2 MUL DUP3 OR SWAP1 POP SWAP3 SWAP2 POP POP JUMP JUMPDEST PUSH2 0x1485 DUP3 PUSH2 0x1077 JUMP JUMPDEST PUSH8 0xFFFFFFFFFFFFFFFF DUP2 GT ISZERO PUSH2 0x149E JUMPI PUSH2 0x149D PUSH2 0xECB JUMP JUMPDEST JUMPDEST PUSH2 0x14A8 DUP3 SLOAD PUSH2 0x12A3 JUMP JUMPDEST PUSH2 0x14B3 DUP3 DUP3 DUP6 PUSH2 0x13F3 JUMP JUMPDEST PUSH0 PUSH1 0x20 SWAP1 POP PUSH1 0x1F DUP4 GT PUSH1 0x1 DUP2 EQ PUSH2 0x14E4 JUMPI PUSH0 DUP5 ISZERO PUSH2 0x14D2 JUMPI DUP3 DUP8 ADD MLOAD SWAP1 POP JUMPDEST PUSH2 0x14DC DUP6 DUP3 PUSH2 0x1461 JUMP JUMPDEST DUP7 SSTORE POP PUSH2 0x1543 JUMP JUMPDEST PUSH1 0x1F NOT DUP5 AND PUSH2 0x14F2 DUP7 PUSH2 0x12D3 JUMP JUMPDEST PUSH0 JUMPDEST DUP3 DUP2 LT ISZERO PUSH2 0x1519 JUMPI DUP5 DUP10 ADD MLOAD DUP3 SSTORE PUSH1 0x1 DUP3 ADD SWAP2 POP PUSH1 0x20 DUP6 ADD SWAP5 POP PUSH1 0x20 DUP2 ADD SWAP1 POP PUSH2 0x14F4 JUMP JUMPDEST DUP7 DUP4 LT ISZERO PUSH2 0x1536 JUMPI DUP5 DUP10 ADD MLOAD PUSH2 0x1532 PUSH1 0x1F DUP10 AND DUP3 PUSH2 0x1445 JUMP JUMPDEST DUP4 SSTORE POP JUMPDEST PUSH1 0x1 PUSH1 0x2 DUP9 MUL ADD DUP9 SSTORE POP POP POP JUMPDEST POP POP POP POP POP POP JUMP JUMPDEST PUSH32 0x4E487B7100000000000000000000000000000000000000000000000000000000 PUSH0 MSTORE PUSH1 0x21 PUSH1 0x4 MSTORE PUSH1 0x24 PUSH0 REVERT JUMPDEST PUSH32 0x4E487B7100000000000000000000000000000000000000000000000000000000 PUSH0 MSTORE PUSH1 0x32 PUSH1 0x4 MSTORE PUSH1 0x24 PUSH0 REVERT JUMPDEST PUSH2 0x15AE DUP2 PUSH2 0x1154 JUMP JUMPDEST DUP3 MSTORE POP POP JUMP JUMPDEST PUSH0 DUP2 MLOAD SWAP1 POP SWAP2 SWAP1 POP JUMP JUMPDEST PUSH0 DUP3 DUP3 MSTORE PUSH1 0x20 DUP3 ADD SWAP1 POP SWAP3 SWAP2 POP POP JUMP JUMPDEST PUSH0 PUSH2 0x15D8 DUP3 PUSH2 0x15B4 JUMP JUMPDEST PUSH2 0x15E2 DUP2 DUP6 PUSH2 0x15BE JUMP JUMPDEST SWAP4 POP PUSH2 0x15F2 DUP2 DUP6 PUSH1 0x20 DUP7 ADD PUSH2 0x1091 JUMP JUMPDEST PUSH2 0x15FB DUP2 PUSH2 0xEBB JUMP JUMPDEST DUP5 ADD SWAP2 POP POP SWAP3 SWAP2 POP POP JUMP JUMPDEST PUSH0 PUSH2 0xFFFF DUP3 AND SWAP1 POP SWAP2 SWAP1 POP JUMP JUMPDEST PUSH2 0x161C DUP2 PUSH2 0x1606 JUMP JUMPDEST DUP3 MSTORE POP POP JUMP JUMPDEST PUSH2 0x162B DUP2 PUSH2 0x1191 JUMP JUMPDEST DUP3 MSTORE POP POP JUMP JUMPDEST PUSH0 PUSH1 0xA0 DUP3 ADD SWAP1 POP PUSH2 0x1644 PUSH0 DUP4 ADD DUP9 PUSH2 0x15A5 JUMP JUMPDEST DUP2 DUP2 SUB PUSH1 0x20 DUP4 ADD MSTORE PUSH2 0x1656 DUP2 DUP8 PUSH2 0x15CE JUMP JUMPDEST SWAP1 POP PUSH2 0x1665 PUSH1 0x40 DUP4 ADD DUP7 PUSH2 0x1613 JUMP JUMPDEST PUSH2 0x1672 PUSH1 0x60 DUP4 ADD DUP6 PUSH2 0x1622 JUMP JUMPDEST PUSH2 0x167F PUSH1 0x80 DUP4 ADD DUP5 PUSH2 0x124E JUMP JUMPDEST SWAP7 SWAP6 POP POP POP POP POP POP JUMP JUMPDEST PUSH0 DUP2 MLOAD SWAP1 POP PUSH2 0x1697 DUP2 PUSH2 0xE89 JUMP JUMPDEST SWAP3 SWAP2 POP POP JUMP JUMPDEST PUSH0 PUSH1 0x20 DUP3 DUP5 SUB SLT ISZERO PUSH2 0x16B2 JUMPI PUSH2 0x16B1 PUSH2 0xE78 JUMP JUMPDEST JUMPDEST PUSH0 PUSH2 0x16BF DUP5 DUP3 DUP6 ADD PUSH2 0x1689 JUMP JUMPDEST SWAP2 POP POP SWAP3 SWAP2 POP POP JUMP JUMPDEST PUSH2 0x16D1 DUP2 PUSH2 0x1351 JUMP JUMPDEST DUP3 MSTORE POP POP JUMP JUMPDEST PUSH0 PUSH1 0x20 DUP3 ADD SWAP1 POP PUSH2 0x16EA PUSH0 DUP4 ADD DUP5 PUSH2 0x16C8 JUMP JUMPDEST SWAP3 SWAP2 POP POP JUMP JUMPDEST PUSH32 0x4E487B7100000000000000000000000000000000000000000000000000000000 PUSH0 MSTORE PUSH1 0x11 PUSH1 0x4 MSTORE PUSH1 0x24 PUSH0 REVERT JUMPDEST PUSH0 PUSH2 0x1727 DUP3 PUSH2 0x1351 JUMP JUMPDEST SWAP2 POP PUSH2 0x1732 DUP4 PUSH2 0x1351 JUMP JUMPDEST SWAP3 POP DUP3 DUP3 ADD SWAP1 POP DUP1 DUP3 GT ISZERO PUSH2 0x174A JUMPI PUSH2 0x1749 PUSH2 0x16F0 JUMP JUMPDEST JUMPDEST SWAP3 SWAP2 POP POP JUMP JUMPDEST PUSH0 PUSH2 0x175A DUP3 PUSH2 0x1351 JUMP JUMPDEST SWAP2 POP PUSH2 0x1765 DUP4 PUSH2 0x1351 JUMP JUMPDEST SWAP3 POP DUP3 DUP3 SUB SWAP1 POP DUP2 DUP2 GT ISZERO PUSH2 0x177D JUMPI PUSH2 0x177C PUSH2 0x16F0 JUMP JUMPDEST JUMPDEST SWAP3 SWAP2 POP POP JUMP JUMPDEST PUSH32 0x4E487B7100000000000000000000000000000000000000000000000000000000 PUSH0 MSTORE PUSH1 0x12 PUSH1 0x4 MSTORE PUSH1 0x24 PUSH0 REVERT JUMPDEST PUSH0 PUSH2 0x17BA DUP3 PUSH2 0x1351 JUMP JUMPDEST SWAP2 POP PUSH2 0x17C5 DUP4 PUSH2 0x1351 JUMP JUMPDEST SWAP3 POP DUP3 PUSH2 0x17D5 JUMPI PUSH2 0x17D4 PUSH2 0x1783 JUMP JUMPDEST JUMPDEST DUP3 DUP3 MOD SWAP1 POP SWAP3 SWAP2 POP POP JUMP JUMPDEST PUSH0 PUSH2 0x17EA DUP3 PUSH2 0x1351 JUMP JUMPDEST SWAP2 POP PUSH2 0x17F5 DUP4 PUSH2 0x1351 JUMP JUMPDEST SWAP3 POP DUP3 DUP3 MUL PUSH2 0x1803 DUP2 PUSH2 0x1351 JUMP JUMPDEST SWAP2 POP DUP3 DUP3 DIV DUP5 EQ DUP4 ISZERO OR PUSH2 0x181A JUMPI PUSH2 0x1819 PUSH2 0x16F0 JUMP JUMPDEST JUMPDEST POP SWAP3 SWAP2 POP POP JUMP JUMPDEST PUSH0 DUP2 PUSH1 0x1 SHR SWAP1 POP SWAP2 SWAP1 POP JUMP JUMPDEST PUSH0 PUSH0 DUP3 SWAP2 POP DUP4 SWAP1 POP JUMPDEST PUSH1 0x1 DUP6 GT ISZERO PUSH2 0x1876 JUMPI DUP1 DUP7 DIV DUP2 GT ISZERO PUSH2 0x1852 JUMPI PUSH2 0x1851 PUSH2 0x16F0 JUMP JUMPDEST JUMPDEST PUSH1 0x1 DUP6 AND ISZERO PUSH2 0x1861 JUMPI DUP1 DUP3 MUL SWAP2 POP JUMPDEST DUP1 DUP2 MUL SWAP1 POP PUSH2 0x186F DUP6 PUSH2 0x1821 JUMP JUMPDEST SWAP5 POP PUSH2 0x1836 JUMP JUMPDEST SWAP5 POP SWAP5 SWAP3 POP POP POP JUMP JUMPDEST PUSH0 DUP3 PUSH2 0x188E JUMPI PUSH1 0x1 SWAP1 POP PUSH2 0x1949 JUMP JUMPDEST DUP2 PUSH2 0x189B JUMPI PUSH0 SWAP1 POP PUSH2 0x1949 JUMP JUMPDEST DUP2 PUSH1 0x1 DUP2 EQ PUSH2 0x18B1 JUMPI PUSH1 0x2 DUP2 EQ PUSH2 0x18BB JUMPI PUSH2 0x18EA JUMP JUMPDEST PUSH1 0x1 SWAP2 POP POP PUSH2 0x1949 JUMP JUMPDEST PUSH1 0xFF DUP5 GT ISZERO PUSH2 0x18CD JUMPI PUSH2 0x18CC PUSH2 0x16F0 JUMP JUMPDEST JUMPDEST DUP4 PUSH1 0x2 EXP SWAP2 POP DUP5 DUP3 GT ISZERO PUSH2 0x18E4 JUMPI PUSH2 0x18E3 PUSH2 0x16F0 JUMP JUMPDEST JUMPDEST POP PUSH2 0x1949 JUMP JUMPDEST POP PUSH1 0x20 DUP4 LT PUSH2 0x133 DUP4 LT AND PUSH1 0x4E DUP5 LT PUSH1 0xB DUP5 LT AND OR ISZERO PUSH2 0x191F JUMPI DUP3 DUP3 EXP SWAP1 POP DUP4 DUP2 GT ISZERO PUSH2 0x191A JUMPI PUSH2 0x1919 PUSH2 0x16F0 JUMP JUMPDEST JUMPDEST PUSH2 0x1949 JUMP JUMPDEST PUSH2 0x192C DUP5 DUP5 DUP5 PUSH1 0x1 PUSH2 0x182D JUMP JUMPDEST SWAP3 POP SWAP1 POP DUP2 DUP5 DIV DUP2 GT ISZERO PUSH2 0x1943 JUMPI PUSH2 0x1942 PUSH2 0x16F0 JUMP JUMPDEST JUMPDEST DUP2 DUP2 MUL SWAP1 POP JUMPDEST SWAP4 SWAP3 POP POP POP JUMP JUMPDEST PUSH0 PUSH2 0x195A DUP3 PUSH2 0x1351 JUMP JUMPDEST SWAP2 POP PUSH2 0x1965 DUP4 PUSH2 0x1351 JUMP JUMPDEST SWAP3 POP PUSH2 0x1992 PUSH32 0xFFFFFFFFFFFFFFFFFFFFFFFFFFFFFFFFFFFFFFFFFFFFFFFFFFFFFFFFFFFFFFFF DUP5 DUP5 PUSH2 0x187F JUMP JUMPDEST SWAP1 POP SWAP3 SWAP2 POP POP JUMP INVALID LOG2 PUSH5 0x6970667358 0x22 SLT KECCAK256 JUMPDEST NUMBER 0xD3 MSTORE SWAP16 EXTCODESIZE BYTE POP PUSH20 0x4BCEEA8A0CE32794C4AD9AF6E4606AB2FF33C5B4 0xD4 DATALOADN 0xC464 PUSH20 0x6F6C634300081F00330000000000000000000000 "
				},
				"gasEstimates": {
					"creation": {
						"codeDepositCost": "1321600",
						"executionCost": "infinite",
						"totalCost": "infinite"
					},
					"external": {
						"handleOracleFulfillment(bytes32,bytes,bytes)": "infinite",
						"lastBeerName()": "infinite",
						"lastRequestId()": "2469",
						"requestBeerData(string,uint64,uint32,bytes32)": "infinite"
					},
					"internal": {
						"fulfillRequest(bytes32,bytes memory,bytes memory)": "infinite"
					}
				},
				"methodIdentifiers": {
					"handleOracleFulfillment(bytes32,bytes,bytes)": "0ca76175",
					"lastBeerName()": "5e63aa46",
					"lastRequestId()": "fc2a88c3",
					"requestBeerData(string,uint64,uint32,bytes32)": "e8eda4c8"
				}
			},
			"storageLayout": {
				"storage": [
					{
						"astId": 2081,
						"contract": "contracts/ChainLInkFunctions.sol:BeerConsumer",
						"label": "lastBeerName",
						"offset": 0,
						"slot": "0",
						"type": "t_string_storage"
					},
					{
						"astId": 2083,
						"contract": "contracts/ChainLInkFunctions.sol:BeerConsumer",
						"label": "lastRequestId",
						"offset": 0,
						"slot": "1",
						"type": "t_bytes32"
					}
				],
				"types": {
					"t_bytes32": {
						"encoding": "inplace",
						"label": "bytes32",
						"numberOfBytes": "32"
					},
					"t_string_storage": {
						"encoding": "bytes",
						"label": "string",
						"numberOfBytes": "32"
					}
				}
			},
			"userdoc": {
				"kind": "user",
				"methods": {
					"handleOracleFulfillment(bytes32,bytes,bytes)": {
						"notice": "Chainlink Functions response handler called by the Functions Router during fullilment from the designated transmitter node in an OCR round."
					}
				},
				"version": 1
			}
		}
	}
}